{
	"src/ArbExecutor.sol": {
		"ArbExecutor": {
			"abi": [
				{
					"inputs": [
						{
							"internalType": "address",
							"name": "owner_",
							"type": "address"
						},
						{
							"internalType": "address",
							"name": "balancerVault_",
							"type": "address"
						},
						{
							"internalType": "address",
							"name": "uniswapV3Factory_",
							"type": "address"
						},
						{
							"internalType": "address",
							"name": "sushiV3Factory_",
							"type": "address"
						},
						{
							"internalType": "address",
							"name": "quickswapV3Factory_",
							"type": "address"
						},
						{
							"internalType": "address",
							"name": "kyberElasticFactory_",
							"type": "address"
						}
					],
					"stateMutability": "nonpayable",
					"type": "constructor"
				},
				{
					"inputs": [
						{
							"internalType": "address",
							"name": "token",
							"type": "address"
						},
						{
							"internalType": "address",
							"name": "spender",
							"type": "address"
						}
					],
					"name": "ApproveFailed",
					"type": "error"
				},
				{
					"inputs": [],
					"name": "CallbackOnly",
					"type": "error"
				},
				{
					"inputs": [],
					"name": "DeadlineExpired",
					"type": "error"
				},
				{
					"inputs": [],
					"name": "EmptyRoute",
					"type": "error"
				},
				{
					"inputs": [
						{
							"internalType": "uint256",
							"name": "index",
							"type": "uint256"
						},
						{
							"internalType": "address",
							"name": "target",
							"type": "address"
						},
						{
							"internalType": "bytes",
							"name": "reason",
							"type": "bytes"
						}
					],
					"name": "ExternalCallFailed",
					"type": "error"
				},
				{
					"inputs": [],
					"name": "FlashLoanOnly",
					"type": "error"
				},
				{
					"inputs": [],
					"name": "FlashLoanRequired",
					"type": "error"
				},
				{
					"inputs": [
						{
							"internalType": "uint256",
							"name": "finalBalance",
							"type": "uint256"
						},
						{
							"internalType": "uint256",
							"name": "requiredBalance",
							"type": "uint256"
						}
					],
					"name": "InsufficientProfit",
					"type": "error"
				},
				{
					"inputs": [],
					"name": "InvalidCallbackSource",
					"type": "error"
				},
				{
					"inputs": [],
					"name": "InvalidFlashLoanContext",
					"type": "error"
				},
				{
					"inputs": [
						{
							"internalType": "address",
							"name": "expected",
							"type": "address"
						},
						{
							"internalType": "address",
							"name": "actual",
							"type": "address"
						}
					],
					"name": "InvalidPoolCaller",
					"type": "error"
				},
				{
					"inputs": [],
					"name": "InvalidRouteHash",
					"type": "error"
				},
				{
					"inputs": [],
					"name": "TooManyCalls",
					"type": "error"
				},
				{
					"inputs": [
						{
							"internalType": "address",
							"name": "token",
							"type": "address"
						},
						{
							"internalType": "address",
							"name": "to",
							"type": "address"
						},
						{
							"internalType": "uint256",
							"name": "amount",
							"type": "uint256"
						}
					],
					"name": "TransferFailed",
					"type": "error"
				},
				{
					"inputs": [],
					"name": "Unauthorized",
					"type": "error"
				},
				{
					"inputs": [
						{
							"internalType": "uint8",
							"name": "protocolId",
							"type": "uint8"
						}
					],
					"name": "UnsupportedProtocol",
					"type": "error"
				},
				{
					"inputs": [],
					"name": "ZeroAddress",
					"type": "error"
				},
				{
					"anonymous": false,
					"inputs": [
						{
							"indexed": true,
							"internalType": "address",
							"name": "executor",
							"type": "address"
						},
						{
							"indexed": true,
							"internalType": "address",
							"name": "profitToken",
							"type": "address"
						},
						{
							"indexed": false,
							"internalType": "uint256",
							"name": "profitAmount",
							"type": "uint256"
						},
						{
							"indexed": true,
							"internalType": "bytes32",
							"name": "routeHash",
							"type": "bytes32"
						},
						{
							"indexed": false,
							"internalType": "address",
							"name": "flashProvider",
							"type": "address"
						}
					],
					"name": "ArbitrageExecuted",
					"type": "event"
				},
				{
					"anonymous": false,
					"inputs": [
						{
							"indexed": true,
							"internalType": "address",
							"name": "to",
							"type": "address"
						},
						{
							"indexed": false,
							"internalType": "uint256",
							"name": "amount",
							"type": "uint256"
						}
					],
					"name": "NativeRescued",
					"type": "event"
				},
				{
					"anonymous": false,
					"inputs": [
						{
							"indexed": true,
							"internalType": "address",
							"name": "operator",
							"type": "address"
						},
						{
							"indexed": false,
							"internalType": "bool",
							"name": "allowed",
							"type": "bool"
						}
					],
					"name": "OperatorSet",
					"type": "event"
				},
				{
					"anonymous": false,
					"inputs": [
						{
							"indexed": true,
							"internalType": "address",
							"name": "previousOwner",
							"type": "address"
						},
						{
							"indexed": true,
							"internalType": "address",
							"name": "newOwner",
							"type": "address"
						}
					],
					"name": "OwnershipTransferred",
					"type": "event"
				},
				{
					"anonymous": false,
					"inputs": [
						{
							"indexed": true,
							"internalType": "address",
							"name": "token",
							"type": "address"
						},
						{
							"indexed": true,
							"internalType": "address",
							"name": "spender",
							"type": "address"
						}
					],
					"name": "PreApproved",
					"type": "event"
				},
				{
					"anonymous": false,
					"inputs": [
						{
							"indexed": true,
							"internalType": "address",
							"name": "token",
							"type": "address"
						},
						{
							"indexed": true,
							"internalType": "address",
							"name": "to",
							"type": "address"
						},
						{
							"indexed": false,
							"internalType": "uint256",
							"name": "amount",
							"type": "uint256"
						}
					],
					"name": "TokenRescued",
					"type": "event"
				},
				{
					"inputs": [
						{
							"internalType": "int256",
							"name": "amount0Delta",
							"type": "int256"
						},
						{
							"internalType": "int256",
							"name": "amount1Delta",
							"type": "int256"
						},
						{
							"internalType": "bytes",
							"name": "data",
							"type": "bytes"
						}
					],
					"name": "algebraSwapCallback",
					"outputs": [],
					"stateMutability": "nonpayable",
					"type": "function"
				},
				{
					"inputs": [
						{
							"internalType": "address",
							"name": "token",
							"type": "address"
						},
						{
							"internalType": "address",
							"name": "spender",
							"type": "address"
						},
						{
							"internalType": "uint256",
							"name": "amount",
							"type": "uint256"
						}
					],
					"name": "approveIfNeeded",
					"outputs": [],
					"stateMutability": "nonpayable",
					"type": "function"
				},
				{
					"inputs": [],
					"name": "balancerVault",
					"outputs": [
						{
							"internalType": "address",
							"name": "",
							"type": "address"
						}
					],
					"stateMutability": "view",
					"type": "function"
				},
				{
					"inputs": [
						{
							"internalType": "address",
							"name": "flashToken",
							"type": "address"
						},
						{
							"internalType": "uint256",
							"name": "flashAmount",
							"type": "uint256"
						},
						{
							"components": [
								{
									"internalType": "address",
									"name": "profitToken",
									"type": "address"
								},
								{
									"internalType": "uint256",
									"name": "minProfit",
									"type": "uint256"
								},
								{
									"internalType": "uint256",
									"name": "deadline",
									"type": "uint256"
								},
								{
									"internalType": "bytes32",
									"name": "routeHash",
									"type": "bytes32"
								},
								{
									"components": [
										{
											"internalType": "address",
											"name": "target",
											"type": "address"
										},
										{
											"internalType": "uint256",
											"name": "value",
											"type": "uint256"
										},
										{
											"internalType": "bytes",
											"name": "data",
											"type": "bytes"
										}
									],
									"internalType": "struct ArbExecutor.Call[]",
									"name": "calls",
									"type": "tuple[]"
								}
							],
							"internalType": "struct ArbExecutor.FlashParams",
							"name": "params",
							"type": "tuple"
						}
					],
					"name": "executeArb",
					"outputs": [],
					"stateMutability": "nonpayable",
					"type": "function"
				},
				{
					"inputs": [],
					"name": "kyberElasticFactory",
					"outputs": [
						{
							"internalType": "address",
							"name": "",
							"type": "address"
						}
					],
					"stateMutability": "view",
					"type": "function"
				},
				{
					"inputs": [
						{
							"internalType": "address",
							"name": "",
							"type": "address"
						}
					],
					"name": "operators",
					"outputs": [
						{
							"internalType": "bool",
							"name": "",
							"type": "bool"
						}
					],
					"stateMutability": "view",
					"type": "function"
				},
				{
					"inputs": [],
					"name": "owner",
					"outputs": [
						{
							"internalType": "address",
							"name": "",
							"type": "address"
						}
					],
					"stateMutability": "view",
					"type": "function"
				},
				{
					"inputs": [
						{
							"internalType": "address",
							"name": "token",
							"type": "address"
						},
						{
							"internalType": "address",
							"name": "spender",
							"type": "address"
						}
					],
					"name": "preApprove",
					"outputs": [],
					"stateMutability": "nonpayable",
					"type": "function"
				},
				{
					"inputs": [],
					"name": "quickswapV3Factory",
					"outputs": [
						{
							"internalType": "address",
							"name": "",
							"type": "address"
						}
					],
					"stateMutability": "view",
					"type": "function"
				},
				{
					"inputs": [
						{
							"internalType": "contract IERC20Minimal[]",
							"name": "tokens",
							"type": "address[]"
						},
						{
							"internalType": "uint256[]",
							"name": "amounts",
							"type": "uint256[]"
						},
						{
							"internalType": "uint256[]",
							"name": "feeAmounts",
							"type": "uint256[]"
						},
						{
							"internalType": "bytes",
							"name": "userData",
							"type": "bytes"
						}
					],
					"name": "receiveFlashLoan",
					"outputs": [],
					"stateMutability": "nonpayable",
					"type": "function"
				},
				{
					"inputs": [
						{
							"internalType": "address payable",
							"name": "to",
							"type": "address"
						},
						{
							"internalType": "uint256",
							"name": "amount",
							"type": "uint256"
						}
					],
					"name": "rescueNative",
					"outputs": [],
					"stateMutability": "nonpayable",
					"type": "function"
				},
				{
					"inputs": [
						{
							"internalType": "address",
							"name": "token",
							"type": "address"
						},
						{
							"internalType": "address",
							"name": "to",
							"type": "address"
						},
						{
							"internalType": "uint256",
							"name": "amount",
							"type": "uint256"
						}
					],
					"name": "rescueToken",
					"outputs": [],
					"stateMutability": "nonpayable",
					"type": "function"
				},
				{
					"inputs": [
						{
							"internalType": "address",
							"name": "operator",
							"type": "address"
						},
						{
							"internalType": "bool",
							"name": "allowed",
							"type": "bool"
						}
					],
					"name": "setOperator",
					"outputs": [],
					"stateMutability": "nonpayable",
					"type": "function"
				},
				{
					"inputs": [],
					"name": "sushiV3Factory",
					"outputs": [
						{
							"internalType": "address",
							"name": "",
							"type": "address"
						}
					],
					"stateMutability": "view",
					"type": "function"
				},
				{
					"inputs": [
						{
							"internalType": "int256",
							"name": "deltaQty0",
							"type": "int256"
						},
						{
							"internalType": "int256",
							"name": "deltaQty1",
							"type": "int256"
						},
						{
							"internalType": "bytes",
							"name": "data",
							"type": "bytes"
						}
					],
					"name": "swapCallback",
					"outputs": [],
					"stateMutability": "nonpayable",
					"type": "function"
				},
				{
					"inputs": [
						{
							"internalType": "address",
							"name": "newOwner",
							"type": "address"
						}
					],
					"name": "transferOwnership",
					"outputs": [],
					"stateMutability": "nonpayable",
					"type": "function"
				},
				{
					"inputs": [],
					"name": "uniswapV3Factory",
					"outputs": [
						{
							"internalType": "address",
							"name": "",
							"type": "address"
						}
					],
					"stateMutability": "view",
					"type": "function"
				},
				{
					"inputs": [
						{
							"internalType": "int256",
							"name": "amount0Delta",
							"type": "int256"
						},
						{
							"internalType": "int256",
							"name": "amount1Delta",
							"type": "int256"
						},
						{
							"internalType": "bytes",
							"name": "data",
							"type": "bytes"
						}
					],
					"name": "uniswapV3SwapCallback",
					"outputs": [],
					"stateMutability": "nonpayable",
					"type": "function"
				},
				{
					"stateMutability": "payable",
					"type": "receive"
				}
			],
			"devdoc": {
				"kind": "dev",
				"methods": {},
				"version": 1
			},
			"evm": {
				"assembly": "    /* \"src/ArbExecutor.sol\":1297:14446  contract ArbExecutor is IFlashLoanRecipient {... */\n  mstore(0x40, 0x0120)\n    /* \"src/ArbExecutor.sol\":3935:3936  1 */\n  0x01\n    /* \"src/ArbExecutor.sol\":3909:3936  uint256 private _locked = 1 */\n  0x07\n  sstore\n    /* \"src/ArbExecutor.sol\":4346:5193  constructor(... */\n  callvalue\n  dup1\n  iszero\n  tag_1\n  jumpi\n  revert(0x00, 0x00)\ntag_1:\n  pop\n  mload(0x40)\n  sub(codesize, bytecodeSize)\n  dup1\n  bytecodeSize\n  dup4\n  codecopy\n  dup2\n  dup2\n  add\n  0x40\n  mstore\n  dup2\n  add\n  swap1\n  tag_2\n  swap2\n  swap1\n  tag_3\n  jump\t// in\ntag_2:\n    /* \"src/ArbExecutor.sol\":4608:4609  0 */\n  0x00\n    /* \"src/ArbExecutor.sol\":4590:4610  owner_ == address(0) */\n  0xffffffffffffffffffffffffffffffffffffffff\n  and\n    /* \"src/ArbExecutor.sol\":4590:4596  owner_ */\n  dup7\n    /* \"src/ArbExecutor.sol\":4590:4610  owner_ == address(0) */\n  0xffffffffffffffffffffffffffffffffffffffff\n  and\n  eq\n    /* \"src/ArbExecutor.sol\":4590:4654  owner_ == address(0) ||... */\n  dup1\n  tag_6\n  jumpi\n  pop\n    /* \"src/ArbExecutor.sol\":4652:4653  0 */\n  0x00\n    /* \"src/ArbExecutor.sol\":4626:4654  balancerVault_ == address(0) */\n  0xffffffffffffffffffffffffffffffffffffffff\n  and\n    /* \"src/ArbExecutor.sol\":4626:4640  balancerVault_ */\n  dup6\n    /* \"src/ArbExecutor.sol\":4626:4654  balancerVault_ == address(0) */\n  0xffffffffffffffffffffffffffffffffffffffff\n  and\n  eq\n    /* \"src/ArbExecutor.sol\":4590:4654  owner_ == address(0) ||... */\ntag_6:\n    /* \"src/ArbExecutor.sol\":4590:4701  owner_ == address(0) ||... */\n  dup1\n  tag_7\n  jumpi\n  pop\n    /* \"src/ArbExecutor.sol\":4699:4700  0 */\n  0x00\n    /* \"src/ArbExecutor.sol\":4670:4701  uniswapV3Factory_ == address(0) */\n  0xffffffffffffffffffffffffffffffffffffffff\n  and\n    /* \"src/ArbExecutor.sol\":4670:4687  uniswapV3Factory_ */\n  dup5\n    /* \"src/ArbExecutor.sol\":4670:4701  uniswapV3Factory_ == address(0) */\n  0xffffffffffffffffffffffffffffffffffffffff\n  and\n  eq\n    /* \"src/ArbExecutor.sol\":4590:4701  owner_ == address(0) ||... */\ntag_7:\n    /* \"src/ArbExecutor.sol\":4590:4746  owner_ == address(0) ||... */\n  dup1\n  tag_8\n  jumpi\n  pop\n    /* \"src/ArbExecutor.sol\":4744:4745  0 */\n  0x00\n    /* \"src/ArbExecutor.sol\":4717:4746  sushiV3Factory_ == address(0) */\n  0xffffffffffffffffffffffffffffffffffffffff\n  and\n    /* \"src/ArbExecutor.sol\":4717:4732  sushiV3Factory_ */\n  dup4\n    /* \"src/ArbExecutor.sol\":4717:4746  sushiV3Factory_ == address(0) */\n  0xffffffffffffffffffffffffffffffffffffffff\n  and\n  eq\n    /* \"src/ArbExecutor.sol\":4590:4746  owner_ == address(0) ||... */\ntag_8:\n    /* \"src/ArbExecutor.sol\":4590:4795  owner_ == address(0) ||... */\n  dup1\n  tag_9\n  jumpi\n  pop\n    /* \"src/ArbExecutor.sol\":4793:4794  0 */\n  0x00\n    /* \"src/ArbExecutor.sol\":4762:4795  quickswapV3Factory_ == address(0) */\n  0xffffffffffffffffffffffffffffffffffffffff\n  and\n    /* \"src/ArbExecutor.sol\":4762:4781  quickswapV3Factory_ */\n  dup3\n    /* \"src/ArbExecutor.sol\":4762:4795  quickswapV3Factory_ == address(0) */\n  0xffffffffffffffffffffffffffffffffffffffff\n  and\n  eq\n    /* \"src/ArbExecutor.sol\":4590:4795  owner_ == address(0) ||... */\ntag_9:\n    /* \"src/ArbExecutor.sol\":4590:4845  owner_ == address(0) ||... */\n  dup1\n  tag_10\n  jumpi\n  pop\n    /* \"src/ArbExecutor.sol\":4843:4844  0 */\n  0x00\n    /* \"src/ArbExecutor.sol\":4811:4845  kyberElasticFactory_ == address(0) */\n  0xffffffffffffffffffffffffffffffffffffffff\n  and\n    /* \"src/ArbExecutor.sol\":4811:4831  kyberElasticFactory_ */\n  dup2\n    /* \"src/ArbExecutor.sol\":4811:4845  kyberElasticFactory_ == address(0) */\n  0xffffffffffffffffffffffffffffffffffffffff\n  and\n  eq\n    /* \"src/ArbExecutor.sol\":4590:4845  owner_ == address(0) ||... */\ntag_10:\n    /* \"src/ArbExecutor.sol\":4573:4876  if (... */\n  iszero\n  tag_11\n  jumpi\n    /* \"src/ArbExecutor.sol\":4863:4876  ZeroAddress() */\n  mload(0x40)\n  0xd92e233d00000000000000000000000000000000000000000000000000000000\n  dup2\n  mstore\n  0x04\n  add\n  mload(0x40)\n  dup1\n  swap2\n  sub\n  swap1\n  revert\n    /* \"src/ArbExecutor.sol\":4573:4876  if (... */\ntag_11:\n    /* \"src/ArbExecutor.sol\":4895:4901  owner_ */\n  dup6\n    /* \"src/ArbExecutor.sol\":4887:4892  owner */\n  0x00\n  0x00\n    /* \"src/ArbExecutor.sol\":4887:4901  owner = owner_ */\n  0x0100\n  exp\n  dup2\n  sload\n  dup2\n  0xffffffffffffffffffffffffffffffffffffffff\n  mul\n  not\n  and\n  swap1\n  dup4\n  0xffffffffffffffffffffffffffffffffffffffff\n  and\n  mul\n  or\n  swap1\n  sstore\n  pop\n    /* \"src/ArbExecutor.sol\":4927:4941  balancerVault_ */\n  dup5\n    /* \"src/ArbExecutor.sol\":4911:4941  balancerVault = balancerVault_ */\n  0xffffffffffffffffffffffffffffffffffffffff\n  and\n  0x80\n  dup2\n  0xffffffffffffffffffffffffffffffffffffffff\n  and\n  dup2\n  mstore\n  pop\n  pop\n    /* \"src/ArbExecutor.sol\":4970:4987  uniswapV3Factory_ */\n  dup4\n    /* \"src/ArbExecutor.sol\":4951:4987  uniswapV3Factory = uniswapV3Factory_ */\n  0xffffffffffffffffffffffffffffffffffffffff\n  and\n  0xa0\n  dup2\n  0xffffffffffffffffffffffffffffffffffffffff\n  and\n  dup2\n  mstore\n  pop\n  pop\n    /* \"src/ArbExecutor.sol\":5014:5029  sushiV3Factory_ */\n  dup3\n    /* \"src/ArbExecutor.sol\":4997:5029  sushiV3Factory = sushiV3Factory_ */\n  0xffffffffffffffffffffffffffffffffffffffff\n  and\n  0xc0\n  dup2\n  0xffffffffffffffffffffffffffffffffffffffff\n  and\n  dup2\n  mstore\n  pop\n  pop\n    /* \"src/ArbExecutor.sol\":5060:5079  quickswapV3Factory_ */\n  dup2\n    /* \"src/ArbExecutor.sol\":5039:5079  quickswapV3Factory = quickswapV3Factory_ */\n  0xffffffffffffffffffffffffffffffffffffffff\n  and\n  0xe0\n  dup2\n  0xffffffffffffffffffffffffffffffffffffffff\n  and\n  dup2\n  mstore\n  pop\n  pop\n    /* \"src/ArbExecutor.sol\":5111:5131  kyberElasticFactory_ */\n  dup1\n    /* \"src/ArbExecutor.sol\":5089:5131  kyberElasticFactory = kyberElasticFactory_ */\n  0xffffffffffffffffffffffffffffffffffffffff\n  and\n  0x0100\n  dup2\n  0xffffffffffffffffffffffffffffffffffffffff\n  and\n  dup2\n  mstore\n  pop\n  pop\n    /* \"src/ArbExecutor.sol\":5179:5185  owner_ */\n  dup6\n    /* \"src/ArbExecutor.sol\":5146:5186  OwnershipTransferred(address(0), owner_) */\n  0xffffffffffffffffffffffffffffffffffffffff\n  and\n    /* \"src/ArbExecutor.sol\":5175:5176  0 */\n  0x00\n    /* \"src/ArbExecutor.sol\":5146:5186  OwnershipTransferred(address(0), owner_) */\n  0xffffffffffffffffffffffffffffffffffffffff\n  and\n  0x8be0079c531659141344cd1fd0a4f28419497f9722a3daafe3b4186f6b6457e0\n  mload(0x40)\n  mload(0x40)\n  dup1\n  swap2\n  sub\n  swap1\n  log3\n    /* \"src/ArbExecutor.sol\":4346:5193  constructor(... */\n  pop\n  pop\n  pop\n  pop\n  pop\n  pop\n    /* \"src/ArbExecutor.sol\":1297:14446  contract ArbExecutor is IFlashLoanRecipient {... */\n  jump(tag_12)\n    /* \"#utility.yul\":88:205   */\ntag_14:\n    /* \"#utility.yul\":197:198   */\n  0x00\n    /* \"#utility.yul\":194:195   */\n  0x00\n    /* \"#utility.yul\":187:199   */\n  revert\n    /* \"#utility.yul\":334:460   */\ntag_16:\n    /* \"#utility.yul\":371:378   */\n  0x00\n    /* \"#utility.yul\":411:453   */\n  0xffffffffffffffffffffffffffffffffffffffff\n    /* \"#utility.yul\":404:409   */\n  dup3\n    /* \"#utility.yul\":400:454   */\n  and\n    /* \"#utility.yul\":389:454   */\n  swap1\n  pop\n    /* \"#utility.yul\":334:460   */\n  swap2\n  swap1\n  pop\n  jump\t// out\n    /* \"#utility.yul\":466:562   */\ntag_17:\n    /* \"#utility.yul\":503:510   */\n  0x00\n    /* \"#utility.yul\":532:556   */\n  tag_26\n    /* \"#utility.yul\":550:555   */\n  dup3\n    /* \"#utility.yul\":532:556   */\n  tag_16\n  jump\t// in\ntag_26:\n    /* \"#utility.yul\":521:556   */\n  swap1\n  pop\n    /* \"#utility.yul\":466:562   */\n  swap2\n  swap1\n  pop\n  jump\t// out\n    /* \"#utility.yul\":568:690   */\ntag_18:\n    /* \"#utility.yul\":641:665   */\n  tag_28\n    /* \"#utility.yul\":659:664   */\n  dup2\n    /* \"#utility.yul\":641:665   */\n  tag_17\n  jump\t// in\ntag_28:\n    /* \"#utility.yul\":634:639   */\n  dup2\n    /* \"#utility.yul\":631:666   */\n  eq\n    /* \"#utility.yul\":621:684   */\n  tag_29\n  jumpi\n    /* \"#utility.yul\":680:681   */\n  0x00\n    /* \"#utility.yul\":677:678   */\n  0x00\n    /* \"#utility.yul\":670:682   */\n  revert\n    /* \"#utility.yul\":621:684   */\ntag_29:\n    /* \"#utility.yul\":568:690   */\n  pop\n  jump\t// out\n    /* \"#utility.yul\":696:839   */\ntag_19:\n    /* \"#utility.yul\":753:758   */\n  0x00\n    /* \"#utility.yul\":784:790   */\n  dup2\n    /* \"#utility.yul\":778:791   */\n  mload\n    /* \"#utility.yul\":769:791   */\n  swap1\n  pop\n    /* \"#utility.yul\":800:833   */\n  tag_31\n    /* \"#utility.yul\":827:832   */\n  dup2\n    /* \"#utility.yul\":800:833   */\n  tag_18\n  jump\t// in\ntag_31:\n    /* \"#utility.yul\":696:839   */\n  swap3\n  swap2\n  pop\n  pop\n  jump\t// out\n    /* \"#utility.yul\":845:1979   */\ntag_3:\n    /* \"#utility.yul\":960:966   */\n  0x00\n    /* \"#utility.yul\":968:974   */\n  0x00\n    /* \"#utility.yul\":976:982   */\n  0x00\n    /* \"#utility.yul\":984:990   */\n  0x00\n    /* \"#utility.yul\":992:998   */\n  0x00\n    /* \"#utility.yul\":1000:1006   */\n  0x00\n    /* \"#utility.yul\":1049:1052   */\n  0xc0\n    /* \"#utility.yul\":1037:1046   */\n  dup8\n    /* \"#utility.yul\":1028:1035   */\n  dup10\n    /* \"#utility.yul\":1024:1047   */\n  sub\n    /* \"#utility.yul\":1020:1053   */\n  slt\n    /* \"#utility.yul\":1017:1137   */\n  iszero\n  tag_33\n  jumpi\n    /* \"#utility.yul\":1056:1135   */\n  tag_34\n  tag_14\n  jump\t// in\ntag_34:\n    /* \"#utility.yul\":1017:1137   */\ntag_33:\n    /* \"#utility.yul\":1176:1177   */\n  0x00\n    /* \"#utility.yul\":1201:1265   */\n  tag_35\n    /* \"#utility.yul\":1257:1264   */\n  dup10\n    /* \"#utility.yul\":1248:1254   */\n  dup3\n    /* \"#utility.yul\":1237:1246   */\n  dup11\n    /* \"#utility.yul\":1233:1255   */\n  add\n    /* \"#utility.yul\":1201:1265   */\n  tag_19\n  jump\t// in\ntag_35:\n    /* \"#utility.yul\":1191:1265   */\n  swap7\n  pop\n    /* \"#utility.yul\":1147:1275   */\n  pop\n    /* \"#utility.yul\":1314:1316   */\n  0x20\n    /* \"#utility.yul\":1340:1404   */\n  tag_36\n    /* \"#utility.yul\":1396:1403   */\n  dup10\n    /* \"#utility.yul\":1387:1393   */\n  dup3\n    /* \"#utility.yul\":1376:1385   */\n  dup11\n    /* \"#utility.yul\":1372:1394   */\n  add\n    /* \"#utility.yul\":1340:1404   */\n  tag_19\n  jump\t// in\ntag_36:\n    /* \"#utility.yul\":1330:1404   */\n  swap6\n  pop\n    /* \"#utility.yul\":1285:1414   */\n  pop\n    /* \"#utility.yul\":1453:1455   */\n  0x40\n    /* \"#utility.yul\":1479:1543   */\n  tag_37\n    /* \"#utility.yul\":1535:1542   */\n  dup10\n    /* \"#utility.yul\":1526:1532   */\n  dup3\n    /* \"#utility.yul\":1515:1524   */\n  dup11\n    /* \"#utility.yul\":1511:1533   */\n  add\n    /* \"#utility.yul\":1479:1543   */\n  tag_19\n  jump\t// in\ntag_37:\n    /* \"#utility.yul\":1469:1543   */\n  swap5\n  pop\n    /* \"#utility.yul\":1424:1553   */\n  pop\n    /* \"#utility.yul\":1592:1594   */\n  0x60\n    /* \"#utility.yul\":1618:1682   */\n  tag_38\n    /* \"#utility.yul\":1674:1681   */\n  dup10\n    /* \"#utility.yul\":1665:1671   */\n  dup3\n    /* \"#utility.yul\":1654:1663   */\n  dup11\n    /* \"#utility.yul\":1650:1672   */\n  add\n    /* \"#utility.yul\":1618:1682   */\n  tag_19\n  jump\t// in\ntag_38:\n    /* \"#utility.yul\":1608:1682   */\n  swap4\n  pop\n    /* \"#utility.yul\":1563:1692   */\n  pop\n    /* \"#utility.yul\":1731:1734   */\n  0x80\n    /* \"#utility.yul\":1758:1822   */\n  tag_39\n    /* \"#utility.yul\":1814:1821   */\n  dup10\n    /* \"#utility.yul\":1805:1811   */\n  dup3\n    /* \"#utility.yul\":1794:1803   */\n  dup11\n    /* \"#utility.yul\":1790:1812   */\n  add\n    /* \"#utility.yul\":1758:1822   */\n  tag_19\n  jump\t// in\ntag_39:\n    /* \"#utility.yul\":1748:1822   */\n  swap3\n  pop\n    /* \"#utility.yul\":1702:1832   */\n  pop\n    /* \"#utility.yul\":1871:1874   */\n  0xa0\n    /* \"#utility.yul\":1898:1962   */\n  tag_40\n    /* \"#utility.yul\":1954:1961   */\n  dup10\n    /* \"#utility.yul\":1945:1951   */\n  dup3\n    /* \"#utility.yul\":1934:1943   */\n  dup11\n    /* \"#utility.yul\":1930:1952   */\n  add\n    /* \"#utility.yul\":1898:1962   */\n  tag_19\n  jump\t// in\ntag_40:\n    /* \"#utility.yul\":1888:1962   */\n  swap2\n  pop\n    /* \"#utility.yul\":1842:1972   */\n  pop\n    /* \"#utility.yul\":845:1979   */\n  swap3\n  swap6\n  pop\n  swap3\n  swap6\n  pop\n  swap3\n  swap6\n  jump\t// out\n    /* \"src/ArbExecutor.sol\":1297:14446  contract ArbExecutor is IFlashLoanRecipient {... */\ntag_12:\n  mload(0x80)\n  mload(0xa0)\n  mload(0xc0)\n  mload(0xe0)\n  mload(0x0100)\n  codecopy(0x00, dataOffset(sub_0), dataSize(sub_0))\n  0x00\n  assignImmutable(\"0x4f07d7aea7a8a16d4b795a9a9aabd4a50f93236b39d48ad640505cdc3dbb3bbc\")\n  0x00\n  assignImmutable(\"0x0d283e5f5b5d2526f34a5a92a1188385f6cf1a43607f82a114e6c2e937222ad5\")\n  0x00\n  assignImmutable(\"0x98f4d6eec7613e33b36335f2ce6a27018d9a9f0999ab27807ed26ac6fd46f1a2\")\n  0x00\n  assignImmutable(\"0xdb56024b3d6cde3a6cd02fd327b99549871e338b958b94e29cae4ab4619605ef\")\n  0x00\n  assignImmutable(\"0x9c82694a9cf6c7b68ec93c5541ae0b2631d5f0fa3eec98f4ce497d015951b3ba\")\n  return(0x00, dataSize(sub_0))\nstop\n\nsub_0: assembly {\n        /* \"src/ArbExecutor.sol\":1297:14446  contract ArbExecutor is IFlashLoanRecipient {... */\n      mstore(0x40, 0x80)\n      jumpi(tag_1, lt(calldatasize, 0x04))\n      shr(0xe0, calldataload(0x00))\n      dup1\n      0x78ed1c8c\n      gt\n      tag_21\n      jumpi\n      dup1\n      0xf04f2707\n      gt\n      tag_22\n      jumpi\n      dup1\n      0xf04f2707\n      eq\n      tag_16\n      jumpi\n      dup1\n      0xf2fde38b\n      eq\n      tag_17\n      jumpi\n      dup1\n      0xfa461e33\n      eq\n      tag_18\n      jumpi\n      dup1\n      0xfa483e72\n      eq\n      tag_19\n      jumpi\n      dup1\n      0xfad6b994\n      eq\n      tag_20\n      jumpi\n      jump(tag_2)\n    tag_22:\n      dup1\n      0x78ed1c8c\n      eq\n      tag_12\n      jumpi\n      dup1\n      0x8da5cb5b\n      eq\n      tag_13\n      jumpi\n      dup1\n      0xb4656158\n      eq\n      tag_14\n      jumpi\n      dup1\n      0xe5711e8b\n      eq\n      tag_15\n      jumpi\n      jump(tag_2)\n    tag_21:\n      dup1\n      0x491e69d3\n      gt\n      tag_23\n      jumpi\n      dup1\n      0x491e69d3\n      eq\n      tag_7\n      jumpi\n      dup1\n      0x4dad71d5\n      eq\n      tag_8\n      jumpi\n      dup1\n      0x558a7297\n      eq\n      tag_9\n      jumpi\n      dup1\n      0x5b549182\n      eq\n      tag_10\n      jumpi\n      dup1\n      0x669d6be2\n      eq\n      tag_11\n      jumpi\n      jump(tag_2)\n    tag_23:\n      dup1\n      0x1291f79d\n      eq\n      tag_3\n      jumpi\n      dup1\n      0x13e7c9d8\n      eq\n      tag_4\n      jumpi\n      dup1\n      0x158274a5\n      eq\n      tag_5\n      jumpi\n      dup1\n      0x2c8958f6\n      eq\n      tag_6\n      jumpi\n      jump(tag_2)\n    tag_1:\n      jumpi(tag_2, calldatasize)\n      stop\n    tag_2:\n      revert(0x00, 0x00)\n        /* \"src/ArbExecutor.sol\":6426:6728  function rescueNative(address payable to, uint256 amount) external onlyOwner nonReentrant {... */\n    tag_3:\n      callvalue\n      dup1\n      iszero\n      tag_26\n      jumpi\n      revert(0x00, 0x00)\n    tag_26:\n      pop\n      tag_27\n      0x04\n      dup1\n      calldatasize\n      sub\n      dup2\n      add\n      swap1\n      tag_28\n      swap2\n      swap1\n      tag_29\n      jump\t// in\n    tag_28:\n      tag_30\n      jump\t// in\n    tag_27:\n      stop\n        /* \"src/ArbExecutor.sol\":3433:3474  mapping(address => bool) public operators */\n    tag_4:\n      callvalue\n      dup1\n      iszero\n      tag_31\n      jumpi\n      revert(0x00, 0x00)\n    tag_31:\n      pop\n      tag_32\n      0x04\n      dup1\n      calldatasize\n      sub\n      dup2\n      add\n      swap1\n      tag_33\n      swap2\n      swap1\n      tag_34\n      jump\t// in\n    tag_33:\n      tag_35\n      jump\t// in\n    tag_32:\n      mload(0x40)\n      tag_36\n      swap2\n      swap1\n      tag_37\n      jump\t// in\n    tag_36:\n      mload(0x40)\n      dup1\n      swap2\n      sub\n      swap1\n      return\n        /* \"src/ArbExecutor.sol\":3481:3519  address public immutable balancerVault */\n    tag_5:\n      callvalue\n      dup1\n      iszero\n      tag_38\n      jumpi\n      revert(0x00, 0x00)\n    tag_38:\n      pop\n      tag_39\n      tag_40\n      jump\t// in\n    tag_39:\n      mload(0x40)\n      tag_41\n      swap2\n      swap1\n      tag_42\n      jump\t// in\n    tag_41:\n      mload(0x40)\n      dup1\n      swap2\n      sub\n      swap1\n      return\n        /* \"src/ArbExecutor.sol\":9663:9861  function algebraSwapCallback(int256 amount0Delta, int256 amount1Delta, bytes calldata data) external {... */\n    tag_6:\n      callvalue\n      dup1\n      iszero\n      tag_43\n      jumpi\n      revert(0x00, 0x00)\n    tag_43:\n      pop\n      tag_44\n      0x04\n      dup1\n      calldatasize\n      sub\n      dup2\n      add\n      swap1\n      tag_45\n      swap2\n      swap1\n      tag_46\n      jump\t// in\n    tag_45:\n      tag_47\n      jump\t// in\n    tag_44:\n      stop\n        /* \"src/ArbExecutor.sol\":6734:8343  function executeArb(address flashToken, uint256 flashAmount, FlashParams calldata params)... */\n    tag_7:\n      callvalue\n      dup1\n      iszero\n      tag_48\n      jumpi\n      revert(0x00, 0x00)\n    tag_48:\n      pop\n      tag_49\n      0x04\n      dup1\n      calldatasize\n      sub\n      dup2\n      add\n      swap1\n      tag_50\n      swap2\n      swap1\n      tag_51\n      jump\t// in\n    tag_50:\n      tag_52\n      jump\t// in\n    tag_49:\n      stop\n        /* \"src/ArbExecutor.sol\":3617:3660  address public immutable quickswapV3Factory */\n    tag_8:\n      callvalue\n      dup1\n      iszero\n      tag_53\n      jumpi\n      revert(0x00, 0x00)\n    tag_53:\n      pop\n      tag_54\n      tag_55\n      jump\t// in\n    tag_54:\n      mload(0x40)\n      tag_56\n      swap2\n      swap1\n      tag_42\n      jump\t// in\n    tag_56:\n      mload(0x40)\n      dup1\n      swap2\n      sub\n      swap1\n      return\n        /* \"src/ArbExecutor.sol\":5234:5397  function setOperator(address operator, bool allowed) external onlyOwner {... */\n    tag_9:\n      callvalue\n      dup1\n      iszero\n      tag_57\n      jumpi\n      revert(0x00, 0x00)\n    tag_57:\n      pop\n      tag_58\n      0x04\n      dup1\n      calldatasize\n      sub\n      dup2\n      add\n      swap1\n      tag_59\n      swap2\n      swap1\n      tag_60\n      jump\t// in\n    tag_59:\n      tag_61\n      jump\t// in\n    tag_58:\n      stop\n        /* \"src/ArbExecutor.sol\":3525:3566  address public immutable uniswapV3Factory */\n    tag_10:\n      callvalue\n      dup1\n      iszero\n      tag_62\n      jumpi\n      revert(0x00, 0x00)\n    tag_62:\n      pop\n      tag_63\n      tag_64\n      jump\t// in\n    tag_63:\n      mload(0x40)\n      tag_65\n      swap2\n      swap1\n      tag_42\n      jump\t// in\n    tag_65:\n      mload(0x40)\n      dup1\n      swap2\n      sub\n      swap1\n      return\n        /* \"src/ArbExecutor.sol\":3572:3611  address public immutable sushiV3Factory */\n    tag_11:\n      callvalue\n      dup1\n      iszero\n      tag_66\n      jumpi\n      revert(0x00, 0x00)\n    tag_66:\n      pop\n      tag_67\n      tag_68\n      jump\t// in\n    tag_67:\n      mload(0x40)\n      tag_69\n      swap2\n      swap1\n      tag_42\n      jump\t// in\n    tag_69:\n      mload(0x40)\n      dup1\n      swap2\n      sub\n      swap1\n      return\n        /* \"src/ArbExecutor.sol\":3666:3710  address public immutable kyberElasticFactory */\n    tag_12:\n      callvalue\n      dup1\n      iszero\n      tag_70\n      jumpi\n      revert(0x00, 0x00)\n    tag_70:\n      pop\n      tag_71\n      tag_72\n      jump\t// in\n    tag_71:\n      mload(0x40)\n      tag_73\n      swap2\n      swap1\n      tag_42\n      jump\t// in\n    tag_73:\n      mload(0x40)\n      dup1\n      swap2\n      sub\n      swap1\n      return\n        /* \"src/ArbExecutor.sol\":3407:3427  address public owner */\n    tag_13:\n      callvalue\n      dup1\n      iszero\n      tag_74\n      jumpi\n      revert(0x00, 0x00)\n    tag_74:\n      pop\n      tag_75\n      tag_76\n      jump\t// in\n    tag_75:\n      mload(0x40)\n      tag_77\n      swap2\n      swap1\n      tag_42\n      jump\t// in\n    tag_77:\n      mload(0x40)\n      dup1\n      swap2\n      sub\n      swap1\n      return\n        /* \"src/ArbExecutor.sol\":5663:5869  function preApprove(address token, address spender) external onlyAuthorized nonReentrant {... */\n    tag_14:\n      callvalue\n      dup1\n      iszero\n      tag_78\n      jumpi\n      revert(0x00, 0x00)\n    tag_78:\n      pop\n      tag_79\n      0x04\n      dup1\n      calldatasize\n      sub\n      dup2\n      add\n      swap1\n      tag_80\n      swap2\n      swap1\n      tag_81\n      jump\t// in\n    tag_80:\n      tag_82\n      jump\t// in\n    tag_79:\n      stop\n        /* \"src/ArbExecutor.sol\":6177:6420  function rescueToken(address token, address to, uint256 amount) external onlyOwner nonReentrant {... */\n    tag_15:\n      callvalue\n      dup1\n      iszero\n      tag_83\n      jumpi\n      revert(0x00, 0x00)\n    tag_83:\n      pop\n      tag_84\n      0x04\n      dup1\n      calldatasize\n      sub\n      dup2\n      add\n      swap1\n      tag_85\n      swap2\n      swap1\n      tag_86\n      jump\t// in\n    tag_85:\n      tag_87\n      jump\t// in\n    tag_84:\n      stop\n        /* \"src/ArbExecutor.sol\":8349:9453  function receiveFlashLoan(... */\n    tag_16:\n      callvalue\n      dup1\n      iszero\n      tag_88\n      jumpi\n      revert(0x00, 0x00)\n    tag_88:\n      pop\n      tag_89\n      0x04\n      dup1\n      calldatasize\n      sub\n      dup2\n      add\n      swap1\n      tag_90\n      swap2\n      swap1\n      tag_91\n      jump\t// in\n    tag_90:\n      tag_92\n      jump\t// in\n    tag_89:\n      stop\n        /* \"src/ArbExecutor.sol\":5403:5657  function transferOwnership(address newOwner) external onlyOwner {... */\n    tag_17:\n      callvalue\n      dup1\n      iszero\n      tag_93\n      jumpi\n      revert(0x00, 0x00)\n    tag_93:\n      pop\n      tag_94\n      0x04\n      dup1\n      calldatasize\n      sub\n      dup2\n      add\n      swap1\n      tag_95\n      swap2\n      swap1\n      tag_34\n      jump\t// in\n    tag_95:\n      tag_96\n      jump\t// in\n    tag_94:\n      stop\n        /* \"src/ArbExecutor.sol\":9459:9657  function uniswapV3SwapCallback(int256 amount0Delta, int256 amount1Delta, bytes calldata data) external {... */\n    tag_18:\n      callvalue\n      dup1\n      iszero\n      tag_97\n      jumpi\n      revert(0x00, 0x00)\n    tag_97:\n      pop\n      tag_98\n      0x04\n      dup1\n      calldatasize\n      sub\n      dup2\n      add\n      swap1\n      tag_99\n      swap2\n      swap1\n      tag_46\n      jump\t// in\n    tag_99:\n      tag_100\n      jump\t// in\n    tag_98:\n      stop\n        /* \"src/ArbExecutor.sol\":9867:10047  function swapCallback(int256 deltaQty0, int256 deltaQty1, bytes calldata data) external {... */\n    tag_19:\n      callvalue\n      dup1\n      iszero\n      tag_101\n      jumpi\n      revert(0x00, 0x00)\n    tag_101:\n      pop\n      tag_102\n      0x04\n      dup1\n      calldatasize\n      sub\n      dup2\n      add\n      swap1\n      tag_103\n      swap2\n      swap1\n      tag_46\n      jump\t// in\n    tag_103:\n      tag_104\n      jump\t// in\n    tag_102:\n      stop\n        /* \"src/ArbExecutor.sol\":5875:6171  function approveIfNeeded(address token, address spender, uint256 amount) external nonReentrant {... */\n    tag_20:\n      callvalue\n      dup1\n      iszero\n      tag_105\n      jumpi\n      revert(0x00, 0x00)\n    tag_105:\n      pop\n      tag_106\n      0x04\n      dup1\n      calldatasize\n      sub\n      dup2\n      add\n      swap1\n      tag_107\n      swap2\n      swap1\n      tag_86\n      jump\t// in\n    tag_107:\n      tag_108\n      jump\t// in\n    tag_106:\n      stop\n        /* \"src/ArbExecutor.sol\":6426:6728  function rescueNative(address payable to, uint256 amount) external onlyOwner nonReentrant {... */\n    tag_30:\n        /* \"src/ArbExecutor.sol\":3992:3997  owner */\n      0x00\n      0x00\n      swap1\n      sload\n      swap1\n      0x0100\n      exp\n      swap1\n      div\n      0xffffffffffffffffffffffffffffffffffffffff\n      and\n        /* \"src/ArbExecutor.sol\":3978:3997  msg.sender != owner */\n      0xffffffffffffffffffffffffffffffffffffffff\n      and\n        /* \"src/ArbExecutor.sol\":3978:3988  msg.sender */\n      caller\n        /* \"src/ArbExecutor.sol\":3978:3997  msg.sender != owner */\n      0xffffffffffffffffffffffffffffffffffffffff\n      and\n      eq\n        /* \"src/ArbExecutor.sol\":3974:4020  if (msg.sender != owner) revert Unauthorized() */\n      tag_110\n      jumpi\n        /* \"src/ArbExecutor.sol\":4006:4020  Unauthorized() */\n      mload(0x40)\n      0x82b4290000000000000000000000000000000000000000000000000000000000\n      dup2\n      mstore\n      0x04\n      add\n      mload(0x40)\n      dup1\n      swap2\n      sub\n      swap1\n      revert\n        /* \"src/ArbExecutor.sol\":3974:4020  if (msg.sender != owner) revert Unauthorized() */\n    tag_110:\n        /* \"src/ArbExecutor.sol\":4225:4226  1 */\n      0x01\n        /* \"src/ArbExecutor.sol\":4214:4221  _locked */\n      sload(0x07)\n        /* \"src/ArbExecutor.sol\":4214:4226  _locked != 1 */\n      eq\n        /* \"src/ArbExecutor.sol\":4210:4249  if (_locked != 1) revert Unauthorized() */\n      tag_112\n      jumpi\n        /* \"src/ArbExecutor.sol\":4235:4249  Unauthorized() */\n      mload(0x40)\n      0x82b4290000000000000000000000000000000000000000000000000000000000\n      dup2\n      mstore\n      0x04\n      add\n      mload(0x40)\n      dup1\n      swap2\n      sub\n      swap1\n      revert\n        /* \"src/ArbExecutor.sol\":4210:4249  if (_locked != 1) revert Unauthorized() */\n    tag_112:\n        /* \"src/ArbExecutor.sol\":4300:4301  2 */\n      0x02\n        /* \"src/ArbExecutor.sol\":4290:4297  _locked */\n      0x07\n        /* \"src/ArbExecutor.sol\":4290:4301  _locked = 2 */\n      dup2\n      swap1\n      sstore\n      pop\n        /* \"src/ArbExecutor.sol\":6544:6545  0 */\n      0x00\n        /* \"src/ArbExecutor.sol\":6530:6546  to == address(0) */\n      0xffffffffffffffffffffffffffffffffffffffff\n      and\n        /* \"src/ArbExecutor.sol\":6530:6532  to */\n      dup3\n        /* \"src/ArbExecutor.sol\":6530:6546  to == address(0) */\n      0xffffffffffffffffffffffffffffffffffffffff\n      and\n      sub\n        /* \"src/ArbExecutor.sol\":6526:6568  if (to == address(0)) revert ZeroAddress() */\n      tag_114\n      jumpi\n        /* \"src/ArbExecutor.sol\":6555:6568  ZeroAddress() */\n      mload(0x40)\n      0xd92e233d00000000000000000000000000000000000000000000000000000000\n      dup2\n      mstore\n      0x04\n      add\n      mload(0x40)\n      dup1\n      swap2\n      sub\n      swap1\n      revert\n        /* \"src/ArbExecutor.sol\":6526:6568  if (to == address(0)) revert ZeroAddress() */\n    tag_114:\n        /* \"src/ArbExecutor.sol\":6579:6586  bool ok */\n      0x00\n        /* \"src/ArbExecutor.sol\":6591:6593  to */\n      dup3\n        /* \"src/ArbExecutor.sol\":6591:6598  to.call */\n      0xffffffffffffffffffffffffffffffffffffffff\n      and\n        /* \"src/ArbExecutor.sol\":6606:6612  amount */\n      dup3\n        /* \"src/ArbExecutor.sol\":6591:6617  to.call{value: amount}(\"\") */\n      mload(0x40)\n      tag_115\n      swap1\n      tag_116\n      jump\t// in\n    tag_115:\n      0x00\n      mload(0x40)\n      dup1\n      dup4\n      sub\n      dup2\n      dup6\n      dup8\n      gas\n      call\n      swap3\n      pop\n      pop\n      pop\n      returndatasize\n      dup1\n      0x00\n      dup2\n      eq\n      tag_119\n      jumpi\n      mload(0x40)\n      swap2\n      pop\n      and(add(returndatasize, 0x3f), not(0x1f))\n      dup3\n      add\n      0x40\n      mstore\n      returndatasize\n      dup3\n      mstore\n      returndatasize\n      0x00\n      0x20\n      dup5\n      add\n      returndatacopy\n      jump(tag_118)\n    tag_119:\n      0x60\n      swap2\n      pop\n    tag_118:\n      pop\n        /* \"src/ArbExecutor.sol\":6578:6617  (bool ok,) = to.call{value: amount}(\"\") */\n      pop\n      swap1\n      pop\n        /* \"src/ArbExecutor.sol\":6632:6634  ok */\n      dup1\n        /* \"src/ArbExecutor.sol\":6627:6681  if (!ok) revert TransferFailed(address(0), to, amount) */\n      tag_120\n      jumpi\n        /* \"src/ArbExecutor.sol\":6666:6667  0 */\n      0x00\n        /* \"src/ArbExecutor.sol\":6670:6672  to */\n      dup4\n        /* \"src/ArbExecutor.sol\":6674:6680  amount */\n      dup4\n        /* \"src/ArbExecutor.sol\":6643:6681  TransferFailed(address(0), to, amount) */\n      mload(0x40)\n      0xbf182be800000000000000000000000000000000000000000000000000000000\n      dup2\n      mstore\n      0x04\n      add\n      tag_121\n      swap4\n      swap3\n      swap2\n      swap1\n      tag_122\n      jump\t// in\n    tag_121:\n      mload(0x40)\n      dup1\n      swap2\n      sub\n      swap1\n      revert\n        /* \"src/ArbExecutor.sol\":6627:6681  if (!ok) revert TransferFailed(address(0), to, amount) */\n    tag_120:\n        /* \"src/ArbExecutor.sol\":6710:6712  to */\n      dup3\n        /* \"src/ArbExecutor.sol\":6696:6721  NativeRescued(to, amount) */\n      0xffffffffffffffffffffffffffffffffffffffff\n      and\n      0xe3eb98b7fe2a0c1d490b92af73eeae611e9b00ab3c3f70b20bd7bb43f67a0f43\n        /* \"src/ArbExecutor.sol\":6714:6720  amount */\n      dup4\n        /* \"src/ArbExecutor.sol\":6696:6721  NativeRescued(to, amount) */\n      mload(0x40)\n      tag_123\n      swap2\n      swap1\n      tag_124\n      jump\t// in\n    tag_123:\n      mload(0x40)\n      dup1\n      swap2\n      sub\n      swap1\n      log2\n        /* \"src/ArbExecutor.sol\":6516:6728  {... */\n      pop\n        /* \"src/ArbExecutor.sol\":4332:4333  1 */\n      0x01\n        /* \"src/ArbExecutor.sol\":4322:4329  _locked */\n      0x07\n        /* \"src/ArbExecutor.sol\":4322:4333  _locked = 1 */\n      dup2\n      swap1\n      sstore\n      pop\n        /* \"src/ArbExecutor.sol\":6426:6728  function rescueNative(address payable to, uint256 amount) external onlyOwner nonReentrant {... */\n      pop\n      pop\n      jump\t// out\n        /* \"src/ArbExecutor.sol\":3433:3474  mapping(address => bool) public operators */\n    tag_35:\n      mstore(0x20, 0x01)\n      dup1\n      0x00\n      mstore\n      keccak256(0x00, 0x40)\n      0x00\n      swap2\n      pop\n      sload\n      swap1\n      0x0100\n      exp\n      swap1\n      div\n      0xff\n      and\n      dup2\n      jump\t// out\n        /* \"src/ArbExecutor.sol\":3481:3519  address public immutable balancerVault */\n    tag_40:\n      immutable(\"0x9c82694a9cf6c7b68ec93c5541ae0b2631d5f0fa3eec98f4ce497d015951b3ba\")\n      dup2\n      jump\t// out\n        /* \"src/ArbExecutor.sol\":9663:9861  function algebraSwapCallback(int256 amount0Delta, int256 amount1Delta, bytes calldata data) external {... */\n    tag_47:\n        /* \"src/ArbExecutor.sol\":9774:9854  _handlePoolSwapCallback(PROTOCOL_QUICKSWAP_V3, amount0Delta, amount1Delta, data) */\n      tag_126\n        /* \"src/ArbExecutor.sol\":1882:1883  3 */\n      0x03\n        /* \"src/ArbExecutor.sol\":9821:9833  amount0Delta */\n      dup6\n        /* \"src/ArbExecutor.sol\":9835:9847  amount1Delta */\n      dup6\n        /* \"src/ArbExecutor.sol\":9849:9853  data */\n      dup6\n      dup6\n        /* \"src/ArbExecutor.sol\":9774:9797  _handlePoolSwapCallback */\n      tag_127\n        /* \"src/ArbExecutor.sol\":9774:9854  _handlePoolSwapCallback(PROTOCOL_QUICKSWAP_V3, amount0Delta, amount1Delta, data) */\n      jump\t// in\n    tag_126:\n        /* \"src/ArbExecutor.sol\":9663:9861  function algebraSwapCallback(int256 amount0Delta, int256 amount1Delta, bytes calldata data) external {... */\n      pop\n      pop\n      pop\n      pop\n      jump\t// out\n        /* \"src/ArbExecutor.sol\":6734:8343  function executeArb(address flashToken, uint256 flashAmount, FlashParams calldata params)... */\n    tag_52:\n        /* \"src/ArbExecutor.sol\":4098:4103  owner */\n      0x00\n      0x00\n      swap1\n      sload\n      swap1\n      0x0100\n      exp\n      swap1\n      div\n      0xffffffffffffffffffffffffffffffffffffffff\n      and\n        /* \"src/ArbExecutor.sol\":4084:4103  msg.sender != owner */\n      0xffffffffffffffffffffffffffffffffffffffff\n      and\n        /* \"src/ArbExecutor.sol\":4084:4094  msg.sender */\n      caller\n        /* \"src/ArbExecutor.sol\":4084:4103  msg.sender != owner */\n      0xffffffffffffffffffffffffffffffffffffffff\n      and\n      eq\n      iszero\n        /* \"src/ArbExecutor.sol\":4084:4129  msg.sender != owner && !operators[msg.sender] */\n      dup1\n      iszero\n      tag_129\n      jumpi\n      pop\n        /* \"src/ArbExecutor.sol\":4108:4117  operators */\n      0x01\n        /* \"src/ArbExecutor.sol\":4108:4129  operators[msg.sender] */\n      0x00\n        /* \"src/ArbExecutor.sol\":4118:4128  msg.sender */\n      caller\n        /* \"src/ArbExecutor.sol\":4108:4129  operators[msg.sender] */\n      0xffffffffffffffffffffffffffffffffffffffff\n      and\n      0xffffffffffffffffffffffffffffffffffffffff\n      and\n      dup2\n      mstore\n      0x20\n      add\n      swap1\n      dup2\n      mstore\n      0x20\n      add\n      0x00\n      keccak256\n      0x00\n      swap1\n      sload\n      swap1\n      0x0100\n      exp\n      swap1\n      div\n      0xff\n      and\n        /* \"src/ArbExecutor.sol\":4107:4129  !operators[msg.sender] */\n      iszero\n        /* \"src/ArbExecutor.sol\":4084:4129  msg.sender != owner && !operators[msg.sender] */\n    tag_129:\n        /* \"src/ArbExecutor.sol\":4080:4152  if (msg.sender != owner && !operators[msg.sender]) revert Unauthorized() */\n      iszero\n      tag_130\n      jumpi\n        /* \"src/ArbExecutor.sol\":4138:4152  Unauthorized() */\n      mload(0x40)\n      0x82b4290000000000000000000000000000000000000000000000000000000000\n      dup2\n      mstore\n      0x04\n      add\n      mload(0x40)\n      dup1\n      swap2\n      sub\n      swap1\n      revert\n        /* \"src/ArbExecutor.sol\":4080:4152  if (msg.sender != owner && !operators[msg.sender]) revert Unauthorized() */\n    tag_130:\n        /* \"src/ArbExecutor.sol\":4225:4226  1 */\n      0x01\n        /* \"src/ArbExecutor.sol\":4214:4221  _locked */\n      sload(0x07)\n        /* \"src/ArbExecutor.sol\":4214:4226  _locked != 1 */\n      eq\n        /* \"src/ArbExecutor.sol\":4210:4249  if (_locked != 1) revert Unauthorized() */\n      tag_132\n      jumpi\n        /* \"src/ArbExecutor.sol\":4235:4249  Unauthorized() */\n      mload(0x40)\n      0x82b4290000000000000000000000000000000000000000000000000000000000\n      dup2\n      mstore\n      0x04\n      add\n      mload(0x40)\n      dup1\n      swap2\n      sub\n      swap1\n      revert\n        /* \"src/ArbExecutor.sol\":4210:4249  if (_locked != 1) revert Unauthorized() */\n    tag_132:\n        /* \"src/ArbExecutor.sol\":4300:4301  2 */\n      0x02\n        /* \"src/ArbExecutor.sol\":4290:4297  _locked */\n      0x07\n        /* \"src/ArbExecutor.sol\":4290:4301  _locked = 2 */\n      dup2\n      swap1\n      sstore\n      pop\n        /* \"src/ArbExecutor.sol\":6921:6927  params */\n      dup1\n        /* \"src/ArbExecutor.sol\":6921:6936  params.deadline */\n      0x40\n      add\n      calldataload\n        /* \"src/ArbExecutor.sol\":6903:6918  block.timestamp */\n      timestamp\n        /* \"src/ArbExecutor.sol\":6903:6936  block.timestamp > params.deadline */\n      gt\n        /* \"src/ArbExecutor.sol\":6899:6962  if (block.timestamp > params.deadline) revert DeadlineExpired() */\n      iszero\n      tag_134\n      jumpi\n        /* \"src/ArbExecutor.sol\":6945:6962  DeadlineExpired() */\n      mload(0x40)\n      0x1ab7da6b00000000000000000000000000000000000000000000000000000000\n      dup2\n      mstore\n      0x04\n      add\n      mload(0x40)\n      dup1\n      swap2\n      sub\n      swap1\n      revert\n        /* \"src/ArbExecutor.sol\":6899:6962  if (block.timestamp > params.deadline) revert DeadlineExpired() */\n    tag_134:\n        /* \"src/ArbExecutor.sol\":6972:6988  uint256 callsLen */\n      0x00\n        /* \"src/ArbExecutor.sol\":6991:6997  params */\n      dup2\n        /* \"src/ArbExecutor.sol\":6991:7003  params.calls */\n      dup1\n      0x80\n      add\n      swap1\n      tag_135\n      swap2\n      swap1\n      tag_136\n      jump\t// in\n    tag_135:\n        /* \"src/ArbExecutor.sol\":6991:7010  params.calls.length */\n      swap1\n      pop\n        /* \"src/ArbExecutor.sol\":6972:7010  uint256 callsLen = params.calls.length */\n      swap1\n      pop\n        /* \"src/ArbExecutor.sol\":7036:7037  0 */\n      0x00\n        /* \"src/ArbExecutor.sol\":7024:7032  callsLen */\n      dup2\n        /* \"src/ArbExecutor.sol\":7024:7037  callsLen == 0 */\n      sub\n        /* \"src/ArbExecutor.sol\":7020:7058  if (callsLen == 0) revert EmptyRoute() */\n      tag_137\n      jumpi\n        /* \"src/ArbExecutor.sol\":7046:7058  EmptyRoute() */\n      mload(0x40)\n      0xea60ab1d00000000000000000000000000000000000000000000000000000000\n      dup2\n      mstore\n      0x04\n      add\n      mload(0x40)\n      dup1\n      swap2\n      sub\n      swap1\n      revert\n        /* \"src/ArbExecutor.sol\":7020:7058  if (callsLen == 0) revert EmptyRoute() */\n    tag_137:\n        /* \"src/ArbExecutor.sol\":2121:2123  12 */\n      0x0c\n        /* \"src/ArbExecutor.sol\":7072:7080  callsLen */\n      dup2\n        /* \"src/ArbExecutor.sol\":7072:7092  callsLen > MAX_CALLS */\n      gt\n        /* \"src/ArbExecutor.sol\":7068:7115  if (callsLen > MAX_CALLS) revert TooManyCalls() */\n      iszero\n      tag_138\n      jumpi\n        /* \"src/ArbExecutor.sol\":7101:7115  TooManyCalls() */\n      mload(0x40)\n      0xf5dedbff00000000000000000000000000000000000000000000000000000000\n      dup2\n      mstore\n      0x04\n      add\n      mload(0x40)\n      dup1\n      swap2\n      sub\n      swap1\n      revert\n        /* \"src/ArbExecutor.sol\":7068:7115  if (callsLen > MAX_CALLS) revert TooManyCalls() */\n    tag_138:\n        /* \"src/ArbExecutor.sol\":7144:7145  0 */\n      0x00\n        /* \"src/ArbExecutor.sol\":7129:7140  flashAmount */\n      dup4\n        /* \"src/ArbExecutor.sol\":7129:7145  flashAmount == 0 */\n      sub\n        /* \"src/ArbExecutor.sol\":7125:7173  if (flashAmount == 0) revert FlashLoanRequired() */\n      tag_139\n      jumpi\n        /* \"src/ArbExecutor.sol\":7154:7173  FlashLoanRequired() */\n      mload(0x40)\n      0x946302fe00000000000000000000000000000000000000000000000000000000\n      dup2\n      mstore\n      0x04\n      add\n      mload(0x40)\n      dup1\n      swap2\n      sub\n      swap1\n      revert\n        /* \"src/ArbExecutor.sol\":7125:7173  if (flashAmount == 0) revert FlashLoanRequired() */\n    tag_139:\n        /* \"src/ArbExecutor.sol\":7209:7210  0 */\n      0x00\n        /* \"src/ArbExecutor.sol\":7187:7211  flashToken == address(0) */\n      0xffffffffffffffffffffffffffffffffffffffff\n      and\n        /* \"src/ArbExecutor.sol\":7187:7197  flashToken */\n      dup5\n        /* \"src/ArbExecutor.sol\":7187:7211  flashToken == address(0) */\n      0xffffffffffffffffffffffffffffffffffffffff\n      and\n      eq\n        /* \"src/ArbExecutor.sol\":7187:7247  flashToken == address(0) || params.profitToken == address(0) */\n      dup1\n      tag_140\n      jumpi\n      pop\n        /* \"src/ArbExecutor.sol\":7245:7246  0 */\n      0x00\n        /* \"src/ArbExecutor.sol\":7215:7247  params.profitToken == address(0) */\n      0xffffffffffffffffffffffffffffffffffffffff\n      and\n        /* \"src/ArbExecutor.sol\":7215:7221  params */\n      dup3\n        /* \"src/ArbExecutor.sol\":7215:7233  params.profitToken */\n      0x00\n      add\n      0x20\n      dup2\n      add\n      swap1\n      tag_141\n      swap2\n      swap1\n      tag_34\n      jump\t// in\n    tag_141:\n        /* \"src/ArbExecutor.sol\":7215:7247  params.profitToken == address(0) */\n      0xffffffffffffffffffffffffffffffffffffffff\n      and\n      eq\n        /* \"src/ArbExecutor.sol\":7187:7247  flashToken == address(0) || params.profitToken == address(0) */\n    tag_140:\n        /* \"src/ArbExecutor.sol\":7183:7269  if (flashToken == address(0) || params.profitToken == address(0)) revert ZeroAddress() */\n      iszero\n      tag_142\n      jumpi\n        /* \"src/ArbExecutor.sol\":7256:7269  ZeroAddress() */\n      mload(0x40)\n      0xd92e233d00000000000000000000000000000000000000000000000000000000\n      dup2\n      mstore\n      0x04\n      add\n      mload(0x40)\n      dup1\n      swap2\n      sub\n      swap1\n      revert\n        /* \"src/ArbExecutor.sol\":7183:7269  if (flashToken == address(0) || params.profitToken == address(0)) revert ZeroAddress() */\n    tag_142:\n        /* \"src/ArbExecutor.sol\":7280:7297  bytes32 routeHash */\n      0x00\n        /* \"src/ArbExecutor.sol\":7321:7327  params */\n      dup3\n        /* \"src/ArbExecutor.sol\":7321:7333  params.calls */\n      dup1\n      0x80\n      add\n      swap1\n      tag_143\n      swap2\n      swap1\n      tag_136\n      jump\t// in\n    tag_143:\n        /* \"src/ArbExecutor.sol\":7310:7334  abi.encode(params.calls) */\n      add(0x20, mload(0x40))\n      tag_144\n      swap3\n      swap2\n      swap1\n      tag_145\n      jump\t// in\n    tag_144:\n      mload(0x40)\n      0x20\n      dup2\n      dup4\n      sub\n      sub\n      dup2\n      mstore\n      swap1\n      0x40\n      mstore\n        /* \"src/ArbExecutor.sol\":7300:7335  keccak256(abi.encode(params.calls)) */\n      dup1\n      mload\n      swap1\n      0x20\n      add\n      keccak256\n        /* \"src/ArbExecutor.sol\":7280:7335  bytes32 routeHash = keccak256(abi.encode(params.calls)) */\n      swap1\n      pop\n        /* \"src/ArbExecutor.sol\":7362:7368  params */\n      dup3\n        /* \"src/ArbExecutor.sol\":7362:7378  params.routeHash */\n      0x60\n      add\n      calldataload\n        /* \"src/ArbExecutor.sol\":7349:7358  routeHash */\n      dup2\n        /* \"src/ArbExecutor.sol\":7349:7378  routeHash != params.routeHash */\n      eq\n        /* \"src/ArbExecutor.sol\":7345:7405  if (routeHash != params.routeHash) revert InvalidRouteHash() */\n      tag_146\n      jumpi\n        /* \"src/ArbExecutor.sol\":7387:7405  InvalidRouteHash() */\n      mload(0x40)\n      0xc858adff00000000000000000000000000000000000000000000000000000000\n      dup2\n      mstore\n      0x04\n      add\n      mload(0x40)\n      dup1\n      swap2\n      sub\n      swap1\n      revert\n        /* \"src/ArbExecutor.sol\":7345:7405  if (routeHash != params.routeHash) revert InvalidRouteHash() */\n    tag_146:\n        /* \"src/ArbExecutor.sol\":7416:7444  uint256 initialProfitBalance */\n      0x00\n        /* \"src/ArbExecutor.sol\":7461:7467  params */\n      dup4\n        /* \"src/ArbExecutor.sol\":7461:7479  params.profitToken */\n      0x00\n      add\n      0x20\n      dup2\n      add\n      swap1\n      tag_147\n      swap2\n      swap1\n      tag_34\n      jump\t// in\n    tag_147:\n        /* \"src/ArbExecutor.sol\":7447:7490  IERC20Minimal(params.profitToken).balanceOf */\n      0xffffffffffffffffffffffffffffffffffffffff\n      and\n      0x70a08231\n        /* \"src/ArbExecutor.sol\":7499:7503  this */\n      address\n        /* \"src/ArbExecutor.sol\":7447:7505  IERC20Minimal(params.profitToken).balanceOf(address(this)) */\n      mload(0x40)\n      dup3\n      0xffffffff\n      and\n      0xe0\n      shl\n      dup2\n      mstore\n      0x04\n      add\n      tag_148\n      swap2\n      swap1\n      tag_42\n      jump\t// in\n    tag_148:\n      0x20\n      mload(0x40)\n      dup1\n      dup4\n      sub\n      dup2\n      dup7\n      gas\n      staticcall\n      iszero\n      dup1\n      iszero\n      tag_150\n      jumpi\n      returndatacopy(0x00, 0x00, returndatasize)\n      revert(0x00, returndatasize)\n    tag_150:\n      pop\n      pop\n      pop\n      pop\n      mload(0x40)\n      returndatasize\n      not(0x1f)\n      0x1f\n      dup3\n      add\n      and\n      dup3\n      add\n      dup1\n      0x40\n      mstore\n      pop\n      dup2\n      add\n      swap1\n      tag_151\n      swap2\n      swap1\n      tag_152\n      jump\t// in\n    tag_151:\n        /* \"src/ArbExecutor.sol\":7416:7505  uint256 initialProfitBalance = IERC20Minimal(params.profitToken).balanceOf(address(this)) */\n      swap1\n      pop\n        /* \"src/ArbExecutor.sol\":2029:2030  1 */\n      0x01\n        /* \"src/ArbExecutor.sol\":7516:7522  _phase */\n      0x02\n      0x00\n        /* \"src/ArbExecutor.sol\":7516:7540  _phase = PHASE_FLASHLOAN */\n      0x0100\n      exp\n      dup2\n      sload\n      dup2\n      0xff\n      mul\n      not\n      and\n      swap1\n      dup4\n      0xff\n      and\n      mul\n      or\n      swap1\n      sstore\n      pop\n        /* \"src/ArbExecutor.sol\":7569:7578  routeHash */\n      dup2\n        /* \"src/ArbExecutor.sol\":7550:7566  _activeRouteHash */\n      0x03\n        /* \"src/ArbExecutor.sol\":7550:7578  _activeRouteHash = routeHash */\n      dup2\n      swap1\n      sstore\n      pop\n        /* \"src/ArbExecutor.sol\":7609:7615  params */\n      dup4\n        /* \"src/ArbExecutor.sol\":7609:7627  params.profitToken */\n      0x00\n      add\n      0x20\n      dup2\n      add\n      swap1\n      tag_153\n      swap2\n      swap1\n      tag_34\n      jump\t// in\n    tag_153:\n        /* \"src/ArbExecutor.sol\":7588:7606  _activeProfitToken */\n      0x04\n      0x00\n        /* \"src/ArbExecutor.sol\":7588:7627  _activeProfitToken = params.profitToken */\n      0x0100\n      exp\n      dup2\n      sload\n      dup2\n      0xffffffffffffffffffffffffffffffffffffffff\n      mul\n      not\n      and\n      swap1\n      dup4\n      0xffffffffffffffffffffffffffffffffffffffff\n      and\n      mul\n      or\n      swap1\n      sstore\n      pop\n        /* \"src/ArbExecutor.sol\":7656:7662  params */\n      dup4\n        /* \"src/ArbExecutor.sol\":7656:7672  params.minProfit */\n      0x20\n      add\n      calldataload\n        /* \"src/ArbExecutor.sol\":7637:7653  _activeMinProfit */\n      0x05\n        /* \"src/ArbExecutor.sol\":7637:7672  _activeMinProfit = params.minProfit */\n      dup2\n      swap1\n      sstore\n      pop\n        /* \"src/ArbExecutor.sol\":7712:7732  initialProfitBalance */\n      dup1\n        /* \"src/ArbExecutor.sol\":7682:7709  _activeInitialProfitBalance */\n      0x06\n        /* \"src/ArbExecutor.sol\":7682:7732  _activeInitialProfitBalance = initialProfitBalance */\n      dup2\n      swap1\n      sstore\n      pop\n        /* \"src/ArbExecutor.sol\":7743:7772  IERC20Minimal[] memory tokens */\n      0x00\n        /* \"src/ArbExecutor.sol\":7795:7796  1 */\n      0x01\n        /* \"src/ArbExecutor.sol\":7775:7797  new IERC20Minimal[](1) */\n      0xffffffffffffffff\n      dup2\n      gt\n      iszero\n      tag_154\n      jumpi\n      tag_155\n      tag_156\n      jump\t// in\n    tag_155:\n    tag_154:\n      mload(0x40)\n      swap1\n      dup1\n      dup3\n      mstore\n      dup1\n      0x20\n      mul\n      0x20\n      add\n      dup3\n      add\n      0x40\n      mstore\n      dup1\n      iszero\n      tag_157\n      jumpi\n      dup2\n      0x20\n      add\n      0x20\n      dup3\n      mul\n      dup1\n      calldatasize\n      dup4\n      calldatacopy\n      dup1\n      dup3\n      add\n      swap2\n      pop\n      pop\n      swap1\n      pop\n    tag_157:\n      pop\n        /* \"src/ArbExecutor.sol\":7743:7797  IERC20Minimal[] memory tokens = new IERC20Minimal[](1) */\n      swap1\n      pop\n        /* \"src/ArbExecutor.sol\":7833:7843  flashToken */\n      dup7\n        /* \"src/ArbExecutor.sol\":7807:7813  tokens */\n      dup2\n        /* \"src/ArbExecutor.sol\":7814:7815  0 */\n      0x00\n        /* \"src/ArbExecutor.sol\":7807:7816  tokens[0] */\n      dup2\n      mload\n      dup2\n      lt\n      tag_158\n      jumpi\n      tag_159\n      tag_160\n      jump\t// in\n    tag_159:\n    tag_158:\n      0x20\n      mul\n      0x20\n      add\n      add\n        /* \"src/ArbExecutor.sol\":7807:7844  tokens[0] = IERC20Minimal(flashToken) */\n      swap1\n      0xffffffffffffffffffffffffffffffffffffffff\n      and\n      swap1\n      dup2\n      0xffffffffffffffffffffffffffffffffffffffff\n      and\n      dup2\n      mstore\n      pop\n      pop\n        /* \"src/ArbExecutor.sol\":7854:7878  uint256[] memory amounts */\n      0x00\n        /* \"src/ArbExecutor.sol\":7895:7896  1 */\n      0x01\n        /* \"src/ArbExecutor.sol\":7881:7897  new uint256[](1) */\n      0xffffffffffffffff\n      dup2\n      gt\n      iszero\n      tag_161\n      jumpi\n      tag_162\n      tag_156\n      jump\t// in\n    tag_162:\n    tag_161:\n      mload(0x40)\n      swap1\n      dup1\n      dup3\n      mstore\n      dup1\n      0x20\n      mul\n      0x20\n      add\n      dup3\n      add\n      0x40\n      mstore\n      dup1\n      iszero\n      tag_163\n      jumpi\n      dup2\n      0x20\n      add\n      0x20\n      dup3\n      mul\n      dup1\n      calldatasize\n      dup4\n      calldatacopy\n      dup1\n      dup3\n      add\n      swap2\n      pop\n      pop\n      swap1\n      pop\n    tag_163:\n      pop\n        /* \"src/ArbExecutor.sol\":7854:7897  uint256[] memory amounts = new uint256[](1) */\n      swap1\n      pop\n        /* \"src/ArbExecutor.sol\":7920:7931  flashAmount */\n      dup7\n        /* \"src/ArbExecutor.sol\":7907:7914  amounts */\n      dup2\n        /* \"src/ArbExecutor.sol\":7915:7916  0 */\n      0x00\n        /* \"src/ArbExecutor.sol\":7907:7917  amounts[0] */\n      dup2\n      mload\n      dup2\n      lt\n      tag_164\n      jumpi\n      tag_165\n      tag_160\n      jump\t// in\n    tag_165:\n    tag_164:\n      0x20\n      mul\n      0x20\n      add\n      add\n        /* \"src/ArbExecutor.sol\":7907:7931  amounts[0] = flashAmount */\n      dup2\n      dup2\n      mstore\n      pop\n      pop\n        /* \"src/ArbExecutor.sol\":7957:7970  balancerVault */\n      immutable(\"0x9c82694a9cf6c7b68ec93c5541ae0b2631d5f0fa3eec98f4ce497d015951b3ba\")\n        /* \"src/ArbExecutor.sol\":7942:7981  IBalancerVault(balancerVault).flashLoan */\n      0xffffffffffffffffffffffffffffffffffffffff\n      and\n      0x5c38449e\n        /* \"src/ArbExecutor.sol\":7982:7986  this */\n      address\n        /* \"src/ArbExecutor.sol\":7988:7994  tokens */\n      dup5\n        /* \"src/ArbExecutor.sol\":7996:8003  amounts */\n      dup5\n        /* \"src/ArbExecutor.sol\":8016:8022  params */\n      dup11\n        /* \"src/ArbExecutor.sol\":8005:8023  abi.encode(params) */\n      add(0x20, mload(0x40))\n      tag_166\n      swap2\n      swap1\n      tag_167\n      jump\t// in\n    tag_166:\n      mload(0x40)\n      0x20\n      dup2\n      dup4\n      sub\n      sub\n      dup2\n      mstore\n      swap1\n      0x40\n      mstore\n        /* \"src/ArbExecutor.sol\":7942:8024  IBalancerVault(balancerVault).flashLoan(this, tokens, amounts, abi.encode(params)) */\n      mload(0x40)\n      dup6\n      0xffffffff\n      and\n      0xe0\n      shl\n      dup2\n      mstore\n      0x04\n      add\n      tag_168\n      swap5\n      swap4\n      swap3\n      swap2\n      swap1\n      tag_169\n      jump\t// in\n    tag_168:\n      0x00\n      mload(0x40)\n      dup1\n      dup4\n      sub\n      dup2\n      0x00\n      dup8\n      dup1\n      extcodesize\n      iszero\n      dup1\n      iszero\n      tag_170\n      jumpi\n      revert(0x00, 0x00)\n    tag_170:\n      pop\n      gas\n      call\n      iszero\n      dup1\n      iszero\n      tag_172\n      jumpi\n      returndatacopy(0x00, 0x00, returndatasize)\n      revert(0x00, returndatasize)\n    tag_172:\n      pop\n      pop\n      pop\n      pop\n        /* \"src/ArbExecutor.sol\":8035:8061  uint256 finalProfitBalance */\n      0x00\n        /* \"src/ArbExecutor.sol\":8078:8084  params */\n      dup7\n        /* \"src/ArbExecutor.sol\":8078:8096  params.profitToken */\n      0x00\n      add\n      0x20\n      dup2\n      add\n      swap1\n      tag_173\n      swap2\n      swap1\n      tag_34\n      jump\t// in\n    tag_173:\n        /* \"src/ArbExecutor.sol\":8064:8107  IERC20Minimal(params.profitToken).balanceOf */\n      0xffffffffffffffffffffffffffffffffffffffff\n      and\n      0x70a08231\n        /* \"src/ArbExecutor.sol\":8116:8120  this */\n      address\n        /* \"src/ArbExecutor.sol\":8064:8122  IERC20Minimal(params.profitToken).balanceOf(address(this)) */\n      mload(0x40)\n      dup3\n      0xffffffff\n      and\n      0xe0\n      shl\n      dup2\n      mstore\n      0x04\n      add\n      tag_174\n      swap2\n      swap1\n      tag_42\n      jump\t// in\n    tag_174:\n      0x20\n      mload(0x40)\n      dup1\n      dup4\n      sub\n      dup2\n      dup7\n      gas\n      staticcall\n      iszero\n      dup1\n      iszero\n      tag_176\n      jumpi\n      returndatacopy(0x00, 0x00, returndatasize)\n      revert(0x00, returndatasize)\n    tag_176:\n      pop\n      pop\n      pop\n      pop\n      mload(0x40)\n      returndatasize\n      not(0x1f)\n      0x1f\n      dup3\n      add\n      and\n      dup3\n      add\n      dup1\n      0x40\n      mstore\n      pop\n      dup2\n      add\n      swap1\n      tag_177\n      swap2\n      swap1\n      tag_152\n      jump\t// in\n    tag_177:\n        /* \"src/ArbExecutor.sol\":8035:8122  uint256 finalProfitBalance = IERC20Minimal(params.profitToken).balanceOf(address(this)) */\n      swap1\n      pop\n        /* \"src/ArbExecutor.sol\":8132:8152  uint256 profitAmount */\n      0x00\n        /* \"src/ArbExecutor.sol\":8176:8196  initialProfitBalance */\n      dup5\n        /* \"src/ArbExecutor.sol\":8155:8173  finalProfitBalance */\n      dup3\n        /* \"src/ArbExecutor.sol\":8155:8196  finalProfitBalance - initialProfitBalance */\n      tag_178\n      swap2\n      swap1\n      tag_179\n      jump\t// in\n    tag_178:\n        /* \"src/ArbExecutor.sol\":8132:8196  uint256 profitAmount = finalProfitBalance - initialProfitBalance */\n      swap1\n      pop\n        /* \"src/ArbExecutor.sol\":8207:8231  _clearExecutionContext() */\n      tag_180\n        /* \"src/ArbExecutor.sol\":8207:8229  _clearExecutionContext */\n      tag_181\n        /* \"src/ArbExecutor.sol\":8207:8231  _clearExecutionContext() */\n      jump\t// in\n    tag_180:\n        /* \"src/ArbExecutor.sol\":8311:8320  routeHash */\n      dup6\n        /* \"src/ArbExecutor.sol\":8277:8283  params */\n      dup9\n        /* \"src/ArbExecutor.sol\":8277:8295  params.profitToken */\n      0x00\n      add\n      0x20\n      dup2\n      add\n      swap1\n      tag_182\n      swap2\n      swap1\n      tag_34\n      jump\t// in\n    tag_182:\n        /* \"src/ArbExecutor.sol\":8247:8336  ArbitrageExecuted(msg.sender, params.profitToken, profitAmount, routeHash, balancerVault) */\n      0xffffffffffffffffffffffffffffffffffffffff\n      and\n        /* \"src/ArbExecutor.sol\":8265:8275  msg.sender */\n      caller\n        /* \"src/ArbExecutor.sol\":8247:8336  ArbitrageExecuted(msg.sender, params.profitToken, profitAmount, routeHash, balancerVault) */\n      0xffffffffffffffffffffffffffffffffffffffff\n      and\n      0x2790eac69d46d24bb29b55a23b12e2e49076dc2a9fdcb340e641de33fca2c5dd\n        /* \"src/ArbExecutor.sol\":8297:8309  profitAmount */\n      dup5\n        /* \"src/ArbExecutor.sol\":8322:8335  balancerVault */\n      immutable(\"0x9c82694a9cf6c7b68ec93c5541ae0b2631d5f0fa3eec98f4ce497d015951b3ba\")\n        /* \"src/ArbExecutor.sol\":8247:8336  ArbitrageExecuted(msg.sender, params.profitToken, profitAmount, routeHash, balancerVault) */\n      mload(0x40)\n      tag_183\n      swap3\n      swap2\n      swap1\n      tag_184\n      jump\t// in\n    tag_183:\n      mload(0x40)\n      dup1\n      swap2\n      sub\n      swap1\n      log4\n        /* \"src/ArbExecutor.sol\":6889:8343  {... */\n      pop\n      pop\n      pop\n      pop\n      pop\n      pop\n      pop\n        /* \"src/ArbExecutor.sol\":4332:4333  1 */\n      0x01\n        /* \"src/ArbExecutor.sol\":4322:4329  _locked */\n      0x07\n        /* \"src/ArbExecutor.sol\":4322:4333  _locked = 1 */\n      dup2\n      swap1\n      sstore\n      pop\n        /* \"src/ArbExecutor.sol\":6734:8343  function executeArb(address flashToken, uint256 flashAmount, FlashParams calldata params)... */\n      pop\n      pop\n      pop\n      jump\t// out\n        /* \"src/ArbExecutor.sol\":3617:3660  address public immutable quickswapV3Factory */\n    tag_55:\n      immutable(\"0x0d283e5f5b5d2526f34a5a92a1188385f6cf1a43607f82a114e6c2e937222ad5\")\n      dup2\n      jump\t// out\n        /* \"src/ArbExecutor.sol\":5234:5397  function setOperator(address operator, bool allowed) external onlyOwner {... */\n    tag_61:\n        /* \"src/ArbExecutor.sol\":3992:3997  owner */\n      0x00\n      0x00\n      swap1\n      sload\n      swap1\n      0x0100\n      exp\n      swap1\n      div\n      0xffffffffffffffffffffffffffffffffffffffff\n      and\n        /* \"src/ArbExecutor.sol\":3978:3997  msg.sender != owner */\n      0xffffffffffffffffffffffffffffffffffffffff\n      and\n        /* \"src/ArbExecutor.sol\":3978:3988  msg.sender */\n      caller\n        /* \"src/ArbExecutor.sol\":3978:3997  msg.sender != owner */\n      0xffffffffffffffffffffffffffffffffffffffff\n      and\n      eq\n        /* \"src/ArbExecutor.sol\":3974:4020  if (msg.sender != owner) revert Unauthorized() */\n      tag_186\n      jumpi\n        /* \"src/ArbExecutor.sol\":4006:4020  Unauthorized() */\n      mload(0x40)\n      0x82b4290000000000000000000000000000000000000000000000000000000000\n      dup2\n      mstore\n      0x04\n      add\n      mload(0x40)\n      dup1\n      swap2\n      sub\n      swap1\n      revert\n        /* \"src/ArbExecutor.sol\":3974:4020  if (msg.sender != owner) revert Unauthorized() */\n    tag_186:\n        /* \"src/ArbExecutor.sol\":5338:5345  allowed */\n      dup1\n        /* \"src/ArbExecutor.sol\":5316:5325  operators */\n      0x01\n        /* \"src/ArbExecutor.sol\":5316:5335  operators[operator] */\n      0x00\n        /* \"src/ArbExecutor.sol\":5326:5334  operator */\n      dup5\n        /* \"src/ArbExecutor.sol\":5316:5335  operators[operator] */\n      0xffffffffffffffffffffffffffffffffffffffff\n      and\n      0xffffffffffffffffffffffffffffffffffffffff\n      and\n      dup2\n      mstore\n      0x20\n      add\n      swap1\n      dup2\n      mstore\n      0x20\n      add\n      0x00\n      keccak256\n      0x00\n        /* \"src/ArbExecutor.sol\":5316:5345  operators[operator] = allowed */\n      0x0100\n      exp\n      dup2\n      sload\n      dup2\n      0xff\n      mul\n      not\n      and\n      swap1\n      dup4\n      iszero\n      iszero\n      mul\n      or\n      swap1\n      sstore\n      pop\n        /* \"src/ArbExecutor.sol\":5372:5380  operator */\n      dup2\n        /* \"src/ArbExecutor.sol\":5360:5390  OperatorSet(operator, allowed) */\n      0xffffffffffffffffffffffffffffffffffffffff\n      and\n      0x1a594081ae893ab78e67d9b9e843547318164322d32c65369d78a96172d9dc8f\n        /* \"src/ArbExecutor.sol\":5382:5389  allowed */\n      dup3\n        /* \"src/ArbExecutor.sol\":5360:5390  OperatorSet(operator, allowed) */\n      mload(0x40)\n      tag_188\n      swap2\n      swap1\n      tag_37\n      jump\t// in\n    tag_188:\n      mload(0x40)\n      dup1\n      swap2\n      sub\n      swap1\n      log2\n        /* \"src/ArbExecutor.sol\":5234:5397  function setOperator(address operator, bool allowed) external onlyOwner {... */\n      pop\n      pop\n      jump\t// out\n        /* \"src/ArbExecutor.sol\":3525:3566  address public immutable uniswapV3Factory */\n    tag_64:\n      immutable(\"0xdb56024b3d6cde3a6cd02fd327b99549871e338b958b94e29cae4ab4619605ef\")\n      dup2\n      jump\t// out\n        /* \"src/ArbExecutor.sol\":3572:3611  address public immutable sushiV3Factory */\n    tag_68:\n      immutable(\"0x98f4d6eec7613e33b36335f2ce6a27018d9a9f0999ab27807ed26ac6fd46f1a2\")\n      dup2\n      jump\t// out\n        /* \"src/ArbExecutor.sol\":3666:3710  address public immutable kyberElasticFactory */\n    tag_72:\n      immutable(\"0x4f07d7aea7a8a16d4b795a9a9aabd4a50f93236b39d48ad640505cdc3dbb3bbc\")\n      dup2\n      jump\t// out\n        /* \"src/ArbExecutor.sol\":3407:3427  address public owner */\n    tag_76:\n      0x00\n      0x00\n      swap1\n      sload\n      swap1\n      0x0100\n      exp\n      swap1\n      div\n      0xffffffffffffffffffffffffffffffffffffffff\n      and\n      dup2\n      jump\t// out\n        /* \"src/ArbExecutor.sol\":5663:5869  function preApprove(address token, address spender) external onlyAuthorized nonReentrant {... */\n    tag_82:\n        /* \"src/ArbExecutor.sol\":4098:4103  owner */\n      0x00\n      0x00\n      swap1\n      sload\n      swap1\n      0x0100\n      exp\n      swap1\n      div\n      0xffffffffffffffffffffffffffffffffffffffff\n      and\n        /* \"src/ArbExecutor.sol\":4084:4103  msg.sender != owner */\n      0xffffffffffffffffffffffffffffffffffffffff\n      and\n        /* \"src/ArbExecutor.sol\":4084:4094  msg.sender */\n      caller\n        /* \"src/ArbExecutor.sol\":4084:4103  msg.sender != owner */\n      0xffffffffffffffffffffffffffffffffffffffff\n      and\n      eq\n      iszero\n        /* \"src/ArbExecutor.sol\":4084:4129  msg.sender != owner && !operators[msg.sender] */\n      dup1\n      iszero\n      tag_190\n      jumpi\n      pop\n        /* \"src/ArbExecutor.sol\":4108:4117  operators */\n      0x01\n        /* \"src/ArbExecutor.sol\":4108:4129  operators[msg.sender] */\n      0x00\n        /* \"src/ArbExecutor.sol\":4118:4128  msg.sender */\n      caller\n        /* \"src/ArbExecutor.sol\":4108:4129  operators[msg.sender] */\n      0xffffffffffffffffffffffffffffffffffffffff\n      and\n      0xffffffffffffffffffffffffffffffffffffffff\n      and\n      dup2\n      mstore\n      0x20\n      add\n      swap1\n      dup2\n      mstore\n      0x20\n      add\n      0x00\n      keccak256\n      0x00\n      swap1\n      sload\n      swap1\n      0x0100\n      exp\n      swap1\n      div\n      0xff\n      and\n        /* \"src/ArbExecutor.sol\":4107:4129  !operators[msg.sender] */\n      iszero\n        /* \"src/ArbExecutor.sol\":4084:4129  msg.sender != owner && !operators[msg.sender] */\n    tag_190:\n        /* \"src/ArbExecutor.sol\":4080:4152  if (msg.sender != owner && !operators[msg.sender]) revert Unauthorized() */\n      iszero\n      tag_191\n      jumpi\n        /* \"src/ArbExecutor.sol\":4138:4152  Unauthorized() */\n      mload(0x40)\n      0x82b4290000000000000000000000000000000000000000000000000000000000\n      dup2\n      mstore\n      0x04\n      add\n      mload(0x40)\n      dup1\n      swap2\n      sub\n      swap1\n      revert\n        /* \"src/ArbExecutor.sol\":4080:4152  if (msg.sender != owner && !operators[msg.sender]) revert Unauthorized() */\n    tag_191:\n        /* \"src/ArbExecutor.sol\":4225:4226  1 */\n      0x01\n        /* \"src/ArbExecutor.sol\":4214:4221  _locked */\n      sload(0x07)\n        /* \"src/ArbExecutor.sol\":4214:4226  _locked != 1 */\n      eq\n        /* \"src/ArbExecutor.sol\":4210:4249  if (_locked != 1) revert Unauthorized() */\n      tag_193\n      jumpi\n        /* \"src/ArbExecutor.sol\":4235:4249  Unauthorized() */\n      mload(0x40)\n      0x82b4290000000000000000000000000000000000000000000000000000000000\n      dup2\n      mstore\n      0x04\n      add\n      mload(0x40)\n      dup1\n      swap2\n      sub\n      swap1\n      revert\n        /* \"src/ArbExecutor.sol\":4210:4249  if (_locked != 1) revert Unauthorized() */\n    tag_193:\n        /* \"src/ArbExecutor.sol\":4300:4301  2 */\n      0x02\n        /* \"src/ArbExecutor.sol\":4290:4297  _locked */\n      0x07\n        /* \"src/ArbExecutor.sol\":4290:4301  _locked = 2 */\n      dup2\n      swap1\n      sstore\n      pop\n        /* \"src/ArbExecutor.sol\":5762:5820  _safeApproveMaxIfNeeded(token, spender, type(uint256).max) */\n      tag_195\n        /* \"src/ArbExecutor.sol\":5786:5791  token */\n      dup3\n        /* \"src/ArbExecutor.sol\":5793:5800  spender */\n      dup3\n        /* \"src/ArbExecutor.sol\":5802:5819  type(uint256).max */\n      0xffffffffffffffffffffffffffffffffffffffffffffffffffffffffffffffff\n        /* \"src/ArbExecutor.sol\":5762:5785  _safeApproveMaxIfNeeded */\n      tag_196\n        /* \"src/ArbExecutor.sol\":5762:5820  _safeApproveMaxIfNeeded(token, spender, type(uint256).max) */\n      jump\t// in\n    tag_195:\n        /* \"src/ArbExecutor.sol\":5854:5861  spender */\n      dup1\n        /* \"src/ArbExecutor.sol\":5835:5862  PreApproved(token, spender) */\n      0xffffffffffffffffffffffffffffffffffffffff\n      and\n        /* \"src/ArbExecutor.sol\":5847:5852  token */\n      dup3\n        /* \"src/ArbExecutor.sol\":5835:5862  PreApproved(token, spender) */\n      0xffffffffffffffffffffffffffffffffffffffff\n      and\n      0x8d936a3b74312b60e024ee1b476014e8bd0523e8355d93ff5a0787567fe92f5f\n      mload(0x40)\n      mload(0x40)\n      dup1\n      swap2\n      sub\n      swap1\n      log3\n        /* \"src/ArbExecutor.sol\":4332:4333  1 */\n      0x01\n        /* \"src/ArbExecutor.sol\":4322:4329  _locked */\n      0x07\n        /* \"src/ArbExecutor.sol\":4322:4333  _locked = 1 */\n      dup2\n      swap1\n      sstore\n      pop\n        /* \"src/ArbExecutor.sol\":5663:5869  function preApprove(address token, address spender) external onlyAuthorized nonReentrant {... */\n      pop\n      pop\n      jump\t// out\n        /* \"src/ArbExecutor.sol\":6177:6420  function rescueToken(address token, address to, uint256 amount) external onlyOwner nonReentrant {... */\n    tag_87:\n        /* \"src/ArbExecutor.sol\":3992:3997  owner */\n      0x00\n      0x00\n      swap1\n      sload\n      swap1\n      0x0100\n      exp\n      swap1\n      div\n      0xffffffffffffffffffffffffffffffffffffffff\n      and\n        /* \"src/ArbExecutor.sol\":3978:3997  msg.sender != owner */\n      0xffffffffffffffffffffffffffffffffffffffff\n      and\n        /* \"src/ArbExecutor.sol\":3978:3988  msg.sender */\n      caller\n        /* \"src/ArbExecutor.sol\":3978:3997  msg.sender != owner */\n      0xffffffffffffffffffffffffffffffffffffffff\n      and\n      eq\n        /* \"src/ArbExecutor.sol\":3974:4020  if (msg.sender != owner) revert Unauthorized() */\n      tag_198\n      jumpi\n        /* \"src/ArbExecutor.sol\":4006:4020  Unauthorized() */\n      mload(0x40)\n      0x82b4290000000000000000000000000000000000000000000000000000000000\n      dup2\n      mstore\n      0x04\n      add\n      mload(0x40)\n      dup1\n      swap2\n      sub\n      swap1\n      revert\n        /* \"src/ArbExecutor.sol\":3974:4020  if (msg.sender != owner) revert Unauthorized() */\n    tag_198:\n        /* \"src/ArbExecutor.sol\":4225:4226  1 */\n      0x01\n        /* \"src/ArbExecutor.sol\":4214:4221  _locked */\n      sload(0x07)\n        /* \"src/ArbExecutor.sol\":4214:4226  _locked != 1 */\n      eq\n        /* \"src/ArbExecutor.sol\":4210:4249  if (_locked != 1) revert Unauthorized() */\n      tag_200\n      jumpi\n        /* \"src/ArbExecutor.sol\":4235:4249  Unauthorized() */\n      mload(0x40)\n      0x82b4290000000000000000000000000000000000000000000000000000000000\n      dup2\n      mstore\n      0x04\n      add\n      mload(0x40)\n      dup1\n      swap2\n      sub\n      swap1\n      revert\n        /* \"src/ArbExecutor.sol\":4210:4249  if (_locked != 1) revert Unauthorized() */\n    tag_200:\n        /* \"src/ArbExecutor.sol\":4300:4301  2 */\n      0x02\n        /* \"src/ArbExecutor.sol\":4290:4297  _locked */\n      0x07\n        /* \"src/ArbExecutor.sol\":4290:4301  _locked = 2 */\n      dup2\n      swap1\n      sstore\n      pop\n        /* \"src/ArbExecutor.sol\":6301:6302  0 */\n      0x00\n        /* \"src/ArbExecutor.sol\":6287:6303  to == address(0) */\n      0xffffffffffffffffffffffffffffffffffffffff\n      and\n        /* \"src/ArbExecutor.sol\":6287:6289  to */\n      dup3\n        /* \"src/ArbExecutor.sol\":6287:6303  to == address(0) */\n      0xffffffffffffffffffffffffffffffffffffffff\n      and\n      sub\n        /* \"src/ArbExecutor.sol\":6283:6325  if (to == address(0)) revert ZeroAddress() */\n      tag_202\n      jumpi\n        /* \"src/ArbExecutor.sol\":6312:6325  ZeroAddress() */\n      mload(0x40)\n      0xd92e233d00000000000000000000000000000000000000000000000000000000\n      dup2\n      mstore\n      0x04\n      add\n      mload(0x40)\n      dup1\n      swap2\n      sub\n      swap1\n      revert\n        /* \"src/ArbExecutor.sol\":6283:6325  if (to == address(0)) revert ZeroAddress() */\n    tag_202:\n        /* \"src/ArbExecutor.sol\":6335:6367  _safeTransfer(token, to, amount) */\n      tag_203\n        /* \"src/ArbExecutor.sol\":6349:6354  token */\n      dup4\n        /* \"src/ArbExecutor.sol\":6356:6358  to */\n      dup4\n        /* \"src/ArbExecutor.sol\":6360:6366  amount */\n      dup4\n        /* \"src/ArbExecutor.sol\":6335:6348  _safeTransfer */\n      tag_204\n        /* \"src/ArbExecutor.sol\":6335:6367  _safeTransfer(token, to, amount) */\n      jump\t// in\n    tag_203:\n        /* \"src/ArbExecutor.sol\":6402:6404  to */\n      dup2\n        /* \"src/ArbExecutor.sol\":6382:6413  TokenRescued(token, to, amount) */\n      0xffffffffffffffffffffffffffffffffffffffff\n      and\n        /* \"src/ArbExecutor.sol\":6395:6400  token */\n      dup4\n        /* \"src/ArbExecutor.sol\":6382:6413  TokenRescued(token, to, amount) */\n      0xffffffffffffffffffffffffffffffffffffffff\n      and\n      0x4143f7b5cb6ea007914c32b8a3e64cebc051d7f493fa0755454da1e47701e125\n        /* \"src/ArbExecutor.sol\":6406:6412  amount */\n      dup4\n        /* \"src/ArbExecutor.sol\":6382:6413  TokenRescued(token, to, amount) */\n      mload(0x40)\n      tag_205\n      swap2\n      swap1\n      tag_124\n      jump\t// in\n    tag_205:\n      mload(0x40)\n      dup1\n      swap2\n      sub\n      swap1\n      log3\n        /* \"src/ArbExecutor.sol\":4332:4333  1 */\n      0x01\n        /* \"src/ArbExecutor.sol\":4322:4329  _locked */\n      0x07\n        /* \"src/ArbExecutor.sol\":4322:4333  _locked = 1 */\n      dup2\n      swap1\n      sstore\n      pop\n        /* \"src/ArbExecutor.sol\":6177:6420  function rescueToken(address token, address to, uint256 amount) external onlyOwner nonReentrant {... */\n      pop\n      pop\n      pop\n      jump\t// out\n        /* \"src/ArbExecutor.sol\":8349:9453  function receiveFlashLoan(... */\n    tag_92:\n        /* \"src/ArbExecutor.sol\":4225:4226  1 */\n      0x01\n        /* \"src/ArbExecutor.sol\":4214:4221  _locked */\n      sload(0x07)\n        /* \"src/ArbExecutor.sol\":4214:4226  _locked != 1 */\n      eq\n        /* \"src/ArbExecutor.sol\":4210:4249  if (_locked != 1) revert Unauthorized() */\n      tag_207\n      jumpi\n        /* \"src/ArbExecutor.sol\":4235:4249  Unauthorized() */\n      mload(0x40)\n      0x82b4290000000000000000000000000000000000000000000000000000000000\n      dup2\n      mstore\n      0x04\n      add\n      mload(0x40)\n      dup1\n      swap2\n      sub\n      swap1\n      revert\n        /* \"src/ArbExecutor.sol\":4210:4249  if (_locked != 1) revert Unauthorized() */\n    tag_207:\n        /* \"src/ArbExecutor.sol\":4300:4301  2 */\n      0x02\n        /* \"src/ArbExecutor.sol\":4290:4297  _locked */\n      0x07\n        /* \"src/ArbExecutor.sol\":4290:4301  _locked = 2 */\n      dup2\n      swap1\n      sstore\n      pop\n        /* \"src/ArbExecutor.sol\":8581:8594  balancerVault */\n      immutable(\"0x9c82694a9cf6c7b68ec93c5541ae0b2631d5f0fa3eec98f4ce497d015951b3ba\")\n        /* \"src/ArbExecutor.sol\":8567:8594  msg.sender != balancerVault */\n      0xffffffffffffffffffffffffffffffffffffffff\n      and\n        /* \"src/ArbExecutor.sol\":8567:8577  msg.sender */\n      caller\n        /* \"src/ArbExecutor.sol\":8567:8594  msg.sender != balancerVault */\n      0xffffffffffffffffffffffffffffffffffffffff\n      and\n      eq\n        /* \"src/ArbExecutor.sol\":8563:8618  if (msg.sender != balancerVault) revert FlashLoanOnly() */\n      tag_209\n      jumpi\n        /* \"src/ArbExecutor.sol\":8603:8618  FlashLoanOnly() */\n      mload(0x40)\n      0xfc30532900000000000000000000000000000000000000000000000000000000\n      dup2\n      mstore\n      0x04\n      add\n      mload(0x40)\n      dup1\n      swap2\n      sub\n      swap1\n      revert\n        /* \"src/ArbExecutor.sol\":8563:8618  if (msg.sender != balancerVault) revert FlashLoanOnly() */\n    tag_209:\n        /* \"src/ArbExecutor.sol\":2029:2030  1 */\n      0x01\n        /* \"src/ArbExecutor.sol\":8632:8657  _phase != PHASE_FLASHLOAN */\n      0xff\n      and\n        /* \"src/ArbExecutor.sol\":8632:8638  _phase */\n      0x02\n      0x00\n      swap1\n      sload\n      swap1\n      0x0100\n      exp\n      swap1\n      div\n      0xff\n      and\n        /* \"src/ArbExecutor.sol\":8632:8657  _phase != PHASE_FLASHLOAN */\n      0xff\n      and\n      eq\n        /* \"src/ArbExecutor.sol\":8628:8691  if (_phase != PHASE_FLASHLOAN) revert InvalidFlashLoanContext() */\n      tag_210\n      jumpi\n        /* \"src/ArbExecutor.sol\":8666:8691  InvalidFlashLoanContext() */\n      mload(0x40)\n      0xadd4adc000000000000000000000000000000000000000000000000000000000\n      dup2\n      mstore\n      0x04\n      add\n      mload(0x40)\n      dup1\n      swap2\n      sub\n      swap1\n      revert\n        /* \"src/ArbExecutor.sol\":8628:8691  if (_phase != PHASE_FLASHLOAN) revert InvalidFlashLoanContext() */\n    tag_210:\n        /* \"src/ArbExecutor.sol\":8702:8727  FlashParams memory params */\n      0x00\n        /* \"src/ArbExecutor.sol\":8741:8749  userData */\n      dup2\n        /* \"src/ArbExecutor.sol\":8730:8765  abi.decode(userData, (FlashParams)) */\n      dup1\n      0x20\n      add\n      swap1\n      mload\n      dup2\n      add\n      swap1\n      tag_211\n      swap2\n      swap1\n      tag_212\n      jump\t// in\n    tag_211:\n        /* \"src/ArbExecutor.sol\":8702:8765  FlashParams memory params = abi.decode(userData, (FlashParams)) */\n      swap1\n      pop\n        /* \"src/ArbExecutor.sol\":8799:8815  _activeRouteHash */\n      sload(0x03)\n        /* \"src/ArbExecutor.sol\":8779:8785  params */\n      dup2\n        /* \"src/ArbExecutor.sol\":8779:8795  params.routeHash */\n      0x60\n      add\n      mload\n        /* \"src/ArbExecutor.sol\":8779:8815  params.routeHash != _activeRouteHash */\n      eq\n        /* \"src/ArbExecutor.sol\":8775:8842  if (params.routeHash != _activeRouteHash) revert InvalidRouteHash() */\n      tag_213\n      jumpi\n        /* \"src/ArbExecutor.sol\":8824:8842  InvalidRouteHash() */\n      mload(0x40)\n      0xc858adff00000000000000000000000000000000000000000000000000000000\n      dup2\n      mstore\n      0x04\n      add\n      mload(0x40)\n      dup1\n      swap2\n      sub\n      swap1\n      revert\n        /* \"src/ArbExecutor.sol\":8775:8842  if (params.routeHash != _activeRouteHash) revert InvalidRouteHash() */\n    tag_213:\n        /* \"src/ArbExecutor.sol\":8878:8896  _activeProfitToken */\n      0x04\n      0x00\n      swap1\n      sload\n      swap1\n      0x0100\n      exp\n      swap1\n      div\n      0xffffffffffffffffffffffffffffffffffffffff\n      and\n        /* \"src/ArbExecutor.sol\":8856:8896  params.profitToken != _activeProfitToken */\n      0xffffffffffffffffffffffffffffffffffffffff\n      and\n        /* \"src/ArbExecutor.sol\":8856:8862  params */\n      dup2\n        /* \"src/ArbExecutor.sol\":8856:8874  params.profitToken */\n      0x00\n      add\n      mload\n        /* \"src/ArbExecutor.sol\":8856:8896  params.profitToken != _activeProfitToken */\n      0xffffffffffffffffffffffffffffffffffffffff\n      and\n      eq\n        /* \"src/ArbExecutor.sol\":8852:8930  if (params.profitToken != _activeProfitToken) revert InvalidFlashLoanContext() */\n      tag_214\n      jumpi\n        /* \"src/ArbExecutor.sol\":8905:8930  InvalidFlashLoanContext() */\n      mload(0x40)\n      0xadd4adc000000000000000000000000000000000000000000000000000000000\n      dup2\n      mstore\n      0x04\n      add\n      mload(0x40)\n      dup1\n      swap2\n      sub\n      swap1\n      revert\n        /* \"src/ArbExecutor.sol\":8852:8930  if (params.profitToken != _activeProfitToken) revert InvalidFlashLoanContext() */\n    tag_214:\n        /* \"src/ArbExecutor.sol\":8964:8980  _activeMinProfit */\n      sload(0x05)\n        /* \"src/ArbExecutor.sol\":8944:8950  params */\n      dup2\n        /* \"src/ArbExecutor.sol\":8944:8960  params.minProfit */\n      0x20\n      add\n      mload\n        /* \"src/ArbExecutor.sol\":8944:8980  params.minProfit != _activeMinProfit */\n      eq\n        /* \"src/ArbExecutor.sol\":8940:9014  if (params.minProfit != _activeMinProfit) revert InvalidFlashLoanContext() */\n      tag_215\n      jumpi\n        /* \"src/ArbExecutor.sol\":8989:9014  InvalidFlashLoanContext() */\n      mload(0x40)\n      0xadd4adc000000000000000000000000000000000000000000000000000000000\n      dup2\n      mstore\n      0x04\n      add\n      mload(0x40)\n      dup1\n      swap2\n      sub\n      swap1\n      revert\n        /* \"src/ArbExecutor.sol\":8940:9014  if (params.minProfit != _activeMinProfit) revert InvalidFlashLoanContext() */\n    tag_215:\n        /* \"src/ArbExecutor.sol\":9046:9052  params */\n      dup1\n        /* \"src/ArbExecutor.sol\":9046:9061  params.deadline */\n      0x40\n      add\n      mload\n        /* \"src/ArbExecutor.sol\":9028:9043  block.timestamp */\n      timestamp\n        /* \"src/ArbExecutor.sol\":9028:9061  block.timestamp > params.deadline */\n      gt\n        /* \"src/ArbExecutor.sol\":9024:9087  if (block.timestamp > params.deadline) revert DeadlineExpired() */\n      iszero\n      tag_216\n      jumpi\n        /* \"src/ArbExecutor.sol\":9070:9087  DeadlineExpired() */\n      mload(0x40)\n      0x1ab7da6b00000000000000000000000000000000000000000000000000000000\n      dup2\n      mstore\n      0x04\n      add\n      mload(0x40)\n      dup1\n      swap2\n      sub\n      swap1\n      revert\n        /* \"src/ArbExecutor.sol\":9024:9087  if (block.timestamp > params.deadline) revert DeadlineExpired() */\n    tag_216:\n        /* \"src/ArbExecutor.sol\":2076:2077  2 */\n      0x02\n        /* \"src/ArbExecutor.sol\":9098:9104  _phase */\n      dup1\n      0x00\n        /* \"src/ArbExecutor.sol\":9098:9121  _phase = PHASE_CALLBACK */\n      0x0100\n      exp\n      dup2\n      sload\n      dup2\n      0xff\n      mul\n      not\n      and\n      swap1\n      dup4\n      0xff\n      and\n      mul\n      or\n      swap1\n      sstore\n      pop\n        /* \"src/ArbExecutor.sol\":9131:9158  _executeCalls(params.calls) */\n      tag_217\n        /* \"src/ArbExecutor.sol\":9145:9151  params */\n      dup2\n        /* \"src/ArbExecutor.sol\":9145:9157  params.calls */\n      0x80\n      add\n      mload\n        /* \"src/ArbExecutor.sol\":9131:9144  _executeCalls */\n      tag_218\n        /* \"src/ArbExecutor.sol\":9131:9158  _executeCalls(params.calls) */\n      jump\t// in\n    tag_217:\n        /* \"src/ArbExecutor.sol\":9169:9180  uint256 len */\n      0x00\n        /* \"src/ArbExecutor.sol\":9183:9189  tokens */\n      dup6\n        /* \"src/ArbExecutor.sol\":9183:9196  tokens.length */\n      mload\n        /* \"src/ArbExecutor.sol\":9169:9196  uint256 len = tokens.length */\n      swap1\n      pop\n        /* \"src/ArbExecutor.sol\":9211:9220  uint256 i */\n      0x00\n        /* \"src/ArbExecutor.sol\":9206:9392  for (uint256 i; i < len;) {... */\n    tag_219:\n        /* \"src/ArbExecutor.sol\":9226:9229  len */\n      dup2\n        /* \"src/ArbExecutor.sol\":9222:9223  i */\n      dup2\n        /* \"src/ArbExecutor.sol\":9222:9229  i < len */\n      lt\n        /* \"src/ArbExecutor.sol\":9206:9392  for (uint256 i; i < len;) {... */\n      iszero\n      tag_220\n      jumpi\n        /* \"src/ArbExecutor.sol\":9246:9322  _safeTransfer(address(tokens[i]), balancerVault, amounts[i] + feeAmounts[i]) */\n      tag_222\n        /* \"src/ArbExecutor.sol\":9268:9274  tokens */\n      dup8\n        /* \"src/ArbExecutor.sol\":9275:9276  i */\n      dup3\n        /* \"src/ArbExecutor.sol\":9268:9277  tokens[i] */\n      dup2\n      mload\n      dup2\n      lt\n      tag_223\n      jumpi\n      tag_224\n      tag_160\n      jump\t// in\n    tag_224:\n    tag_223:\n      0x20\n      mul\n      0x20\n      add\n      add\n      mload\n        /* \"src/ArbExecutor.sol\":9280:9293  balancerVault */\n      immutable(\"0x9c82694a9cf6c7b68ec93c5541ae0b2631d5f0fa3eec98f4ce497d015951b3ba\")\n        /* \"src/ArbExecutor.sol\":9308:9318  feeAmounts */\n      dup8\n        /* \"src/ArbExecutor.sol\":9319:9320  i */\n      dup5\n        /* \"src/ArbExecutor.sol\":9308:9321  feeAmounts[i] */\n      dup2\n      mload\n      dup2\n      lt\n      tag_225\n      jumpi\n      tag_226\n      tag_160\n      jump\t// in\n    tag_226:\n    tag_225:\n      0x20\n      mul\n      0x20\n      add\n      add\n      mload\n        /* \"src/ArbExecutor.sol\":9295:9302  amounts */\n      dup10\n        /* \"src/ArbExecutor.sol\":9303:9304  i */\n      dup6\n        /* \"src/ArbExecutor.sol\":9295:9305  amounts[i] */\n      dup2\n      mload\n      dup2\n      lt\n      tag_227\n      jumpi\n      tag_228\n      tag_160\n      jump\t// in\n    tag_228:\n    tag_227:\n      0x20\n      mul\n      0x20\n      add\n      add\n      mload\n        /* \"src/ArbExecutor.sol\":9295:9321  amounts[i] + feeAmounts[i] */\n      tag_229\n      swap2\n      swap1\n      tag_230\n      jump\t// in\n    tag_229:\n        /* \"src/ArbExecutor.sol\":9246:9259  _safeTransfer */\n      tag_204\n        /* \"src/ArbExecutor.sol\":9246:9322  _safeTransfer(address(tokens[i]), balancerVault, amounts[i] + feeAmounts[i]) */\n      jump\t// in\n    tag_222:\n        /* \"src/ArbExecutor.sol\":9364:9367  ++i */\n      dup1\n      0x01\n      add\n      swap1\n      pop\n        /* \"src/ArbExecutor.sol\":9206:9392  for (uint256 i; i < len;) {... */\n      jump(tag_219)\n    tag_220:\n      pop\n        /* \"src/ArbExecutor.sol\":1981:1982  0 */\n      0x00\n        /* \"src/ArbExecutor.sol\":9402:9408  _phase */\n      0x02\n      0x00\n        /* \"src/ArbExecutor.sol\":9402:9421  _phase = PHASE_IDLE */\n      0x0100\n      exp\n      dup2\n      sload\n      dup2\n      0xff\n      mul\n      not\n      and\n      swap1\n      dup4\n      0xff\n      and\n      mul\n      or\n      swap1\n      sstore\n      pop\n        /* \"src/ArbExecutor.sol\":9431:9446  _assertProfit() */\n      tag_231\n        /* \"src/ArbExecutor.sol\":9431:9444  _assertProfit */\n      tag_232\n        /* \"src/ArbExecutor.sol\":9431:9446  _assertProfit() */\n      jump\t// in\n    tag_231:\n        /* \"src/ArbExecutor.sol\":8553:9453  {... */\n      pop\n      pop\n        /* \"src/ArbExecutor.sol\":4332:4333  1 */\n      0x01\n        /* \"src/ArbExecutor.sol\":4322:4329  _locked */\n      0x07\n        /* \"src/ArbExecutor.sol\":4322:4333  _locked = 1 */\n      dup2\n      swap1\n      sstore\n      pop\n        /* \"src/ArbExecutor.sol\":8349:9453  function receiveFlashLoan(... */\n      pop\n      pop\n      pop\n      pop\n      jump\t// out\n        /* \"src/ArbExecutor.sol\":5403:5657  function transferOwnership(address newOwner) external onlyOwner {... */\n    tag_96:\n        /* \"src/ArbExecutor.sol\":3992:3997  owner */\n      0x00\n      0x00\n      swap1\n      sload\n      swap1\n      0x0100\n      exp\n      swap1\n      div\n      0xffffffffffffffffffffffffffffffffffffffff\n      and\n        /* \"src/ArbExecutor.sol\":3978:3997  msg.sender != owner */\n      0xffffffffffffffffffffffffffffffffffffffff\n      and\n        /* \"src/ArbExecutor.sol\":3978:3988  msg.sender */\n      caller\n        /* \"src/ArbExecutor.sol\":3978:3997  msg.sender != owner */\n      0xffffffffffffffffffffffffffffffffffffffff\n      and\n      eq\n        /* \"src/ArbExecutor.sol\":3974:4020  if (msg.sender != owner) revert Unauthorized() */\n      tag_234\n      jumpi\n        /* \"src/ArbExecutor.sol\":4006:4020  Unauthorized() */\n      mload(0x40)\n      0x82b4290000000000000000000000000000000000000000000000000000000000\n      dup2\n      mstore\n      0x04\n      add\n      mload(0x40)\n      dup1\n      swap2\n      sub\n      swap1\n      revert\n        /* \"src/ArbExecutor.sol\":3974:4020  if (msg.sender != owner) revert Unauthorized() */\n    tag_234:\n        /* \"src/ArbExecutor.sol\":5501:5502  0 */\n      0x00\n        /* \"src/ArbExecutor.sol\":5481:5503  newOwner == address(0) */\n      0xffffffffffffffffffffffffffffffffffffffff\n      and\n        /* \"src/ArbExecutor.sol\":5481:5489  newOwner */\n      dup2\n        /* \"src/ArbExecutor.sol\":5481:5503  newOwner == address(0) */\n      0xffffffffffffffffffffffffffffffffffffffff\n      and\n      sub\n        /* \"src/ArbExecutor.sol\":5477:5525  if (newOwner == address(0)) revert ZeroAddress() */\n      tag_236\n      jumpi\n        /* \"src/ArbExecutor.sol\":5512:5525  ZeroAddress() */\n      mload(0x40)\n      0xd92e233d00000000000000000000000000000000000000000000000000000000\n      dup2\n      mstore\n      0x04\n      add\n      mload(0x40)\n      dup1\n      swap2\n      sub\n      swap1\n      revert\n        /* \"src/ArbExecutor.sol\":5477:5525  if (newOwner == address(0)) revert ZeroAddress() */\n    tag_236:\n        /* \"src/ArbExecutor.sol\":5535:5556  address previousOwner */\n      0x00\n        /* \"src/ArbExecutor.sol\":5559:5564  owner */\n      0x00\n      0x00\n      swap1\n      sload\n      swap1\n      0x0100\n      exp\n      swap1\n      div\n      0xffffffffffffffffffffffffffffffffffffffff\n      and\n        /* \"src/ArbExecutor.sol\":5535:5564  address previousOwner = owner */\n      swap1\n      pop\n        /* \"src/ArbExecutor.sol\":5582:5590  newOwner */\n      dup2\n        /* \"src/ArbExecutor.sol\":5574:5579  owner */\n      0x00\n      0x00\n        /* \"src/ArbExecutor.sol\":5574:5590  owner = newOwner */\n      0x0100\n      exp\n      dup2\n      sload\n      dup2\n      0xffffffffffffffffffffffffffffffffffffffff\n      mul\n      not\n      and\n      swap1\n      dup4\n      0xffffffffffffffffffffffffffffffffffffffff\n      and\n      mul\n      or\n      swap1\n      sstore\n      pop\n        /* \"src/ArbExecutor.sol\":5641:5649  newOwner */\n      dup2\n        /* \"src/ArbExecutor.sol\":5605:5650  OwnershipTransferred(previousOwner, newOwner) */\n      0xffffffffffffffffffffffffffffffffffffffff\n      and\n        /* \"src/ArbExecutor.sol\":5626:5639  previousOwner */\n      dup2\n        /* \"src/ArbExecutor.sol\":5605:5650  OwnershipTransferred(previousOwner, newOwner) */\n      0xffffffffffffffffffffffffffffffffffffffff\n      and\n      0x8be0079c531659141344cd1fd0a4f28419497f9722a3daafe3b4186f6b6457e0\n      mload(0x40)\n      mload(0x40)\n      dup1\n      swap2\n      sub\n      swap1\n      log3\n        /* \"src/ArbExecutor.sol\":5467:5657  {... */\n      pop\n        /* \"src/ArbExecutor.sol\":5403:5657  function transferOwnership(address newOwner) external onlyOwner {... */\n      pop\n      jump\t// out\n        /* \"src/ArbExecutor.sol\":9459:9657  function uniswapV3SwapCallback(int256 amount0Delta, int256 amount1Delta, bytes calldata data) external {... */\n    tag_100:\n        /* \"src/ArbExecutor.sol\":9572:9650  _handlePoolSwapCallback(PROTOCOL_UNISWAP_V3, amount0Delta, amount1Delta, data) */\n      tag_238\n        /* \"src/ArbExecutor.sol\":1774:1775  1 */\n      0x01\n        /* \"src/ArbExecutor.sol\":9617:9629  amount0Delta */\n      dup6\n        /* \"src/ArbExecutor.sol\":9631:9643  amount1Delta */\n      dup6\n        /* \"src/ArbExecutor.sol\":9645:9649  data */\n      dup6\n      dup6\n        /* \"src/ArbExecutor.sol\":9572:9595  _handlePoolSwapCallback */\n      tag_127\n        /* \"src/ArbExecutor.sol\":9572:9650  _handlePoolSwapCallback(PROTOCOL_UNISWAP_V3, amount0Delta, amount1Delta, data) */\n      jump\t// in\n    tag_238:\n        /* \"src/ArbExecutor.sol\":9459:9657  function uniswapV3SwapCallback(int256 amount0Delta, int256 amount1Delta, bytes calldata data) external {... */\n      pop\n      pop\n      pop\n      pop\n      jump\t// out\n        /* \"src/ArbExecutor.sol\":9867:10047  function swapCallback(int256 deltaQty0, int256 deltaQty1, bytes calldata data) external {... */\n    tag_104:\n        /* \"src/ArbExecutor.sol\":9965:10040  _handlePoolSwapCallback(PROTOCOL_KYBER_ELASTIC, deltaQty0, deltaQty1, data) */\n      tag_240\n        /* \"src/ArbExecutor.sol\":1937:1938  4 */\n      0x04\n        /* \"src/ArbExecutor.sol\":10013:10022  deltaQty0 */\n      dup6\n        /* \"src/ArbExecutor.sol\":10024:10033  deltaQty1 */\n      dup6\n        /* \"src/ArbExecutor.sol\":10035:10039  data */\n      dup6\n      dup6\n        /* \"src/ArbExecutor.sol\":9965:9988  _handlePoolSwapCallback */\n      tag_127\n        /* \"src/ArbExecutor.sol\":9965:10040  _handlePoolSwapCallback(PROTOCOL_KYBER_ELASTIC, deltaQty0, deltaQty1, data) */\n      jump\t// in\n    tag_240:\n        /* \"src/ArbExecutor.sol\":9867:10047  function swapCallback(int256 deltaQty0, int256 deltaQty1, bytes calldata data) external {... */\n      pop\n      pop\n      pop\n      pop\n      jump\t// out\n        /* \"src/ArbExecutor.sol\":5875:6171  function approveIfNeeded(address token, address spender, uint256 amount) external nonReentrant {... */\n    tag_108:\n        /* \"src/ArbExecutor.sol\":4225:4226  1 */\n      0x01\n        /* \"src/ArbExecutor.sol\":4214:4221  _locked */\n      sload(0x07)\n        /* \"src/ArbExecutor.sol\":4214:4226  _locked != 1 */\n      eq\n        /* \"src/ArbExecutor.sol\":4210:4249  if (_locked != 1) revert Unauthorized() */\n      tag_242\n      jumpi\n        /* \"src/ArbExecutor.sol\":4235:4249  Unauthorized() */\n      mload(0x40)\n      0x82b4290000000000000000000000000000000000000000000000000000000000\n      dup2\n      mstore\n      0x04\n      add\n      mload(0x40)\n      dup1\n      swap2\n      sub\n      swap1\n      revert\n        /* \"src/ArbExecutor.sol\":4210:4249  if (_locked != 1) revert Unauthorized() */\n    tag_242:\n        /* \"src/ArbExecutor.sol\":4300:4301  2 */\n      0x02\n        /* \"src/ArbExecutor.sol\":4290:4297  _locked */\n      0x07\n        /* \"src/ArbExecutor.sol\":4290:4301  _locked = 2 */\n      dup2\n      swap1\n      sstore\n      pop\n        /* \"src/ArbExecutor.sol\":6006:6010  this */\n      address\n        /* \"src/ArbExecutor.sol\":5984:6011  msg.sender != address(this) */\n      0xffffffffffffffffffffffffffffffffffffffff\n      and\n        /* \"src/ArbExecutor.sol\":5984:5994  msg.sender */\n      caller\n        /* \"src/ArbExecutor.sol\":5984:6011  msg.sender != address(this) */\n      0xffffffffffffffffffffffffffffffffffffffff\n      and\n      eq\n      iszero\n        /* \"src/ArbExecutor.sol\":5984:6034  msg.sender != address(this) && msg.sender != owner */\n      dup1\n      iszero\n      tag_244\n      jumpi\n      pop\n        /* \"src/ArbExecutor.sol\":6029:6034  owner */\n      0x00\n      0x00\n      swap1\n      sload\n      swap1\n      0x0100\n      exp\n      swap1\n      div\n      0xffffffffffffffffffffffffffffffffffffffff\n      and\n        /* \"src/ArbExecutor.sol\":6015:6034  msg.sender != owner */\n      0xffffffffffffffffffffffffffffffffffffffff\n      and\n        /* \"src/ArbExecutor.sol\":6015:6025  msg.sender */\n      caller\n        /* \"src/ArbExecutor.sol\":6015:6034  msg.sender != owner */\n      0xffffffffffffffffffffffffffffffffffffffff\n      and\n      eq\n      iszero\n        /* \"src/ArbExecutor.sol\":5984:6034  msg.sender != address(this) && msg.sender != owner */\n    tag_244:\n        /* \"src/ArbExecutor.sol\":5984:6060  msg.sender != address(this) && msg.sender != owner && !operators[msg.sender] */\n      dup1\n      iszero\n      tag_245\n      jumpi\n      pop\n        /* \"src/ArbExecutor.sol\":6039:6048  operators */\n      0x01\n        /* \"src/ArbExecutor.sol\":6039:6060  operators[msg.sender] */\n      0x00\n        /* \"src/ArbExecutor.sol\":6049:6059  msg.sender */\n      caller\n        /* \"src/ArbExecutor.sol\":6039:6060  operators[msg.sender] */\n      0xffffffffffffffffffffffffffffffffffffffff\n      and\n      0xffffffffffffffffffffffffffffffffffffffff\n      and\n      dup2\n      mstore\n      0x20\n      add\n      swap1\n      dup2\n      mstore\n      0x20\n      add\n      0x00\n      keccak256\n      0x00\n      swap1\n      sload\n      swap1\n      0x0100\n      exp\n      swap1\n      div\n      0xff\n      and\n        /* \"src/ArbExecutor.sol\":6038:6060  !operators[msg.sender] */\n      iszero\n        /* \"src/ArbExecutor.sol\":5984:6060  msg.sender != address(this) && msg.sender != owner && !operators[msg.sender] */\n    tag_245:\n        /* \"src/ArbExecutor.sol\":5980:6108  if (msg.sender != address(this) && msg.sender != owner && !operators[msg.sender]) {... */\n      iszero\n      tag_246\n      jumpi\n        /* \"src/ArbExecutor.sol\":6083:6097  Unauthorized() */\n      mload(0x40)\n      0x82b4290000000000000000000000000000000000000000000000000000000000\n      dup2\n      mstore\n      0x04\n      add\n      mload(0x40)\n      dup1\n      swap2\n      sub\n      swap1\n      revert\n        /* \"src/ArbExecutor.sol\":5980:6108  if (msg.sender != address(this) && msg.sender != owner && !operators[msg.sender]) {... */\n    tag_246:\n        /* \"src/ArbExecutor.sol\":6117:6164  _safeApproveMaxIfNeeded(token, spender, amount) */\n      tag_247\n        /* \"src/ArbExecutor.sol\":6141:6146  token */\n      dup4\n        /* \"src/ArbExecutor.sol\":6148:6155  spender */\n      dup4\n        /* \"src/ArbExecutor.sol\":6157:6163  amount */\n      dup4\n        /* \"src/ArbExecutor.sol\":6117:6140  _safeApproveMaxIfNeeded */\n      tag_196\n        /* \"src/ArbExecutor.sol\":6117:6164  _safeApproveMaxIfNeeded(token, spender, amount) */\n      jump\t// in\n    tag_247:\n        /* \"src/ArbExecutor.sol\":4332:4333  1 */\n      0x01\n        /* \"src/ArbExecutor.sol\":4322:4329  _locked */\n      0x07\n        /* \"src/ArbExecutor.sol\":4322:4333  _locked = 1 */\n      dup2\n      swap1\n      sstore\n      pop\n        /* \"src/ArbExecutor.sol\":5875:6171  function approveIfNeeded(address token, address spender, uint256 amount) external nonReentrant {... */\n      pop\n      pop\n      pop\n      jump\t// out\n        /* \"src/ArbExecutor.sol\":10053:10947  function _handlePoolSwapCallback(... */\n    tag_127:\n        /* \"src/ArbExecutor.sol\":2076:2077  2 */\n      0x02\n        /* \"src/ArbExecutor.sol\":10228:10252  _phase != PHASE_CALLBACK */\n      0xff\n      and\n        /* \"src/ArbExecutor.sol\":10228:10234  _phase */\n      0x02\n      0x00\n      swap1\n      sload\n      swap1\n      0x0100\n      exp\n      swap1\n      div\n      0xff\n      and\n        /* \"src/ArbExecutor.sol\":10228:10252  _phase != PHASE_CALLBACK */\n      0xff\n      and\n      eq\n        /* \"src/ArbExecutor.sol\":10224:10275  if (_phase != PHASE_CALLBACK) revert CallbackOnly() */\n      tag_249\n      jumpi\n        /* \"src/ArbExecutor.sol\":10261:10275  CallbackOnly() */\n      mload(0x40)\n      0xc21d53e800000000000000000000000000000000000000000000000000000000\n      dup2\n      mstore\n      0x04\n      add\n      mload(0x40)\n      dup1\n      swap2\n      sub\n      swap1\n      revert\n        /* \"src/ArbExecutor.sol\":10224:10275  if (_phase != PHASE_CALLBACK) revert CallbackOnly() */\n    tag_249:\n        /* \"src/ArbExecutor.sol\":10286:10318  CallbackData memory callbackData */\n      0x00\n        /* \"src/ArbExecutor.sol\":10332:10336  data */\n      dup3\n      dup3\n        /* \"src/ArbExecutor.sol\":10321:10353  abi.decode(data, (CallbackData)) */\n      dup2\n      add\n      swap1\n      tag_250\n      swap2\n      swap1\n      tag_251\n      jump\t// in\n    tag_250:\n        /* \"src/ArbExecutor.sol\":10286:10353  CallbackData memory callbackData = abi.decode(data, (CallbackData)) */\n      swap1\n      pop\n        /* \"src/ArbExecutor.sol\":10394:10404  protocolId */\n      dup6\n        /* \"src/ArbExecutor.sol\":10367:10404  callbackData.protocolId != protocolId */\n      0xff\n      and\n        /* \"src/ArbExecutor.sol\":10367:10379  callbackData */\n      dup2\n        /* \"src/ArbExecutor.sol\":10367:10390  callbackData.protocolId */\n      0x00\n      add\n      mload\n        /* \"src/ArbExecutor.sol\":10367:10404  callbackData.protocolId != protocolId */\n      0xff\n      and\n      eq\n        /* \"src/ArbExecutor.sol\":10363:10457  if (callbackData.protocolId != protocolId) revert UnsupportedProtocol(callbackData.protocolId) */\n      tag_252\n      jumpi\n        /* \"src/ArbExecutor.sol\":10433:10445  callbackData */\n      dup1\n        /* \"src/ArbExecutor.sol\":10433:10456  callbackData.protocolId */\n      0x00\n      add\n      mload\n        /* \"src/ArbExecutor.sol\":10413:10457  UnsupportedProtocol(callbackData.protocolId) */\n      mload(0x40)\n      0xf850442b00000000000000000000000000000000000000000000000000000000\n      dup2\n      mstore\n      0x04\n      add\n      tag_253\n      swap2\n      swap1\n      tag_254\n      jump\t// in\n    tag_253:\n      mload(0x40)\n      dup1\n      swap2\n      sub\n      swap1\n      revert\n        /* \"src/ArbExecutor.sol\":10363:10457  if (callbackData.protocolId != protocolId) revert UnsupportedProtocol(callbackData.protocolId) */\n    tag_252:\n        /* \"src/ArbExecutor.sol\":10468:10488  address expectedPool */\n      0x00\n        /* \"src/ArbExecutor.sol\":10491:10525  _resolveExpectedPool(callbackData) */\n      tag_255\n        /* \"src/ArbExecutor.sol\":10512:10524  callbackData */\n      dup3\n        /* \"src/ArbExecutor.sol\":10491:10511  _resolveExpectedPool */\n      tag_256\n        /* \"src/ArbExecutor.sol\":10491:10525  _resolveExpectedPool(callbackData) */\n      jump\t// in\n    tag_255:\n        /* \"src/ArbExecutor.sol\":10468:10525  address expectedPool = _resolveExpectedPool(callbackData) */\n      swap1\n      pop\n        /* \"src/ArbExecutor.sol\":10563:10564  0 */\n      0x00\n        /* \"src/ArbExecutor.sol\":10539:10565  expectedPool == address(0) */\n      0xffffffffffffffffffffffffffffffffffffffff\n      and\n        /* \"src/ArbExecutor.sol\":10539:10551  expectedPool */\n      dup2\n        /* \"src/ArbExecutor.sol\":10539:10565  expectedPool == address(0) */\n      0xffffffffffffffffffffffffffffffffffffffff\n      and\n      sub\n        /* \"src/ArbExecutor.sol\":10535:10597  if (expectedPool == address(0)) revert InvalidCallbackSource() */\n      tag_257\n      jumpi\n        /* \"src/ArbExecutor.sol\":10574:10597  InvalidCallbackSource() */\n      mload(0x40)\n      0x936198e900000000000000000000000000000000000000000000000000000000\n      dup2\n      mstore\n      0x04\n      add\n      mload(0x40)\n      dup1\n      swap2\n      sub\n      swap1\n      revert\n        /* \"src/ArbExecutor.sol\":10535:10597  if (expectedPool == address(0)) revert InvalidCallbackSource() */\n    tag_257:\n        /* \"src/ArbExecutor.sol\":10625:10637  expectedPool */\n      dup1\n        /* \"src/ArbExecutor.sol\":10611:10637  msg.sender != expectedPool */\n      0xffffffffffffffffffffffffffffffffffffffff\n      and\n        /* \"src/ArbExecutor.sol\":10611:10621  msg.sender */\n      caller\n        /* \"src/ArbExecutor.sol\":10611:10637  msg.sender != expectedPool */\n      0xffffffffffffffffffffffffffffffffffffffff\n      and\n      eq\n        /* \"src/ArbExecutor.sol\":10607:10689  if (msg.sender != expectedPool) revert InvalidPoolCaller(expectedPool, msg.sender) */\n      tag_258\n      jumpi\n        /* \"src/ArbExecutor.sol\":10664:10676  expectedPool */\n      dup1\n        /* \"src/ArbExecutor.sol\":10678:10688  msg.sender */\n      caller\n        /* \"src/ArbExecutor.sol\":10646:10689  InvalidPoolCaller(expectedPool, msg.sender) */\n      mload(0x40)\n      0xf206255900000000000000000000000000000000000000000000000000000000\n      dup2\n      mstore\n      0x04\n      add\n      tag_259\n      swap3\n      swap2\n      swap1\n      tag_260\n      jump\t// in\n    tag_259:\n      mload(0x40)\n      dup1\n      swap2\n      sub\n      swap1\n      revert\n        /* \"src/ArbExecutor.sol\":10607:10689  if (msg.sender != expectedPool) revert InvalidPoolCaller(expectedPool, msg.sender) */\n    tag_258:\n        /* \"src/ArbExecutor.sol\":10719:10720  0 */\n      0x00\n        /* \"src/ArbExecutor.sol\":10704:10716  amount0Delta */\n      dup7\n        /* \"src/ArbExecutor.sol\":10704:10720  amount0Delta > 0 */\n      sgt\n        /* \"src/ArbExecutor.sol\":10700:10816  if (amount0Delta > 0) {... */\n      iszero\n      tag_261\n      jumpi\n        /* \"src/ArbExecutor.sol\":10736:10805  _safeTransfer(callbackData.token0, msg.sender, uint256(amount0Delta)) */\n      tag_262\n        /* \"src/ArbExecutor.sol\":10750:10762  callbackData */\n      dup3\n        /* \"src/ArbExecutor.sol\":10750:10769  callbackData.token0 */\n      0x20\n      add\n      mload\n        /* \"src/ArbExecutor.sol\":10771:10781  msg.sender */\n      caller\n        /* \"src/ArbExecutor.sol\":10791:10803  amount0Delta */\n      dup9\n        /* \"src/ArbExecutor.sol\":10736:10749  _safeTransfer */\n      tag_204\n        /* \"src/ArbExecutor.sol\":10736:10805  _safeTransfer(callbackData.token0, msg.sender, uint256(amount0Delta)) */\n      jump\t// in\n    tag_262:\n        /* \"src/ArbExecutor.sol\":10700:10816  if (amount0Delta > 0) {... */\n    tag_261:\n        /* \"src/ArbExecutor.sol\":10844:10845  0 */\n      0x00\n        /* \"src/ArbExecutor.sol\":10829:10841  amount1Delta */\n      dup6\n        /* \"src/ArbExecutor.sol\":10829:10845  amount1Delta > 0 */\n      sgt\n        /* \"src/ArbExecutor.sol\":10825:10941  if (amount1Delta > 0) {... */\n      iszero\n      tag_263\n      jumpi\n        /* \"src/ArbExecutor.sol\":10861:10930  _safeTransfer(callbackData.token1, msg.sender, uint256(amount1Delta)) */\n      tag_264\n        /* \"src/ArbExecutor.sol\":10875:10887  callbackData */\n      dup3\n        /* \"src/ArbExecutor.sol\":10875:10894  callbackData.token1 */\n      0x40\n      add\n      mload\n        /* \"src/ArbExecutor.sol\":10896:10906  msg.sender */\n      caller\n        /* \"src/ArbExecutor.sol\":10916:10928  amount1Delta */\n      dup8\n        /* \"src/ArbExecutor.sol\":10861:10874  _safeTransfer */\n      tag_204\n        /* \"src/ArbExecutor.sol\":10861:10930  _safeTransfer(callbackData.token1, msg.sender, uint256(amount1Delta)) */\n      jump\t// in\n    tag_264:\n        /* \"src/ArbExecutor.sol\":10825:10941  if (amount1Delta > 0) {... */\n    tag_263:\n        /* \"src/ArbExecutor.sol\":10214:10947  {... */\n      pop\n      pop\n        /* \"src/ArbExecutor.sol\":10053:10947  function _handlePoolSwapCallback(... */\n      pop\n      pop\n      pop\n      pop\n      pop\n      jump\t// out\n        /* \"src/ArbExecutor.sol\":12739:12969  function _clearExecutionContext() internal {... */\n    tag_181:\n        /* \"src/ArbExecutor.sol\":1981:1982  0 */\n      0x00\n        /* \"src/ArbExecutor.sol\":12792:12798  _phase */\n      0x02\n      0x00\n        /* \"src/ArbExecutor.sol\":12792:12811  _phase = PHASE_IDLE */\n      0x0100\n      exp\n      dup2\n      sload\n      dup2\n      0xff\n      mul\n      not\n      and\n      swap1\n      dup4\n      0xff\n      and\n      mul\n      or\n      swap1\n      sstore\n      pop\n        /* \"src/ArbExecutor.sol\":12848:12849  0 */\n      0x00\n        /* \"src/ArbExecutor.sol\":12840:12850  bytes32(0) */\n      0x00\n      shl\n        /* \"src/ArbExecutor.sol\":12821:12837  _activeRouteHash */\n      0x03\n        /* \"src/ArbExecutor.sol\":12821:12850  _activeRouteHash = bytes32(0) */\n      dup2\n      swap1\n      sstore\n      pop\n        /* \"src/ArbExecutor.sol\":12889:12890  0 */\n      0x00\n        /* \"src/ArbExecutor.sol\":12860:12878  _activeProfitToken */\n      0x04\n      0x00\n        /* \"src/ArbExecutor.sol\":12860:12891  _activeProfitToken = address(0) */\n      0x0100\n      exp\n      dup2\n      sload\n      dup2\n      0xffffffffffffffffffffffffffffffffffffffff\n      mul\n      not\n      and\n      swap1\n      dup4\n      0xffffffffffffffffffffffffffffffffffffffff\n      and\n      mul\n      or\n      swap1\n      sstore\n      pop\n        /* \"src/ArbExecutor.sol\":12920:12921  0 */\n      0x00\n        /* \"src/ArbExecutor.sol\":12901:12917  _activeMinProfit */\n      0x05\n        /* \"src/ArbExecutor.sol\":12901:12921  _activeMinProfit = 0 */\n      dup2\n      swap1\n      sstore\n      pop\n        /* \"src/ArbExecutor.sol\":12961:12962  0 */\n      0x00\n        /* \"src/ArbExecutor.sol\":12931:12958  _activeInitialProfitBalance */\n      0x06\n        /* \"src/ArbExecutor.sol\":12931:12962  _activeInitialProfitBalance = 0 */\n      dup2\n      swap1\n      sstore\n      pop\n        /* \"src/ArbExecutor.sol\":12739:12969  function _clearExecutionContext() internal {... */\n      jump\t// out\n        /* \"src/ArbExecutor.sol\":14094:14444  function _safeApproveMaxIfNeeded(address token, address spender, uint256 amount) internal {... */\n    tag_196:\n        /* \"src/ArbExecutor.sol\":14194:14209  uint256 current */\n      0x00\n        /* \"src/ArbExecutor.sol\":14212:14257  _safeAllowance(token, address(this), spender) */\n      tag_267\n        /* \"src/ArbExecutor.sol\":14227:14232  token */\n      dup5\n        /* \"src/ArbExecutor.sol\":14242:14246  this */\n      address\n        /* \"src/ArbExecutor.sol\":14249:14256  spender */\n      dup6\n        /* \"src/ArbExecutor.sol\":14212:14226  _safeAllowance */\n      tag_268\n        /* \"src/ArbExecutor.sol\":14212:14257  _safeAllowance(token, address(this), spender) */\n      jump\t// in\n    tag_267:\n        /* \"src/ArbExecutor.sol\":14194:14257  uint256 current = _safeAllowance(token, address(this), spender) */\n      swap1\n      pop\n        /* \"src/ArbExecutor.sol\":14282:14288  amount */\n      dup2\n        /* \"src/ArbExecutor.sol\":14271:14278  current */\n      dup2\n        /* \"src/ArbExecutor.sol\":14271:14288  current >= amount */\n      lt\n        /* \"src/ArbExecutor.sol\":14267:14297  if (current >= amount) return; */\n      tag_269\n      jumpi\n        /* \"src/ArbExecutor.sol\":14290:14297  return; */\n      pop\n      jump(tag_266)\n        /* \"src/ArbExecutor.sol\":14267:14297  if (current >= amount) return; */\n    tag_269:\n        /* \"src/ArbExecutor.sol\":14322:14323  0 */\n      0x00\n        /* \"src/ArbExecutor.sol\":14311:14318  current */\n      dup2\n        /* \"src/ArbExecutor.sol\":14311:14323  current != 0 */\n      eq\n        /* \"src/ArbExecutor.sol\":14307:14381  if (current != 0) {... */\n      tag_270\n      jumpi\n        /* \"src/ArbExecutor.sol\":14339:14370  _safeApprove(token, spender, 0) */\n      tag_271\n        /* \"src/ArbExecutor.sol\":14352:14357  token */\n      dup5\n        /* \"src/ArbExecutor.sol\":14359:14366  spender */\n      dup5\n        /* \"src/ArbExecutor.sol\":14368:14369  0 */\n      0x00\n        /* \"src/ArbExecutor.sol\":14339:14351  _safeApprove */\n      tag_272\n        /* \"src/ArbExecutor.sol\":14339:14370  _safeApprove(token, spender, 0) */\n      jump\t// in\n    tag_271:\n        /* \"src/ArbExecutor.sol\":14307:14381  if (current != 0) {... */\n    tag_270:\n        /* \"src/ArbExecutor.sol\":14390:14437  _safeApprove(token, spender, type(uint256).max) */\n      tag_273\n        /* \"src/ArbExecutor.sol\":14403:14408  token */\n      dup5\n        /* \"src/ArbExecutor.sol\":14410:14417  spender */\n      dup5\n        /* \"src/ArbExecutor.sol\":14419:14436  type(uint256).max */\n      0xffffffffffffffffffffffffffffffffffffffffffffffffffffffffffffffff\n        /* \"src/ArbExecutor.sol\":14390:14402  _safeApprove */\n      tag_272\n        /* \"src/ArbExecutor.sol\":14390:14437  _safeApprove(token, spender, type(uint256).max) */\n      jump\t// in\n    tag_273:\n        /* \"src/ArbExecutor.sol\":14184:14444  {... */\n      pop\n        /* \"src/ArbExecutor.sol\":14094:14444  function _safeApproveMaxIfNeeded(address token, address spender, uint256 amount) internal {... */\n    tag_266:\n      pop\n      pop\n      pop\n      jump\t// out\n        /* \"src/ArbExecutor.sol\":12975:13329  function _safeTransfer(address token, address to, uint256 amount) internal {... */\n    tag_204:\n        /* \"src/ArbExecutor.sol\":13061:13068  bool ok */\n      0x00\n        /* \"src/ArbExecutor.sol\":13070:13089  bytes memory result */\n      0x00\n        /* \"src/ArbExecutor.sol\":13105:13110  token */\n      dup5\n        /* \"src/ArbExecutor.sol\":13105:13115  token.call */\n      0xffffffffffffffffffffffffffffffffffffffff\n      and\n        /* \"src/ArbExecutor.sol\":13139:13170  IERC20Minimal.transfer.selector */\n      shl(0xe0, 0xa9059cbb)\n        /* \"src/ArbExecutor.sol\":13172:13174  to */\n      dup6\n        /* \"src/ArbExecutor.sol\":13176:13182  amount */\n      dup6\n        /* \"src/ArbExecutor.sol\":13116:13183  abi.encodeWithSelector(IERC20Minimal.transfer.selector, to, amount) */\n      add(0x24, mload(0x40))\n      tag_275\n      swap3\n      swap2\n      swap1\n      tag_276\n      jump\t// in\n    tag_275:\n      mload(0x40)\n      0x20\n      dup2\n      dup4\n      sub\n      sub\n      dup2\n      mstore\n      swap1\n      0x40\n      mstore\n      swap1\n      not(0xffffffffffffffffffffffffffffffffffffffffffffffffffffffff)\n      and\n      0x20\n      dup3\n      add\n      dup1\n      mload\n      0xffffffffffffffffffffffffffffffffffffffffffffffffffffffff\n      dup4\n      dup2\n      dup4\n      and\n      or\n      dup4\n      mstore\n      pop\n      pop\n      pop\n      pop\n        /* \"src/ArbExecutor.sol\":13105:13184  token.call(abi.encodeWithSelector(IERC20Minimal.transfer.selector, to, amount)) */\n      mload(0x40)\n      tag_277\n      swap2\n      swap1\n      tag_278\n      jump\t// in\n    tag_277:\n      0x00\n      mload(0x40)\n      dup1\n      dup4\n      sub\n      dup2\n      0x00\n      dup7\n      gas\n      call\n      swap2\n      pop\n      pop\n      returndatasize\n      dup1\n      0x00\n      dup2\n      eq\n      tag_281\n      jumpi\n      mload(0x40)\n      swap2\n      pop\n      and(add(returndatasize, 0x3f), not(0x1f))\n      dup3\n      add\n      0x40\n      mstore\n      returndatasize\n      dup3\n      mstore\n      returndatasize\n      0x00\n      0x20\n      dup5\n      add\n      returndatacopy\n      jump(tag_280)\n    tag_281:\n      0x60\n      swap2\n      pop\n    tag_280:\n      pop\n        /* \"src/ArbExecutor.sol\":13060:13184  (bool ok, bytes memory result) =... */\n      swap2\n      pop\n      swap2\n      pop\n        /* \"src/ArbExecutor.sol\":13199:13201  ok */\n      dup2\n        /* \"src/ArbExecutor.sol\":13198:13201  !ok */\n      iszero\n        /* \"src/ArbExecutor.sol\":13198:13256  !ok || (result.length != 0 && !abi.decode(result, (bool))) */\n      dup1\n      tag_282\n      jumpi\n      pop\n        /* \"src/ArbExecutor.sol\":13223:13224  0 */\n      0x00\n        /* \"src/ArbExecutor.sol\":13206:13212  result */\n      dup2\n        /* \"src/ArbExecutor.sol\":13206:13219  result.length */\n      mload\n        /* \"src/ArbExecutor.sol\":13206:13224  result.length != 0 */\n      eq\n      iszero\n        /* \"src/ArbExecutor.sol\":13206:13255  result.length != 0 && !abi.decode(result, (bool)) */\n      dup1\n      iszero\n      tag_283\n      jumpi\n      pop\n        /* \"src/ArbExecutor.sol\":13240:13246  result */\n      dup1\n        /* \"src/ArbExecutor.sol\":13229:13255  abi.decode(result, (bool)) */\n      dup1\n      0x20\n      add\n      swap1\n      mload\n      dup2\n      add\n      swap1\n      tag_284\n      swap2\n      swap1\n      tag_285\n      jump\t// in\n    tag_284:\n        /* \"src/ArbExecutor.sol\":13228:13255  !abi.decode(result, (bool)) */\n      iszero\n        /* \"src/ArbExecutor.sol\":13206:13255  result.length != 0 && !abi.decode(result, (bool)) */\n    tag_283:\n        /* \"src/ArbExecutor.sol\":13198:13256  !ok || (result.length != 0 && !abi.decode(result, (bool))) */\n    tag_282:\n        /* \"src/ArbExecutor.sol\":13194:13323  if (!ok || (result.length != 0 && !abi.decode(result, (bool)))) {... */\n      iszero\n      tag_286\n      jumpi\n        /* \"src/ArbExecutor.sol\":13294:13299  token */\n      dup5\n        /* \"src/ArbExecutor.sol\":13301:13303  to */\n      dup5\n        /* \"src/ArbExecutor.sol\":13305:13311  amount */\n      dup5\n        /* \"src/ArbExecutor.sol\":13279:13312  TransferFailed(token, to, amount) */\n      mload(0x40)\n      0xbf182be800000000000000000000000000000000000000000000000000000000\n      dup2\n      mstore\n      0x04\n      add\n      tag_287\n      swap4\n      swap3\n      swap2\n      swap1\n      tag_288\n      jump\t// in\n    tag_287:\n      mload(0x40)\n      dup1\n      swap2\n      sub\n      swap1\n      revert\n        /* \"src/ArbExecutor.sol\":13194:13323  if (!ok || (result.length != 0 && !abi.decode(result, (bool)))) {... */\n    tag_286:\n        /* \"src/ArbExecutor.sol\":13050:13329  {... */\n      pop\n      pop\n        /* \"src/ArbExecutor.sol\":12975:13329  function _safeTransfer(address token, address to, uint256 amount) internal {... */\n      pop\n      pop\n      pop\n      jump\t// out\n        /* \"src/ArbExecutor.sol\":11970:12382  function _executeCalls(Call[] memory calls) internal {... */\n    tag_218:\n        /* \"src/ArbExecutor.sol\":12033:12044  uint256 len */\n      0x00\n        /* \"src/ArbExecutor.sol\":12047:12052  calls */\n      dup2\n        /* \"src/ArbExecutor.sol\":12047:12059  calls.length */\n      mload\n        /* \"src/ArbExecutor.sol\":12033:12059  uint256 len = calls.length */\n      swap1\n      pop\n        /* \"src/ArbExecutor.sol\":12074:12083  uint256 i */\n      0x00\n        /* \"src/ArbExecutor.sol\":12069:12376  for (uint256 i; i < len;) {... */\n    tag_290:\n        /* \"src/ArbExecutor.sol\":12089:12092  len */\n      dup2\n        /* \"src/ArbExecutor.sol\":12085:12086  i */\n      dup2\n        /* \"src/ArbExecutor.sol\":12085:12092  i < len */\n      lt\n        /* \"src/ArbExecutor.sol\":12069:12376  for (uint256 i; i < len;) {... */\n      iszero\n      tag_291\n      jumpi\n        /* \"src/ArbExecutor.sol\":12109:12126  Call memory call_ */\n      0x00\n        /* \"src/ArbExecutor.sol\":12129:12134  calls */\n      dup4\n        /* \"src/ArbExecutor.sol\":12135:12136  i */\n      dup3\n        /* \"src/ArbExecutor.sol\":12129:12137  calls[i] */\n      dup2\n      mload\n      dup2\n      lt\n      tag_293\n      jumpi\n      tag_294\n      tag_160\n      jump\t// in\n    tag_294:\n    tag_293:\n      0x20\n      mul\n      0x20\n      add\n      add\n      mload\n        /* \"src/ArbExecutor.sol\":12109:12137  Call memory call_ = calls[i] */\n      swap1\n      pop\n        /* \"src/ArbExecutor.sol\":12152:12159  bool ok */\n      0x00\n        /* \"src/ArbExecutor.sol\":12161:12180  bytes memory result */\n      0x00\n        /* \"src/ArbExecutor.sol\":12184:12189  call_ */\n      dup3\n        /* \"src/ArbExecutor.sol\":12184:12196  call_.target */\n      0x00\n      add\n      mload\n        /* \"src/ArbExecutor.sol\":12184:12201  call_.target.call */\n      0xffffffffffffffffffffffffffffffffffffffff\n      and\n        /* \"src/ArbExecutor.sol\":12209:12214  call_ */\n      dup4\n        /* \"src/ArbExecutor.sol\":12209:12220  call_.value */\n      0x20\n      add\n      mload\n        /* \"src/ArbExecutor.sol\":12222:12227  call_ */\n      dup5\n        /* \"src/ArbExecutor.sol\":12222:12232  call_.data */\n      0x40\n      add\n      mload\n        /* \"src/ArbExecutor.sol\":12184:12233  call_.target.call{value: call_.value}(call_.data) */\n      mload(0x40)\n      tag_295\n      swap2\n      swap1\n      tag_278\n      jump\t// in\n    tag_295:\n      0x00\n      mload(0x40)\n      dup1\n      dup4\n      sub\n      dup2\n      dup6\n      dup8\n      gas\n      call\n      swap3\n      pop\n      pop\n      pop\n      returndatasize\n      dup1\n      0x00\n      dup2\n      eq\n      tag_298\n      jumpi\n      mload(0x40)\n      swap2\n      pop\n      and(add(returndatasize, 0x3f), not(0x1f))\n      dup3\n      add\n      0x40\n      mstore\n      returndatasize\n      dup3\n      mstore\n      returndatasize\n      0x00\n      0x20\n      dup5\n      add\n      returndatacopy\n      jump(tag_297)\n    tag_298:\n      0x60\n      swap2\n      pop\n    tag_297:\n      pop\n        /* \"src/ArbExecutor.sol\":12151:12233  (bool ok, bytes memory result) = call_.target.call{value: call_.value}(call_.data) */\n      swap2\n      pop\n      swap2\n      pop\n        /* \"src/ArbExecutor.sol\":12252:12254  ok */\n      dup2\n        /* \"src/ArbExecutor.sol\":12247:12306  if (!ok) revert ExternalCallFailed(i, call_.target, result) */\n      tag_299\n      jumpi\n        /* \"src/ArbExecutor.sol\":12282:12283  i */\n      dup4\n        /* \"src/ArbExecutor.sol\":12285:12290  call_ */\n      dup4\n        /* \"src/ArbExecutor.sol\":12285:12297  call_.target */\n      0x00\n      add\n      mload\n        /* \"src/ArbExecutor.sol\":12299:12305  result */\n      dup3\n        /* \"src/ArbExecutor.sol\":12263:12306  ExternalCallFailed(i, call_.target, result) */\n      mload(0x40)\n      0x0f43457300000000000000000000000000000000000000000000000000000000\n      dup2\n      mstore\n      0x04\n      add\n      tag_300\n      swap4\n      swap3\n      swap2\n      swap1\n      tag_301\n      jump\t// in\n    tag_300:\n      mload(0x40)\n      dup1\n      swap2\n      sub\n      swap1\n      revert\n        /* \"src/ArbExecutor.sol\":12247:12306  if (!ok) revert ExternalCallFailed(i, call_.target, result) */\n    tag_299:\n        /* \"src/ArbExecutor.sol\":12348:12351  ++i */\n      dup4\n      0x01\n      add\n      swap4\n      pop\n        /* \"src/ArbExecutor.sol\":12095:12376  {... */\n      pop\n      pop\n      pop\n        /* \"src/ArbExecutor.sol\":12069:12376  for (uint256 i; i < len;) {... */\n      jump(tag_290)\n    tag_291:\n      pop\n        /* \"src/ArbExecutor.sol\":12023:12382  {... */\n      pop\n        /* \"src/ArbExecutor.sol\":11970:12382  function _executeCalls(Call[] memory calls) internal {... */\n      pop\n      jump\t// out\n        /* \"src/ArbExecutor.sol\":12388:12733  function _assertProfit() internal view {... */\n    tag_232:\n        /* \"src/ArbExecutor.sol\":12437:12457  uint256 finalBalance */\n      0x00\n        /* \"src/ArbExecutor.sol\":12474:12492  _activeProfitToken */\n      0x04\n      0x00\n      swap1\n      sload\n      swap1\n      0x0100\n      exp\n      swap1\n      div\n      0xffffffffffffffffffffffffffffffffffffffff\n      and\n        /* \"src/ArbExecutor.sol\":12460:12503  IERC20Minimal(_activeProfitToken).balanceOf */\n      0xffffffffffffffffffffffffffffffffffffffff\n      and\n      0x70a08231\n        /* \"src/ArbExecutor.sol\":12512:12516  this */\n      address\n        /* \"src/ArbExecutor.sol\":12460:12518  IERC20Minimal(_activeProfitToken).balanceOf(address(this)) */\n      mload(0x40)\n      dup3\n      0xffffffff\n      and\n      0xe0\n      shl\n      dup2\n      mstore\n      0x04\n      add\n      tag_303\n      swap2\n      swap1\n      tag_42\n      jump\t// in\n    tag_303:\n      0x20\n      mload(0x40)\n      dup1\n      dup4\n      sub\n      dup2\n      dup7\n      gas\n      staticcall\n      iszero\n      dup1\n      iszero\n      tag_305\n      jumpi\n      returndatacopy(0x00, 0x00, returndatasize)\n      revert(0x00, returndatasize)\n    tag_305:\n      pop\n      pop\n      pop\n      pop\n      mload(0x40)\n      returndatasize\n      not(0x1f)\n      0x1f\n      dup3\n      add\n      and\n      dup3\n      add\n      dup1\n      0x40\n      mstore\n      pop\n      dup2\n      add\n      swap1\n      tag_306\n      swap2\n      swap1\n      tag_152\n      jump\t// in\n    tag_306:\n        /* \"src/ArbExecutor.sol\":12437:12518  uint256 finalBalance = IERC20Minimal(_activeProfitToken).balanceOf(address(this)) */\n      swap1\n      pop\n        /* \"src/ArbExecutor.sol\":12528:12551  uint256 requiredBalance */\n      0x00\n        /* \"src/ArbExecutor.sol\":12584:12600  _activeMinProfit */\n      sload(0x05)\n        /* \"src/ArbExecutor.sol\":12554:12581  _activeInitialProfitBalance */\n      sload(0x06)\n        /* \"src/ArbExecutor.sol\":12554:12600  _activeInitialProfitBalance + _activeMinProfit */\n      tag_307\n      swap2\n      swap1\n      tag_230\n      jump\t// in\n    tag_307:\n        /* \"src/ArbExecutor.sol\":12528:12600  uint256 requiredBalance = _activeInitialProfitBalance + _activeMinProfit */\n      swap1\n      pop\n        /* \"src/ArbExecutor.sol\":12629:12644  requiredBalance */\n      dup1\n        /* \"src/ArbExecutor.sol\":12614:12626  finalBalance */\n      dup3\n        /* \"src/ArbExecutor.sol\":12614:12644  finalBalance < requiredBalance */\n      lt\n        /* \"src/ArbExecutor.sol\":12610:12727  if (finalBalance < requiredBalance) {... */\n      iszero\n      tag_308\n      jumpi\n        /* \"src/ArbExecutor.sol\":12686:12698  finalBalance */\n      dup2\n        /* \"src/ArbExecutor.sol\":12700:12715  requiredBalance */\n      dup2\n        /* \"src/ArbExecutor.sol\":12667:12716  InsufficientProfit(finalBalance, requiredBalance) */\n      mload(0x40)\n      0x4e88422a00000000000000000000000000000000000000000000000000000000\n      dup2\n      mstore\n      0x04\n      add\n      tag_309\n      swap3\n      swap2\n      swap1\n      tag_310\n      jump\t// in\n    tag_309:\n      mload(0x40)\n      dup1\n      swap2\n      sub\n      swap1\n      revert\n        /* \"src/ArbExecutor.sol\":12610:12727  if (finalBalance < requiredBalance) {... */\n    tag_308:\n        /* \"src/ArbExecutor.sol\":12427:12733  {... */\n      pop\n      pop\n        /* \"src/ArbExecutor.sol\":12388:12733  function _assertProfit() internal view {... */\n      jump\t// out\n        /* \"src/ArbExecutor.sol\":10953:11964  function _resolveExpectedPool(CallbackData memory callbackData) internal view returns (address) {... */\n    tag_256:\n        /* \"src/ArbExecutor.sol\":11040:11047  address */\n      0x00\n        /* \"src/ArbExecutor.sol\":1774:1775  1 */\n      0x01\n        /* \"src/ArbExecutor.sol\":11063:11109  callbackData.protocolId == PROTOCOL_UNISWAP_V3 */\n      0xff\n      and\n        /* \"src/ArbExecutor.sol\":11063:11075  callbackData */\n      dup3\n        /* \"src/ArbExecutor.sol\":11063:11086  callbackData.protocolId */\n      0x00\n      add\n      mload\n        /* \"src/ArbExecutor.sol\":11063:11109  callbackData.protocolId == PROTOCOL_UNISWAP_V3 */\n      0xff\n      and\n      sub\n        /* \"src/ArbExecutor.sol\":11059:11267  if (callbackData.protocolId == PROTOCOL_UNISWAP_V3) {... */\n      tag_312\n      jumpi\n        /* \"src/ArbExecutor.sol\":11154:11170  uniswapV3Factory */\n      immutable(\"0xdb56024b3d6cde3a6cd02fd327b99549871e338b958b94e29cae4ab4619605ef\")\n        /* \"src/ArbExecutor.sol\":11132:11196  IUniswapV3FactoryLike(uniswapV3Factory)... */\n      0xffffffffffffffffffffffffffffffffffffffff\n      and\n      0x1698ee82\n        /* \"src/ArbExecutor.sol\":11197:11209  callbackData */\n      dup4\n        /* \"src/ArbExecutor.sol\":11197:11216  callbackData.token0 */\n      0x20\n      add\n      mload\n        /* \"src/ArbExecutor.sol\":11218:11230  callbackData */\n      dup5\n        /* \"src/ArbExecutor.sol\":11218:11237  callbackData.token1 */\n      0x40\n      add\n      mload\n        /* \"src/ArbExecutor.sol\":11239:11251  callbackData */\n      dup6\n        /* \"src/ArbExecutor.sol\":11239:11255  callbackData.fee */\n      0x60\n      add\n      mload\n        /* \"src/ArbExecutor.sol\":11132:11256  IUniswapV3FactoryLike(uniswapV3Factory)... */\n      mload(0x40)\n      dup5\n      0xffffffff\n      and\n      0xe0\n      shl\n      dup2\n      mstore\n      0x04\n      add\n      tag_313\n      swap4\n      swap3\n      swap2\n      swap1\n      tag_314\n      jump\t// in\n    tag_313:\n      0x20\n      mload(0x40)\n      dup1\n      dup4\n      sub\n      dup2\n      dup7\n      gas\n      staticcall\n      iszero\n      dup1\n      iszero\n      tag_316\n      jumpi\n      returndatacopy(0x00, 0x00, returndatasize)\n      revert(0x00, returndatasize)\n    tag_316:\n      pop\n      pop\n      pop\n      pop\n      mload(0x40)\n      returndatasize\n      not(0x1f)\n      0x1f\n      dup3\n      add\n      and\n      dup3\n      add\n      dup1\n      0x40\n      mstore\n      pop\n      dup2\n      add\n      swap1\n      tag_317\n      swap2\n      swap1\n      tag_318\n      jump\t// in\n    tag_317:\n        /* \"src/ArbExecutor.sol\":11125:11256  return IUniswapV3FactoryLike(uniswapV3Factory)... */\n      swap1\n      pop\n      jump(tag_311)\n        /* \"src/ArbExecutor.sol\":11059:11267  if (callbackData.protocolId == PROTOCOL_UNISWAP_V3) {... */\n    tag_312:\n        /* \"src/ArbExecutor.sol\":1828:1829  2 */\n      0x02\n        /* \"src/ArbExecutor.sol\":11280:11328  callbackData.protocolId == PROTOCOL_SUSHISWAP_V3 */\n      0xff\n      and\n        /* \"src/ArbExecutor.sol\":11280:11292  callbackData */\n      dup3\n        /* \"src/ArbExecutor.sol\":11280:11303  callbackData.protocolId */\n      0x00\n      add\n      mload\n        /* \"src/ArbExecutor.sol\":11280:11328  callbackData.protocolId == PROTOCOL_SUSHISWAP_V3 */\n      0xff\n      and\n      sub\n        /* \"src/ArbExecutor.sol\":11276:11484  if (callbackData.protocolId == PROTOCOL_SUSHISWAP_V3) {... */\n      tag_319\n      jumpi\n        /* \"src/ArbExecutor.sol\":11373:11387  sushiV3Factory */\n      immutable(\"0x98f4d6eec7613e33b36335f2ce6a27018d9a9f0999ab27807ed26ac6fd46f1a2\")\n        /* \"src/ArbExecutor.sol\":11351:11413  IUniswapV3FactoryLike(sushiV3Factory)... */\n      0xffffffffffffffffffffffffffffffffffffffff\n      and\n      0x1698ee82\n        /* \"src/ArbExecutor.sol\":11414:11426  callbackData */\n      dup4\n        /* \"src/ArbExecutor.sol\":11414:11433  callbackData.token0 */\n      0x20\n      add\n      mload\n        /* \"src/ArbExecutor.sol\":11435:11447  callbackData */\n      dup5\n        /* \"src/ArbExecutor.sol\":11435:11454  callbackData.token1 */\n      0x40\n      add\n      mload\n        /* \"src/ArbExecutor.sol\":11456:11468  callbackData */\n      dup6\n        /* \"src/ArbExecutor.sol\":11456:11472  callbackData.fee */\n      0x60\n      add\n      mload\n        /* \"src/ArbExecutor.sol\":11351:11473  IUniswapV3FactoryLike(sushiV3Factory)... */\n      mload(0x40)\n      dup5\n      0xffffffff\n      and\n      0xe0\n      shl\n      dup2\n      mstore\n      0x04\n      add\n      tag_320\n      swap4\n      swap3\n      swap2\n      swap1\n      tag_314\n      jump\t// in\n    tag_320:\n      0x20\n      mload(0x40)\n      dup1\n      dup4\n      sub\n      dup2\n      dup7\n      gas\n      staticcall\n      iszero\n      dup1\n      iszero\n      tag_322\n      jumpi\n      returndatacopy(0x00, 0x00, returndatasize)\n      revert(0x00, returndatasize)\n    tag_322:\n      pop\n      pop\n      pop\n      pop\n      mload(0x40)\n      returndatasize\n      not(0x1f)\n      0x1f\n      dup3\n      add\n      and\n      dup3\n      add\n      dup1\n      0x40\n      mstore\n      pop\n      dup2\n      add\n      swap1\n      tag_323\n      swap2\n      swap1\n      tag_318\n      jump\t// in\n    tag_323:\n        /* \"src/ArbExecutor.sol\":11344:11473  return IUniswapV3FactoryLike(sushiV3Factory)... */\n      swap1\n      pop\n      jump(tag_311)\n        /* \"src/ArbExecutor.sol\":11276:11484  if (callbackData.protocolId == PROTOCOL_SUSHISWAP_V3) {... */\n    tag_319:\n        /* \"src/ArbExecutor.sol\":1882:1883  3 */\n      0x03\n        /* \"src/ArbExecutor.sol\":11497:11545  callbackData.protocolId == PROTOCOL_QUICKSWAP_V3 */\n      0xff\n      and\n        /* \"src/ArbExecutor.sol\":11497:11509  callbackData */\n      dup3\n        /* \"src/ArbExecutor.sol\":11497:11520  callbackData.protocolId */\n      0x00\n      add\n      mload\n        /* \"src/ArbExecutor.sol\":11497:11545  callbackData.protocolId == PROTOCOL_QUICKSWAP_V3 */\n      0xff\n      and\n      sub\n        /* \"src/ArbExecutor.sol\":11493:11671  if (callbackData.protocolId == PROTOCOL_QUICKSWAP_V3) {... */\n      tag_324\n      jumpi\n        /* \"src/ArbExecutor.sol\":11588:11606  quickswapV3Factory */\n      immutable(\"0x0d283e5f5b5d2526f34a5a92a1188385f6cf1a43607f82a114e6c2e937222ad5\")\n        /* \"src/ArbExecutor.sol\":11568:11618  IAlgebraFactoryLike(quickswapV3Factory).poolByPair */\n      0xffffffffffffffffffffffffffffffffffffffff\n      and\n      0xd9a641e1\n        /* \"src/ArbExecutor.sol\":11619:11631  callbackData */\n      dup4\n        /* \"src/ArbExecutor.sol\":11619:11638  callbackData.token0 */\n      0x20\n      add\n      mload\n        /* \"src/ArbExecutor.sol\":11640:11652  callbackData */\n      dup5\n        /* \"src/ArbExecutor.sol\":11640:11659  callbackData.token1 */\n      0x40\n      add\n      mload\n        /* \"src/ArbExecutor.sol\":11568:11660  IAlgebraFactoryLike(quickswapV3Factory).poolByPair(callbackData.token0, callbackData.token1) */\n      mload(0x40)\n      dup4\n      0xffffffff\n      and\n      0xe0\n      shl\n      dup2\n      mstore\n      0x04\n      add\n      tag_325\n      swap3\n      swap2\n      swap1\n      tag_260\n      jump\t// in\n    tag_325:\n      0x20\n      mload(0x40)\n      dup1\n      dup4\n      sub\n      dup2\n      dup7\n      gas\n      staticcall\n      iszero\n      dup1\n      iszero\n      tag_327\n      jumpi\n      returndatacopy(0x00, 0x00, returndatasize)\n      revert(0x00, returndatasize)\n    tag_327:\n      pop\n      pop\n      pop\n      pop\n      mload(0x40)\n      returndatasize\n      not(0x1f)\n      0x1f\n      dup3\n      add\n      and\n      dup3\n      add\n      dup1\n      0x40\n      mstore\n      pop\n      dup2\n      add\n      swap1\n      tag_328\n      swap2\n      swap1\n      tag_318\n      jump\t// in\n    tag_328:\n        /* \"src/ArbExecutor.sol\":11561:11660  return IAlgebraFactoryLike(quickswapV3Factory).poolByPair(callbackData.token0, callbackData.token1) */\n      swap1\n      pop\n      jump(tag_311)\n        /* \"src/ArbExecutor.sol\":11493:11671  if (callbackData.protocolId == PROTOCOL_QUICKSWAP_V3) {... */\n    tag_324:\n        /* \"src/ArbExecutor.sol\":1937:1938  4 */\n      0x04\n        /* \"src/ArbExecutor.sol\":11684:11733  callbackData.protocolId == PROTOCOL_KYBER_ELASTIC */\n      0xff\n      and\n        /* \"src/ArbExecutor.sol\":11684:11696  callbackData */\n      dup3\n        /* \"src/ArbExecutor.sol\":11684:11707  callbackData.protocolId */\n      0x00\n      add\n      mload\n        /* \"src/ArbExecutor.sol\":11684:11733  callbackData.protocolId == PROTOCOL_KYBER_ELASTIC */\n      0xff\n      and\n      sub\n        /* \"src/ArbExecutor.sol\":11680:11897  if (callbackData.protocolId == PROTOCOL_KYBER_ELASTIC) {... */\n      tag_329\n      jumpi\n        /* \"src/ArbExecutor.sol\":11781:11800  kyberElasticFactory */\n      immutable(\"0x4f07d7aea7a8a16d4b795a9a9aabd4a50f93236b39d48ad640505cdc3dbb3bbc\")\n        /* \"src/ArbExecutor.sol\":11756:11826  IKyberElasticFactoryLike(kyberElasticFactory)... */\n      0xffffffffffffffffffffffffffffffffffffffff\n      and\n      0x1698ee82\n        /* \"src/ArbExecutor.sol\":11827:11839  callbackData */\n      dup4\n        /* \"src/ArbExecutor.sol\":11827:11846  callbackData.token0 */\n      0x20\n      add\n      mload\n        /* \"src/ArbExecutor.sol\":11848:11860  callbackData */\n      dup5\n        /* \"src/ArbExecutor.sol\":11848:11867  callbackData.token1 */\n      0x40\n      add\n      mload\n        /* \"src/ArbExecutor.sol\":11869:11881  callbackData */\n      dup6\n        /* \"src/ArbExecutor.sol\":11869:11885  callbackData.fee */\n      0x60\n      add\n      mload\n        /* \"src/ArbExecutor.sol\":11756:11886  IKyberElasticFactoryLike(kyberElasticFactory)... */\n      mload(0x40)\n      dup5\n      0xffffffff\n      and\n      0xe0\n      shl\n      dup2\n      mstore\n      0x04\n      add\n      tag_330\n      swap4\n      swap3\n      swap2\n      swap1\n      tag_314\n      jump\t// in\n    tag_330:\n      0x20\n      mload(0x40)\n      dup1\n      dup4\n      sub\n      dup2\n      dup7\n      gas\n      staticcall\n      iszero\n      dup1\n      iszero\n      tag_332\n      jumpi\n      returndatacopy(0x00, 0x00, returndatasize)\n      revert(0x00, returndatasize)\n    tag_332:\n      pop\n      pop\n      pop\n      pop\n      mload(0x40)\n      returndatasize\n      not(0x1f)\n      0x1f\n      dup3\n      add\n      and\n      dup3\n      add\n      dup1\n      0x40\n      mstore\n      pop\n      dup2\n      add\n      swap1\n      tag_333\n      swap2\n      swap1\n      tag_318\n      jump\t// in\n    tag_333:\n        /* \"src/ArbExecutor.sol\":11749:11886  return IKyberElasticFactoryLike(kyberElasticFactory)... */\n      swap1\n      pop\n      jump(tag_311)\n        /* \"src/ArbExecutor.sol\":11680:11897  if (callbackData.protocolId == PROTOCOL_KYBER_ELASTIC) {... */\n    tag_329:\n        /* \"src/ArbExecutor.sol\":11933:11945  callbackData */\n      dup2\n        /* \"src/ArbExecutor.sol\":11933:11956  callbackData.protocolId */\n      0x00\n      add\n      mload\n        /* \"src/ArbExecutor.sol\":11913:11957  UnsupportedProtocol(callbackData.protocolId) */\n      mload(0x40)\n      0xf850442b00000000000000000000000000000000000000000000000000000000\n      dup2\n      mstore\n      0x04\n      add\n      tag_334\n      swap2\n      swap1\n      tag_254\n      jump\t// in\n    tag_334:\n      mload(0x40)\n      dup1\n      swap2\n      sub\n      swap1\n      revert\n        /* \"src/ArbExecutor.sol\":10953:11964  function _resolveExpectedPool(CallbackData memory callbackData) internal view returns (address) {... */\n    tag_311:\n      swap2\n      swap1\n      pop\n      jump\t// out\n        /* \"src/ArbExecutor.sol\":13335:13724  function _safeAllowance(address token, address owner_, address spender) internal view returns (uint256) {... */\n    tag_268:\n        /* \"src/ArbExecutor.sol\":13430:13437  uint256 */\n      0x00\n        /* \"src/ArbExecutor.sol\":13450:13457  bool ok */\n      0x00\n        /* \"src/ArbExecutor.sol\":13459:13478  bytes memory result */\n      0x00\n        /* \"src/ArbExecutor.sol\":13494:13499  token */\n      dup6\n        /* \"src/ArbExecutor.sol\":13494:13510  token.staticcall */\n      0xffffffffffffffffffffffffffffffffffffffff\n      and\n        /* \"src/ArbExecutor.sol\":13534:13575  IERC20AllowanceMinimal.allowance.selector */\n      shl(0xe0, 0xdd62ed3e)\n        /* \"src/ArbExecutor.sol\":13577:13583  owner_ */\n      dup7\n        /* \"src/ArbExecutor.sol\":13585:13592  spender */\n      dup7\n        /* \"src/ArbExecutor.sol\":13511:13593  abi.encodeWithSelector(IERC20AllowanceMinimal.allowance.selector, owner_, spender) */\n      add(0x24, mload(0x40))\n      tag_336\n      swap3\n      swap2\n      swap1\n      tag_260\n      jump\t// in\n    tag_336:\n      mload(0x40)\n      0x20\n      dup2\n      dup4\n      sub\n      sub\n      dup2\n      mstore\n      swap1\n      0x40\n      mstore\n      swap1\n      not(0xffffffffffffffffffffffffffffffffffffffffffffffffffffffff)\n      and\n      0x20\n      dup3\n      add\n      dup1\n      mload\n      0xffffffffffffffffffffffffffffffffffffffffffffffffffffffff\n      dup4\n      dup2\n      dup4\n      and\n      or\n      dup4\n      mstore\n      pop\n      pop\n      pop\n      pop\n        /* \"src/ArbExecutor.sol\":13494:13594  token.staticcall(abi.encodeWithSelector(IERC20AllowanceMinimal.allowance.selector, owner_, spender)) */\n      mload(0x40)\n      tag_337\n      swap2\n      swap1\n      tag_278\n      jump\t// in\n    tag_337:\n      0x00\n      mload(0x40)\n      dup1\n      dup4\n      sub\n      dup2\n      dup6\n      gas\n      staticcall\n      swap2\n      pop\n      pop\n      returndatasize\n      dup1\n      0x00\n      dup2\n      eq\n      tag_340\n      jumpi\n      mload(0x40)\n      swap2\n      pop\n      and(add(returndatasize, 0x3f), not(0x1f))\n      dup3\n      add\n      0x40\n      mstore\n      returndatasize\n      dup3\n      mstore\n      returndatasize\n      0x00\n      0x20\n      dup5\n      add\n      returndatacopy\n      jump(tag_339)\n    tag_340:\n      0x60\n      swap2\n      pop\n    tag_339:\n      pop\n        /* \"src/ArbExecutor.sol\":13449:13594  (bool ok, bytes memory result) =... */\n      swap2\n      pop\n      swap2\n      pop\n        /* \"src/ArbExecutor.sol\":13609:13611  ok */\n      dup2\n        /* \"src/ArbExecutor.sol\":13608:13611  !ok */\n      iszero\n        /* \"src/ArbExecutor.sol\":13608:13633  !ok || result.length < 32 */\n      dup1\n      tag_341\n      jumpi\n      pop\n        /* \"src/ArbExecutor.sol\":13631:13633  32 */\n      0x20\n        /* \"src/ArbExecutor.sol\":13615:13621  result */\n      dup2\n        /* \"src/ArbExecutor.sol\":13615:13628  result.length */\n      mload\n        /* \"src/ArbExecutor.sol\":13615:13633  result.length < 32 */\n      lt\n        /* \"src/ArbExecutor.sol\":13608:13633  !ok || result.length < 32 */\n    tag_341:\n        /* \"src/ArbExecutor.sol\":13604:13671  if (!ok || result.length < 32) revert ApproveFailed(token, spender) */\n      iszero\n      tag_342\n      jumpi\n        /* \"src/ArbExecutor.sol\":13656:13661  token */\n      dup6\n        /* \"src/ArbExecutor.sol\":13663:13670  spender */\n      dup5\n        /* \"src/ArbExecutor.sol\":13642:13671  ApproveFailed(token, spender) */\n      mload(0x40)\n      0x1b6c83ab00000000000000000000000000000000000000000000000000000000\n      dup2\n      mstore\n      0x04\n      add\n      tag_343\n      swap3\n      swap2\n      swap1\n      tag_260\n      jump\t// in\n    tag_343:\n      mload(0x40)\n      dup1\n      swap2\n      sub\n      swap1\n      revert\n        /* \"src/ArbExecutor.sol\":13604:13671  if (!ok || result.length < 32) revert ApproveFailed(token, spender) */\n    tag_342:\n        /* \"src/ArbExecutor.sol\":13699:13705  result */\n      dup1\n        /* \"src/ArbExecutor.sol\":13688:13717  abi.decode(result, (uint256)) */\n      dup1\n      0x20\n      add\n      swap1\n      mload\n      dup2\n      add\n      swap1\n      tag_344\n      swap2\n      swap1\n      tag_152\n      jump\t// in\n    tag_344:\n        /* \"src/ArbExecutor.sol\":13681:13717  return abi.decode(result, (uint256)) */\n      swap3\n      pop\n      pop\n      pop\n        /* \"src/ArbExecutor.sol\":13335:13724  function _safeAllowance(address token, address owner_, address spender) internal view returns (uint256) {... */\n      swap4\n      swap3\n      pop\n      pop\n      pop\n      jump\t// out\n        /* \"src/ArbExecutor.sol\":13730:14088  function _safeApprove(address token, address spender, uint256 amount) internal {... */\n    tag_272:\n        /* \"src/ArbExecutor.sol\":13820:13827  bool ok */\n      0x00\n        /* \"src/ArbExecutor.sol\":13829:13848  bytes memory result */\n      0x00\n        /* \"src/ArbExecutor.sol\":13864:13869  token */\n      dup5\n        /* \"src/ArbExecutor.sol\":13864:13874  token.call */\n      0xffffffffffffffffffffffffffffffffffffffff\n      and\n        /* \"src/ArbExecutor.sol\":13898:13928  IERC20Minimal.approve.selector */\n      shl(0xe0, 0x095ea7b3)\n        /* \"src/ArbExecutor.sol\":13930:13937  spender */\n      dup6\n        /* \"src/ArbExecutor.sol\":13939:13945  amount */\n      dup6\n        /* \"src/ArbExecutor.sol\":13875:13946  abi.encodeWithSelector(IERC20Minimal.approve.selector, spender, amount) */\n      add(0x24, mload(0x40))\n      tag_346\n      swap3\n      swap2\n      swap1\n      tag_276\n      jump\t// in\n    tag_346:\n      mload(0x40)\n      0x20\n      dup2\n      dup4\n      sub\n      sub\n      dup2\n      mstore\n      swap1\n      0x40\n      mstore\n      swap1\n      not(0xffffffffffffffffffffffffffffffffffffffffffffffffffffffff)\n      and\n      0x20\n      dup3\n      add\n      dup1\n      mload\n      0xffffffffffffffffffffffffffffffffffffffffffffffffffffffff\n      dup4\n      dup2\n      dup4\n      and\n      or\n      dup4\n      mstore\n      pop\n      pop\n      pop\n      pop\n        /* \"src/ArbExecutor.sol\":13864:13947  token.call(abi.encodeWithSelector(IERC20Minimal.approve.selector, spender, amount)) */\n      mload(0x40)\n      tag_347\n      swap2\n      swap1\n      tag_278\n      jump\t// in\n    tag_347:\n      0x00\n      mload(0x40)\n      dup1\n      dup4\n      sub\n      dup2\n      0x00\n      dup7\n      gas\n      call\n      swap2\n      pop\n      pop\n      returndatasize\n      dup1\n      0x00\n      dup2\n      eq\n      tag_350\n      jumpi\n      mload(0x40)\n      swap2\n      pop\n      and(add(returndatasize, 0x3f), not(0x1f))\n      dup3\n      add\n      0x40\n      mstore\n      returndatasize\n      dup3\n      mstore\n      returndatasize\n      0x00\n      0x20\n      dup5\n      add\n      returndatacopy\n      jump(tag_349)\n    tag_350:\n      0x60\n      swap2\n      pop\n    tag_349:\n      pop\n        /* \"src/ArbExecutor.sol\":13819:13947  (bool ok, bytes memory result) =... */\n      swap2\n      pop\n      swap2\n      pop\n        /* \"src/ArbExecutor.sol\":13962:13964  ok */\n      dup2\n        /* \"src/ArbExecutor.sol\":13961:13964  !ok */\n      iszero\n        /* \"src/ArbExecutor.sol\":13961:14019  !ok || (result.length != 0 && !abi.decode(result, (bool))) */\n      dup1\n      tag_351\n      jumpi\n      pop\n        /* \"src/ArbExecutor.sol\":13986:13987  0 */\n      0x00\n        /* \"src/ArbExecutor.sol\":13969:13975  result */\n      dup2\n        /* \"src/ArbExecutor.sol\":13969:13982  result.length */\n      mload\n        /* \"src/ArbExecutor.sol\":13969:13987  result.length != 0 */\n      eq\n      iszero\n        /* \"src/ArbExecutor.sol\":13969:14018  result.length != 0 && !abi.decode(result, (bool)) */\n      dup1\n      iszero\n      tag_352\n      jumpi\n      pop\n        /* \"src/ArbExecutor.sol\":14003:14009  result */\n      dup1\n        /* \"src/ArbExecutor.sol\":13992:14018  abi.decode(result, (bool)) */\n      dup1\n      0x20\n      add\n      swap1\n      mload\n      dup2\n      add\n      swap1\n      tag_353\n      swap2\n      swap1\n      tag_285\n      jump\t// in\n    tag_353:\n        /* \"src/ArbExecutor.sol\":13991:14018  !abi.decode(result, (bool)) */\n      iszero\n        /* \"src/ArbExecutor.sol\":13969:14018  result.length != 0 && !abi.decode(result, (bool)) */\n    tag_352:\n        /* \"src/ArbExecutor.sol\":13961:14019  !ok || (result.length != 0 && !abi.decode(result, (bool))) */\n    tag_351:\n        /* \"src/ArbExecutor.sol\":13957:14082  if (!ok || (result.length != 0 && !abi.decode(result, (bool)))) {... */\n      iszero\n      tag_354\n      jumpi\n        /* \"src/ArbExecutor.sol\":14056:14061  token */\n      dup5\n        /* \"src/ArbExecutor.sol\":14063:14070  spender */\n      dup5\n        /* \"src/ArbExecutor.sol\":14042:14071  ApproveFailed(token, spender) */\n      mload(0x40)\n      0x1b6c83ab00000000000000000000000000000000000000000000000000000000\n      dup2\n      mstore\n      0x04\n      add\n      tag_355\n      swap3\n      swap2\n      swap1\n      tag_260\n      jump\t// in\n    tag_355:\n      mload(0x40)\n      dup1\n      swap2\n      sub\n      swap1\n      revert\n        /* \"src/ArbExecutor.sol\":13957:14082  if (!ok || (result.length != 0 && !abi.decode(result, (bool)))) {... */\n    tag_354:\n        /* \"src/ArbExecutor.sol\":13809:14088  {... */\n      pop\n      pop\n        /* \"src/ArbExecutor.sol\":13730:14088  function _safeApprove(address token, address spender, uint256 amount) internal {... */\n      pop\n      pop\n      pop\n      jump\t// out\n        /* \"#utility.yul\":7:82   */\n    tag_356:\n        /* \"#utility.yul\":40:46   */\n      0x00\n        /* \"#utility.yul\":73:75   */\n      0x40\n        /* \"#utility.yul\":67:76   */\n      mload\n        /* \"#utility.yul\":57:76   */\n      swap1\n      pop\n        /* \"#utility.yul\":7:82   */\n      swap1\n      jump\t// out\n        /* \"#utility.yul\":88:205   */\n    tag_357:\n        /* \"#utility.yul\":197:198   */\n      0x00\n        /* \"#utility.yul\":194:195   */\n      0x00\n        /* \"#utility.yul\":187:199   */\n      revert\n        /* \"#utility.yul\":211:328   */\n    tag_358:\n        /* \"#utility.yul\":320:321   */\n      0x00\n        /* \"#utility.yul\":317:318   */\n      0x00\n        /* \"#utility.yul\":310:322   */\n      revert\n        /* \"#utility.yul\":334:460   */\n    tag_359:\n        /* \"#utility.yul\":371:378   */\n      0x00\n        /* \"#utility.yul\":411:453   */\n      0xffffffffffffffffffffffffffffffffffffffff\n        /* \"#utility.yul\":404:409   */\n      dup3\n        /* \"#utility.yul\":400:454   */\n      and\n        /* \"#utility.yul\":389:454   */\n      swap1\n      pop\n        /* \"#utility.yul\":334:460   */\n      swap2\n      swap1\n      pop\n      jump\t// out\n        /* \"#utility.yul\":466:570   */\n    tag_360:\n        /* \"#utility.yul\":511:518   */\n      0x00\n        /* \"#utility.yul\":540:564   */\n      tag_488\n        /* \"#utility.yul\":558:563   */\n      dup3\n        /* \"#utility.yul\":540:564   */\n      tag_359\n      jump\t// in\n    tag_488:\n        /* \"#utility.yul\":529:564   */\n      swap1\n      pop\n        /* \"#utility.yul\":466:570   */\n      swap2\n      swap1\n      pop\n      jump\t// out\n        /* \"#utility.yul\":576:714   */\n    tag_361:\n        /* \"#utility.yul\":657:689   */\n      tag_490\n        /* \"#utility.yul\":683:688   */\n      dup2\n        /* \"#utility.yul\":657:689   */\n      tag_360\n      jump\t// in\n    tag_490:\n        /* \"#utility.yul\":650:655   */\n      dup2\n        /* \"#utility.yul\":647:690   */\n      eq\n        /* \"#utility.yul\":637:708   */\n      tag_491\n      jumpi\n        /* \"#utility.yul\":704:705   */\n      0x00\n        /* \"#utility.yul\":701:702   */\n      0x00\n        /* \"#utility.yul\":694:706   */\n      revert\n        /* \"#utility.yul\":637:708   */\n    tag_491:\n        /* \"#utility.yul\":576:714   */\n      pop\n      jump\t// out\n        /* \"#utility.yul\":720:875   */\n    tag_362:\n        /* \"#utility.yul\":774:779   */\n      0x00\n        /* \"#utility.yul\":812:818   */\n      dup2\n        /* \"#utility.yul\":799:819   */\n      calldataload\n        /* \"#utility.yul\":790:819   */\n      swap1\n      pop\n        /* \"#utility.yul\":828:869   */\n      tag_493\n        /* \"#utility.yul\":863:868   */\n      dup2\n        /* \"#utility.yul\":828:869   */\n      tag_361\n      jump\t// in\n    tag_493:\n        /* \"#utility.yul\":720:875   */\n      swap3\n      swap2\n      pop\n      pop\n      jump\t// out\n        /* \"#utility.yul\":881:958   */\n    tag_363:\n        /* \"#utility.yul\":918:925   */\n      0x00\n        /* \"#utility.yul\":947:952   */\n      dup2\n        /* \"#utility.yul\":936:952   */\n      swap1\n      pop\n        /* \"#utility.yul\":881:958   */\n      swap2\n      swap1\n      pop\n      jump\t// out\n        /* \"#utility.yul\":964:1086   */\n    tag_364:\n        /* \"#utility.yul\":1037:1061   */\n      tag_496\n        /* \"#utility.yul\":1055:1060   */\n      dup2\n        /* \"#utility.yul\":1037:1061   */\n      tag_363\n      jump\t// in\n    tag_496:\n        /* \"#utility.yul\":1030:1035   */\n      dup2\n        /* \"#utility.yul\":1027:1062   */\n      eq\n        /* \"#utility.yul\":1017:1080   */\n      tag_497\n      jumpi\n        /* \"#utility.yul\":1076:1077   */\n      0x00\n        /* \"#utility.yul\":1073:1074   */\n      0x00\n        /* \"#utility.yul\":1066:1078   */\n      revert\n        /* \"#utility.yul\":1017:1080   */\n    tag_497:\n        /* \"#utility.yul\":964:1086   */\n      pop\n      jump\t// out\n        /* \"#utility.yul\":1092:1231   */\n    tag_365:\n        /* \"#utility.yul\":1138:1143   */\n      0x00\n        /* \"#utility.yul\":1176:1182   */\n      dup2\n        /* \"#utility.yul\":1163:1183   */\n      calldataload\n        /* \"#utility.yul\":1154:1183   */\n      swap1\n      pop\n        /* \"#utility.yul\":1192:1225   */\n      tag_499\n        /* \"#utility.yul\":1219:1224   */\n      dup2\n        /* \"#utility.yul\":1192:1225   */\n      tag_364\n      jump\t// in\n    tag_499:\n        /* \"#utility.yul\":1092:1231   */\n      swap3\n      swap2\n      pop\n      pop\n      jump\t// out\n        /* \"#utility.yul\":1237:1727   */\n    tag_29:\n        /* \"#utility.yul\":1313:1319   */\n      0x00\n        /* \"#utility.yul\":1321:1327   */\n      0x00\n        /* \"#utility.yul\":1370:1372   */\n      0x40\n        /* \"#utility.yul\":1358:1367   */\n      dup4\n        /* \"#utility.yul\":1349:1356   */\n      dup6\n        /* \"#utility.yul\":1345:1368   */\n      sub\n        /* \"#utility.yul\":1341:1373   */\n      slt\n        /* \"#utility.yul\":1338:1457   */\n      iszero\n      tag_501\n      jumpi\n        /* \"#utility.yul\":1376:1455   */\n      tag_502\n      tag_357\n      jump\t// in\n    tag_502:\n        /* \"#utility.yul\":1338:1457   */\n    tag_501:\n        /* \"#utility.yul\":1496:1497   */\n      0x00\n        /* \"#utility.yul\":1521:1582   */\n      tag_503\n        /* \"#utility.yul\":1574:1581   */\n      dup6\n        /* \"#utility.yul\":1565:1571   */\n      dup3\n        /* \"#utility.yul\":1554:1563   */\n      dup7\n        /* \"#utility.yul\":1550:1572   */\n      add\n        /* \"#utility.yul\":1521:1582   */\n      tag_362\n      jump\t// in\n    tag_503:\n        /* \"#utility.yul\":1511:1582   */\n      swap3\n      pop\n        /* \"#utility.yul\":1467:1592   */\n      pop\n        /* \"#utility.yul\":1631:1633   */\n      0x20\n        /* \"#utility.yul\":1657:1710   */\n      tag_504\n        /* \"#utility.yul\":1702:1709   */\n      dup6\n        /* \"#utility.yul\":1693:1699   */\n      dup3\n        /* \"#utility.yul\":1682:1691   */\n      dup7\n        /* \"#utility.yul\":1678:1700   */\n      add\n        /* \"#utility.yul\":1657:1710   */\n      tag_365\n      jump\t// in\n    tag_504:\n        /* \"#utility.yul\":1647:1710   */\n      swap2\n      pop\n        /* \"#utility.yul\":1602:1720   */\n      pop\n        /* \"#utility.yul\":1237:1727   */\n      swap3\n      pop\n      swap3\n      swap1\n      pop\n      jump\t// out\n        /* \"#utility.yul\":1733:1829   */\n    tag_366:\n        /* \"#utility.yul\":1770:1777   */\n      0x00\n        /* \"#utility.yul\":1799:1823   */\n      tag_506\n        /* \"#utility.yul\":1817:1822   */\n      dup3\n        /* \"#utility.yul\":1799:1823   */\n      tag_359\n      jump\t// in\n    tag_506:\n        /* \"#utility.yul\":1788:1823   */\n      swap1\n      pop\n        /* \"#utility.yul\":1733:1829   */\n      swap2\n      swap1\n      pop\n      jump\t// out\n        /* \"#utility.yul\":1835:1957   */\n    tag_367:\n        /* \"#utility.yul\":1908:1932   */\n      tag_508\n        /* \"#utility.yul\":1926:1931   */\n      dup2\n        /* \"#utility.yul\":1908:1932   */\n      tag_366\n      jump\t// in\n    tag_508:\n        /* \"#utility.yul\":1901:1906   */\n      dup2\n        /* \"#utility.yul\":1898:1933   */\n      eq\n        /* \"#utility.yul\":1888:1951   */\n      tag_509\n      jumpi\n        /* \"#utility.yul\":1947:1948   */\n      0x00\n        /* \"#utility.yul\":1944:1945   */\n      0x00\n        /* \"#utility.yul\":1937:1949   */\n      revert\n        /* \"#utility.yul\":1888:1951   */\n    tag_509:\n        /* \"#utility.yul\":1835:1957   */\n      pop\n      jump\t// out\n        /* \"#utility.yul\":1963:2102   */\n    tag_368:\n        /* \"#utility.yul\":2009:2014   */\n      0x00\n        /* \"#utility.yul\":2047:2053   */\n      dup2\n        /* \"#utility.yul\":2034:2054   */\n      calldataload\n        /* \"#utility.yul\":2025:2054   */\n      swap1\n      pop\n        /* \"#utility.yul\":2063:2096   */\n      tag_511\n        /* \"#utility.yul\":2090:2095   */\n      dup2\n        /* \"#utility.yul\":2063:2096   */\n      tag_367\n      jump\t// in\n    tag_511:\n        /* \"#utility.yul\":1963:2102   */\n      swap3\n      swap2\n      pop\n      pop\n      jump\t// out\n        /* \"#utility.yul\":2108:2437   */\n    tag_34:\n        /* \"#utility.yul\":2167:2173   */\n      0x00\n        /* \"#utility.yul\":2216:2218   */\n      0x20\n        /* \"#utility.yul\":2204:2213   */\n      dup3\n        /* \"#utility.yul\":2195:2202   */\n      dup5\n        /* \"#utility.yul\":2191:2214   */\n      sub\n        /* \"#utility.yul\":2187:2219   */\n      slt\n        /* \"#utility.yul\":2184:2303   */\n      iszero\n      tag_513\n      jumpi\n        /* \"#utility.yul\":2222:2301   */\n      tag_514\n      tag_357\n      jump\t// in\n    tag_514:\n        /* \"#utility.yul\":2184:2303   */\n    tag_513:\n        /* \"#utility.yul\":2342:2343   */\n      0x00\n        /* \"#utility.yul\":2367:2420   */\n      tag_515\n        /* \"#utility.yul\":2412:2419   */\n      dup5\n        /* \"#utility.yul\":2403:2409   */\n      dup3\n        /* \"#utility.yul\":2392:2401   */\n      dup6\n        /* \"#utility.yul\":2388:2410   */\n      add\n        /* \"#utility.yul\":2367:2420   */\n      tag_368\n      jump\t// in\n    tag_515:\n        /* \"#utility.yul\":2357:2420   */\n      swap2\n      pop\n        /* \"#utility.yul\":2313:2430   */\n      pop\n        /* \"#utility.yul\":2108:2437   */\n      swap3\n      swap2\n      pop\n      pop\n      jump\t// out\n        /* \"#utility.yul\":2443:2533   */\n    tag_369:\n        /* \"#utility.yul\":2477:2484   */\n      0x00\n        /* \"#utility.yul\":2520:2525   */\n      dup2\n        /* \"#utility.yul\":2513:2526   */\n      iszero\n        /* \"#utility.yul\":2506:2527   */\n      iszero\n        /* \"#utility.yul\":2495:2527   */\n      swap1\n      pop\n        /* \"#utility.yul\":2443:2533   */\n      swap2\n      swap1\n      pop\n      jump\t// out\n        /* \"#utility.yul\":2539:2648   */\n    tag_370:\n        /* \"#utility.yul\":2620:2641   */\n      tag_518\n        /* \"#utility.yul\":2635:2640   */\n      dup2\n        /* \"#utility.yul\":2620:2641   */\n      tag_369\n      jump\t// in\n    tag_518:\n        /* \"#utility.yul\":2615:2618   */\n      dup3\n        /* \"#utility.yul\":2608:2642   */\n      mstore\n        /* \"#utility.yul\":2539:2648   */\n      pop\n      pop\n      jump\t// out\n        /* \"#utility.yul\":2654:2864   */\n    tag_37:\n        /* \"#utility.yul\":2741:2745   */\n      0x00\n        /* \"#utility.yul\":2779:2781   */\n      0x20\n        /* \"#utility.yul\":2768:2777   */\n      dup3\n        /* \"#utility.yul\":2764:2782   */\n      add\n        /* \"#utility.yul\":2756:2782   */\n      swap1\n      pop\n        /* \"#utility.yul\":2792:2857   */\n      tag_520\n        /* \"#utility.yul\":2854:2855   */\n      0x00\n        /* \"#utility.yul\":2843:2852   */\n      dup4\n        /* \"#utility.yul\":2839:2856   */\n      add\n        /* \"#utility.yul\":2830:2836   */\n      dup5\n        /* \"#utility.yul\":2792:2857   */\n      tag_370\n      jump\t// in\n    tag_520:\n        /* \"#utility.yul\":2654:2864   */\n      swap3\n      swap2\n      pop\n      pop\n      jump\t// out\n        /* \"#utility.yul\":2870:2988   */\n    tag_371:\n        /* \"#utility.yul\":2957:2981   */\n      tag_522\n        /* \"#utility.yul\":2975:2980   */\n      dup2\n        /* \"#utility.yul\":2957:2981   */\n      tag_366\n      jump\t// in\n    tag_522:\n        /* \"#utility.yul\":2952:2955   */\n      dup3\n        /* \"#utility.yul\":2945:2982   */\n      mstore\n        /* \"#utility.yul\":2870:2988   */\n      pop\n      pop\n      jump\t// out\n        /* \"#utility.yul\":2994:3216   */\n    tag_42:\n        /* \"#utility.yul\":3087:3091   */\n      0x00\n        /* \"#utility.yul\":3125:3127   */\n      0x20\n        /* \"#utility.yul\":3114:3123   */\n      dup3\n        /* \"#utility.yul\":3110:3128   */\n      add\n        /* \"#utility.yul\":3102:3128   */\n      swap1\n      pop\n        /* \"#utility.yul\":3138:3209   */\n      tag_524\n        /* \"#utility.yul\":3206:3207   */\n      0x00\n        /* \"#utility.yul\":3195:3204   */\n      dup4\n        /* \"#utility.yul\":3191:3208   */\n      add\n        /* \"#utility.yul\":3182:3188   */\n      dup5\n        /* \"#utility.yul\":3138:3209   */\n      tag_371\n      jump\t// in\n    tag_524:\n        /* \"#utility.yul\":2994:3216   */\n      swap3\n      swap2\n      pop\n      pop\n      jump\t// out\n        /* \"#utility.yul\":3222:3298   */\n    tag_372:\n        /* \"#utility.yul\":3258:3265   */\n      0x00\n        /* \"#utility.yul\":3287:3292   */\n      dup2\n        /* \"#utility.yul\":3276:3292   */\n      swap1\n      pop\n        /* \"#utility.yul\":3222:3298   */\n      swap2\n      swap1\n      pop\n      jump\t// out\n        /* \"#utility.yul\":3304:3424   */\n    tag_373:\n        /* \"#utility.yul\":3376:3399   */\n      tag_527\n        /* \"#utility.yul\":3393:3398   */\n      dup2\n        /* \"#utility.yul\":3376:3399   */\n      tag_372\n      jump\t// in\n    tag_527:\n        /* \"#utility.yul\":3369:3374   */\n      dup2\n        /* \"#utility.yul\":3366:3400   */\n      eq\n        /* \"#utility.yul\":3356:3418   */\n      tag_528\n      jumpi\n        /* \"#utility.yul\":3414:3415   */\n      0x00\n        /* \"#utility.yul\":3411:3412   */\n      0x00\n        /* \"#utility.yul\":3404:3416   */\n      revert\n        /* \"#utility.yul\":3356:3418   */\n    tag_528:\n        /* \"#utility.yul\":3304:3424   */\n      pop\n      jump\t// out\n        /* \"#utility.yul\":3430:3567   */\n    tag_374:\n        /* \"#utility.yul\":3475:3480   */\n      0x00\n        /* \"#utility.yul\":3513:3519   */\n      dup2\n        /* \"#utility.yul\":3500:3520   */\n      calldataload\n        /* \"#utility.yul\":3491:3520   */\n      swap1\n      pop\n        /* \"#utility.yul\":3529:3561   */\n      tag_530\n        /* \"#utility.yul\":3555:3560   */\n      dup2\n        /* \"#utility.yul\":3529:3561   */\n      tag_373\n      jump\t// in\n    tag_530:\n        /* \"#utility.yul\":3430:3567   */\n      swap3\n      swap2\n      pop\n      pop\n      jump\t// out\n        /* \"#utility.yul\":3573:3690   */\n    tag_375:\n        /* \"#utility.yul\":3682:3683   */\n      0x00\n        /* \"#utility.yul\":3679:3680   */\n      0x00\n        /* \"#utility.yul\":3672:3684   */\n      revert\n        /* \"#utility.yul\":3696:3813   */\n    tag_376:\n        /* \"#utility.yul\":3805:3806   */\n      0x00\n        /* \"#utility.yul\":3802:3803   */\n      0x00\n        /* \"#utility.yul\":3795:3807   */\n      revert\n        /* \"#utility.yul\":3819:3936   */\n    tag_377:\n        /* \"#utility.yul\":3928:3929   */\n      0x00\n        /* \"#utility.yul\":3925:3926   */\n      0x00\n        /* \"#utility.yul\":3918:3930   */\n      revert\n        /* \"#utility.yul\":3955:4507   */\n    tag_378:\n        /* \"#utility.yul\":4012:4020   */\n      0x00\n        /* \"#utility.yul\":4022:4028   */\n      0x00\n        /* \"#utility.yul\":4072:4075   */\n      dup4\n        /* \"#utility.yul\":4065:4069   */\n      0x1f\n        /* \"#utility.yul\":4057:4063   */\n      dup5\n        /* \"#utility.yul\":4053:4070   */\n      add\n        /* \"#utility.yul\":4049:4076   */\n      slt\n        /* \"#utility.yul\":4039:4161   */\n      tag_535\n      jumpi\n        /* \"#utility.yul\":4080:4159   */\n      tag_536\n      tag_375\n      jump\t// in\n    tag_536:\n        /* \"#utility.yul\":4039:4161   */\n    tag_535:\n        /* \"#utility.yul\":4193:4199   */\n      dup3\n        /* \"#utility.yul\":4180:4200   */\n      calldataload\n        /* \"#utility.yul\":4170:4200   */\n      swap1\n      pop\n        /* \"#utility.yul\":4223:4241   */\n      0xffffffffffffffff\n        /* \"#utility.yul\":4215:4221   */\n      dup2\n        /* \"#utility.yul\":4212:4242   */\n      gt\n        /* \"#utility.yul\":4209:4326   */\n      iszero\n      tag_537\n      jumpi\n        /* \"#utility.yul\":4245:4324   */\n      tag_538\n      tag_376\n      jump\t// in\n    tag_538:\n        /* \"#utility.yul\":4209:4326   */\n    tag_537:\n        /* \"#utility.yul\":4359:4363   */\n      0x20\n        /* \"#utility.yul\":4351:4357   */\n      dup4\n        /* \"#utility.yul\":4347:4364   */\n      add\n        /* \"#utility.yul\":4335:4364   */\n      swap2\n      pop\n        /* \"#utility.yul\":4413:4416   */\n      dup4\n        /* \"#utility.yul\":4405:4409   */\n      0x01\n        /* \"#utility.yul\":4397:4403   */\n      dup3\n        /* \"#utility.yul\":4393:4410   */\n      mul\n        /* \"#utility.yul\":4383:4391   */\n      dup4\n        /* \"#utility.yul\":4379:4411   */\n      add\n        /* \"#utility.yul\":4376:4417   */\n      gt\n        /* \"#utility.yul\":4373:4501   */\n      iszero\n      tag_539\n      jumpi\n        /* \"#utility.yul\":4420:4499   */\n      tag_540\n      tag_377\n      jump\t// in\n    tag_540:\n        /* \"#utility.yul\":4373:4501   */\n    tag_539:\n        /* \"#utility.yul\":3955:4507   */\n      swap3\n      pop\n      swap3\n      swap1\n      pop\n      jump\t// out\n        /* \"#utility.yul\":4513:5326   */\n    tag_46:\n        /* \"#utility.yul\":4599:4605   */\n      0x00\n        /* \"#utility.yul\":4607:4613   */\n      0x00\n        /* \"#utility.yul\":4615:4621   */\n      0x00\n        /* \"#utility.yul\":4623:4629   */\n      0x00\n        /* \"#utility.yul\":4672:4674   */\n      0x60\n        /* \"#utility.yul\":4660:4669   */\n      dup6\n        /* \"#utility.yul\":4651:4658   */\n      dup8\n        /* \"#utility.yul\":4647:4670   */\n      sub\n        /* \"#utility.yul\":4643:4675   */\n      slt\n        /* \"#utility.yul\":4640:4759   */\n      iszero\n      tag_542\n      jumpi\n        /* \"#utility.yul\":4678:4757   */\n      tag_543\n      tag_357\n      jump\t// in\n    tag_543:\n        /* \"#utility.yul\":4640:4759   */\n    tag_542:\n        /* \"#utility.yul\":4798:4799   */\n      0x00\n        /* \"#utility.yul\":4823:4875   */\n      tag_544\n        /* \"#utility.yul\":4867:4874   */\n      dup8\n        /* \"#utility.yul\":4858:4864   */\n      dup3\n        /* \"#utility.yul\":4847:4856   */\n      dup9\n        /* \"#utility.yul\":4843:4865   */\n      add\n        /* \"#utility.yul\":4823:4875   */\n      tag_374\n      jump\t// in\n    tag_544:\n        /* \"#utility.yul\":4813:4875   */\n      swap5\n      pop\n        /* \"#utility.yul\":4769:4885   */\n      pop\n        /* \"#utility.yul\":4924:4926   */\n      0x20\n        /* \"#utility.yul\":4950:5002   */\n      tag_545\n        /* \"#utility.yul\":4994:5001   */\n      dup8\n        /* \"#utility.yul\":4985:4991   */\n      dup3\n        /* \"#utility.yul\":4974:4983   */\n      dup9\n        /* \"#utility.yul\":4970:4992   */\n      add\n        /* \"#utility.yul\":4950:5002   */\n      tag_374\n      jump\t// in\n    tag_545:\n        /* \"#utility.yul\":4940:5002   */\n      swap4\n      pop\n        /* \"#utility.yul\":4895:5012   */\n      pop\n        /* \"#utility.yul\":5079:5081   */\n      0x40\n        /* \"#utility.yul\":5068:5077   */\n      dup6\n        /* \"#utility.yul\":5064:5082   */\n      add\n        /* \"#utility.yul\":5051:5083   */\n      calldataload\n        /* \"#utility.yul\":5110:5128   */\n      0xffffffffffffffff\n        /* \"#utility.yul\":5102:5108   */\n      dup2\n        /* \"#utility.yul\":5099:5129   */\n      gt\n        /* \"#utility.yul\":5096:5213   */\n      iszero\n      tag_546\n      jumpi\n        /* \"#utility.yul\":5132:5211   */\n      tag_547\n      tag_358\n      jump\t// in\n    tag_547:\n        /* \"#utility.yul\":5096:5213   */\n    tag_546:\n        /* \"#utility.yul\":5245:5309   */\n      tag_548\n        /* \"#utility.yul\":5301:5308   */\n      dup8\n        /* \"#utility.yul\":5292:5298   */\n      dup3\n        /* \"#utility.yul\":5281:5290   */\n      dup9\n        /* \"#utility.yul\":5277:5299   */\n      add\n        /* \"#utility.yul\":5245:5309   */\n      tag_378\n      jump\t// in\n    tag_548:\n        /* \"#utility.yul\":5227:5309   */\n      swap3\n      pop\n      swap3\n      pop\n        /* \"#utility.yul\":5022:5319   */\n      pop\n        /* \"#utility.yul\":4513:5326   */\n      swap3\n      swap6\n      swap2\n      swap5\n      pop\n      swap3\n      pop\n      jump\t// out\n        /* \"#utility.yul\":5332:5449   */\n    tag_379:\n        /* \"#utility.yul\":5441:5442   */\n      0x00\n        /* \"#utility.yul\":5438:5439   */\n      0x00\n        /* \"#utility.yul\":5431:5443   */\n      revert\n        /* \"#utility.yul\":5493:5728   */\n    tag_380:\n        /* \"#utility.yul\":5569:5574   */\n      0x00\n        /* \"#utility.yul\":5610:5613   */\n      0xa0\n        /* \"#utility.yul\":5601:5607   */\n      dup3\n        /* \"#utility.yul\":5596:5599   */\n      dup5\n        /* \"#utility.yul\":5592:5608   */\n      sub\n        /* \"#utility.yul\":5588:5614   */\n      slt\n        /* \"#utility.yul\":5585:5698   */\n      iszero\n      tag_551\n      jumpi\n        /* \"#utility.yul\":5617:5696   */\n      tag_552\n      tag_379\n      jump\t// in\n    tag_552:\n        /* \"#utility.yul\":5585:5698   */\n    tag_551:\n        /* \"#utility.yul\":5716:5722   */\n      dup2\n        /* \"#utility.yul\":5707:5722   */\n      swap1\n      pop\n        /* \"#utility.yul\":5493:5728   */\n      swap3\n      swap2\n      pop\n      pop\n      jump\t// out\n        /* \"#utility.yul\":5734:6573   */\n    tag_51:\n        /* \"#utility.yul\":5841:5847   */\n      0x00\n        /* \"#utility.yul\":5849:5855   */\n      0x00\n        /* \"#utility.yul\":5857:5863   */\n      0x00\n        /* \"#utility.yul\":5906:5908   */\n      0x60\n        /* \"#utility.yul\":5894:5903   */\n      dup5\n        /* \"#utility.yul\":5885:5892   */\n      dup7\n        /* \"#utility.yul\":5881:5904   */\n      sub\n        /* \"#utility.yul\":5877:5909   */\n      slt\n        /* \"#utility.yul\":5874:5993   */\n      iszero\n      tag_554\n      jumpi\n        /* \"#utility.yul\":5912:5991   */\n      tag_555\n      tag_357\n      jump\t// in\n    tag_555:\n        /* \"#utility.yul\":5874:5993   */\n    tag_554:\n        /* \"#utility.yul\":6032:6033   */\n      0x00\n        /* \"#utility.yul\":6057:6110   */\n      tag_556\n        /* \"#utility.yul\":6102:6109   */\n      dup7\n        /* \"#utility.yul\":6093:6099   */\n      dup3\n        /* \"#utility.yul\":6082:6091   */\n      dup8\n        /* \"#utility.yul\":6078:6100   */\n      add\n        /* \"#utility.yul\":6057:6110   */\n      tag_368\n      jump\t// in\n    tag_556:\n        /* \"#utility.yul\":6047:6110   */\n      swap4\n      pop\n        /* \"#utility.yul\":6003:6120   */\n      pop\n        /* \"#utility.yul\":6159:6161   */\n      0x20\n        /* \"#utility.yul\":6185:6238   */\n      tag_557\n        /* \"#utility.yul\":6230:6237   */\n      dup7\n        /* \"#utility.yul\":6221:6227   */\n      dup3\n        /* \"#utility.yul\":6210:6219   */\n      dup8\n        /* \"#utility.yul\":6206:6228   */\n      add\n        /* \"#utility.yul\":6185:6238   */\n      tag_365\n      jump\t// in\n    tag_557:\n        /* \"#utility.yul\":6175:6238   */\n      swap3\n      pop\n        /* \"#utility.yul\":6130:6248   */\n      pop\n        /* \"#utility.yul\":6315:6317   */\n      0x40\n        /* \"#utility.yul\":6304:6313   */\n      dup5\n        /* \"#utility.yul\":6300:6318   */\n      add\n        /* \"#utility.yul\":6287:6319   */\n      calldataload\n        /* \"#utility.yul\":6346:6364   */\n      0xffffffffffffffff\n        /* \"#utility.yul\":6338:6344   */\n      dup2\n        /* \"#utility.yul\":6335:6365   */\n      gt\n        /* \"#utility.yul\":6332:6449   */\n      iszero\n      tag_558\n      jumpi\n        /* \"#utility.yul\":6368:6447   */\n      tag_559\n      tag_358\n      jump\t// in\n    tag_559:\n        /* \"#utility.yul\":6332:6449   */\n    tag_558:\n        /* \"#utility.yul\":6473:6556   */\n      tag_560\n        /* \"#utility.yul\":6548:6555   */\n      dup7\n        /* \"#utility.yul\":6539:6545   */\n      dup3\n        /* \"#utility.yul\":6528:6537   */\n      dup8\n        /* \"#utility.yul\":6524:6546   */\n      add\n        /* \"#utility.yul\":6473:6556   */\n      tag_380\n      jump\t// in\n    tag_560:\n        /* \"#utility.yul\":6463:6556   */\n      swap2\n      pop\n        /* \"#utility.yul\":6258:6566   */\n      pop\n        /* \"#utility.yul\":5734:6573   */\n      swap3\n      pop\n      swap3\n      pop\n      swap3\n      jump\t// out\n        /* \"#utility.yul\":6579:6695   */\n    tag_381:\n        /* \"#utility.yul\":6649:6670   */\n      tag_562\n        /* \"#utility.yul\":6664:6669   */\n      dup2\n        /* \"#utility.yul\":6649:6670   */\n      tag_369\n      jump\t// in\n    tag_562:\n        /* \"#utility.yul\":6642:6647   */\n      dup2\n        /* \"#utility.yul\":6639:6671   */\n      eq\n        /* \"#utility.yul\":6629:6689   */\n      tag_563\n      jumpi\n        /* \"#utility.yul\":6685:6686   */\n      0x00\n        /* \"#utility.yul\":6682:6683   */\n      0x00\n        /* \"#utility.yul\":6675:6687   */\n      revert\n        /* \"#utility.yul\":6629:6689   */\n    tag_563:\n        /* \"#utility.yul\":6579:6695   */\n      pop\n      jump\t// out\n        /* \"#utility.yul\":6701:6834   */\n    tag_382:\n        /* \"#utility.yul\":6744:6749   */\n      0x00\n        /* \"#utility.yul\":6782:6788   */\n      dup2\n        /* \"#utility.yul\":6769:6789   */\n      calldataload\n        /* \"#utility.yul\":6760:6789   */\n      swap1\n      pop\n        /* \"#utility.yul\":6798:6828   */\n      tag_565\n        /* \"#utility.yul\":6822:6827   */\n      dup2\n        /* \"#utility.yul\":6798:6828   */\n      tag_381\n      jump\t// in\n    tag_565:\n        /* \"#utility.yul\":6701:6834   */\n      swap3\n      swap2\n      pop\n      pop\n      jump\t// out\n        /* \"#utility.yul\":6840:7308   */\n    tag_60:\n        /* \"#utility.yul\":6905:6911   */\n      0x00\n        /* \"#utility.yul\":6913:6919   */\n      0x00\n        /* \"#utility.yul\":6962:6964   */\n      0x40\n        /* \"#utility.yul\":6950:6959   */\n      dup4\n        /* \"#utility.yul\":6941:6948   */\n      dup6\n        /* \"#utility.yul\":6937:6960   */\n      sub\n        /* \"#utility.yul\":6933:6965   */\n      slt\n        /* \"#utility.yul\":6930:7049   */\n      iszero\n      tag_567\n      jumpi\n        /* \"#utility.yul\":6968:7047   */\n      tag_568\n      tag_357\n      jump\t// in\n    tag_568:\n        /* \"#utility.yul\":6930:7049   */\n    tag_567:\n        /* \"#utility.yul\":7088:7089   */\n      0x00\n        /* \"#utility.yul\":7113:7166   */\n      tag_569\n        /* \"#utility.yul\":7158:7165   */\n      dup6\n        /* \"#utility.yul\":7149:7155   */\n      dup3\n        /* \"#utility.yul\":7138:7147   */\n      dup7\n        /* \"#utility.yul\":7134:7156   */\n      add\n        /* \"#utility.yul\":7113:7166   */\n      tag_368\n      jump\t// in\n    tag_569:\n        /* \"#utility.yul\":7103:7166   */\n      swap3\n      pop\n        /* \"#utility.yul\":7059:7176   */\n      pop\n        /* \"#utility.yul\":7215:7217   */\n      0x20\n        /* \"#utility.yul\":7241:7291   */\n      tag_570\n        /* \"#utility.yul\":7283:7290   */\n      dup6\n        /* \"#utility.yul\":7274:7280   */\n      dup3\n        /* \"#utility.yul\":7263:7272   */\n      dup7\n        /* \"#utility.yul\":7259:7281   */\n      add\n        /* \"#utility.yul\":7241:7291   */\n      tag_382\n      jump\t// in\n    tag_570:\n        /* \"#utility.yul\":7231:7291   */\n      swap2\n      pop\n        /* \"#utility.yul\":7186:7301   */\n      pop\n        /* \"#utility.yul\":6840:7308   */\n      swap3\n      pop\n      swap3\n      swap1\n      pop\n      jump\t// out\n        /* \"#utility.yul\":7314:7788   */\n    tag_81:\n        /* \"#utility.yul\":7382:7388   */\n      0x00\n        /* \"#utility.yul\":7390:7396   */\n      0x00\n        /* \"#utility.yul\":7439:7441   */\n      0x40\n        /* \"#utility.yul\":7427:7436   */\n      dup4\n        /* \"#utility.yul\":7418:7425   */\n      dup6\n        /* \"#utility.yul\":7414:7437   */\n      sub\n        /* \"#utility.yul\":7410:7442   */\n      slt\n        /* \"#utility.yul\":7407:7526   */\n      iszero\n      tag_572\n      jumpi\n        /* \"#utility.yul\":7445:7524   */\n      tag_573\n      tag_357\n      jump\t// in\n    tag_573:\n        /* \"#utility.yul\":7407:7526   */\n    tag_572:\n        /* \"#utility.yul\":7565:7566   */\n      0x00\n        /* \"#utility.yul\":7590:7643   */\n      tag_574\n        /* \"#utility.yul\":7635:7642   */\n      dup6\n        /* \"#utility.yul\":7626:7632   */\n      dup3\n        /* \"#utility.yul\":7615:7624   */\n      dup7\n        /* \"#utility.yul\":7611:7633   */\n      add\n        /* \"#utility.yul\":7590:7643   */\n      tag_368\n      jump\t// in\n    tag_574:\n        /* \"#utility.yul\":7580:7643   */\n      swap3\n      pop\n        /* \"#utility.yul\":7536:7653   */\n      pop\n        /* \"#utility.yul\":7692:7694   */\n      0x20\n        /* \"#utility.yul\":7718:7771   */\n      tag_575\n        /* \"#utility.yul\":7763:7770   */\n      dup6\n        /* \"#utility.yul\":7754:7760   */\n      dup3\n        /* \"#utility.yul\":7743:7752   */\n      dup7\n        /* \"#utility.yul\":7739:7761   */\n      add\n        /* \"#utility.yul\":7718:7771   */\n      tag_368\n      jump\t// in\n    tag_575:\n        /* \"#utility.yul\":7708:7771   */\n      swap2\n      pop\n        /* \"#utility.yul\":7663:7781   */\n      pop\n        /* \"#utility.yul\":7314:7788   */\n      swap3\n      pop\n      swap3\n      swap1\n      pop\n      jump\t// out\n        /* \"#utility.yul\":7794:8413   */\n    tag_86:\n        /* \"#utility.yul\":7871:7877   */\n      0x00\n        /* \"#utility.yul\":7879:7885   */\n      0x00\n        /* \"#utility.yul\":7887:7893   */\n      0x00\n        /* \"#utility.yul\":7936:7938   */\n      0x60\n        /* \"#utility.yul\":7924:7933   */\n      dup5\n        /* \"#utility.yul\":7915:7922   */\n      dup7\n        /* \"#utility.yul\":7911:7934   */\n      sub\n        /* \"#utility.yul\":7907:7939   */\n      slt\n        /* \"#utility.yul\":7904:8023   */\n      iszero\n      tag_577\n      jumpi\n        /* \"#utility.yul\":7942:8021   */\n      tag_578\n      tag_357\n      jump\t// in\n    tag_578:\n        /* \"#utility.yul\":7904:8023   */\n    tag_577:\n        /* \"#utility.yul\":8062:8063   */\n      0x00\n        /* \"#utility.yul\":8087:8140   */\n      tag_579\n        /* \"#utility.yul\":8132:8139   */\n      dup7\n        /* \"#utility.yul\":8123:8129   */\n      dup3\n        /* \"#utility.yul\":8112:8121   */\n      dup8\n        /* \"#utility.yul\":8108:8130   */\n      add\n        /* \"#utility.yul\":8087:8140   */\n      tag_368\n      jump\t// in\n    tag_579:\n        /* \"#utility.yul\":8077:8140   */\n      swap4\n      pop\n        /* \"#utility.yul\":8033:8150   */\n      pop\n        /* \"#utility.yul\":8189:8191   */\n      0x20\n        /* \"#utility.yul\":8215:8268   */\n      tag_580\n        /* \"#utility.yul\":8260:8267   */\n      dup7\n        /* \"#utility.yul\":8251:8257   */\n      dup3\n        /* \"#utility.yul\":8240:8249   */\n      dup8\n        /* \"#utility.yul\":8236:8258   */\n      add\n        /* \"#utility.yul\":8215:8268   */\n      tag_368\n      jump\t// in\n    tag_580:\n        /* \"#utility.yul\":8205:8268   */\n      swap3\n      pop\n        /* \"#utility.yul\":8160:8278   */\n      pop\n        /* \"#utility.yul\":8317:8319   */\n      0x40\n        /* \"#utility.yul\":8343:8396   */\n      tag_581\n        /* \"#utility.yul\":8388:8395   */\n      dup7\n        /* \"#utility.yul\":8379:8385   */\n      dup3\n        /* \"#utility.yul\":8368:8377   */\n      dup8\n        /* \"#utility.yul\":8364:8386   */\n      add\n        /* \"#utility.yul\":8343:8396   */\n      tag_365\n      jump\t// in\n    tag_581:\n        /* \"#utility.yul\":8333:8396   */\n      swap2\n      pop\n        /* \"#utility.yul\":8288:8406   */\n      pop\n        /* \"#utility.yul\":7794:8413   */\n      swap3\n      pop\n      swap3\n      pop\n      swap3\n      jump\t// out\n        /* \"#utility.yul\":8419:8521   */\n    tag_383:\n        /* \"#utility.yul\":8460:8466   */\n      0x00\n        /* \"#utility.yul\":8511:8513   */\n      0x1f\n        /* \"#utility.yul\":8507:8514   */\n      not\n        /* \"#utility.yul\":8502:8504   */\n      0x1f\n        /* \"#utility.yul\":8495:8500   */\n      dup4\n        /* \"#utility.yul\":8491:8505   */\n      add\n        /* \"#utility.yul\":8487:8515   */\n      and\n        /* \"#utility.yul\":8477:8515   */\n      swap1\n      pop\n        /* \"#utility.yul\":8419:8521   */\n      swap2\n      swap1\n      pop\n      jump\t// out\n        /* \"#utility.yul\":8527:8707   */\n    tag_156:\n        /* \"#utility.yul\":8575:8652   */\n      0x4e487b7100000000000000000000000000000000000000000000000000000000\n        /* \"#utility.yul\":8572:8573   */\n      0x00\n        /* \"#utility.yul\":8565:8653   */\n      mstore\n        /* \"#utility.yul\":8672:8676   */\n      0x41\n        /* \"#utility.yul\":8669:8670   */\n      0x04\n        /* \"#utility.yul\":8662:8677   */\n      mstore\n        /* \"#utility.yul\":8696:8700   */\n      0x24\n        /* \"#utility.yul\":8693:8694   */\n      0x00\n        /* \"#utility.yul\":8686:8701   */\n      revert\n        /* \"#utility.yul\":8713:8994   */\n    tag_384:\n        /* \"#utility.yul\":8796:8823   */\n      tag_585\n        /* \"#utility.yul\":8818:8822   */\n      dup3\n        /* \"#utility.yul\":8796:8823   */\n      tag_383\n      jump\t// in\n    tag_585:\n        /* \"#utility.yul\":8788:8794   */\n      dup2\n        /* \"#utility.yul\":8784:8824   */\n      add\n        /* \"#utility.yul\":8926:8932   */\n      dup2\n        /* \"#utility.yul\":8914:8924   */\n      dup2\n        /* \"#utility.yul\":8911:8933   */\n      lt\n        /* \"#utility.yul\":8890:8908   */\n      0xffffffffffffffff\n        /* \"#utility.yul\":8878:8888   */\n      dup3\n        /* \"#utility.yul\":8875:8909   */\n      gt\n        /* \"#utility.yul\":8872:8934   */\n      or\n        /* \"#utility.yul\":8869:8957   */\n      iszero\n      tag_586\n      jumpi\n        /* \"#utility.yul\":8937:8955   */\n      tag_587\n      tag_156\n      jump\t// in\n    tag_587:\n        /* \"#utility.yul\":8869:8957   */\n    tag_586:\n        /* \"#utility.yul\":8977:8987   */\n      dup1\n        /* \"#utility.yul\":8973:8975   */\n      0x40\n        /* \"#utility.yul\":8966:8988   */\n      mstore\n        /* \"#utility.yul\":8756:8994   */\n      pop\n        /* \"#utility.yul\":8713:8994   */\n      pop\n      pop\n      jump\t// out\n        /* \"#utility.yul\":9000:9129   */\n    tag_385:\n        /* \"#utility.yul\":9034:9040   */\n      0x00\n        /* \"#utility.yul\":9061:9081   */\n      tag_589\n      tag_356\n      jump\t// in\n    tag_589:\n        /* \"#utility.yul\":9051:9081   */\n      swap1\n      pop\n        /* \"#utility.yul\":9090:9123   */\n      tag_590\n        /* \"#utility.yul\":9118:9122   */\n      dup3\n        /* \"#utility.yul\":9110:9116   */\n      dup3\n        /* \"#utility.yul\":9090:9123   */\n      tag_384\n      jump\t// in\n    tag_590:\n        /* \"#utility.yul\":9000:9129   */\n      swap2\n      swap1\n      pop\n      jump\t// out\n        /* \"#utility.yul\":9135:9466   */\n    tag_386:\n        /* \"#utility.yul\":9232:9236   */\n      0x00\n        /* \"#utility.yul\":9322:9340   */\n      0xffffffffffffffff\n        /* \"#utility.yul\":9314:9320   */\n      dup3\n        /* \"#utility.yul\":9311:9341   */\n      gt\n        /* \"#utility.yul\":9308:9364   */\n      iszero\n      tag_592\n      jumpi\n        /* \"#utility.yul\":9344:9362   */\n      tag_593\n      tag_156\n      jump\t// in\n    tag_593:\n        /* \"#utility.yul\":9308:9364   */\n    tag_592:\n        /* \"#utility.yul\":9394:9398   */\n      0x20\n        /* \"#utility.yul\":9386:9392   */\n      dup3\n        /* \"#utility.yul\":9382:9399   */\n      mul\n        /* \"#utility.yul\":9374:9399   */\n      swap1\n      pop\n        /* \"#utility.yul\":9454:9458   */\n      0x20\n        /* \"#utility.yul\":9448:9452   */\n      dup2\n        /* \"#utility.yul\":9444:9459   */\n      add\n        /* \"#utility.yul\":9436:9459   */\n      swap1\n      pop\n        /* \"#utility.yul\":9135:9466   */\n      swap2\n      swap1\n      pop\n      jump\t// out\n        /* \"#utility.yul\":9472:9588   */\n    tag_387:\n        /* \"#utility.yul\":9529:9536   */\n      0x00\n        /* \"#utility.yul\":9558:9582   */\n      tag_595\n        /* \"#utility.yul\":9576:9581   */\n      dup3\n        /* \"#utility.yul\":9558:9582   */\n      tag_366\n      jump\t// in\n    tag_595:\n        /* \"#utility.yul\":9547:9582   */\n      swap1\n      pop\n        /* \"#utility.yul\":9472:9588   */\n      swap2\n      swap1\n      pop\n      jump\t// out\n        /* \"#utility.yul\":9594:9756   */\n    tag_388:\n        /* \"#utility.yul\":9687:9731   */\n      tag_597\n        /* \"#utility.yul\":9725:9730   */\n      dup2\n        /* \"#utility.yul\":9687:9731   */\n      tag_387\n      jump\t// in\n    tag_597:\n        /* \"#utility.yul\":9680:9685   */\n      dup2\n        /* \"#utility.yul\":9677:9732   */\n      eq\n        /* \"#utility.yul\":9667:9750   */\n      tag_598\n      jumpi\n        /* \"#utility.yul\":9746:9747   */\n      0x00\n        /* \"#utility.yul\":9743:9744   */\n      0x00\n        /* \"#utility.yul\":9736:9748   */\n      revert\n        /* \"#utility.yul\":9667:9750   */\n    tag_598:\n        /* \"#utility.yul\":9594:9756   */\n      pop\n      jump\t// out\n        /* \"#utility.yul\":9762:9941   */\n    tag_389:\n        /* \"#utility.yul\":9828:9833   */\n      0x00\n        /* \"#utility.yul\":9866:9872   */\n      dup2\n        /* \"#utility.yul\":9853:9873   */\n      calldataload\n        /* \"#utility.yul\":9844:9873   */\n      swap1\n      pop\n        /* \"#utility.yul\":9882:9935   */\n      tag_600\n        /* \"#utility.yul\":9929:9934   */\n      dup2\n        /* \"#utility.yul\":9882:9935   */\n      tag_388\n      jump\t// in\n    tag_600:\n        /* \"#utility.yul\":9762:9941   */\n      swap3\n      swap2\n      pop\n      pop\n      jump\t// out\n        /* \"#utility.yul\":9979:10749   */\n    tag_390:\n        /* \"#utility.yul\":10095:10100   */\n      0x00\n        /* \"#utility.yul\":10120:10221   */\n      tag_602\n        /* \"#utility.yul\":10136:10220   */\n      tag_603\n        /* \"#utility.yul\":10213:10219   */\n      dup5\n        /* \"#utility.yul\":10136:10220   */\n      tag_386\n      jump\t// in\n    tag_603:\n        /* \"#utility.yul\":10120:10221   */\n      tag_385\n      jump\t// in\n    tag_602:\n        /* \"#utility.yul\":10111:10221   */\n      swap1\n      pop\n        /* \"#utility.yul\":10241:10246   */\n      dup1\n        /* \"#utility.yul\":10270:10276   */\n      dup4\n        /* \"#utility.yul\":10263:10268   */\n      dup3\n        /* \"#utility.yul\":10256:10277   */\n      mstore\n        /* \"#utility.yul\":10304:10308   */\n      0x20\n        /* \"#utility.yul\":10297:10302   */\n      dup3\n        /* \"#utility.yul\":10293:10309   */\n      add\n        /* \"#utility.yul\":10286:10309   */\n      swap1\n      pop\n        /* \"#utility.yul\":10357:10361   */\n      0x20\n        /* \"#utility.yul\":10349:10355   */\n      dup5\n        /* \"#utility.yul\":10345:10362   */\n      mul\n        /* \"#utility.yul\":10337:10343   */\n      dup4\n        /* \"#utility.yul\":10333:10363   */\n      add\n        /* \"#utility.yul\":10386:10389   */\n      dup6\n        /* \"#utility.yul\":10378:10384   */\n      dup2\n        /* \"#utility.yul\":10375:10390   */\n      gt\n        /* \"#utility.yul\":10372:10494   */\n      iszero\n      tag_604\n      jumpi\n        /* \"#utility.yul\":10405:10484   */\n      tag_605\n      tag_377\n      jump\t// in\n    tag_605:\n        /* \"#utility.yul\":10372:10494   */\n    tag_604:\n        /* \"#utility.yul\":10520:10526   */\n      dup4\n        /* \"#utility.yul\":10503:10743   */\n    tag_606:\n        /* \"#utility.yul\":10537:10543   */\n      dup2\n        /* \"#utility.yul\":10532:10535   */\n      dup2\n        /* \"#utility.yul\":10529:10544   */\n      lt\n        /* \"#utility.yul\":10503:10743   */\n      iszero\n      tag_608\n      jumpi\n        /* \"#utility.yul\":10612:10615   */\n      dup1\n        /* \"#utility.yul\":10641:10698   */\n      tag_609\n        /* \"#utility.yul\":10694:10697   */\n      dup9\n        /* \"#utility.yul\":10682:10692   */\n      dup3\n        /* \"#utility.yul\":10641:10698   */\n      tag_389\n      jump\t// in\n    tag_609:\n        /* \"#utility.yul\":10636:10639   */\n      dup5\n        /* \"#utility.yul\":10629:10699   */\n      mstore\n        /* \"#utility.yul\":10728:10732   */\n      0x20\n        /* \"#utility.yul\":10723:10726   */\n      dup5\n        /* \"#utility.yul\":10719:10733   */\n      add\n        /* \"#utility.yul\":10712:10733   */\n      swap4\n      pop\n        /* \"#utility.yul\":10579:10743   */\n      pop\n        /* \"#utility.yul\":10563:10567   */\n      0x20\n        /* \"#utility.yul\":10558:10561   */\n      dup2\n        /* \"#utility.yul\":10554:10568   */\n      add\n        /* \"#utility.yul\":10547:10568   */\n      swap1\n      pop\n        /* \"#utility.yul\":10503:10743   */\n      jump(tag_606)\n    tag_608:\n        /* \"#utility.yul\":10507:10528   */\n      pop\n        /* \"#utility.yul\":10101:10749   */\n      pop\n      pop\n        /* \"#utility.yul\":9979:10749   */\n      swap4\n      swap3\n      pop\n      pop\n      pop\n      jump\t// out\n        /* \"#utility.yul\":10787:11197   */\n    tag_391:\n        /* \"#utility.yul\":10878:10883   */\n      0x00\n        /* \"#utility.yul\":10927:10930   */\n      dup3\n        /* \"#utility.yul\":10920:10924   */\n      0x1f\n        /* \"#utility.yul\":10912:10918   */\n      dup4\n        /* \"#utility.yul\":10908:10925   */\n      add\n        /* \"#utility.yul\":10904:10931   */\n      slt\n        /* \"#utility.yul\":10894:11016   */\n      tag_611\n      jumpi\n        /* \"#utility.yul\":10935:11014   */\n      tag_612\n      tag_375\n      jump\t// in\n    tag_612:\n        /* \"#utility.yul\":10894:11016   */\n    tag_611:\n        /* \"#utility.yul\":11052:11058   */\n      dup2\n        /* \"#utility.yul\":11039:11059   */\n      calldataload\n        /* \"#utility.yul\":11077:11191   */\n      tag_613\n        /* \"#utility.yul\":11187:11190   */\n      dup5\n        /* \"#utility.yul\":11179:11185   */\n      dup3\n        /* \"#utility.yul\":11172:11176   */\n      0x20\n        /* \"#utility.yul\":11164:11170   */\n      dup7\n        /* \"#utility.yul\":11160:11177   */\n      add\n        /* \"#utility.yul\":11077:11191   */\n      tag_390\n      jump\t// in\n    tag_613:\n        /* \"#utility.yul\":11068:11191   */\n      swap2\n      pop\n        /* \"#utility.yul\":10884:11197   */\n      pop\n        /* \"#utility.yul\":10787:11197   */\n      swap3\n      swap2\n      pop\n      pop\n      jump\t// out\n        /* \"#utility.yul\":11203:11514   */\n    tag_392:\n        /* \"#utility.yul\":11280:11284   */\n      0x00\n        /* \"#utility.yul\":11370:11388   */\n      0xffffffffffffffff\n        /* \"#utility.yul\":11362:11368   */\n      dup3\n        /* \"#utility.yul\":11359:11389   */\n      gt\n        /* \"#utility.yul\":11356:11412   */\n      iszero\n      tag_615\n      jumpi\n        /* \"#utility.yul\":11392:11410   */\n      tag_616\n      tag_156\n      jump\t// in\n    tag_616:\n        /* \"#utility.yul\":11356:11412   */\n    tag_615:\n        /* \"#utility.yul\":11442:11446   */\n      0x20\n        /* \"#utility.yul\":11434:11440   */\n      dup3\n        /* \"#utility.yul\":11430:11447   */\n      mul\n        /* \"#utility.yul\":11422:11447   */\n      swap1\n      pop\n        /* \"#utility.yul\":11502:11506   */\n      0x20\n        /* \"#utility.yul\":11496:11500   */\n      dup2\n        /* \"#utility.yul\":11492:11507   */\n      add\n        /* \"#utility.yul\":11484:11507   */\n      swap1\n      pop\n        /* \"#utility.yul\":11203:11514   */\n      swap2\n      swap1\n      pop\n      jump\t// out\n        /* \"#utility.yul\":11537:12247   */\n    tag_393:\n        /* \"#utility.yul\":11633:11638   */\n      0x00\n        /* \"#utility.yul\":11658:11739   */\n      tag_618\n        /* \"#utility.yul\":11674:11738   */\n      tag_619\n        /* \"#utility.yul\":11731:11737   */\n      dup5\n        /* \"#utility.yul\":11674:11738   */\n      tag_392\n      jump\t// in\n    tag_619:\n        /* \"#utility.yul\":11658:11739   */\n      tag_385\n      jump\t// in\n    tag_618:\n        /* \"#utility.yul\":11649:11739   */\n      swap1\n      pop\n        /* \"#utility.yul\":11759:11764   */\n      dup1\n        /* \"#utility.yul\":11788:11794   */\n      dup4\n        /* \"#utility.yul\":11781:11786   */\n      dup3\n        /* \"#utility.yul\":11774:11795   */\n      mstore\n        /* \"#utility.yul\":11822:11826   */\n      0x20\n        /* \"#utility.yul\":11815:11820   */\n      dup3\n        /* \"#utility.yul\":11811:11827   */\n      add\n        /* \"#utility.yul\":11804:11827   */\n      swap1\n      pop\n        /* \"#utility.yul\":11875:11879   */\n      0x20\n        /* \"#utility.yul\":11867:11873   */\n      dup5\n        /* \"#utility.yul\":11863:11880   */\n      mul\n        /* \"#utility.yul\":11855:11861   */\n      dup4\n        /* \"#utility.yul\":11851:11881   */\n      add\n        /* \"#utility.yul\":11904:11907   */\n      dup6\n        /* \"#utility.yul\":11896:11902   */\n      dup2\n        /* \"#utility.yul\":11893:11908   */\n      gt\n        /* \"#utility.yul\":11890:12012   */\n      iszero\n      tag_620\n      jumpi\n        /* \"#utility.yul\":11923:12002   */\n      tag_621\n      tag_377\n      jump\t// in\n    tag_621:\n        /* \"#utility.yul\":11890:12012   */\n    tag_620:\n        /* \"#utility.yul\":12038:12044   */\n      dup4\n        /* \"#utility.yul\":12021:12241   */\n    tag_622:\n        /* \"#utility.yul\":12055:12061   */\n      dup2\n        /* \"#utility.yul\":12050:12053   */\n      dup2\n        /* \"#utility.yul\":12047:12062   */\n      lt\n        /* \"#utility.yul\":12021:12241   */\n      iszero\n      tag_624\n      jumpi\n        /* \"#utility.yul\":12130:12133   */\n      dup1\n        /* \"#utility.yul\":12159:12196   */\n      tag_625\n        /* \"#utility.yul\":12192:12195   */\n      dup9\n        /* \"#utility.yul\":12180:12190   */\n      dup3\n        /* \"#utility.yul\":12159:12196   */\n      tag_365\n      jump\t// in\n    tag_625:\n        /* \"#utility.yul\":12154:12157   */\n      dup5\n        /* \"#utility.yul\":12147:12197   */\n      mstore\n        /* \"#utility.yul\":12226:12230   */\n      0x20\n        /* \"#utility.yul\":12221:12224   */\n      dup5\n        /* \"#utility.yul\":12217:12231   */\n      add\n        /* \"#utility.yul\":12210:12231   */\n      swap4\n      pop\n        /* \"#utility.yul\":12097:12241   */\n      pop\n        /* \"#utility.yul\":12081:12085   */\n      0x20\n        /* \"#utility.yul\":12076:12079   */\n      dup2\n        /* \"#utility.yul\":12072:12086   */\n      add\n        /* \"#utility.yul\":12065:12086   */\n      swap1\n      pop\n        /* \"#utility.yul\":12021:12241   */\n      jump(tag_622)\n    tag_624:\n        /* \"#utility.yul\":12025:12046   */\n      pop\n        /* \"#utility.yul\":11639:12247   */\n      pop\n      pop\n        /* \"#utility.yul\":11537:12247   */\n      swap4\n      swap3\n      pop\n      pop\n      pop\n      jump\t// out\n        /* \"#utility.yul\":12270:12640   */\n    tag_394:\n        /* \"#utility.yul\":12341:12346   */\n      0x00\n        /* \"#utility.yul\":12390:12393   */\n      dup3\n        /* \"#utility.yul\":12383:12387   */\n      0x1f\n        /* \"#utility.yul\":12375:12381   */\n      dup4\n        /* \"#utility.yul\":12371:12388   */\n      add\n        /* \"#utility.yul\":12367:12394   */\n      slt\n        /* \"#utility.yul\":12357:12479   */\n      tag_627\n      jumpi\n        /* \"#utility.yul\":12398:12477   */\n      tag_628\n      tag_375\n      jump\t// in\n    tag_628:\n        /* \"#utility.yul\":12357:12479   */\n    tag_627:\n        /* \"#utility.yul\":12515:12521   */\n      dup2\n        /* \"#utility.yul\":12502:12522   */\n      calldataload\n        /* \"#utility.yul\":12540:12634   */\n      tag_629\n        /* \"#utility.yul\":12630:12633   */\n      dup5\n        /* \"#utility.yul\":12622:12628   */\n      dup3\n        /* \"#utility.yul\":12615:12619   */\n      0x20\n        /* \"#utility.yul\":12607:12613   */\n      dup7\n        /* \"#utility.yul\":12603:12620   */\n      add\n        /* \"#utility.yul\":12540:12634   */\n      tag_393\n      jump\t// in\n    tag_629:\n        /* \"#utility.yul\":12531:12634   */\n      swap2\n      pop\n        /* \"#utility.yul\":12347:12640   */\n      pop\n        /* \"#utility.yul\":12270:12640   */\n      swap3\n      swap2\n      pop\n      pop\n      jump\t// out\n        /* \"#utility.yul\":12646:12763   */\n    tag_395:\n        /* \"#utility.yul\":12755:12756   */\n      0x00\n        /* \"#utility.yul\":12752:12753   */\n      0x00\n        /* \"#utility.yul\":12745:12757   */\n      revert\n        /* \"#utility.yul\":12769:13076   */\n    tag_396:\n        /* \"#utility.yul\":12830:12834   */\n      0x00\n        /* \"#utility.yul\":12920:12938   */\n      0xffffffffffffffff\n        /* \"#utility.yul\":12912:12918   */\n      dup3\n        /* \"#utility.yul\":12909:12939   */\n      gt\n        /* \"#utility.yul\":12906:12962   */\n      iszero\n      tag_632\n      jumpi\n        /* \"#utility.yul\":12942:12960   */\n      tag_633\n      tag_156\n      jump\t// in\n    tag_633:\n        /* \"#utility.yul\":12906:12962   */\n    tag_632:\n        /* \"#utility.yul\":12980:13009   */\n      tag_634\n        /* \"#utility.yul\":13002:13008   */\n      dup3\n        /* \"#utility.yul\":12980:13009   */\n      tag_383\n      jump\t// in\n    tag_634:\n        /* \"#utility.yul\":12972:13009   */\n      swap1\n      pop\n        /* \"#utility.yul\":13064:13068   */\n      0x20\n        /* \"#utility.yul\":13058:13062   */\n      dup2\n        /* \"#utility.yul\":13054:13069   */\n      add\n        /* \"#utility.yul\":13046:13069   */\n      swap1\n      pop\n        /* \"#utility.yul\":12769:13076   */\n      swap2\n      swap1\n      pop\n      jump\t// out\n        /* \"#utility.yul\":13082:13230   */\n    tag_397:\n        /* \"#utility.yul\":13180:13186   */\n      dup3\n        /* \"#utility.yul\":13175:13178   */\n      dup2\n        /* \"#utility.yul\":13170:13173   */\n      dup4\n        /* \"#utility.yul\":13157:13187   */\n      calldatacopy\n        /* \"#utility.yul\":13221:13222   */\n      0x00\n        /* \"#utility.yul\":13212:13218   */\n      dup4\n        /* \"#utility.yul\":13207:13210   */\n      dup4\n        /* \"#utility.yul\":13203:13219   */\n      add\n        /* \"#utility.yul\":13196:13223   */\n      mstore\n        /* \"#utility.yul\":13082:13230   */\n      pop\n      pop\n      pop\n      jump\t// out\n        /* \"#utility.yul\":13236:13659   */\n    tag_398:\n        /* \"#utility.yul\":13313:13318   */\n      0x00\n        /* \"#utility.yul\":13338:13403   */\n      tag_637\n        /* \"#utility.yul\":13354:13402   */\n      tag_638\n        /* \"#utility.yul\":13395:13401   */\n      dup5\n        /* \"#utility.yul\":13354:13402   */\n      tag_396\n      jump\t// in\n    tag_638:\n        /* \"#utility.yul\":13338:13403   */\n      tag_385\n      jump\t// in\n    tag_637:\n        /* \"#utility.yul\":13329:13403   */\n      swap1\n      pop\n        /* \"#utility.yul\":13426:13432   */\n      dup3\n        /* \"#utility.yul\":13419:13424   */\n      dup2\n        /* \"#utility.yul\":13412:13433   */\n      mstore\n        /* \"#utility.yul\":13464:13468   */\n      0x20\n        /* \"#utility.yul\":13457:13462   */\n      dup2\n        /* \"#utility.yul\":13453:13469   */\n      add\n        /* \"#utility.yul\":13502:13505   */\n      dup5\n        /* \"#utility.yul\":13493:13499   */\n      dup5\n        /* \"#utility.yul\":13488:13491   */\n      dup5\n        /* \"#utility.yul\":13484:13500   */\n      add\n        /* \"#utility.yul\":13481:13506   */\n      gt\n        /* \"#utility.yul\":13478:13590   */\n      iszero\n      tag_639\n      jumpi\n        /* \"#utility.yul\":13509:13588   */\n      tag_640\n      tag_395\n      jump\t// in\n    tag_640:\n        /* \"#utility.yul\":13478:13590   */\n    tag_639:\n        /* \"#utility.yul\":13599:13653   */\n      tag_641\n        /* \"#utility.yul\":13646:13652   */\n      dup5\n        /* \"#utility.yul\":13641:13644   */\n      dup3\n        /* \"#utility.yul\":13636:13639   */\n      dup6\n        /* \"#utility.yul\":13599:13653   */\n      tag_397\n      jump\t// in\n    tag_641:\n        /* \"#utility.yul\":13319:13659   */\n      pop\n        /* \"#utility.yul\":13236:13659   */\n      swap4\n      swap3\n      pop\n      pop\n      pop\n      jump\t// out\n        /* \"#utility.yul\":13678:14016   */\n    tag_399:\n        /* \"#utility.yul\":13733:13738   */\n      0x00\n        /* \"#utility.yul\":13782:13785   */\n      dup3\n        /* \"#utility.yul\":13775:13779   */\n      0x1f\n        /* \"#utility.yul\":13767:13773   */\n      dup4\n        /* \"#utility.yul\":13763:13780   */\n      add\n        /* \"#utility.yul\":13759:13786   */\n      slt\n        /* \"#utility.yul\":13749:13871   */\n      tag_643\n      jumpi\n        /* \"#utility.yul\":13790:13869   */\n      tag_644\n      tag_375\n      jump\t// in\n    tag_644:\n        /* \"#utility.yul\":13749:13871   */\n    tag_643:\n        /* \"#utility.yul\":13907:13913   */\n      dup2\n        /* \"#utility.yul\":13894:13914   */\n      calldataload\n        /* \"#utility.yul\":13932:14010   */\n      tag_645\n        /* \"#utility.yul\":14006:14009   */\n      dup5\n        /* \"#utility.yul\":13998:14004   */\n      dup3\n        /* \"#utility.yul\":13991:13995   */\n      0x20\n        /* \"#utility.yul\":13983:13989   */\n      dup7\n        /* \"#utility.yul\":13979:13996   */\n      add\n        /* \"#utility.yul\":13932:14010   */\n      tag_398\n      jump\t// in\n    tag_645:\n        /* \"#utility.yul\":13923:14010   */\n      swap2\n      pop\n        /* \"#utility.yul\":13739:14016   */\n      pop\n        /* \"#utility.yul\":13678:14016   */\n      swap3\n      swap2\n      pop\n      pop\n      jump\t// out\n        /* \"#utility.yul\":14022:15635   */\n    tag_91:\n        /* \"#utility.yul\":14212:14218   */\n      0x00\n        /* \"#utility.yul\":14220:14226   */\n      0x00\n        /* \"#utility.yul\":14228:14234   */\n      0x00\n        /* \"#utility.yul\":14236:14242   */\n      0x00\n        /* \"#utility.yul\":14285:14288   */\n      0x80\n        /* \"#utility.yul\":14273:14282   */\n      dup6\n        /* \"#utility.yul\":14264:14271   */\n      dup8\n        /* \"#utility.yul\":14260:14283   */\n      sub\n        /* \"#utility.yul\":14256:14289   */\n      slt\n        /* \"#utility.yul\":14253:14373   */\n      iszero\n      tag_647\n      jumpi\n        /* \"#utility.yul\":14292:14371   */\n      tag_648\n      tag_357\n      jump\t// in\n    tag_648:\n        /* \"#utility.yul\":14253:14373   */\n    tag_647:\n        /* \"#utility.yul\":14440:14441   */\n      0x00\n        /* \"#utility.yul\":14429:14438   */\n      dup6\n        /* \"#utility.yul\":14425:14442   */\n      add\n        /* \"#utility.yul\":14412:14443   */\n      calldataload\n        /* \"#utility.yul\":14470:14488   */\n      0xffffffffffffffff\n        /* \"#utility.yul\":14462:14468   */\n      dup2\n        /* \"#utility.yul\":14459:14489   */\n      gt\n        /* \"#utility.yul\":14456:14573   */\n      iszero\n      tag_649\n      jumpi\n        /* \"#utility.yul\":14492:14571   */\n      tag_650\n      tag_358\n      jump\t// in\n    tag_650:\n        /* \"#utility.yul\":14456:14573   */\n    tag_649:\n        /* \"#utility.yul\":14597:14695   */\n      tag_651\n        /* \"#utility.yul\":14687:14694   */\n      dup8\n        /* \"#utility.yul\":14678:14684   */\n      dup3\n        /* \"#utility.yul\":14667:14676   */\n      dup9\n        /* \"#utility.yul\":14663:14685   */\n      add\n        /* \"#utility.yul\":14597:14695   */\n      tag_391\n      jump\t// in\n    tag_651:\n        /* \"#utility.yul\":14587:14695   */\n      swap5\n      pop\n        /* \"#utility.yul\":14383:14705   */\n      pop\n        /* \"#utility.yul\":14772:14774   */\n      0x20\n        /* \"#utility.yul\":14761:14770   */\n      dup6\n        /* \"#utility.yul\":14757:14775   */\n      add\n        /* \"#utility.yul\":14744:14776   */\n      calldataload\n        /* \"#utility.yul\":14803:14821   */\n      0xffffffffffffffff\n        /* \"#utility.yul\":14795:14801   */\n      dup2\n        /* \"#utility.yul\":14792:14822   */\n      gt\n        /* \"#utility.yul\":14789:14906   */\n      iszero\n      tag_652\n      jumpi\n        /* \"#utility.yul\":14825:14904   */\n      tag_653\n      tag_358\n      jump\t// in\n    tag_653:\n        /* \"#utility.yul\":14789:14906   */\n    tag_652:\n        /* \"#utility.yul\":14930:15008   */\n      tag_654\n        /* \"#utility.yul\":15000:15007   */\n      dup8\n        /* \"#utility.yul\":14991:14997   */\n      dup3\n        /* \"#utility.yul\":14980:14989   */\n      dup9\n        /* \"#utility.yul\":14976:14998   */\n      add\n        /* \"#utility.yul\":14930:15008   */\n      tag_394\n      jump\t// in\n    tag_654:\n        /* \"#utility.yul\":14920:15008   */\n      swap4\n      pop\n        /* \"#utility.yul\":14715:15018   */\n      pop\n        /* \"#utility.yul\":15085:15087   */\n      0x40\n        /* \"#utility.yul\":15074:15083   */\n      dup6\n        /* \"#utility.yul\":15070:15088   */\n      add\n        /* \"#utility.yul\":15057:15089   */\n      calldataload\n        /* \"#utility.yul\":15116:15134   */\n      0xffffffffffffffff\n        /* \"#utility.yul\":15108:15114   */\n      dup2\n        /* \"#utility.yul\":15105:15135   */\n      gt\n        /* \"#utility.yul\":15102:15219   */\n      iszero\n      tag_655\n      jumpi\n        /* \"#utility.yul\":15138:15217   */\n      tag_656\n      tag_358\n      jump\t// in\n    tag_656:\n        /* \"#utility.yul\":15102:15219   */\n    tag_655:\n        /* \"#utility.yul\":15243:15321   */\n      tag_657\n        /* \"#utility.yul\":15313:15320   */\n      dup8\n        /* \"#utility.yul\":15304:15310   */\n      dup3\n        /* \"#utility.yul\":15293:15302   */\n      dup9\n        /* \"#utility.yul\":15289:15311   */\n      add\n        /* \"#utility.yul\":15243:15321   */\n      tag_394\n      jump\t// in\n    tag_657:\n        /* \"#utility.yul\":15233:15321   */\n      swap3\n      pop\n        /* \"#utility.yul\":15028:15331   */\n      pop\n        /* \"#utility.yul\":15398:15400   */\n      0x60\n        /* \"#utility.yul\":15387:15396   */\n      dup6\n        /* \"#utility.yul\":15383:15401   */\n      add\n        /* \"#utility.yul\":15370:15402   */\n      calldataload\n        /* \"#utility.yul\":15429:15447   */\n      0xffffffffffffffff\n        /* \"#utility.yul\":15421:15427   */\n      dup2\n        /* \"#utility.yul\":15418:15448   */\n      gt\n        /* \"#utility.yul\":15415:15532   */\n      iszero\n      tag_658\n      jumpi\n        /* \"#utility.yul\":15451:15530   */\n      tag_659\n      tag_358\n      jump\t// in\n    tag_659:\n        /* \"#utility.yul\":15415:15532   */\n    tag_658:\n        /* \"#utility.yul\":15556:15618   */\n      tag_660\n        /* \"#utility.yul\":15610:15617   */\n      dup8\n        /* \"#utility.yul\":15601:15607   */\n      dup3\n        /* \"#utility.yul\":15590:15599   */\n      dup9\n        /* \"#utility.yul\":15586:15608   */\n      add\n        /* \"#utility.yul\":15556:15618   */\n      tag_399\n      jump\t// in\n    tag_660:\n        /* \"#utility.yul\":15546:15618   */\n      swap2\n      pop\n        /* \"#utility.yul\":15341:15628   */\n      pop\n        /* \"#utility.yul\":14022:15635   */\n      swap3\n      swap6\n      swap2\n      swap5\n      pop\n      swap3\n      pop\n      jump\t// out\n        /* \"#utility.yul\":15641:15788   */\n    tag_400:\n        /* \"#utility.yul\":15742:15753   */\n      0x00\n        /* \"#utility.yul\":15779:15782   */\n      dup2\n        /* \"#utility.yul\":15764:15782   */\n      swap1\n      pop\n        /* \"#utility.yul\":15641:15788   */\n      swap3\n      swap2\n      pop\n      pop\n      jump\t// out\n        /* \"#utility.yul\":15794:15908   */\n    tag_401:\n      pop\n      jump\t// out\n        /* \"#utility.yul\":15914:16312   */\n    tag_402:\n        /* \"#utility.yul\":16073:16076   */\n      0x00\n        /* \"#utility.yul\":16094:16177   */\n      tag_664\n        /* \"#utility.yul\":16175:16176   */\n      0x00\n        /* \"#utility.yul\":16170:16173   */\n      dup4\n        /* \"#utility.yul\":16094:16177   */\n      tag_400\n      jump\t// in\n    tag_664:\n        /* \"#utility.yul\":16087:16177   */\n      swap2\n      pop\n        /* \"#utility.yul\":16186:16279   */\n      tag_665\n        /* \"#utility.yul\":16275:16278   */\n      dup3\n        /* \"#utility.yul\":16186:16279   */\n      tag_401\n      jump\t// in\n    tag_665:\n        /* \"#utility.yul\":16304:16305   */\n      0x00\n        /* \"#utility.yul\":16299:16302   */\n      dup3\n        /* \"#utility.yul\":16295:16306   */\n      add\n        /* \"#utility.yul\":16288:16306   */\n      swap1\n      pop\n        /* \"#utility.yul\":15914:16312   */\n      swap2\n      swap1\n      pop\n      jump\t// out\n        /* \"#utility.yul\":16318:16697   */\n    tag_116:\n        /* \"#utility.yul\":16502:16505   */\n      0x00\n        /* \"#utility.yul\":16524:16671   */\n      tag_667\n        /* \"#utility.yul\":16667:16670   */\n      dup3\n        /* \"#utility.yul\":16524:16671   */\n      tag_402\n      jump\t// in\n    tag_667:\n        /* \"#utility.yul\":16517:16671   */\n      swap2\n      pop\n        /* \"#utility.yul\":16688:16691   */\n      dup2\n        /* \"#utility.yul\":16681:16691   */\n      swap1\n      pop\n        /* \"#utility.yul\":16318:16697   */\n      swap2\n      swap1\n      pop\n      jump\t// out\n        /* \"#utility.yul\":16703:16763   */\n    tag_403:\n        /* \"#utility.yul\":16731:16734   */\n      0x00\n        /* \"#utility.yul\":16752:16757   */\n      dup2\n        /* \"#utility.yul\":16745:16757   */\n      swap1\n      pop\n        /* \"#utility.yul\":16703:16763   */\n      swap2\n      swap1\n      pop\n      jump\t// out\n        /* \"#utility.yul\":16769:16911   */\n    tag_404:\n        /* \"#utility.yul\":16819:16828   */\n      0x00\n        /* \"#utility.yul\":16852:16905   */\n      tag_670\n        /* \"#utility.yul\":16870:16904   */\n      tag_671\n        /* \"#utility.yul\":16879:16903   */\n      tag_672\n        /* \"#utility.yul\":16897:16902   */\n      dup5\n        /* \"#utility.yul\":16879:16903   */\n      tag_359\n      jump\t// in\n    tag_672:\n        /* \"#utility.yul\":16870:16904   */\n      tag_403\n      jump\t// in\n    tag_671:\n        /* \"#utility.yul\":16852:16905   */\n      tag_359\n      jump\t// in\n    tag_670:\n        /* \"#utility.yul\":16839:16905   */\n      swap1\n      pop\n        /* \"#utility.yul\":16769:16911   */\n      swap2\n      swap1\n      pop\n      jump\t// out\n        /* \"#utility.yul\":16917:17043   */\n    tag_405:\n        /* \"#utility.yul\":16967:16976   */\n      0x00\n        /* \"#utility.yul\":17000:17037   */\n      tag_674\n        /* \"#utility.yul\":17031:17036   */\n      dup3\n        /* \"#utility.yul\":17000:17037   */\n      tag_404\n      jump\t// in\n    tag_674:\n        /* \"#utility.yul\":16987:17037   */\n      swap1\n      pop\n        /* \"#utility.yul\":16917:17043   */\n      swap2\n      swap1\n      pop\n      jump\t// out\n        /* \"#utility.yul\":17049:17183   */\n    tag_406:\n        /* \"#utility.yul\":17107:17116   */\n      0x00\n        /* \"#utility.yul\":17140:17177   */\n      tag_676\n        /* \"#utility.yul\":17171:17176   */\n      dup3\n        /* \"#utility.yul\":17140:17177   */\n      tag_405\n      jump\t// in\n    tag_676:\n        /* \"#utility.yul\":17127:17177   */\n      swap1\n      pop\n        /* \"#utility.yul\":17049:17183   */\n      swap2\n      swap1\n      pop\n      jump\t// out\n        /* \"#utility.yul\":17189:17336   */\n    tag_407:\n        /* \"#utility.yul\":17284:17329   */\n      tag_678\n        /* \"#utility.yul\":17323:17328   */\n      dup2\n        /* \"#utility.yul\":17284:17329   */\n      tag_406\n      jump\t// in\n    tag_678:\n        /* \"#utility.yul\":17279:17282   */\n      dup3\n        /* \"#utility.yul\":17272:17330   */\n      mstore\n        /* \"#utility.yul\":17189:17336   */\n      pop\n      pop\n      jump\t// out\n        /* \"#utility.yul\":17342:17460   */\n    tag_408:\n        /* \"#utility.yul\":17429:17453   */\n      tag_680\n        /* \"#utility.yul\":17447:17452   */\n      dup2\n        /* \"#utility.yul\":17429:17453   */\n      tag_363\n      jump\t// in\n    tag_680:\n        /* \"#utility.yul\":17424:17427   */\n      dup3\n        /* \"#utility.yul\":17417:17454   */\n      mstore\n        /* \"#utility.yul\":17342:17460   */\n      pop\n      pop\n      jump\t// out\n        /* \"#utility.yul\":17466:17924   */\n    tag_122:\n        /* \"#utility.yul\":17623:17627   */\n      0x00\n        /* \"#utility.yul\":17661:17663   */\n      0x60\n        /* \"#utility.yul\":17650:17659   */\n      dup3\n        /* \"#utility.yul\":17646:17664   */\n      add\n        /* \"#utility.yul\":17638:17664   */\n      swap1\n      pop\n        /* \"#utility.yul\":17674:17745   */\n      tag_682\n        /* \"#utility.yul\":17742:17743   */\n      0x00\n        /* \"#utility.yul\":17731:17740   */\n      dup4\n        /* \"#utility.yul\":17727:17744   */\n      add\n        /* \"#utility.yul\":17718:17724   */\n      dup7\n        /* \"#utility.yul\":17674:17745   */\n      tag_371\n      jump\t// in\n    tag_682:\n        /* \"#utility.yul\":17755:17835   */\n      tag_683\n        /* \"#utility.yul\":17831:17833   */\n      0x20\n        /* \"#utility.yul\":17820:17829   */\n      dup4\n        /* \"#utility.yul\":17816:17834   */\n      add\n        /* \"#utility.yul\":17807:17813   */\n      dup6\n        /* \"#utility.yul\":17755:17835   */\n      tag_407\n      jump\t// in\n    tag_683:\n        /* \"#utility.yul\":17845:17917   */\n      tag_684\n        /* \"#utility.yul\":17913:17915   */\n      0x40\n        /* \"#utility.yul\":17902:17911   */\n      dup4\n        /* \"#utility.yul\":17898:17916   */\n      add\n        /* \"#utility.yul\":17889:17895   */\n      dup5\n        /* \"#utility.yul\":17845:17917   */\n      tag_408\n      jump\t// in\n    tag_684:\n        /* \"#utility.yul\":17466:17924   */\n      swap5\n      swap4\n      pop\n      pop\n      pop\n      pop\n      jump\t// out\n        /* \"#utility.yul\":17930:18152   */\n    tag_124:\n        /* \"#utility.yul\":18023:18027   */\n      0x00\n        /* \"#utility.yul\":18061:18063   */\n      0x20\n        /* \"#utility.yul\":18050:18059   */\n      dup3\n        /* \"#utility.yul\":18046:18064   */\n      add\n        /* \"#utility.yul\":18038:18064   */\n      swap1\n      pop\n        /* \"#utility.yul\":18074:18145   */\n      tag_686\n        /* \"#utility.yul\":18142:18143   */\n      0x00\n        /* \"#utility.yul\":18131:18140   */\n      dup4\n        /* \"#utility.yul\":18127:18144   */\n      add\n        /* \"#utility.yul\":18118:18124   */\n      dup5\n        /* \"#utility.yul\":18074:18145   */\n      tag_408\n      jump\t// in\n    tag_686:\n        /* \"#utility.yul\":17930:18152   */\n      swap3\n      swap2\n      pop\n      pop\n      jump\t// out\n        /* \"#utility.yul\":18158:18275   */\n    tag_409:\n        /* \"#utility.yul\":18267:18268   */\n      0x00\n        /* \"#utility.yul\":18264:18265   */\n      0x00\n        /* \"#utility.yul\":18257:18269   */\n      revert\n        /* \"#utility.yul\":18281:18398   */\n    tag_410:\n        /* \"#utility.yul\":18390:18391   */\n      0x00\n        /* \"#utility.yul\":18387:18388   */\n      0x00\n        /* \"#utility.yul\":18380:18392   */\n      revert\n        /* \"#utility.yul\":18404:18521   */\n    tag_411:\n        /* \"#utility.yul\":18513:18514   */\n      0x00\n        /* \"#utility.yul\":18510:18511   */\n      0x00\n        /* \"#utility.yul\":18503:18515   */\n      revert\n        /* \"#utility.yul\":18527:19290   */\n    tag_136:\n        /* \"#utility.yul\":18643:18647   */\n      0x00\n        /* \"#utility.yul\":18649:18655   */\n      0x00\n        /* \"#utility.yul\":18705:18716   */\n      dup4\n        /* \"#utility.yul\":18692:18717   */\n      calldataload\n        /* \"#utility.yul\":18805:18806   */\n      0x01\n        /* \"#utility.yul\":18799:18803   */\n      0x20\n        /* \"#utility.yul\":18795:18807   */\n      sub\n        /* \"#utility.yul\":18784:18792   */\n      dup5\n        /* \"#utility.yul\":18768:18782   */\n      calldatasize\n        /* \"#utility.yul\":18764:18793   */\n      sub\n        /* \"#utility.yul\":18760:18808   */\n      sub\n        /* \"#utility.yul\":18740:18758   */\n      dup2\n        /* \"#utility.yul\":18736:18809   */\n      slt\n        /* \"#utility.yul\":18726:18894   */\n      tag_691\n      jumpi\n        /* \"#utility.yul\":18813:18892   */\n      tag_692\n      tag_409\n      jump\t// in\n    tag_692:\n        /* \"#utility.yul\":18726:18894   */\n    tag_691:\n        /* \"#utility.yul\":18925:18943   */\n      dup1\n        /* \"#utility.yul\":18915:18923   */\n      dup5\n        /* \"#utility.yul\":18911:18944   */\n      add\n        /* \"#utility.yul\":18903:18944   */\n      swap3\n      pop\n        /* \"#utility.yul\":18977:18981   */\n      dup3\n        /* \"#utility.yul\":18964:18982   */\n      calldataload\n        /* \"#utility.yul\":18954:18982   */\n      swap2\n      pop\n        /* \"#utility.yul\":19005:19023   */\n      0xffffffffffffffff\n        /* \"#utility.yul\":18997:19003   */\n      dup3\n        /* \"#utility.yul\":18994:19024   */\n      gt\n        /* \"#utility.yul\":18991:19108   */\n      iszero\n      tag_693\n      jumpi\n        /* \"#utility.yul\":19027:19106   */\n      tag_694\n      tag_410\n      jump\t// in\n    tag_694:\n        /* \"#utility.yul\":18991:19108   */\n    tag_693:\n        /* \"#utility.yul\":19135:19137   */\n      0x20\n        /* \"#utility.yul\":19129:19133   */\n      dup4\n        /* \"#utility.yul\":19125:19138   */\n      add\n        /* \"#utility.yul\":19117:19138   */\n      swap3\n      pop\n        /* \"#utility.yul\":19192:19196   */\n      0x20\n        /* \"#utility.yul\":19184:19190   */\n      dup3\n        /* \"#utility.yul\":19180:19197   */\n      mul\n        /* \"#utility.yul\":19164:19178   */\n      calldatasize\n        /* \"#utility.yul\":19160:19198   */\n      sub\n        /* \"#utility.yul\":19154:19158   */\n      dup4\n        /* \"#utility.yul\":19150:19199   */\n      sgt\n        /* \"#utility.yul\":19147:19283   */\n      iszero\n      tag_695\n      jumpi\n        /* \"#utility.yul\":19202:19281   */\n      tag_696\n      tag_411\n      jump\t// in\n    tag_696:\n        /* \"#utility.yul\":19147:19283   */\n    tag_695:\n        /* \"#utility.yul\":18656:19290   */\n      pop\n        /* \"#utility.yul\":18527:19290   */\n      swap3\n      pop\n      swap3\n      swap1\n      pop\n      jump\t// out\n        /* \"#utility.yul\":19296:19501   */\n    tag_412:\n        /* \"#utility.yul\":19416:19427   */\n      0x00\n        /* \"#utility.yul\":19450:19456   */\n      dup3\n        /* \"#utility.yul\":19445:19448   */\n      dup3\n        /* \"#utility.yul\":19438:19457   */\n      mstore\n        /* \"#utility.yul\":19490:19494   */\n      0x20\n        /* \"#utility.yul\":19485:19488   */\n      dup3\n        /* \"#utility.yul\":19481:19495   */\n      add\n        /* \"#utility.yul\":19466:19495   */\n      swap1\n      pop\n        /* \"#utility.yul\":19296:19501   */\n      swap3\n      swap2\n      pop\n      pop\n      jump\t// out\n        /* \"#utility.yul\":19507:19632   */\n    tag_413:\n        /* \"#utility.yul\":19599:19603   */\n      0x00\n        /* \"#utility.yul\":19622:19625   */\n      dup2\n        /* \"#utility.yul\":19614:19625   */\n      swap1\n      pop\n        /* \"#utility.yul\":19507:19632   */\n      swap2\n      swap1\n      pop\n      jump\t// out\n        /* \"#utility.yul\":19638:19760   */\n    tag_414:\n        /* \"#utility.yul\":19690:19695   */\n      0x00\n        /* \"#utility.yul\":19715:19754   */\n      tag_700\n        /* \"#utility.yul\":19750:19752   */\n      0x20\n        /* \"#utility.yul\":19745:19748   */\n      dup5\n        /* \"#utility.yul\":19741:19753   */\n      add\n        /* \"#utility.yul\":19736:19739   */\n      dup5\n        /* \"#utility.yul\":19715:19754   */\n      tag_368\n      jump\t// in\n    tag_700:\n        /* \"#utility.yul\":19706:19754   */\n      swap1\n      pop\n        /* \"#utility.yul\":19638:19760   */\n      swap3\n      swap2\n      pop\n      pop\n      jump\t// out\n        /* \"#utility.yul\":19766:19874   */\n    tag_415:\n        /* \"#utility.yul\":19843:19867   */\n      tag_702\n        /* \"#utility.yul\":19861:19866   */\n      dup2\n        /* \"#utility.yul\":19843:19867   */\n      tag_366\n      jump\t// in\n    tag_702:\n        /* \"#utility.yul\":19838:19841   */\n      dup3\n        /* \"#utility.yul\":19831:19868   */\n      mstore\n        /* \"#utility.yul\":19766:19874   */\n      pop\n      pop\n      jump\t// out\n        /* \"#utility.yul\":19880:20002   */\n    tag_416:\n        /* \"#utility.yul\":19932:19937   */\n      0x00\n        /* \"#utility.yul\":19957:19996   */\n      tag_704\n        /* \"#utility.yul\":19992:19994   */\n      0x20\n        /* \"#utility.yul\":19987:19990   */\n      dup5\n        /* \"#utility.yul\":19983:19995   */\n      add\n        /* \"#utility.yul\":19978:19981   */\n      dup5\n        /* \"#utility.yul\":19957:19996   */\n      tag_365\n      jump\t// in\n    tag_704:\n        /* \"#utility.yul\":19948:19996   */\n      swap1\n      pop\n        /* \"#utility.yul\":19880:20002   */\n      swap3\n      swap2\n      pop\n      pop\n      jump\t// out\n        /* \"#utility.yul\":20008:20116   */\n    tag_417:\n        /* \"#utility.yul\":20085:20109   */\n      tag_706\n        /* \"#utility.yul\":20103:20108   */\n      dup2\n        /* \"#utility.yul\":20085:20109   */\n      tag_363\n      jump\t// in\n    tag_706:\n        /* \"#utility.yul\":20080:20083   */\n      dup3\n        /* \"#utility.yul\":20073:20110   */\n      mstore\n        /* \"#utility.yul\":20008:20116   */\n      pop\n      pop\n      jump\t// out\n        /* \"#utility.yul\":20122:20239   */\n    tag_418:\n        /* \"#utility.yul\":20231:20232   */\n      0x00\n        /* \"#utility.yul\":20228:20229   */\n      0x00\n        /* \"#utility.yul\":20221:20233   */\n      revert\n        /* \"#utility.yul\":20245:20362   */\n    tag_419:\n        /* \"#utility.yul\":20354:20355   */\n      0x00\n        /* \"#utility.yul\":20351:20352   */\n      0x00\n        /* \"#utility.yul\":20344:20356   */\n      revert\n        /* \"#utility.yul\":20368:20485   */\n    tag_420:\n        /* \"#utility.yul\":20477:20478   */\n      0x00\n        /* \"#utility.yul\":20474:20475   */\n      0x00\n        /* \"#utility.yul\":20467:20479   */\n      revert\n        /* \"#utility.yul\":20491:21202   */\n    tag_421:\n        /* \"#utility.yul\":20555:20560   */\n      0x00\n        /* \"#utility.yul\":20562:20568   */\n      0x00\n        /* \"#utility.yul\":20618:20621   */\n      dup4\n        /* \"#utility.yul\":20605:20622   */\n      calldataload\n        /* \"#utility.yul\":20710:20711   */\n      0x01\n        /* \"#utility.yul\":20704:20708   */\n      0x20\n        /* \"#utility.yul\":20700:20712   */\n      sub\n        /* \"#utility.yul\":20689:20697   */\n      dup5\n        /* \"#utility.yul\":20673:20687   */\n      calldatasize\n        /* \"#utility.yul\":20669:20698   */\n      sub\n        /* \"#utility.yul\":20665:20713   */\n      sub\n        /* \"#utility.yul\":20645:20663   */\n      dup2\n        /* \"#utility.yul\":20641:20714   */\n      slt\n        /* \"#utility.yul\":20631:20799   */\n      tag_711\n      jumpi\n        /* \"#utility.yul\":20718:20797   */\n      tag_712\n      tag_420\n      jump\t// in\n    tag_712:\n        /* \"#utility.yul\":20631:20799   */\n    tag_711:\n        /* \"#utility.yul\":20841:20849   */\n      dup4\n        /* \"#utility.yul\":20821:20839   */\n      dup2\n        /* \"#utility.yul\":20817:20850   */\n      add\n        /* \"#utility.yul\":20808:20850   */\n      swap3\n      pop\n        /* \"#utility.yul\":20883:20888   */\n      dup3\n        /* \"#utility.yul\":20870:20889   */\n      calldataload\n        /* \"#utility.yul\":20860:20889   */\n      swap2\n      pop\n        /* \"#utility.yul\":20918:20922   */\n      0x20\n        /* \"#utility.yul\":20911:20916   */\n      dup4\n        /* \"#utility.yul\":20907:20923   */\n      add\n        /* \"#utility.yul\":20898:20923   */\n      swap3\n      pop\n        /* \"#utility.yul\":20946:20964   */\n      0xffffffffffffffff\n        /* \"#utility.yul\":20938:20944   */\n      dup3\n        /* \"#utility.yul\":20935:20965   */\n      gt\n        /* \"#utility.yul\":20932:21049   */\n      iszero\n      tag_713\n      jumpi\n        /* \"#utility.yul\":20968:21047   */\n      tag_714\n      tag_418\n      jump\t// in\n    tag_714:\n        /* \"#utility.yul\":20932:21049   */\n    tag_713:\n        /* \"#utility.yul\":21104:21108   */\n      0x01\n        /* \"#utility.yul\":21096:21102   */\n      dup3\n        /* \"#utility.yul\":21092:21109   */\n      mul\n        /* \"#utility.yul\":21076:21090   */\n      calldatasize\n        /* \"#utility.yul\":21072:21110   */\n      sub\n        /* \"#utility.yul\":21065:21070   */\n      dup4\n        /* \"#utility.yul\":21061:21111   */\n      sgt\n        /* \"#utility.yul\":21058:21195   */\n      iszero\n      tag_715\n      jumpi\n        /* \"#utility.yul\":21114:21193   */\n      tag_716\n      tag_419\n      jump\t// in\n    tag_716:\n        /* \"#utility.yul\":21058:21195   */\n    tag_715:\n        /* \"#utility.yul\":20569:21202   */\n      pop\n        /* \"#utility.yul\":20491:21202   */\n      swap3\n      pop\n      swap3\n      swap1\n      pop\n      jump\t// out\n        /* \"#utility.yul\":21208:21366   */\n    tag_422:\n        /* \"#utility.yul\":21281:21292   */\n      0x00\n        /* \"#utility.yul\":21315:21321   */\n      dup3\n        /* \"#utility.yul\":21310:21313   */\n      dup3\n        /* \"#utility.yul\":21303:21322   */\n      mstore\n        /* \"#utility.yul\":21355:21359   */\n      0x20\n        /* \"#utility.yul\":21350:21353   */\n      dup3\n        /* \"#utility.yul\":21346:21360   */\n      add\n        /* \"#utility.yul\":21331:21360   */\n      swap1\n      pop\n        /* \"#utility.yul\":21208:21366   */\n      swap3\n      swap2\n      pop\n      pop\n      jump\t// out\n        /* \"#utility.yul\":21394:21688   */\n    tag_423:\n        /* \"#utility.yul\":21480:21483   */\n      0x00\n        /* \"#utility.yul\":21501:21561   */\n      tag_719\n        /* \"#utility.yul\":21554:21560   */\n      dup4\n        /* \"#utility.yul\":21549:21552   */\n      dup6\n        /* \"#utility.yul\":21501:21561   */\n      tag_422\n      jump\t// in\n    tag_719:\n        /* \"#utility.yul\":21494:21561   */\n      swap4\n      pop\n        /* \"#utility.yul\":21571:21627   */\n      tag_720\n        /* \"#utility.yul\":21620:21626   */\n      dup4\n        /* \"#utility.yul\":21615:21618   */\n      dup6\n        /* \"#utility.yul\":21608:21613   */\n      dup5\n        /* \"#utility.yul\":21571:21627   */\n      tag_397\n      jump\t// in\n    tag_720:\n        /* \"#utility.yul\":21652:21681   */\n      tag_721\n        /* \"#utility.yul\":21674:21680   */\n      dup4\n        /* \"#utility.yul\":21652:21681   */\n      tag_383\n      jump\t// in\n    tag_721:\n        /* \"#utility.yul\":21647:21650   */\n      dup5\n        /* \"#utility.yul\":21643:21682   */\n      add\n        /* \"#utility.yul\":21636:21682   */\n      swap1\n      pop\n        /* \"#utility.yul\":21394:21688   */\n      swap4\n      swap3\n      pop\n      pop\n      pop\n      jump\t// out\n        /* \"#utility.yul\":21752:22639   */\n    tag_424:\n        /* \"#utility.yul\":21855:21858   */\n      0x00\n        /* \"#utility.yul\":21891:21895   */\n      0x60\n        /* \"#utility.yul\":21886:21889   */\n      dup4\n        /* \"#utility.yul\":21882:21896   */\n      add\n        /* \"#utility.yul\":21963:22013   */\n      tag_723\n        /* \"#utility.yul\":22007:22011   */\n      0x00\n        /* \"#utility.yul\":22000:22005   */\n      dup5\n        /* \"#utility.yul\":21996:22012   */\n      add\n        /* \"#utility.yul\":21989:21994   */\n      dup5\n        /* \"#utility.yul\":21963:22013   */\n      tag_414\n      jump\t// in\n    tag_723:\n        /* \"#utility.yul\":22026:22089   */\n      tag_724\n        /* \"#utility.yul\":22083:22087   */\n      0x00\n        /* \"#utility.yul\":22078:22081   */\n      dup7\n        /* \"#utility.yul\":22074:22088   */\n      add\n        /* \"#utility.yul\":22060:22072   */\n      dup3\n        /* \"#utility.yul\":22026:22089   */\n      tag_415\n      jump\t// in\n    tag_724:\n        /* \"#utility.yul\":21906:22099   */\n      pop\n        /* \"#utility.yul\":22165:22215   */\n      tag_725\n        /* \"#utility.yul\":22209:22213   */\n      0x20\n        /* \"#utility.yul\":22202:22207   */\n      dup5\n        /* \"#utility.yul\":22198:22214   */\n      add\n        /* \"#utility.yul\":22191:22196   */\n      dup5\n        /* \"#utility.yul\":22165:22215   */\n      tag_416\n      jump\t// in\n    tag_725:\n        /* \"#utility.yul\":22228:22291   */\n      tag_726\n        /* \"#utility.yul\":22285:22289   */\n      0x20\n        /* \"#utility.yul\":22280:22283   */\n      dup7\n        /* \"#utility.yul\":22276:22290   */\n      add\n        /* \"#utility.yul\":22262:22274   */\n      dup3\n        /* \"#utility.yul\":22228:22291   */\n      tag_417\n      jump\t// in\n    tag_726:\n        /* \"#utility.yul\":22109:22301   */\n      pop\n        /* \"#utility.yul\":22380:22441   */\n      tag_727\n        /* \"#utility.yul\":22435:22439   */\n      0x40\n        /* \"#utility.yul\":22428:22433   */\n      dup5\n        /* \"#utility.yul\":22424:22440   */\n      add\n        /* \"#utility.yul\":22417:22422   */\n      dup5\n        /* \"#utility.yul\":22380:22441   */\n      tag_421\n      jump\t// in\n    tag_727:\n        /* \"#utility.yul\":22488:22491   */\n      dup6\n        /* \"#utility.yul\":22482:22486   */\n      dup4\n        /* \"#utility.yul\":22478:22492   */\n      sub\n        /* \"#utility.yul\":22471:22475   */\n      0x40\n        /* \"#utility.yul\":22466:22469   */\n      dup8\n        /* \"#utility.yul\":22462:22476   */\n      add\n        /* \"#utility.yul\":22455:22493   */\n      mstore\n        /* \"#utility.yul\":22514:22601   */\n      tag_728\n        /* \"#utility.yul\":22596:22600   */\n      dup4\n        /* \"#utility.yul\":22582:22594   */\n      dup3\n        /* \"#utility.yul\":22568:22580   */\n      dup5\n        /* \"#utility.yul\":22514:22601   */\n      tag_423\n      jump\t// in\n    tag_728:\n        /* \"#utility.yul\":22506:22601   */\n      swap3\n      pop\n        /* \"#utility.yul\":22311:22612   */\n      pop\n      pop\n        /* \"#utility.yul\":22629:22633   */\n      dup1\n        /* \"#utility.yul\":22622:22633   */\n      swap2\n      pop\n        /* \"#utility.yul\":21860:22639   */\n      pop\n        /* \"#utility.yul\":21752:22639   */\n      swap3\n      swap2\n      pop\n      pop\n      jump\t// out\n        /* \"#utility.yul\":22645:22889   */\n    tag_425:\n        /* \"#utility.yul\":22758:22768   */\n      0x00\n        /* \"#utility.yul\":22793:22883   */\n      tag_730\n        /* \"#utility.yul\":22879:22882   */\n      dup4\n        /* \"#utility.yul\":22871:22877   */\n      dup4\n        /* \"#utility.yul\":22793:22883   */\n      tag_424\n      jump\t// in\n    tag_730:\n        /* \"#utility.yul\":22779:22883   */\n      swap1\n      pop\n        /* \"#utility.yul\":22645:22889   */\n      swap3\n      swap2\n      pop\n      pop\n      jump\t// out\n        /* \"#utility.yul\":22895:23265   */\n    tag_426:\n        /* \"#utility.yul\":22971:22976   */\n      0x00\n        /* \"#utility.yul\":23026:23029   */\n      dup3\n        /* \"#utility.yul\":23013:23030   */\n      calldataload\n        /* \"#utility.yul\":23118:23119   */\n      0x01\n        /* \"#utility.yul\":23112:23116   */\n      0x60\n        /* \"#utility.yul\":23108:23120   */\n      sub\n        /* \"#utility.yul\":23097:23105   */\n      dup4\n        /* \"#utility.yul\":23081:23095   */\n      calldatasize\n        /* \"#utility.yul\":23077:23106   */\n      sub\n        /* \"#utility.yul\":23073:23121   */\n      sub\n        /* \"#utility.yul\":23053:23071   */\n      dup2\n        /* \"#utility.yul\":23049:23122   */\n      slt\n        /* \"#utility.yul\":23039:23207   */\n      tag_732\n      jumpi\n        /* \"#utility.yul\":23126:23205   */\n      tag_733\n      tag_420\n      jump\t// in\n    tag_733:\n        /* \"#utility.yul\":23039:23207   */\n    tag_732:\n        /* \"#utility.yul\":23249:23257   */\n      dup3\n        /* \"#utility.yul\":23229:23247   */\n      dup2\n        /* \"#utility.yul\":23225:23258   */\n      add\n        /* \"#utility.yul\":23216:23258   */\n      swap2\n      pop\n        /* \"#utility.yul\":22977:23265   */\n      pop\n        /* \"#utility.yul\":22895:23265   */\n      swap3\n      swap2\n      pop\n      pop\n      jump\t// out\n        /* \"#utility.yul\":23271:23409   */\n    tag_427:\n        /* \"#utility.yul\":23366:23370   */\n      0x00\n        /* \"#utility.yul\":23398:23402   */\n      0x20\n        /* \"#utility.yul\":23393:23396   */\n      dup3\n        /* \"#utility.yul\":23389:23403   */\n      add\n        /* \"#utility.yul\":23381:23403   */\n      swap1\n      pop\n        /* \"#utility.yul\":23271:23409   */\n      swap2\n      swap1\n      pop\n      jump\t// out\n        /* \"#utility.yul\":23477:24533   */\n    tag_428:\n        /* \"#utility.yul\":23650:23653   */\n      0x00\n        /* \"#utility.yul\":23673:23780   */\n      tag_736\n        /* \"#utility.yul\":23773:23779   */\n      dup4\n        /* \"#utility.yul\":23768:23771   */\n      dup6\n        /* \"#utility.yul\":23673:23780   */\n      tag_412\n      jump\t// in\n    tag_736:\n        /* \"#utility.yul\":23666:23780   */\n      swap4\n      pop\n        /* \"#utility.yul\":23806:23809   */\n      dup4\n        /* \"#utility.yul\":23851:23855   */\n      0x20\n        /* \"#utility.yul\":23843:23849   */\n      dup5\n        /* \"#utility.yul\":23839:23856   */\n      mul\n        /* \"#utility.yul\":23834:23837   */\n      dup6\n        /* \"#utility.yul\":23830:23857   */\n      add\n        /* \"#utility.yul\":23881:23962   */\n      tag_737\n        /* \"#utility.yul\":23956:23961   */\n      dup5\n        /* \"#utility.yul\":23881:23962   */\n      tag_413\n      jump\t// in\n    tag_737:\n        /* \"#utility.yul\":23985:23992   */\n      dup1\n        /* \"#utility.yul\":24016:24017   */\n      0x00\n        /* \"#utility.yul\":24001:24488   */\n    tag_738:\n        /* \"#utility.yul\":24026:24032   */\n      dup8\n        /* \"#utility.yul\":24023:24024   */\n      dup2\n        /* \"#utility.yul\":24020:24033   */\n      lt\n        /* \"#utility.yul\":24001:24488   */\n      iszero\n      tag_740\n      jumpi\n        /* \"#utility.yul\":24097:24106   */\n      dup5\n        /* \"#utility.yul\":24091:24095   */\n      dup5\n        /* \"#utility.yul\":24087:24107   */\n      sub\n        /* \"#utility.yul\":24082:24085   */\n      dup10\n        /* \"#utility.yul\":24075:24108   */\n      mstore\n        /* \"#utility.yul\":24142:24207   */\n      tag_741\n        /* \"#utility.yul\":24200:24206   */\n      dup3\n        /* \"#utility.yul\":24191:24198   */\n      dup5\n        /* \"#utility.yul\":24142:24207   */\n      tag_426\n      jump\t// in\n    tag_741:\n        /* \"#utility.yul\":24228:24336   */\n      tag_742\n        /* \"#utility.yul\":24331:24335   */\n      dup6\n        /* \"#utility.yul\":24316:24329   */\n      dup3\n        /* \"#utility.yul\":24228:24336   */\n      tag_425\n      jump\t// in\n    tag_742:\n        /* \"#utility.yul\":24220:24336   */\n      swap5\n      pop\n        /* \"#utility.yul\":24359:24444   */\n      tag_743\n        /* \"#utility.yul\":24437:24443   */\n      dup4\n        /* \"#utility.yul\":24359:24444   */\n      tag_427\n      jump\t// in\n    tag_743:\n        /* \"#utility.yul\":24349:24444   */\n      swap3\n      pop\n        /* \"#utility.yul\":24473:24477   */\n      0x20\n        /* \"#utility.yul\":24468:24471   */\n      dup11\n        /* \"#utility.yul\":24464:24478   */\n      add\n        /* \"#utility.yul\":24457:24478   */\n      swap10\n      pop\n        /* \"#utility.yul\":24061:24488   */\n      pop\n        /* \"#utility.yul\":24048:24049   */\n      0x01\n        /* \"#utility.yul\":24045:24046   */\n      dup2\n        /* \"#utility.yul\":24041:24050   */\n      add\n        /* \"#utility.yul\":24036:24050   */\n      swap1\n      pop\n        /* \"#utility.yul\":24001:24488   */\n      jump(tag_738)\n    tag_740:\n        /* \"#utility.yul\":24005:24019   */\n      pop\n        /* \"#utility.yul\":24504:24508   */\n      dup3\n        /* \"#utility.yul\":24497:24508   */\n      swap8\n      pop\n        /* \"#utility.yul\":24524:24527   */\n      dup8\n        /* \"#utility.yul\":24517:24527   */\n      swap5\n      pop\n        /* \"#utility.yul\":23655:24533   */\n      pop\n      pop\n      pop\n      pop\n        /* \"#utility.yul\":23477:24533   */\n      swap4\n      swap3\n      pop\n      pop\n      pop\n      jump\t// out\n        /* \"#utility.yul\":24539:25020   */\n    tag_145:\n        /* \"#utility.yul\":24736:24740   */\n      0x00\n        /* \"#utility.yul\":24774:24776   */\n      0x20\n        /* \"#utility.yul\":24763:24772   */\n      dup3\n        /* \"#utility.yul\":24759:24777   */\n      add\n        /* \"#utility.yul\":24751:24777   */\n      swap1\n      pop\n        /* \"#utility.yul\":24823:24832   */\n      dup2\n        /* \"#utility.yul\":24817:24821   */\n      dup2\n        /* \"#utility.yul\":24813:24833   */\n      sub\n        /* \"#utility.yul\":24809:24810   */\n      0x00\n        /* \"#utility.yul\":24798:24807   */\n      dup4\n        /* \"#utility.yul\":24794:24811   */\n      add\n        /* \"#utility.yul\":24787:24834   */\n      mstore\n        /* \"#utility.yul\":24851:25013   */\n      tag_745\n        /* \"#utility.yul\":25008:25012   */\n      dup2\n        /* \"#utility.yul\":24999:25005   */\n      dup5\n        /* \"#utility.yul\":24991:24997   */\n      dup7\n        /* \"#utility.yul\":24851:25013   */\n      tag_428\n      jump\t// in\n    tag_745:\n        /* \"#utility.yul\":24843:25013   */\n      swap1\n      pop\n        /* \"#utility.yul\":24539:25020   */\n      swap4\n      swap3\n      pop\n      pop\n      pop\n      jump\t// out\n        /* \"#utility.yul\":25026:25169   */\n    tag_429:\n        /* \"#utility.yul\":25083:25088   */\n      0x00\n        /* \"#utility.yul\":25114:25120   */\n      dup2\n        /* \"#utility.yul\":25108:25121   */\n      mload\n        /* \"#utility.yul\":25099:25121   */\n      swap1\n      pop\n        /* \"#utility.yul\":25130:25163   */\n      tag_747\n        /* \"#utility.yul\":25157:25162   */\n      dup2\n        /* \"#utility.yul\":25130:25163   */\n      tag_364\n      jump\t// in\n    tag_747:\n        /* \"#utility.yul\":25026:25169   */\n      swap3\n      swap2\n      pop\n      pop\n      jump\t// out\n        /* \"#utility.yul\":25175:25526   */\n    tag_152:\n        /* \"#utility.yul\":25245:25251   */\n      0x00\n        /* \"#utility.yul\":25294:25296   */\n      0x20\n        /* \"#utility.yul\":25282:25291   */\n      dup3\n        /* \"#utility.yul\":25273:25280   */\n      dup5\n        /* \"#utility.yul\":25269:25292   */\n      sub\n        /* \"#utility.yul\":25265:25297   */\n      slt\n        /* \"#utility.yul\":25262:25381   */\n      iszero\n      tag_749\n      jumpi\n        /* \"#utility.yul\":25300:25379   */\n      tag_750\n      tag_357\n      jump\t// in\n    tag_750:\n        /* \"#utility.yul\":25262:25381   */\n    tag_749:\n        /* \"#utility.yul\":25420:25421   */\n      0x00\n        /* \"#utility.yul\":25445:25509   */\n      tag_751\n        /* \"#utility.yul\":25501:25508   */\n      dup5\n        /* \"#utility.yul\":25492:25498   */\n      dup3\n        /* \"#utility.yul\":25481:25490   */\n      dup6\n        /* \"#utility.yul\":25477:25499   */\n      add\n        /* \"#utility.yul\":25445:25509   */\n      tag_429\n      jump\t// in\n    tag_751:\n        /* \"#utility.yul\":25435:25509   */\n      swap2\n      pop\n        /* \"#utility.yul\":25391:25519   */\n      pop\n        /* \"#utility.yul\":25175:25526   */\n      swap3\n      swap2\n      pop\n      pop\n      jump\t// out\n        /* \"#utility.yul\":25532:25712   */\n    tag_160:\n        /* \"#utility.yul\":25580:25657   */\n      0x4e487b7100000000000000000000000000000000000000000000000000000000\n        /* \"#utility.yul\":25577:25578   */\n      0x00\n        /* \"#utility.yul\":25570:25658   */\n      mstore\n        /* \"#utility.yul\":25677:25681   */\n      0x32\n        /* \"#utility.yul\":25674:25675   */\n      0x04\n        /* \"#utility.yul\":25667:25682   */\n      mstore\n        /* \"#utility.yul\":25701:25705   */\n      0x24\n        /* \"#utility.yul\":25698:25699   */\n      0x00\n        /* \"#utility.yul\":25691:25706   */\n      revert\n        /* \"#utility.yul\":25718:25795   */\n    tag_430:\n        /* \"#utility.yul\":25755:25762   */\n      0x00\n        /* \"#utility.yul\":25784:25789   */\n      dup2\n        /* \"#utility.yul\":25773:25789   */\n      swap1\n      pop\n        /* \"#utility.yul\":25718:25795   */\n      swap2\n      swap1\n      pop\n      jump\t// out\n        /* \"#utility.yul\":25801:25923   */\n    tag_431:\n        /* \"#utility.yul\":25874:25898   */\n      tag_755\n        /* \"#utility.yul\":25892:25897   */\n      dup2\n        /* \"#utility.yul\":25874:25898   */\n      tag_430\n      jump\t// in\n    tag_755:\n        /* \"#utility.yul\":25867:25872   */\n      dup2\n        /* \"#utility.yul\":25864:25899   */\n      eq\n        /* \"#utility.yul\":25854:25917   */\n      tag_756\n      jumpi\n        /* \"#utility.yul\":25913:25914   */\n      0x00\n        /* \"#utility.yul\":25910:25911   */\n      0x00\n        /* \"#utility.yul\":25903:25915   */\n      revert\n        /* \"#utility.yul\":25854:25917   */\n    tag_756:\n        /* \"#utility.yul\":25801:25923   */\n      pop\n      jump\t// out\n        /* \"#utility.yul\":25929:26068   */\n    tag_432:\n        /* \"#utility.yul\":25975:25980   */\n      0x00\n        /* \"#utility.yul\":26013:26019   */\n      dup2\n        /* \"#utility.yul\":26000:26020   */\n      calldataload\n        /* \"#utility.yul\":25991:26020   */\n      swap1\n      pop\n        /* \"#utility.yul\":26029:26062   */\n      tag_758\n        /* \"#utility.yul\":26056:26061   */\n      dup2\n        /* \"#utility.yul\":26029:26062   */\n      tag_431\n      jump\t// in\n    tag_758:\n        /* \"#utility.yul\":25929:26068   */\n      swap3\n      swap2\n      pop\n      pop\n      jump\t// out\n        /* \"#utility.yul\":26074:26196   */\n    tag_433:\n        /* \"#utility.yul\":26126:26131   */\n      0x00\n        /* \"#utility.yul\":26151:26190   */\n      tag_760\n        /* \"#utility.yul\":26186:26188   */\n      0x20\n        /* \"#utility.yul\":26181:26184   */\n      dup5\n        /* \"#utility.yul\":26177:26189   */\n      add\n        /* \"#utility.yul\":26172:26175   */\n      dup5\n        /* \"#utility.yul\":26151:26190   */\n      tag_432\n      jump\t// in\n    tag_760:\n        /* \"#utility.yul\":26142:26190   */\n      swap1\n      pop\n        /* \"#utility.yul\":26074:26196   */\n      swap3\n      swap2\n      pop\n      pop\n      jump\t// out\n        /* \"#utility.yul\":26202:26310   */\n    tag_434:\n        /* \"#utility.yul\":26279:26303   */\n      tag_762\n        /* \"#utility.yul\":26297:26302   */\n      dup2\n        /* \"#utility.yul\":26279:26303   */\n      tag_430\n      jump\t// in\n    tag_762:\n        /* \"#utility.yul\":26274:26277   */\n      dup3\n        /* \"#utility.yul\":26267:26304   */\n      mstore\n        /* \"#utility.yul\":26202:26310   */\n      pop\n      pop\n      jump\t// out\n        /* \"#utility.yul\":26316:27066   */\n    tag_435:\n        /* \"#utility.yul\":26419:26424   */\n      0x00\n        /* \"#utility.yul\":26426:26432   */\n      0x00\n        /* \"#utility.yul\":26482:26485   */\n      dup4\n        /* \"#utility.yul\":26469:26486   */\n      calldataload\n        /* \"#utility.yul\":26574:26575   */\n      0x01\n        /* \"#utility.yul\":26568:26572   */\n      0x20\n        /* \"#utility.yul\":26564:26576   */\n      sub\n        /* \"#utility.yul\":26553:26561   */\n      dup5\n        /* \"#utility.yul\":26537:26551   */\n      calldatasize\n        /* \"#utility.yul\":26533:26562   */\n      sub\n        /* \"#utility.yul\":26529:26577   */\n      sub\n        /* \"#utility.yul\":26509:26527   */\n      dup2\n        /* \"#utility.yul\":26505:26578   */\n      slt\n        /* \"#utility.yul\":26495:26663   */\n      tag_764\n      jumpi\n        /* \"#utility.yul\":26582:26661   */\n      tag_765\n      tag_420\n      jump\t// in\n    tag_765:\n        /* \"#utility.yul\":26495:26663   */\n    tag_764:\n        /* \"#utility.yul\":26705:26713   */\n      dup4\n        /* \"#utility.yul\":26685:26703   */\n      dup2\n        /* \"#utility.yul\":26681:26714   */\n      add\n        /* \"#utility.yul\":26672:26714   */\n      swap3\n      pop\n        /* \"#utility.yul\":26747:26752   */\n      dup3\n        /* \"#utility.yul\":26734:26753   */\n      calldataload\n        /* \"#utility.yul\":26724:26753   */\n      swap2\n      pop\n        /* \"#utility.yul\":26782:26786   */\n      0x20\n        /* \"#utility.yul\":26775:26780   */\n      dup4\n        /* \"#utility.yul\":26771:26787   */\n      add\n        /* \"#utility.yul\":26762:26787   */\n      swap3\n      pop\n        /* \"#utility.yul\":26810:26828   */\n      0xffffffffffffffff\n        /* \"#utility.yul\":26802:26808   */\n      dup3\n        /* \"#utility.yul\":26799:26829   */\n      gt\n        /* \"#utility.yul\":26796:26913   */\n      iszero\n      tag_766\n      jumpi\n        /* \"#utility.yul\":26832:26911   */\n      tag_767\n      tag_418\n      jump\t// in\n    tag_767:\n        /* \"#utility.yul\":26796:26913   */\n    tag_766:\n        /* \"#utility.yul\":26968:26972   */\n      0x20\n        /* \"#utility.yul\":26960:26966   */\n      dup3\n        /* \"#utility.yul\":26956:26973   */\n      mul\n        /* \"#utility.yul\":26940:26954   */\n      calldatasize\n        /* \"#utility.yul\":26936:26974   */\n      sub\n        /* \"#utility.yul\":26929:26934   */\n      dup4\n        /* \"#utility.yul\":26925:26975   */\n      sgt\n        /* \"#utility.yul\":26922:27059   */\n      iszero\n      tag_768\n      jumpi\n        /* \"#utility.yul\":26978:27057   */\n      tag_769\n      tag_419\n      jump\t// in\n    tag_769:\n        /* \"#utility.yul\":26922:27059   */\n    tag_768:\n        /* \"#utility.yul\":26433:27066   */\n      pop\n        /* \"#utility.yul\":26316:27066   */\n      swap3\n      pop\n      swap3\n      swap1\n      pop\n      jump\t// out\n        /* \"#utility.yul\":27072:27267   */\n    tag_436:\n        /* \"#utility.yul\":27182:27193   */\n      0x00\n        /* \"#utility.yul\":27216:27222   */\n      dup3\n        /* \"#utility.yul\":27211:27214   */\n      dup3\n        /* \"#utility.yul\":27204:27223   */\n      mstore\n        /* \"#utility.yul\":27256:27260   */\n      0x20\n        /* \"#utility.yul\":27251:27254   */\n      dup3\n        /* \"#utility.yul\":27247:27261   */\n      add\n        /* \"#utility.yul\":27232:27261   */\n      swap1\n      pop\n        /* \"#utility.yul\":27072:27267   */\n      swap3\n      swap2\n      pop\n      pop\n      jump\t// out\n        /* \"#utility.yul\":27335:28371   */\n    tag_437:\n        /* \"#utility.yul\":27498:27501   */\n      0x00\n        /* \"#utility.yul\":27521:27618   */\n      tag_772\n        /* \"#utility.yul\":27611:27617   */\n      dup4\n        /* \"#utility.yul\":27606:27609   */\n      dup6\n        /* \"#utility.yul\":27521:27618   */\n      tag_436\n      jump\t// in\n    tag_772:\n        /* \"#utility.yul\":27514:27618   */\n      swap4\n      pop\n        /* \"#utility.yul\":27644:27647   */\n      dup4\n        /* \"#utility.yul\":27689:27693   */\n      0x20\n        /* \"#utility.yul\":27681:27687   */\n      dup5\n        /* \"#utility.yul\":27677:27694   */\n      mul\n        /* \"#utility.yul\":27672:27675   */\n      dup6\n        /* \"#utility.yul\":27668:27695   */\n      add\n        /* \"#utility.yul\":27719:27800   */\n      tag_773\n        /* \"#utility.yul\":27794:27799   */\n      dup5\n        /* \"#utility.yul\":27719:27800   */\n      tag_413\n      jump\t// in\n    tag_773:\n        /* \"#utility.yul\":27823:27830   */\n      dup1\n        /* \"#utility.yul\":27854:27855   */\n      0x00\n        /* \"#utility.yul\":27839:28326   */\n    tag_774:\n        /* \"#utility.yul\":27864:27870   */\n      dup8\n        /* \"#utility.yul\":27861:27862   */\n      dup2\n        /* \"#utility.yul\":27858:27871   */\n      lt\n        /* \"#utility.yul\":27839:28326   */\n      iszero\n      tag_776\n      jumpi\n        /* \"#utility.yul\":27935:27944   */\n      dup5\n        /* \"#utility.yul\":27929:27933   */\n      dup5\n        /* \"#utility.yul\":27925:27945   */\n      sub\n        /* \"#utility.yul\":27920:27923   */\n      dup10\n        /* \"#utility.yul\":27913:27946   */\n      mstore\n        /* \"#utility.yul\":27980:28045   */\n      tag_777\n        /* \"#utility.yul\":28038:28044   */\n      dup3\n        /* \"#utility.yul\":28029:28036   */\n      dup5\n        /* \"#utility.yul\":27980:28045   */\n      tag_426\n      jump\t// in\n    tag_777:\n        /* \"#utility.yul\":28066:28174   */\n      tag_778\n        /* \"#utility.yul\":28169:28173   */\n      dup6\n        /* \"#utility.yul\":28154:28167   */\n      dup3\n        /* \"#utility.yul\":28066:28174   */\n      tag_425\n      jump\t// in\n    tag_778:\n        /* \"#utility.yul\":28058:28174   */\n      swap5\n      pop\n        /* \"#utility.yul\":28197:28282   */\n      tag_779\n        /* \"#utility.yul\":28275:28281   */\n      dup4\n        /* \"#utility.yul\":28197:28282   */\n      tag_427\n      jump\t// in\n    tag_779:\n        /* \"#utility.yul\":28187:28282   */\n      swap3\n      pop\n        /* \"#utility.yul\":28311:28315   */\n      0x20\n        /* \"#utility.yul\":28306:28309   */\n      dup11\n        /* \"#utility.yul\":28302:28316   */\n      add\n        /* \"#utility.yul\":28295:28316   */\n      swap10\n      pop\n        /* \"#utility.yul\":27899:28326   */\n      pop\n        /* \"#utility.yul\":27886:27887   */\n      0x01\n        /* \"#utility.yul\":27883:27884   */\n      dup2\n        /* \"#utility.yul\":27879:27888   */\n      add\n        /* \"#utility.yul\":27874:27888   */\n      swap1\n      pop\n        /* \"#utility.yul\":27839:28326   */\n      jump(tag_774)\n    tag_776:\n        /* \"#utility.yul\":27843:27857   */\n      pop\n        /* \"#utility.yul\":28342:28346   */\n      dup3\n        /* \"#utility.yul\":28335:28346   */\n      swap8\n      pop\n        /* \"#utility.yul\":28362:28365   */\n      dup8\n        /* \"#utility.yul\":28355:28365   */\n      swap5\n      pop\n        /* \"#utility.yul\":27503:28371   */\n      pop\n      pop\n      pop\n      pop\n        /* \"#utility.yul\":27335:28371   */\n      swap4\n      swap3\n      pop\n      pop\n      pop\n      jump\t// out\n        /* \"#utility.yul\":28449:29896   */\n    tag_438:\n        /* \"#utility.yul\":28576:28579   */\n      0x00\n        /* \"#utility.yul\":28612:28616   */\n      0xa0\n        /* \"#utility.yul\":28607:28610   */\n      dup4\n        /* \"#utility.yul\":28603:28617   */\n      add\n        /* \"#utility.yul\":28689:28739   */\n      tag_781\n        /* \"#utility.yul\":28733:28737   */\n      0x00\n        /* \"#utility.yul\":28726:28731   */\n      dup5\n        /* \"#utility.yul\":28722:28738   */\n      add\n        /* \"#utility.yul\":28715:28720   */\n      dup5\n        /* \"#utility.yul\":28689:28739   */\n      tag_414\n      jump\t// in\n    tag_781:\n        /* \"#utility.yul\":28752:28815   */\n      tag_782\n        /* \"#utility.yul\":28809:28813   */\n      0x00\n        /* \"#utility.yul\":28804:28807   */\n      dup7\n        /* \"#utility.yul\":28800:28814   */\n      add\n        /* \"#utility.yul\":28786:28798   */\n      dup3\n        /* \"#utility.yul\":28752:28815   */\n      tag_415\n      jump\t// in\n    tag_782:\n        /* \"#utility.yul\":28627:28825   */\n      pop\n        /* \"#utility.yul\":28895:28945   */\n      tag_783\n        /* \"#utility.yul\":28939:28943   */\n      0x20\n        /* \"#utility.yul\":28932:28937   */\n      dup5\n        /* \"#utility.yul\":28928:28944   */\n      add\n        /* \"#utility.yul\":28921:28926   */\n      dup5\n        /* \"#utility.yul\":28895:28945   */\n      tag_416\n      jump\t// in\n    tag_783:\n        /* \"#utility.yul\":28958:29021   */\n      tag_784\n        /* \"#utility.yul\":29015:29019   */\n      0x20\n        /* \"#utility.yul\":29010:29013   */\n      dup7\n        /* \"#utility.yul\":29006:29020   */\n      add\n        /* \"#utility.yul\":28992:29004   */\n      dup3\n        /* \"#utility.yul\":28958:29021   */\n      tag_417\n      jump\t// in\n    tag_784:\n        /* \"#utility.yul\":28835:29031   */\n      pop\n        /* \"#utility.yul\":29100:29150   */\n      tag_785\n        /* \"#utility.yul\":29144:29148   */\n      0x40\n        /* \"#utility.yul\":29137:29142   */\n      dup5\n        /* \"#utility.yul\":29133:29149   */\n      add\n        /* \"#utility.yul\":29126:29131   */\n      dup5\n        /* \"#utility.yul\":29100:29150   */\n      tag_416\n      jump\t// in\n    tag_785:\n        /* \"#utility.yul\":29163:29226   */\n      tag_786\n        /* \"#utility.yul\":29220:29224   */\n      0x40\n        /* \"#utility.yul\":29215:29218   */\n      dup7\n        /* \"#utility.yul\":29211:29225   */\n      add\n        /* \"#utility.yul\":29197:29209   */\n      dup3\n        /* \"#utility.yul\":29163:29226   */\n      tag_417\n      jump\t// in\n    tag_786:\n        /* \"#utility.yul\":29041:29236   */\n      pop\n        /* \"#utility.yul\":29306:29356   */\n      tag_787\n        /* \"#utility.yul\":29350:29354   */\n      0x60\n        /* \"#utility.yul\":29343:29348   */\n      dup5\n        /* \"#utility.yul\":29339:29355   */\n      add\n        /* \"#utility.yul\":29332:29337   */\n      dup5\n        /* \"#utility.yul\":29306:29356   */\n      tag_433\n      jump\t// in\n    tag_787:\n        /* \"#utility.yul\":29369:29432   */\n      tag_788\n        /* \"#utility.yul\":29426:29430   */\n      0x60\n        /* \"#utility.yul\":29421:29424   */\n      dup7\n        /* \"#utility.yul\":29417:29431   */\n      add\n        /* \"#utility.yul\":29403:29415   */\n      dup3\n        /* \"#utility.yul\":29369:29432   */\n      tag_434\n      jump\t// in\n    tag_788:\n        /* \"#utility.yul\":29246:29442   */\n      pop\n        /* \"#utility.yul\":29522:29622   */\n      tag_789\n        /* \"#utility.yul\":29616:29620   */\n      0x80\n        /* \"#utility.yul\":29609:29614   */\n      dup5\n        /* \"#utility.yul\":29605:29621   */\n      add\n        /* \"#utility.yul\":29598:29603   */\n      dup5\n        /* \"#utility.yul\":29522:29622   */\n      tag_435\n      jump\t// in\n    tag_789:\n        /* \"#utility.yul\":29669:29672   */\n      dup6\n        /* \"#utility.yul\":29663:29667   */\n      dup4\n        /* \"#utility.yul\":29659:29673   */\n      sub\n        /* \"#utility.yul\":29652:29656   */\n      0x80\n        /* \"#utility.yul\":29647:29650   */\n      dup8\n        /* \"#utility.yul\":29643:29657   */\n      add\n        /* \"#utility.yul\":29636:29674   */\n      mstore\n        /* \"#utility.yul\":29695:29858   */\n      tag_790\n        /* \"#utility.yul\":29853:29857   */\n      dup4\n        /* \"#utility.yul\":29839:29851   */\n      dup3\n        /* \"#utility.yul\":29825:29837   */\n      dup5\n        /* \"#utility.yul\":29695:29858   */\n      tag_437\n      jump\t// in\n    tag_790:\n        /* \"#utility.yul\":29687:29858   */\n      swap3\n      pop\n        /* \"#utility.yul\":29452:29869   */\n      pop\n      pop\n        /* \"#utility.yul\":29886:29890   */\n      dup1\n        /* \"#utility.yul\":29879:29890   */\n      swap2\n      pop\n        /* \"#utility.yul\":28581:29896   */\n      pop\n        /* \"#utility.yul\":28449:29896   */\n      swap3\n      swap2\n      pop\n      pop\n      jump\t// out\n        /* \"#utility.yul\":29902:30291   */\n    tag_167:\n        /* \"#utility.yul\":30053:30057   */\n      0x00\n        /* \"#utility.yul\":30091:30093   */\n      0x20\n        /* \"#utility.yul\":30080:30089   */\n      dup3\n        /* \"#utility.yul\":30076:30094   */\n      add\n        /* \"#utility.yul\":30068:30094   */\n      swap1\n      pop\n        /* \"#utility.yul\":30140:30149   */\n      dup2\n        /* \"#utility.yul\":30134:30138   */\n      dup2\n        /* \"#utility.yul\":30130:30150   */\n      sub\n        /* \"#utility.yul\":30126:30127   */\n      0x00\n        /* \"#utility.yul\":30115:30124   */\n      dup4\n        /* \"#utility.yul\":30111:30128   */\n      add\n        /* \"#utility.yul\":30104:30151   */\n      mstore\n        /* \"#utility.yul\":30168:30284   */\n      tag_792\n        /* \"#utility.yul\":30279:30283   */\n      dup2\n        /* \"#utility.yul\":30270:30276   */\n      dup5\n        /* \"#utility.yul\":30168:30284   */\n      tag_438\n      jump\t// in\n    tag_792:\n        /* \"#utility.yul\":30160:30284   */\n      swap1\n      pop\n        /* \"#utility.yul\":29902:30291   */\n      swap3\n      swap2\n      pop\n      pop\n      jump\t// out\n        /* \"#utility.yul\":30297:30443   */\n    tag_439:\n        /* \"#utility.yul\":30367:30376   */\n      0x00\n        /* \"#utility.yul\":30400:30437   */\n      tag_794\n        /* \"#utility.yul\":30431:30436   */\n      dup3\n        /* \"#utility.yul\":30400:30437   */\n      tag_405\n      jump\t// in\n    tag_794:\n        /* \"#utility.yul\":30387:30437   */\n      swap1\n      pop\n        /* \"#utility.yul\":30297:30443   */\n      swap2\n      swap1\n      pop\n      jump\t// out\n        /* \"#utility.yul\":30449:30620   */\n    tag_440:\n        /* \"#utility.yul\":30556:30613   */\n      tag_796\n        /* \"#utility.yul\":30607:30612   */\n      dup2\n        /* \"#utility.yul\":30556:30613   */\n      tag_439\n      jump\t// in\n    tag_796:\n        /* \"#utility.yul\":30551:30554   */\n      dup3\n        /* \"#utility.yul\":30544:30614   */\n      mstore\n        /* \"#utility.yul\":30449:30620   */\n      pop\n      pop\n      jump\t// out\n        /* \"#utility.yul\":30626:30760   */\n    tag_441:\n        /* \"#utility.yul\":30713:30719   */\n      0x00\n        /* \"#utility.yul\":30747:30752   */\n      dup2\n        /* \"#utility.yul\":30741:30753   */\n      mload\n        /* \"#utility.yul\":30731:30753   */\n      swap1\n      pop\n        /* \"#utility.yul\":30626:30760   */\n      swap2\n      swap1\n      pop\n      jump\t// out\n        /* \"#utility.yul\":30766:30950   */\n    tag_442:\n        /* \"#utility.yul\":30865:30876   */\n      0x00\n        /* \"#utility.yul\":30899:30905   */\n      dup3\n        /* \"#utility.yul\":30894:30897   */\n      dup3\n        /* \"#utility.yul\":30887:30906   */\n      mstore\n        /* \"#utility.yul\":30939:30943   */\n      0x20\n        /* \"#utility.yul\":30934:30937   */\n      dup3\n        /* \"#utility.yul\":30930:30944   */\n      add\n        /* \"#utility.yul\":30915:30944   */\n      swap1\n      pop\n        /* \"#utility.yul\":30766:30950   */\n      swap3\n      swap2\n      pop\n      pop\n      jump\t// out\n        /* \"#utility.yul\":30956:31108   */\n    tag_443:\n        /* \"#utility.yul\":31043:31047   */\n      0x00\n        /* \"#utility.yul\":31066:31069   */\n      dup2\n        /* \"#utility.yul\":31058:31069   */\n      swap1\n      pop\n        /* \"#utility.yul\":31096:31100   */\n      0x20\n        /* \"#utility.yul\":31091:31094   */\n      dup3\n        /* \"#utility.yul\":31087:31101   */\n      add\n        /* \"#utility.yul\":31079:31101   */\n      swap1\n      pop\n        /* \"#utility.yul\":30956:31108   */\n      swap2\n      swap1\n      pop\n      jump\t// out\n        /* \"#utility.yul\":31114:31260   */\n    tag_444:\n        /* \"#utility.yul\":31184:31193   */\n      0x00\n        /* \"#utility.yul\":31217:31254   */\n      tag_801\n        /* \"#utility.yul\":31248:31253   */\n      dup3\n        /* \"#utility.yul\":31217:31254   */\n      tag_405\n      jump\t// in\n    tag_801:\n        /* \"#utility.yul\":31204:31254   */\n      swap1\n      pop\n        /* \"#utility.yul\":31114:31260   */\n      swap2\n      swap1\n      pop\n      jump\t// out\n        /* \"#utility.yul\":31266:31427   */\n    tag_445:\n        /* \"#utility.yul\":31363:31420   */\n      tag_803\n        /* \"#utility.yul\":31414:31419   */\n      dup2\n        /* \"#utility.yul\":31363:31420   */\n      tag_444\n      jump\t// in\n    tag_803:\n        /* \"#utility.yul\":31358:31361   */\n      dup3\n        /* \"#utility.yul\":31351:31421   */\n      mstore\n        /* \"#utility.yul\":31266:31427   */\n      pop\n      pop\n      jump\t// out\n        /* \"#utility.yul\":31433:31652   */\n    tag_446:\n        /* \"#utility.yul\":31522:31532   */\n      0x00\n        /* \"#utility.yul\":31543:31609   */\n      tag_805\n        /* \"#utility.yul\":31605:31608   */\n      dup4\n        /* \"#utility.yul\":31597:31603   */\n      dup4\n        /* \"#utility.yul\":31543:31609   */\n      tag_445\n      jump\t// in\n    tag_805:\n        /* \"#utility.yul\":31641:31645   */\n      0x20\n        /* \"#utility.yul\":31636:31639   */\n      dup4\n        /* \"#utility.yul\":31632:31646   */\n      add\n        /* \"#utility.yul\":31618:31646   */\n      swap1\n      pop\n        /* \"#utility.yul\":31433:31652   */\n      swap3\n      swap2\n      pop\n      pop\n      jump\t// out\n        /* \"#utility.yul\":31658:31791   */\n    tag_447:\n        /* \"#utility.yul\":31748:31752   */\n      0x00\n        /* \"#utility.yul\":31780:31784   */\n      0x20\n        /* \"#utility.yul\":31775:31778   */\n      dup3\n        /* \"#utility.yul\":31771:31785   */\n      add\n        /* \"#utility.yul\":31763:31785   */\n      swap1\n      pop\n        /* \"#utility.yul\":31658:31791   */\n      swap2\n      swap1\n      pop\n      jump\t// out\n        /* \"#utility.yul\":31842:32674   */\n    tag_448:\n        /* \"#utility.yul\":31981:31984   */\n      0x00\n        /* \"#utility.yul\":32010:32084   */\n      tag_808\n        /* \"#utility.yul\":32078:32083   */\n      dup3\n        /* \"#utility.yul\":32010:32084   */\n      tag_441\n      jump\t// in\n    tag_808:\n        /* \"#utility.yul\":32100:32186   */\n      tag_809\n        /* \"#utility.yul\":32179:32185   */\n      dup2\n        /* \"#utility.yul\":32174:32177   */\n      dup6\n        /* \"#utility.yul\":32100:32186   */\n      tag_442\n      jump\t// in\n    tag_809:\n        /* \"#utility.yul\":32093:32186   */\n      swap4\n      pop\n        /* \"#utility.yul\":32210:32286   */\n      tag_810\n        /* \"#utility.yul\":32280:32285   */\n      dup4\n        /* \"#utility.yul\":32210:32286   */\n      tag_443\n      jump\t// in\n    tag_810:\n        /* \"#utility.yul\":32309:32316   */\n      dup1\n        /* \"#utility.yul\":32340:32341   */\n      0x00\n        /* \"#utility.yul\":32325:32649   */\n    tag_811:\n        /* \"#utility.yul\":32350:32356   */\n      dup4\n        /* \"#utility.yul\":32347:32348   */\n      dup2\n        /* \"#utility.yul\":32344:32357   */\n      lt\n        /* \"#utility.yul\":32325:32649   */\n      iszero\n      tag_813\n      jumpi\n        /* \"#utility.yul\":32426:32432   */\n      dup2\n        /* \"#utility.yul\":32420:32433   */\n      mload\n        /* \"#utility.yul\":32453:32536   */\n      tag_814\n        /* \"#utility.yul\":32532:32535   */\n      dup9\n        /* \"#utility.yul\":32517:32530   */\n      dup3\n        /* \"#utility.yul\":32453:32536   */\n      tag_446\n      jump\t// in\n    tag_814:\n        /* \"#utility.yul\":32446:32536   */\n      swap8\n      pop\n        /* \"#utility.yul\":32559:32639   */\n      tag_815\n        /* \"#utility.yul\":32632:32638   */\n      dup4\n        /* \"#utility.yul\":32559:32639   */\n      tag_447\n      jump\t// in\n    tag_815:\n        /* \"#utility.yul\":32549:32639   */\n      swap3\n      pop\n        /* \"#utility.yul\":32385:32649   */\n      pop\n        /* \"#utility.yul\":32372:32373   */\n      0x01\n        /* \"#utility.yul\":32369:32370   */\n      dup2\n        /* \"#utility.yul\":32365:32374   */\n      add\n        /* \"#utility.yul\":32360:32374   */\n      swap1\n      pop\n        /* \"#utility.yul\":32325:32649   */\n      jump(tag_811)\n    tag_813:\n        /* \"#utility.yul\":32329:32343   */\n      pop\n        /* \"#utility.yul\":32665:32668   */\n      dup6\n        /* \"#utility.yul\":32658:32668   */\n      swap4\n      pop\n        /* \"#utility.yul\":31986:32674   */\n      pop\n      pop\n      pop\n        /* \"#utility.yul\":31842:32674   */\n      swap3\n      swap2\n      pop\n      pop\n      jump\t// out\n        /* \"#utility.yul\":32680:32794   */\n    tag_449:\n        /* \"#utility.yul\":32747:32753   */\n      0x00\n        /* \"#utility.yul\":32781:32786   */\n      dup2\n        /* \"#utility.yul\":32775:32787   */\n      mload\n        /* \"#utility.yul\":32765:32787   */\n      swap1\n      pop\n        /* \"#utility.yul\":32680:32794   */\n      swap2\n      swap1\n      pop\n      jump\t// out\n        /* \"#utility.yul\":32800:32984   */\n    tag_450:\n        /* \"#utility.yul\":32899:32910   */\n      0x00\n        /* \"#utility.yul\":32933:32939   */\n      dup3\n        /* \"#utility.yul\":32928:32931   */\n      dup3\n        /* \"#utility.yul\":32921:32940   */\n      mstore\n        /* \"#utility.yul\":32973:32977   */\n      0x20\n        /* \"#utility.yul\":32968:32971   */\n      dup3\n        /* \"#utility.yul\":32964:32978   */\n      add\n        /* \"#utility.yul\":32949:32978   */\n      swap1\n      pop\n        /* \"#utility.yul\":32800:32984   */\n      swap3\n      swap2\n      pop\n      pop\n      jump\t// out\n        /* \"#utility.yul\":32990:33122   */\n    tag_451:\n        /* \"#utility.yul\":33057:33061   */\n      0x00\n        /* \"#utility.yul\":33080:33083   */\n      dup2\n        /* \"#utility.yul\":33072:33083   */\n      swap1\n      pop\n        /* \"#utility.yul\":33110:33114   */\n      0x20\n        /* \"#utility.yul\":33105:33108   */\n      dup3\n        /* \"#utility.yul\":33101:33115   */\n      add\n        /* \"#utility.yul\":33093:33115   */\n      swap1\n      pop\n        /* \"#utility.yul\":32990:33122   */\n      swap2\n      swap1\n      pop\n      jump\t// out\n        /* \"#utility.yul\":33128:33307   */\n    tag_452:\n        /* \"#utility.yul\":33197:33207   */\n      0x00\n        /* \"#utility.yul\":33218:33264   */\n      tag_820\n        /* \"#utility.yul\":33260:33263   */\n      dup4\n        /* \"#utility.yul\":33252:33258   */\n      dup4\n        /* \"#utility.yul\":33218:33264   */\n      tag_417\n      jump\t// in\n    tag_820:\n        /* \"#utility.yul\":33296:33300   */\n      0x20\n        /* \"#utility.yul\":33291:33294   */\n      dup4\n        /* \"#utility.yul\":33287:33301   */\n      add\n        /* \"#utility.yul\":33273:33301   */\n      swap1\n      pop\n        /* \"#utility.yul\":33128:33307   */\n      swap3\n      swap2\n      pop\n      pop\n      jump\t// out\n        /* \"#utility.yul\":33313:33426   */\n    tag_453:\n        /* \"#utility.yul\":33383:33387   */\n      0x00\n        /* \"#utility.yul\":33415:33419   */\n      0x20\n        /* \"#utility.yul\":33410:33413   */\n      dup3\n        /* \"#utility.yul\":33406:33420   */\n      add\n        /* \"#utility.yul\":33398:33420   */\n      swap1\n      pop\n        /* \"#utility.yul\":33313:33426   */\n      swap2\n      swap1\n      pop\n      jump\t// out\n        /* \"#utility.yul\":33462:34194   */\n    tag_454:\n        /* \"#utility.yul\":33581:33584   */\n      0x00\n        /* \"#utility.yul\":33610:33664   */\n      tag_823\n        /* \"#utility.yul\":33658:33663   */\n      dup3\n        /* \"#utility.yul\":33610:33664   */\n      tag_449\n      jump\t// in\n    tag_823:\n        /* \"#utility.yul\":33680:33766   */\n      tag_824\n        /* \"#utility.yul\":33759:33765   */\n      dup2\n        /* \"#utility.yul\":33754:33757   */\n      dup6\n        /* \"#utility.yul\":33680:33766   */\n      tag_450\n      jump\t// in\n    tag_824:\n        /* \"#utility.yul\":33673:33766   */\n      swap4\n      pop\n        /* \"#utility.yul\":33790:33846   */\n      tag_825\n        /* \"#utility.yul\":33840:33845   */\n      dup4\n        /* \"#utility.yul\":33790:33846   */\n      tag_451\n      jump\t// in\n    tag_825:\n        /* \"#utility.yul\":33869:33876   */\n      dup1\n        /* \"#utility.yul\":33900:33901   */\n      0x00\n        /* \"#utility.yul\":33885:34169   */\n    tag_826:\n        /* \"#utility.yul\":33910:33916   */\n      dup4\n        /* \"#utility.yul\":33907:33908   */\n      dup2\n        /* \"#utility.yul\":33904:33917   */\n      lt\n        /* \"#utility.yul\":33885:34169   */\n      iszero\n      tag_828\n      jumpi\n        /* \"#utility.yul\":33986:33992   */\n      dup2\n        /* \"#utility.yul\":33980:33993   */\n      mload\n        /* \"#utility.yul\":34013:34076   */\n      tag_829\n        /* \"#utility.yul\":34072:34075   */\n      dup9\n        /* \"#utility.yul\":34057:34070   */\n      dup3\n        /* \"#utility.yul\":34013:34076   */\n      tag_452\n      jump\t// in\n    tag_829:\n        /* \"#utility.yul\":34006:34076   */\n      swap8\n      pop\n        /* \"#utility.yul\":34099:34159   */\n      tag_830\n        /* \"#utility.yul\":34152:34158   */\n      dup4\n        /* \"#utility.yul\":34099:34159   */\n      tag_453\n      jump\t// in\n    tag_830:\n        /* \"#utility.yul\":34089:34159   */\n      swap3\n      pop\n        /* \"#utility.yul\":33945:34169   */\n      pop\n        /* \"#utility.yul\":33932:33933   */\n      0x01\n        /* \"#utility.yul\":33929:33930   */\n      dup2\n        /* \"#utility.yul\":33925:33934   */\n      add\n        /* \"#utility.yul\":33920:33934   */\n      swap1\n      pop\n        /* \"#utility.yul\":33885:34169   */\n      jump(tag_826)\n    tag_828:\n        /* \"#utility.yul\":33889:33903   */\n      pop\n        /* \"#utility.yul\":34185:34188   */\n      dup6\n        /* \"#utility.yul\":34178:34188   */\n      swap4\n      pop\n        /* \"#utility.yul\":33586:34194   */\n      pop\n      pop\n      pop\n        /* \"#utility.yul\":33462:34194   */\n      swap3\n      swap2\n      pop\n      pop\n      jump\t// out\n        /* \"#utility.yul\":34200:34298   */\n    tag_455:\n        /* \"#utility.yul\":34251:34257   */\n      0x00\n        /* \"#utility.yul\":34285:34290   */\n      dup2\n        /* \"#utility.yul\":34279:34291   */\n      mload\n        /* \"#utility.yul\":34269:34291   */\n      swap1\n      pop\n        /* \"#utility.yul\":34200:34298   */\n      swap2\n      swap1\n      pop\n      jump\t// out\n        /* \"#utility.yul\":34304:34472   */\n    tag_456:\n        /* \"#utility.yul\":34387:34398   */\n      0x00\n        /* \"#utility.yul\":34421:34427   */\n      dup3\n        /* \"#utility.yul\":34416:34419   */\n      dup3\n        /* \"#utility.yul\":34409:34428   */\n      mstore\n        /* \"#utility.yul\":34461:34465   */\n      0x20\n        /* \"#utility.yul\":34456:34459   */\n      dup3\n        /* \"#utility.yul\":34452:34466   */\n      add\n        /* \"#utility.yul\":34437:34466   */\n      swap1\n      pop\n        /* \"#utility.yul\":34304:34472   */\n      swap3\n      swap2\n      pop\n      pop\n      jump\t// out\n        /* \"#utility.yul\":34478:34617   */\n    tag_457:\n        /* \"#utility.yul\":34567:34573   */\n      dup3\n        /* \"#utility.yul\":34562:34565   */\n      dup2\n        /* \"#utility.yul\":34557:34560   */\n      dup4\n        /* \"#utility.yul\":34551:34574   */\n      mcopy\n        /* \"#utility.yul\":34608:34609   */\n      0x00\n        /* \"#utility.yul\":34599:34605   */\n      dup4\n        /* \"#utility.yul\":34594:34597   */\n      dup4\n        /* \"#utility.yul\":34590:34606   */\n      add\n        /* \"#utility.yul\":34583:34610   */\n      mstore\n        /* \"#utility.yul\":34478:34617   */\n      pop\n      pop\n      pop\n      jump\t// out\n        /* \"#utility.yul\":34623:34996   */\n    tag_458:\n        /* \"#utility.yul\":34709:34712   */\n      0x00\n        /* \"#utility.yul\":34737:34775   */\n      tag_835\n        /* \"#utility.yul\":34769:34774   */\n      dup3\n        /* \"#utility.yul\":34737:34775   */\n      tag_455\n      jump\t// in\n    tag_835:\n        /* \"#utility.yul\":34791:34861   */\n      tag_836\n        /* \"#utility.yul\":34854:34860   */\n      dup2\n        /* \"#utility.yul\":34849:34852   */\n      dup6\n        /* \"#utility.yul\":34791:34861   */\n      tag_456\n      jump\t// in\n    tag_836:\n        /* \"#utility.yul\":34784:34861   */\n      swap4\n      pop\n        /* \"#utility.yul\":34870:34935   */\n      tag_837\n        /* \"#utility.yul\":34928:34934   */\n      dup2\n        /* \"#utility.yul\":34923:34926   */\n      dup6\n        /* \"#utility.yul\":34916:34920   */\n      0x20\n        /* \"#utility.yul\":34909:34914   */\n      dup7\n        /* \"#utility.yul\":34905:34921   */\n      add\n        /* \"#utility.yul\":34870:34935   */\n      tag_457\n      jump\t// in\n    tag_837:\n        /* \"#utility.yul\":34960:34989   */\n      tag_838\n        /* \"#utility.yul\":34982:34988   */\n      dup2\n        /* \"#utility.yul\":34960:34989   */\n      tag_383\n      jump\t// in\n    tag_838:\n        /* \"#utility.yul\":34955:34958   */\n      dup5\n        /* \"#utility.yul\":34951:34990   */\n      add\n        /* \"#utility.yul\":34944:34990   */\n      swap2\n      pop\n        /* \"#utility.yul\":34713:34996   */\n      pop\n        /* \"#utility.yul\":34623:34996   */\n      swap3\n      swap2\n      pop\n      pop\n      jump\t// out\n        /* \"#utility.yul\":35002:36024   */\n    tag_169:\n        /* \"#utility.yul\":35337:35341   */\n      0x00\n        /* \"#utility.yul\":35375:35378   */\n      0x80\n        /* \"#utility.yul\":35364:35373   */\n      dup3\n        /* \"#utility.yul\":35360:35379   */\n      add\n        /* \"#utility.yul\":35352:35379   */\n      swap1\n      pop\n        /* \"#utility.yul\":35389:35480   */\n      tag_840\n        /* \"#utility.yul\":35477:35478   */\n      0x00\n        /* \"#utility.yul\":35466:35475   */\n      dup4\n        /* \"#utility.yul\":35462:35479   */\n      add\n        /* \"#utility.yul\":35453:35459   */\n      dup8\n        /* \"#utility.yul\":35389:35480   */\n      tag_440\n      jump\t// in\n    tag_840:\n        /* \"#utility.yul\":35527:35536   */\n      dup2\n        /* \"#utility.yul\":35521:35525   */\n      dup2\n        /* \"#utility.yul\":35517:35537   */\n      sub\n        /* \"#utility.yul\":35512:35514   */\n      0x20\n        /* \"#utility.yul\":35501:35510   */\n      dup4\n        /* \"#utility.yul\":35497:35515   */\n      add\n        /* \"#utility.yul\":35490:35538   */\n      mstore\n        /* \"#utility.yul\":35555:35683   */\n      tag_841\n        /* \"#utility.yul\":35678:35682   */\n      dup2\n        /* \"#utility.yul\":35669:35675   */\n      dup7\n        /* \"#utility.yul\":35555:35683   */\n      tag_448\n      jump\t// in\n    tag_841:\n        /* \"#utility.yul\":35547:35683   */\n      swap1\n      pop\n        /* \"#utility.yul\":35730:35739   */\n      dup2\n        /* \"#utility.yul\":35724:35728   */\n      dup2\n        /* \"#utility.yul\":35720:35740   */\n      sub\n        /* \"#utility.yul\":35715:35717   */\n      0x40\n        /* \"#utility.yul\":35704:35713   */\n      dup4\n        /* \"#utility.yul\":35700:35718   */\n      add\n        /* \"#utility.yul\":35693:35741   */\n      mstore\n        /* \"#utility.yul\":35758:35866   */\n      tag_842\n        /* \"#utility.yul\":35861:35865   */\n      dup2\n        /* \"#utility.yul\":35852:35858   */\n      dup6\n        /* \"#utility.yul\":35758:35866   */\n      tag_454\n      jump\t// in\n    tag_842:\n        /* \"#utility.yul\":35750:35866   */\n      swap1\n      pop\n        /* \"#utility.yul\":35913:35922   */\n      dup2\n        /* \"#utility.yul\":35907:35911   */\n      dup2\n        /* \"#utility.yul\":35903:35923   */\n      sub\n        /* \"#utility.yul\":35898:35900   */\n      0x60\n        /* \"#utility.yul\":35887:35896   */\n      dup4\n        /* \"#utility.yul\":35883:35901   */\n      add\n        /* \"#utility.yul\":35876:35924   */\n      mstore\n        /* \"#utility.yul\":35941:36017   */\n      tag_843\n        /* \"#utility.yul\":36012:36016   */\n      dup2\n        /* \"#utility.yul\":36003:36009   */\n      dup5\n        /* \"#utility.yul\":35941:36017   */\n      tag_458\n      jump\t// in\n    tag_843:\n        /* \"#utility.yul\":35933:36017   */\n      swap1\n      pop\n        /* \"#utility.yul\":35002:36024   */\n      swap6\n      swap5\n      pop\n      pop\n      pop\n      pop\n      pop\n      jump\t// out\n        /* \"#utility.yul\":36030:36210   */\n    tag_459:\n        /* \"#utility.yul\":36078:36155   */\n      0x4e487b7100000000000000000000000000000000000000000000000000000000\n        /* \"#utility.yul\":36075:36076   */\n      0x00\n        /* \"#utility.yul\":36068:36156   */\n      mstore\n        /* \"#utility.yul\":36175:36179   */\n      0x11\n        /* \"#utility.yul\":36172:36173   */\n      0x04\n        /* \"#utility.yul\":36165:36180   */\n      mstore\n        /* \"#utility.yul\":36199:36203   */\n      0x24\n        /* \"#utility.yul\":36196:36197   */\n      0x00\n        /* \"#utility.yul\":36189:36204   */\n      revert\n        /* \"#utility.yul\":36216:36410   */\n    tag_179:\n        /* \"#utility.yul\":36256:36260   */\n      0x00\n        /* \"#utility.yul\":36276:36296   */\n      tag_846\n        /* \"#utility.yul\":36294:36295   */\n      dup3\n        /* \"#utility.yul\":36276:36296   */\n      tag_363\n      jump\t// in\n    tag_846:\n        /* \"#utility.yul\":36271:36296   */\n      swap2\n      pop\n        /* \"#utility.yul\":36310:36330   */\n      tag_847\n        /* \"#utility.yul\":36328:36329   */\n      dup4\n        /* \"#utility.yul\":36310:36330   */\n      tag_363\n      jump\t// in\n    tag_847:\n        /* \"#utility.yul\":36305:36330   */\n      swap3\n      pop\n        /* \"#utility.yul\":36354:36355   */\n      dup3\n        /* \"#utility.yul\":36351:36352   */\n      dup3\n        /* \"#utility.yul\":36347:36356   */\n      sub\n        /* \"#utility.yul\":36339:36356   */\n      swap1\n      pop\n        /* \"#utility.yul\":36378:36379   */\n      dup2\n        /* \"#utility.yul\":36372:36376   */\n      dup2\n        /* \"#utility.yul\":36369:36380   */\n      gt\n        /* \"#utility.yul\":36366:36403   */\n      iszero\n      tag_848\n      jumpi\n        /* \"#utility.yul\":36383:36401   */\n      tag_849\n      tag_459\n      jump\t// in\n    tag_849:\n        /* \"#utility.yul\":36366:36403   */\n    tag_848:\n        /* \"#utility.yul\":36216:36410   */\n      swap3\n      swap2\n      pop\n      pop\n      jump\t// out\n        /* \"#utility.yul\":36416:36748   */\n    tag_184:\n        /* \"#utility.yul\":36537:36541   */\n      0x00\n        /* \"#utility.yul\":36575:36577   */\n      0x40\n        /* \"#utility.yul\":36564:36573   */\n      dup3\n        /* \"#utility.yul\":36560:36578   */\n      add\n        /* \"#utility.yul\":36552:36578   */\n      swap1\n      pop\n        /* \"#utility.yul\":36588:36659   */\n      tag_851\n        /* \"#utility.yul\":36656:36657   */\n      0x00\n        /* \"#utility.yul\":36645:36654   */\n      dup4\n        /* \"#utility.yul\":36641:36658   */\n      add\n        /* \"#utility.yul\":36632:36638   */\n      dup6\n        /* \"#utility.yul\":36588:36659   */\n      tag_408\n      jump\t// in\n    tag_851:\n        /* \"#utility.yul\":36669:36741   */\n      tag_852\n        /* \"#utility.yul\":36737:36739   */\n      0x20\n        /* \"#utility.yul\":36726:36735   */\n      dup4\n        /* \"#utility.yul\":36722:36740   */\n      add\n        /* \"#utility.yul\":36713:36719   */\n      dup5\n        /* \"#utility.yul\":36669:36741   */\n      tag_371\n      jump\t// in\n    tag_852:\n        /* \"#utility.yul\":36416:36748   */\n      swap4\n      swap3\n      pop\n      pop\n      pop\n      jump\t// out\n        /* \"#utility.yul\":36754:36871   */\n    tag_460:\n        /* \"#utility.yul\":36863:36864   */\n      0x00\n        /* \"#utility.yul\":36860:36861   */\n      0x00\n        /* \"#utility.yul\":36853:36865   */\n      revert\n        /* \"#utility.yul\":36877:36994   */\n    tag_461:\n        /* \"#utility.yul\":36986:36987   */\n      0x00\n        /* \"#utility.yul\":36983:36984   */\n      0x00\n        /* \"#utility.yul\":36976:36988   */\n      revert\n        /* \"#utility.yul\":37000:37143   */\n    tag_462:\n        /* \"#utility.yul\":37057:37062   */\n      0x00\n        /* \"#utility.yul\":37088:37094   */\n      dup2\n        /* \"#utility.yul\":37082:37095   */\n      mload\n        /* \"#utility.yul\":37073:37095   */\n      swap1\n      pop\n        /* \"#utility.yul\":37104:37137   */\n      tag_856\n        /* \"#utility.yul\":37131:37136   */\n      dup2\n        /* \"#utility.yul\":37104:37137   */\n      tag_367\n      jump\t// in\n    tag_856:\n        /* \"#utility.yul\":37000:37143   */\n      swap3\n      swap2\n      pop\n      pop\n      jump\t// out\n        /* \"#utility.yul\":37149:37292   */\n    tag_463:\n        /* \"#utility.yul\":37206:37211   */\n      0x00\n        /* \"#utility.yul\":37237:37243   */\n      dup2\n        /* \"#utility.yul\":37231:37244   */\n      mload\n        /* \"#utility.yul\":37222:37244   */\n      swap1\n      pop\n        /* \"#utility.yul\":37253:37286   */\n      tag_858\n        /* \"#utility.yul\":37280:37285   */\n      dup2\n        /* \"#utility.yul\":37253:37286   */\n      tag_431\n      jump\t// in\n    tag_858:\n        /* \"#utility.yul\":37149:37292   */\n      swap3\n      swap2\n      pop\n      pop\n      jump\t// out\n        /* \"#utility.yul\":37298:37630   */\n    tag_464:\n        /* \"#utility.yul\":37396:37400   */\n      0x00\n        /* \"#utility.yul\":37486:37504   */\n      0xffffffffffffffff\n        /* \"#utility.yul\":37478:37484   */\n      dup3\n        /* \"#utility.yul\":37475:37505   */\n      gt\n        /* \"#utility.yul\":37472:37528   */\n      iszero\n      tag_860\n      jumpi\n        /* \"#utility.yul\":37508:37526   */\n      tag_861\n      tag_156\n      jump\t// in\n    tag_861:\n        /* \"#utility.yul\":37472:37528   */\n    tag_860:\n        /* \"#utility.yul\":37558:37562   */\n      0x20\n        /* \"#utility.yul\":37550:37556   */\n      dup3\n        /* \"#utility.yul\":37546:37563   */\n      mul\n        /* \"#utility.yul\":37538:37563   */\n      swap1\n      pop\n        /* \"#utility.yul\":37618:37622   */\n      0x20\n        /* \"#utility.yul\":37612:37616   */\n      dup2\n        /* \"#utility.yul\":37608:37623   */\n      add\n        /* \"#utility.yul\":37600:37623   */\n      swap1\n      pop\n        /* \"#utility.yul\":37298:37630   */\n      swap2\n      swap1\n      pop\n      jump\t// out\n        /* \"#utility.yul\":37636:38068   */\n    tag_465:\n        /* \"#utility.yul\":37724:37729   */\n      0x00\n        /* \"#utility.yul\":37749:37814   */\n      tag_863\n        /* \"#utility.yul\":37765:37813   */\n      tag_864\n        /* \"#utility.yul\":37806:37812   */\n      dup5\n        /* \"#utility.yul\":37765:37813   */\n      tag_396\n      jump\t// in\n    tag_864:\n        /* \"#utility.yul\":37749:37814   */\n      tag_385\n      jump\t// in\n    tag_863:\n        /* \"#utility.yul\":37740:37814   */\n      swap1\n      pop\n        /* \"#utility.yul\":37837:37843   */\n      dup3\n        /* \"#utility.yul\":37830:37835   */\n      dup2\n        /* \"#utility.yul\":37823:37844   */\n      mstore\n        /* \"#utility.yul\":37875:37879   */\n      0x20\n        /* \"#utility.yul\":37868:37873   */\n      dup2\n        /* \"#utility.yul\":37864:37880   */\n      add\n        /* \"#utility.yul\":37913:37916   */\n      dup5\n        /* \"#utility.yul\":37904:37910   */\n      dup5\n        /* \"#utility.yul\":37899:37902   */\n      dup5\n        /* \"#utility.yul\":37895:37911   */\n      add\n        /* \"#utility.yul\":37892:37917   */\n      gt\n        /* \"#utility.yul\":37889:38001   */\n      iszero\n      tag_865\n      jumpi\n        /* \"#utility.yul\":37920:37999   */\n      tag_866\n      tag_395\n      jump\t// in\n    tag_866:\n        /* \"#utility.yul\":37889:38001   */\n    tag_865:\n        /* \"#utility.yul\":38010:38062   */\n      tag_867\n        /* \"#utility.yul\":38055:38061   */\n      dup5\n        /* \"#utility.yul\":38050:38053   */\n      dup3\n        /* \"#utility.yul\":38045:38048   */\n      dup6\n        /* \"#utility.yul\":38010:38062   */\n      tag_457\n      jump\t// in\n    tag_867:\n        /* \"#utility.yul\":37730:38068   */\n      pop\n        /* \"#utility.yul\":37636:38068   */\n      swap4\n      swap3\n      pop\n      pop\n      pop\n      jump\t// out\n        /* \"#utility.yul\":38087:38440   */\n    tag_466:\n        /* \"#utility.yul\":38153:38158   */\n      0x00\n        /* \"#utility.yul\":38202:38205   */\n      dup3\n        /* \"#utility.yul\":38195:38199   */\n      0x1f\n        /* \"#utility.yul\":38187:38193   */\n      dup4\n        /* \"#utility.yul\":38183:38200   */\n      add\n        /* \"#utility.yul\":38179:38206   */\n      slt\n        /* \"#utility.yul\":38169:38291   */\n      tag_869\n      jumpi\n        /* \"#utility.yul\":38210:38289   */\n      tag_870\n      tag_375\n      jump\t// in\n    tag_870:\n        /* \"#utility.yul\":38169:38291   */\n    tag_869:\n        /* \"#utility.yul\":38320:38326   */\n      dup2\n        /* \"#utility.yul\":38314:38327   */\n      mload\n        /* \"#utility.yul\":38345:38434   */\n      tag_871\n        /* \"#utility.yul\":38430:38433   */\n      dup5\n        /* \"#utility.yul\":38422:38428   */\n      dup3\n        /* \"#utility.yul\":38415:38419   */\n      0x20\n        /* \"#utility.yul\":38407:38413   */\n      dup7\n        /* \"#utility.yul\":38403:38420   */\n      add\n        /* \"#utility.yul\":38345:38434   */\n      tag_465\n      jump\t// in\n    tag_871:\n        /* \"#utility.yul\":38336:38434   */\n      swap2\n      pop\n        /* \"#utility.yul\":38159:38440   */\n      pop\n        /* \"#utility.yul\":38087:38440   */\n      swap3\n      swap2\n      pop\n      pop\n      jump\t// out\n        /* \"#utility.yul\":38477:39417   */\n    tag_467:\n        /* \"#utility.yul\":38558:38563   */\n      0x00\n        /* \"#utility.yul\":38602:38606   */\n      0x60\n        /* \"#utility.yul\":38590:38599   */\n      dup3\n        /* \"#utility.yul\":38585:38588   */\n      dup5\n        /* \"#utility.yul\":38581:38600   */\n      sub\n        /* \"#utility.yul\":38577:38607   */\n      slt\n        /* \"#utility.yul\":38574:38691   */\n      iszero\n      tag_873\n      jumpi\n        /* \"#utility.yul\":38610:38689   */\n      tag_874\n      tag_460\n      jump\t// in\n    tag_874:\n        /* \"#utility.yul\":38574:38691   */\n    tag_873:\n        /* \"#utility.yul\":38709:38730   */\n      tag_875\n        /* \"#utility.yul\":38725:38729   */\n      0x60\n        /* \"#utility.yul\":38709:38730   */\n      tag_385\n      jump\t// in\n    tag_875:\n        /* \"#utility.yul\":38700:38730   */\n      swap1\n      pop\n        /* \"#utility.yul\":38791:38792   */\n      0x00\n        /* \"#utility.yul\":38831:38891   */\n      tag_876\n        /* \"#utility.yul\":38887:38890   */\n      dup5\n        /* \"#utility.yul\":38878:38884   */\n      dup3\n        /* \"#utility.yul\":38867:38876   */\n      dup6\n        /* \"#utility.yul\":38863:38885   */\n      add\n        /* \"#utility.yul\":38831:38891   */\n      tag_462\n      jump\t// in\n    tag_876:\n        /* \"#utility.yul\":38824:38828   */\n      0x00\n        /* \"#utility.yul\":38817:38822   */\n      dup4\n        /* \"#utility.yul\":38813:38829   */\n      add\n        /* \"#utility.yul\":38806:38892   */\n      mstore\n        /* \"#utility.yul\":38740:38903   */\n      pop\n        /* \"#utility.yul\":38963:38965   */\n      0x20\n        /* \"#utility.yul\":39004:39064   */\n      tag_877\n        /* \"#utility.yul\":39060:39063   */\n      dup5\n        /* \"#utility.yul\":39051:39057   */\n      dup3\n        /* \"#utility.yul\":39040:39049   */\n      dup6\n        /* \"#utility.yul\":39036:39058   */\n      add\n        /* \"#utility.yul\":39004:39064   */\n      tag_429\n      jump\t// in\n    tag_877:\n        /* \"#utility.yul\":38997:39001   */\n      0x20\n        /* \"#utility.yul\":38990:38995   */\n      dup4\n        /* \"#utility.yul\":38986:39002   */\n      add\n        /* \"#utility.yul\":38979:39065   */\n      mstore\n        /* \"#utility.yul\":38913:39076   */\n      pop\n        /* \"#utility.yul\":39156:39158   */\n      0x40\n        /* \"#utility.yul\":39145:39154   */\n      dup3\n        /* \"#utility.yul\":39141:39159   */\n      add\n        /* \"#utility.yul\":39135:39160   */\n      mload\n        /* \"#utility.yul\":39187:39205   */\n      0xffffffffffffffff\n        /* \"#utility.yul\":39179:39185   */\n      dup2\n        /* \"#utility.yul\":39176:39206   */\n      gt\n        /* \"#utility.yul\":39173:39290   */\n      iszero\n      tag_878\n      jumpi\n        /* \"#utility.yul\":39209:39288   */\n      tag_879\n      tag_461\n      jump\t// in\n    tag_879:\n        /* \"#utility.yul\":39173:39290   */\n    tag_878:\n        /* \"#utility.yul\":39329:39398   */\n      tag_880\n        /* \"#utility.yul\":39394:39397   */\n      dup5\n        /* \"#utility.yul\":39385:39391   */\n      dup3\n        /* \"#utility.yul\":39374:39383   */\n      dup6\n        /* \"#utility.yul\":39370:39392   */\n      add\n        /* \"#utility.yul\":39329:39398   */\n      tag_466\n      jump\t// in\n    tag_880:\n        /* \"#utility.yul\":39322:39326   */\n      0x40\n        /* \"#utility.yul\":39315:39320   */\n      dup4\n        /* \"#utility.yul\":39311:39327   */\n      add\n        /* \"#utility.yul\":39304:39399   */\n      mstore\n        /* \"#utility.yul\":39086:39410   */\n      pop\n        /* \"#utility.yul\":38477:39417   */\n      swap3\n      swap2\n      pop\n      pop\n      jump\t// out\n        /* \"#utility.yul\":39456:40449   */\n    tag_468:\n        /* \"#utility.yul\":39584:39589   */\n      0x00\n        /* \"#utility.yul\":39609:39711   */\n      tag_882\n        /* \"#utility.yul\":39625:39710   */\n      tag_883\n        /* \"#utility.yul\":39703:39709   */\n      dup5\n        /* \"#utility.yul\":39625:39710   */\n      tag_464\n      jump\t// in\n    tag_883:\n        /* \"#utility.yul\":39609:39711   */\n      tag_385\n      jump\t// in\n    tag_882:\n        /* \"#utility.yul\":39600:39711   */\n      swap1\n      pop\n        /* \"#utility.yul\":39731:39736   */\n      dup1\n        /* \"#utility.yul\":39760:39766   */\n      dup4\n        /* \"#utility.yul\":39753:39758   */\n      dup3\n        /* \"#utility.yul\":39746:39767   */\n      mstore\n        /* \"#utility.yul\":39794:39798   */\n      0x20\n        /* \"#utility.yul\":39787:39792   */\n      dup3\n        /* \"#utility.yul\":39783:39799   */\n      add\n        /* \"#utility.yul\":39776:39799   */\n      swap1\n      pop\n        /* \"#utility.yul\":39847:39851   */\n      0x20\n        /* \"#utility.yul\":39839:39845   */\n      dup5\n        /* \"#utility.yul\":39835:39852   */\n      mul\n        /* \"#utility.yul\":39827:39833   */\n      dup4\n        /* \"#utility.yul\":39823:39853   */\n      add\n        /* \"#utility.yul\":39876:39879   */\n      dup6\n        /* \"#utility.yul\":39868:39874   */\n      dup2\n        /* \"#utility.yul\":39865:39880   */\n      gt\n        /* \"#utility.yul\":39862:39984   */\n      iszero\n      tag_884\n      jumpi\n        /* \"#utility.yul\":39895:39974   */\n      tag_885\n      tag_377\n      jump\t// in\n    tag_885:\n        /* \"#utility.yul\":39862:39984   */\n    tag_884:\n        /* \"#utility.yul\":40010:40016   */\n      dup4\n        /* \"#utility.yul\":39993:40443   */\n    tag_886:\n        /* \"#utility.yul\":40027:40033   */\n      dup2\n        /* \"#utility.yul\":40022:40025   */\n      dup2\n        /* \"#utility.yul\":40019:40034   */\n      lt\n        /* \"#utility.yul\":39993:40443   */\n      iszero\n      tag_888\n      jumpi\n        /* \"#utility.yul\":40109:40112   */\n      dup1\n        /* \"#utility.yul\":40103:40113   */\n      mload\n        /* \"#utility.yul\":40145:40163   */\n      0xffffffffffffffff\n        /* \"#utility.yul\":40132:40143   */\n      dup2\n        /* \"#utility.yul\":40129:40164   */\n      gt\n        /* \"#utility.yul\":40126:40248   */\n      iszero\n      tag_889\n      jumpi\n        /* \"#utility.yul\":40167:40246   */\n      tag_890\n      tag_375\n      jump\t// in\n    tag_890:\n        /* \"#utility.yul\":40126:40248   */\n    tag_889:\n        /* \"#utility.yul\":40291:40302   */\n      dup1\n        /* \"#utility.yul\":40283:40289   */\n      dup7\n        /* \"#utility.yul\":40279:40303   */\n      add\n        /* \"#utility.yul\":40329:40398   */\n      tag_891\n        /* \"#utility.yul\":40394:40397   */\n      dup10\n        /* \"#utility.yul\":40382:40392   */\n      dup3\n        /* \"#utility.yul\":40329:40398   */\n      tag_467\n      jump\t// in\n    tag_891:\n        /* \"#utility.yul\":40324:40327   */\n      dup6\n        /* \"#utility.yul\":40317:40399   */\n      mstore\n        /* \"#utility.yul\":40428:40432   */\n      0x20\n        /* \"#utility.yul\":40423:40426   */\n      dup6\n        /* \"#utility.yul\":40419:40433   */\n      add\n        /* \"#utility.yul\":40412:40433   */\n      swap5\n      pop\n        /* \"#utility.yul\":40069:40443   */\n      pop\n      pop\n        /* \"#utility.yul\":40053:40057   */\n      0x20\n        /* \"#utility.yul\":40048:40051   */\n      dup2\n        /* \"#utility.yul\":40044:40058   */\n      add\n        /* \"#utility.yul\":40037:40058   */\n      swap1\n      pop\n        /* \"#utility.yul\":39993:40443   */\n      jump(tag_886)\n    tag_888:\n        /* \"#utility.yul\":39997:40018   */\n      pop\n        /* \"#utility.yul\":39590:40449   */\n      pop\n      pop\n        /* \"#utility.yul\":39456:40449   */\n      swap4\n      swap3\n      pop\n      pop\n      pop\n      jump\t// out\n        /* \"#utility.yul\":40488:40915   */\n    tag_469:\n        /* \"#utility.yul\":40591:40596   */\n      0x00\n        /* \"#utility.yul\":40640:40643   */\n      dup3\n        /* \"#utility.yul\":40633:40637   */\n      0x1f\n        /* \"#utility.yul\":40625:40631   */\n      dup4\n        /* \"#utility.yul\":40621:40638   */\n      add\n        /* \"#utility.yul\":40617:40644   */\n      slt\n        /* \"#utility.yul\":40607:40729   */\n      tag_893\n      jumpi\n        /* \"#utility.yul\":40648:40727   */\n      tag_894\n      tag_375\n      jump\t// in\n    tag_894:\n        /* \"#utility.yul\":40607:40729   */\n    tag_893:\n        /* \"#utility.yul\":40758:40764   */\n      dup2\n        /* \"#utility.yul\":40752:40765   */\n      mload\n        /* \"#utility.yul\":40783:40909   */\n      tag_895\n        /* \"#utility.yul\":40905:40908   */\n      dup5\n        /* \"#utility.yul\":40897:40903   */\n      dup3\n        /* \"#utility.yul\":40890:40894   */\n      0x20\n        /* \"#utility.yul\":40882:40888   */\n      dup7\n        /* \"#utility.yul\":40878:40895   */\n      add\n        /* \"#utility.yul\":40783:40909   */\n      tag_468\n      jump\t// in\n    tag_895:\n        /* \"#utility.yul\":40774:40909   */\n      swap2\n      pop\n        /* \"#utility.yul\":40597:40915   */\n      pop\n        /* \"#utility.yul\":40488:40915   */\n      swap3\n      swap2\n      pop\n      pop\n      jump\t// out\n        /* \"#utility.yul\":40959:42307   */\n    tag_470:\n        /* \"#utility.yul\":41047:41052   */\n      0x00\n        /* \"#utility.yul\":41091:41095   */\n      0xa0\n        /* \"#utility.yul\":41079:41088   */\n      dup3\n        /* \"#utility.yul\":41074:41077   */\n      dup5\n        /* \"#utility.yul\":41070:41089   */\n      sub\n        /* \"#utility.yul\":41066:41096   */\n      slt\n        /* \"#utility.yul\":41063:41180   */\n      iszero\n      tag_897\n      jumpi\n        /* \"#utility.yul\":41099:41178   */\n      tag_898\n      tag_460\n      jump\t// in\n    tag_898:\n        /* \"#utility.yul\":41063:41180   */\n    tag_897:\n        /* \"#utility.yul\":41198:41219   */\n      tag_899\n        /* \"#utility.yul\":41214:41218   */\n      0xa0\n        /* \"#utility.yul\":41198:41219   */\n      tag_385\n      jump\t// in\n    tag_899:\n        /* \"#utility.yul\":41189:41219   */\n      swap1\n      pop\n        /* \"#utility.yul\":41285:41286   */\n      0x00\n        /* \"#utility.yul\":41325:41385   */\n      tag_900\n        /* \"#utility.yul\":41381:41384   */\n      dup5\n        /* \"#utility.yul\":41372:41378   */\n      dup3\n        /* \"#utility.yul\":41361:41370   */\n      dup6\n        /* \"#utility.yul\":41357:41379   */\n      add\n        /* \"#utility.yul\":41325:41385   */\n      tag_462\n      jump\t// in\n    tag_900:\n        /* \"#utility.yul\":41318:41322   */\n      0x00\n        /* \"#utility.yul\":41311:41316   */\n      dup4\n        /* \"#utility.yul\":41307:41323   */\n      add\n        /* \"#utility.yul\":41300:41386   */\n      mstore\n        /* \"#utility.yul\":41229:41397   */\n      pop\n        /* \"#utility.yul\":41461:41463   */\n      0x20\n        /* \"#utility.yul\":41502:41562   */\n      tag_901\n        /* \"#utility.yul\":41558:41561   */\n      dup5\n        /* \"#utility.yul\":41549:41555   */\n      dup3\n        /* \"#utility.yul\":41538:41547   */\n      dup6\n        /* \"#utility.yul\":41534:41556   */\n      add\n        /* \"#utility.yul\":41502:41562   */\n      tag_429\n      jump\t// in\n    tag_901:\n        /* \"#utility.yul\":41495:41499   */\n      0x20\n        /* \"#utility.yul\":41488:41493   */\n      dup4\n        /* \"#utility.yul\":41484:41500   */\n      add\n        /* \"#utility.yul\":41477:41563   */\n      mstore\n        /* \"#utility.yul\":41407:41574   */\n      pop\n        /* \"#utility.yul\":41637:41639   */\n      0x40\n        /* \"#utility.yul\":41678:41738   */\n      tag_902\n        /* \"#utility.yul\":41734:41737   */\n      dup5\n        /* \"#utility.yul\":41725:41731   */\n      dup3\n        /* \"#utility.yul\":41714:41723   */\n      dup6\n        /* \"#utility.yul\":41710:41732   */\n      add\n        /* \"#utility.yul\":41678:41738   */\n      tag_429\n      jump\t// in\n    tag_902:\n        /* \"#utility.yul\":41671:41675   */\n      0x40\n        /* \"#utility.yul\":41664:41669   */\n      dup4\n        /* \"#utility.yul\":41660:41676   */\n      add\n        /* \"#utility.yul\":41653:41739   */\n      mstore\n        /* \"#utility.yul\":41584:41750   */\n      pop\n        /* \"#utility.yul\":41814:41816   */\n      0x60\n        /* \"#utility.yul\":41855:41915   */\n      tag_903\n        /* \"#utility.yul\":41911:41914   */\n      dup5\n        /* \"#utility.yul\":41902:41908   */\n      dup3\n        /* \"#utility.yul\":41891:41900   */\n      dup6\n        /* \"#utility.yul\":41887:41909   */\n      add\n        /* \"#utility.yul\":41855:41915   */\n      tag_463\n      jump\t// in\n    tag_903:\n        /* \"#utility.yul\":41848:41852   */\n      0x60\n        /* \"#utility.yul\":41841:41846   */\n      dup4\n        /* \"#utility.yul\":41837:41853   */\n      add\n        /* \"#utility.yul\":41830:41916   */\n      mstore\n        /* \"#utility.yul\":41760:41927   */\n      pop\n        /* \"#utility.yul\":42008:42011   */\n      0x80\n        /* \"#utility.yul\":41997:42006   */\n      dup3\n        /* \"#utility.yul\":41993:42012   */\n      add\n        /* \"#utility.yul\":41987:42013   */\n      mload\n        /* \"#utility.yul\":42040:42058   */\n      0xffffffffffffffff\n        /* \"#utility.yul\":42032:42038   */\n      dup2\n        /* \"#utility.yul\":42029:42059   */\n      gt\n        /* \"#utility.yul\":42026:42143   */\n      iszero\n      tag_904\n      jumpi\n        /* \"#utility.yul\":42062:42141   */\n      tag_905\n      tag_461\n      jump\t// in\n    tag_905:\n        /* \"#utility.yul\":42026:42143   */\n    tag_904:\n        /* \"#utility.yul\":42182:42288   */\n      tag_906\n        /* \"#utility.yul\":42284:42287   */\n      dup5\n        /* \"#utility.yul\":42275:42281   */\n      dup3\n        /* \"#utility.yul\":42264:42273   */\n      dup6\n        /* \"#utility.yul\":42260:42282   */\n      add\n        /* \"#utility.yul\":42182:42288   */\n      tag_469\n      jump\t// in\n    tag_906:\n        /* \"#utility.yul\":42175:42179   */\n      0x80\n        /* \"#utility.yul\":42168:42173   */\n      dup4\n        /* \"#utility.yul\":42164:42180   */\n      add\n        /* \"#utility.yul\":42157:42289   */\n      mstore\n        /* \"#utility.yul\":41937:42300   */\n      pop\n        /* \"#utility.yul\":40959:42307   */\n      swap3\n      swap2\n      pop\n      pop\n      jump\t// out\n        /* \"#utility.yul\":42313:42873   */\n    tag_212:\n        /* \"#utility.yul\":42411:42417   */\n      0x00\n        /* \"#utility.yul\":42460:42462   */\n      0x20\n        /* \"#utility.yul\":42448:42457   */\n      dup3\n        /* \"#utility.yul\":42439:42446   */\n      dup5\n        /* \"#utility.yul\":42435:42458   */\n      sub\n        /* \"#utility.yul\":42431:42463   */\n      slt\n        /* \"#utility.yul\":42428:42547   */\n      iszero\n      tag_908\n      jumpi\n        /* \"#utility.yul\":42466:42545   */\n      tag_909\n      tag_357\n      jump\t// in\n    tag_909:\n        /* \"#utility.yul\":42428:42547   */\n    tag_908:\n        /* \"#utility.yul\":42607:42608   */\n      0x00\n        /* \"#utility.yul\":42596:42605   */\n      dup3\n        /* \"#utility.yul\":42592:42609   */\n      add\n        /* \"#utility.yul\":42586:42610   */\n      mload\n        /* \"#utility.yul\":42637:42655   */\n      0xffffffffffffffff\n        /* \"#utility.yul\":42629:42635   */\n      dup2\n        /* \"#utility.yul\":42626:42656   */\n      gt\n        /* \"#utility.yul\":42623:42740   */\n      iszero\n      tag_910\n      jumpi\n        /* \"#utility.yul\":42659:42738   */\n      tag_911\n      tag_358\n      jump\t// in\n    tag_911:\n        /* \"#utility.yul\":42623:42740   */\n    tag_910:\n        /* \"#utility.yul\":42764:42856   */\n      tag_912\n        /* \"#utility.yul\":42848:42855   */\n      dup5\n        /* \"#utility.yul\":42839:42845   */\n      dup3\n        /* \"#utility.yul\":42828:42837   */\n      dup6\n        /* \"#utility.yul\":42824:42846   */\n      add\n        /* \"#utility.yul\":42764:42856   */\n      tag_470\n      jump\t// in\n    tag_912:\n        /* \"#utility.yul\":42754:42856   */\n      swap2\n      pop\n        /* \"#utility.yul\":42557:42866   */\n      pop\n        /* \"#utility.yul\":42313:42873   */\n      swap3\n      swap2\n      pop\n      pop\n      jump\t// out\n        /* \"#utility.yul\":42879:43070   */\n    tag_230:\n        /* \"#utility.yul\":42919:42922   */\n      0x00\n        /* \"#utility.yul\":42938:42958   */\n      tag_914\n        /* \"#utility.yul\":42956:42957   */\n      dup3\n        /* \"#utility.yul\":42938:42958   */\n      tag_363\n      jump\t// in\n    tag_914:\n        /* \"#utility.yul\":42933:42958   */\n      swap2\n      pop\n        /* \"#utility.yul\":42972:42992   */\n      tag_915\n        /* \"#utility.yul\":42990:42991   */\n      dup4\n        /* \"#utility.yul\":42972:42992   */\n      tag_363\n      jump\t// in\n    tag_915:\n        /* \"#utility.yul\":42967:42992   */\n      swap3\n      pop\n        /* \"#utility.yul\":43015:43016   */\n      dup3\n        /* \"#utility.yul\":43012:43013   */\n      dup3\n        /* \"#utility.yul\":43008:43017   */\n      add\n        /* \"#utility.yul\":43001:43017   */\n      swap1\n      pop\n        /* \"#utility.yul\":43036:43039   */\n      dup1\n        /* \"#utility.yul\":43033:43034   */\n      dup3\n        /* \"#utility.yul\":43030:43040   */\n      gt\n        /* \"#utility.yul\":43027:43063   */\n      iszero\n      tag_916\n      jumpi\n        /* \"#utility.yul\":43043:43061   */\n      tag_917\n      tag_459\n      jump\t// in\n    tag_917:\n        /* \"#utility.yul\":43027:43063   */\n    tag_916:\n        /* \"#utility.yul\":42879:43070   */\n      swap3\n      swap2\n      pop\n      pop\n      jump\t// out\n        /* \"#utility.yul\":43076:43162   */\n    tag_471:\n        /* \"#utility.yul\":43111:43118   */\n      0x00\n        /* \"#utility.yul\":43151:43155   */\n      0xff\n        /* \"#utility.yul\":43144:43149   */\n      dup3\n        /* \"#utility.yul\":43140:43156   */\n      and\n        /* \"#utility.yul\":43129:43156   */\n      swap1\n      pop\n        /* \"#utility.yul\":43076:43162   */\n      swap2\n      swap1\n      pop\n      jump\t// out\n        /* \"#utility.yul\":43168:43286   */\n    tag_472:\n        /* \"#utility.yul\":43239:43261   */\n      tag_920\n        /* \"#utility.yul\":43255:43260   */\n      dup2\n        /* \"#utility.yul\":43239:43261   */\n      tag_471\n      jump\t// in\n    tag_920:\n        /* \"#utility.yul\":43232:43237   */\n      dup2\n        /* \"#utility.yul\":43229:43262   */\n      eq\n        /* \"#utility.yul\":43219:43280   */\n      tag_921\n      jumpi\n        /* \"#utility.yul\":43276:43277   */\n      0x00\n        /* \"#utility.yul\":43273:43274   */\n      0x00\n        /* \"#utility.yul\":43266:43278   */\n      revert\n        /* \"#utility.yul\":43219:43280   */\n    tag_921:\n        /* \"#utility.yul\":43168:43286   */\n      pop\n      jump\t// out\n        /* \"#utility.yul\":43292:43427   */\n    tag_473:\n        /* \"#utility.yul\":43336:43341   */\n      0x00\n        /* \"#utility.yul\":43374:43380   */\n      dup2\n        /* \"#utility.yul\":43361:43381   */\n      calldataload\n        /* \"#utility.yul\":43352:43381   */\n      swap1\n      pop\n        /* \"#utility.yul\":43390:43421   */\n      tag_923\n        /* \"#utility.yul\":43415:43420   */\n      dup2\n        /* \"#utility.yul\":43390:43421   */\n      tag_472\n      jump\t// in\n    tag_923:\n        /* \"#utility.yul\":43292:43427   */\n      swap3\n      swap2\n      pop\n      pop\n      jump\t// out\n        /* \"#utility.yul\":43433:43524   */\n    tag_474:\n        /* \"#utility.yul\":43469:43476   */\n      0x00\n        /* \"#utility.yul\":43509:43517   */\n      0xffffff\n        /* \"#utility.yul\":43502:43507   */\n      dup3\n        /* \"#utility.yul\":43498:43518   */\n      and\n        /* \"#utility.yul\":43487:43518   */\n      swap1\n      pop\n        /* \"#utility.yul\":43433:43524   */\n      swap2\n      swap1\n      pop\n      jump\t// out\n        /* \"#utility.yul\":43530:43650   */\n    tag_475:\n        /* \"#utility.yul\":43602:43625   */\n      tag_926\n        /* \"#utility.yul\":43619:43624   */\n      dup2\n        /* \"#utility.yul\":43602:43625   */\n      tag_474\n      jump\t// in\n    tag_926:\n        /* \"#utility.yul\":43595:43600   */\n      dup2\n        /* \"#utility.yul\":43592:43626   */\n      eq\n        /* \"#utility.yul\":43582:43644   */\n      tag_927\n      jumpi\n        /* \"#utility.yul\":43640:43641   */\n      0x00\n        /* \"#utility.yul\":43637:43638   */\n      0x00\n        /* \"#utility.yul\":43630:43642   */\n      revert\n        /* \"#utility.yul\":43582:43644   */\n    tag_927:\n        /* \"#utility.yul\":43530:43650   */\n      pop\n      jump\t// out\n        /* \"#utility.yul\":43656:43793   */\n    tag_476:\n        /* \"#utility.yul\":43701:43706   */\n      0x00\n        /* \"#utility.yul\":43739:43745   */\n      dup2\n        /* \"#utility.yul\":43726:43746   */\n      calldataload\n        /* \"#utility.yul\":43717:43746   */\n      swap1\n      pop\n        /* \"#utility.yul\":43755:43787   */\n      tag_929\n        /* \"#utility.yul\":43781:43786   */\n      dup2\n        /* \"#utility.yul\":43755:43787   */\n      tag_475\n      jump\t// in\n    tag_929:\n        /* \"#utility.yul\":43656:43793   */\n      swap3\n      swap2\n      pop\n      pop\n      jump\t// out\n        /* \"#utility.yul\":43838:44744   */\n    tag_477:\n        /* \"#utility.yul\":43916:43921   */\n      0x00\n        /* \"#utility.yul\":43960:43964   */\n      0x80\n        /* \"#utility.yul\":43948:43957   */\n      dup3\n        /* \"#utility.yul\":43943:43946   */\n      dup5\n        /* \"#utility.yul\":43939:43958   */\n      sub\n        /* \"#utility.yul\":43935:43965   */\n      slt\n        /* \"#utility.yul\":43932:44049   */\n      iszero\n      tag_931\n      jumpi\n        /* \"#utility.yul\":43968:44047   */\n      tag_932\n      tag_460\n      jump\t// in\n    tag_932:\n        /* \"#utility.yul\":43932:44049   */\n    tag_931:\n        /* \"#utility.yul\":44067:44088   */\n      tag_933\n        /* \"#utility.yul\":44083:44087   */\n      0x80\n        /* \"#utility.yul\":44067:44088   */\n      tag_385\n      jump\t// in\n    tag_933:\n        /* \"#utility.yul\":44058:44088   */\n      swap1\n      pop\n        /* \"#utility.yul\":44153:44154   */\n      0x00\n        /* \"#utility.yul\":44193:44240   */\n      tag_934\n        /* \"#utility.yul\":44236:44239   */\n      dup5\n        /* \"#utility.yul\":44227:44233   */\n      dup3\n        /* \"#utility.yul\":44216:44225   */\n      dup6\n        /* \"#utility.yul\":44212:44234   */\n      add\n        /* \"#utility.yul\":44193:44240   */\n      tag_473\n      jump\t// in\n    tag_934:\n        /* \"#utility.yul\":44186:44190   */\n      0x00\n        /* \"#utility.yul\":44179:44184   */\n      dup4\n        /* \"#utility.yul\":44175:44191   */\n      add\n        /* \"#utility.yul\":44168:44241   */\n      mstore\n        /* \"#utility.yul\":44098:44252   */\n      pop\n        /* \"#utility.yul\":44313:44315   */\n      0x20\n        /* \"#utility.yul\":44354:44403   */\n      tag_935\n        /* \"#utility.yul\":44399:44402   */\n      dup5\n        /* \"#utility.yul\":44390:44396   */\n      dup3\n        /* \"#utility.yul\":44379:44388   */\n      dup6\n        /* \"#utility.yul\":44375:44397   */\n      add\n        /* \"#utility.yul\":44354:44403   */\n      tag_368\n      jump\t// in\n    tag_935:\n        /* \"#utility.yul\":44347:44351   */\n      0x20\n        /* \"#utility.yul\":44340:44345   */\n      dup4\n        /* \"#utility.yul\":44336:44352   */\n      add\n        /* \"#utility.yul\":44329:44404   */\n      mstore\n        /* \"#utility.yul\":44262:44415   */\n      pop\n        /* \"#utility.yul\":44476:44478   */\n      0x40\n        /* \"#utility.yul\":44517:44566   */\n      tag_936\n        /* \"#utility.yul\":44562:44565   */\n      dup5\n        /* \"#utility.yul\":44553:44559   */\n      dup3\n        /* \"#utility.yul\":44542:44551   */\n      dup6\n        /* \"#utility.yul\":44538:44560   */\n      add\n        /* \"#utility.yul\":44517:44566   */\n      tag_368\n      jump\t// in\n    tag_936:\n        /* \"#utility.yul\":44510:44514   */\n      0x40\n        /* \"#utility.yul\":44503:44508   */\n      dup4\n        /* \"#utility.yul\":44499:44515   */\n      add\n        /* \"#utility.yul\":44492:44567   */\n      mstore\n        /* \"#utility.yul\":44425:44578   */\n      pop\n        /* \"#utility.yul\":44636:44638   */\n      0x60\n        /* \"#utility.yul\":44677:44725   */\n      tag_937\n        /* \"#utility.yul\":44721:44724   */\n      dup5\n        /* \"#utility.yul\":44712:44718   */\n      dup3\n        /* \"#utility.yul\":44701:44710   */\n      dup6\n        /* \"#utility.yul\":44697:44719   */\n      add\n        /* \"#utility.yul\":44677:44725   */\n      tag_476\n      jump\t// in\n    tag_937:\n        /* \"#utility.yul\":44670:44674   */\n      0x60\n        /* \"#utility.yul\":44663:44668   */\n      dup4\n        /* \"#utility.yul\":44659:44675   */\n      add\n        /* \"#utility.yul\":44652:44726   */\n      mstore\n        /* \"#utility.yul\":44588:44737   */\n      pop\n        /* \"#utility.yul\":43838:44744   */\n      swap3\n      swap2\n      pop\n      pop\n      jump\t// out\n        /* \"#utility.yul\":44750:45138   */\n    tag_251:\n        /* \"#utility.yul\":44838:44844   */\n      0x00\n        /* \"#utility.yul\":44887:44890   */\n      0x80\n        /* \"#utility.yul\":44875:44884   */\n      dup3\n        /* \"#utility.yul\":44866:44873   */\n      dup5\n        /* \"#utility.yul\":44862:44885   */\n      sub\n        /* \"#utility.yul\":44858:44891   */\n      slt\n        /* \"#utility.yul\":44855:44975   */\n      iszero\n      tag_939\n      jumpi\n        /* \"#utility.yul\":44894:44973   */\n      tag_940\n      tag_357\n      jump\t// in\n    tag_940:\n        /* \"#utility.yul\":44855:44975   */\n    tag_939:\n        /* \"#utility.yul\":45014:45015   */\n      0x00\n        /* \"#utility.yul\":45039:45121   */\n      tag_941\n        /* \"#utility.yul\":45113:45120   */\n      dup5\n        /* \"#utility.yul\":45104:45110   */\n      dup3\n        /* \"#utility.yul\":45093:45102   */\n      dup6\n        /* \"#utility.yul\":45089:45111   */\n      add\n        /* \"#utility.yul\":45039:45121   */\n      tag_477\n      jump\t// in\n    tag_941:\n        /* \"#utility.yul\":45029:45121   */\n      swap2\n      pop\n        /* \"#utility.yul\":44985:45131   */\n      pop\n        /* \"#utility.yul\":44750:45138   */\n      swap3\n      swap2\n      pop\n      pop\n      jump\t// out\n        /* \"#utility.yul\":45144:45256   */\n    tag_478:\n        /* \"#utility.yul\":45227:45249   */\n      tag_943\n        /* \"#utility.yul\":45243:45248   */\n      dup2\n        /* \"#utility.yul\":45227:45249   */\n      tag_471\n      jump\t// in\n    tag_943:\n        /* \"#utility.yul\":45222:45225   */\n      dup3\n        /* \"#utility.yul\":45215:45250   */\n      mstore\n        /* \"#utility.yul\":45144:45256   */\n      pop\n      pop\n      jump\t// out\n        /* \"#utility.yul\":45262:45476   */\n    tag_254:\n        /* \"#utility.yul\":45351:45355   */\n      0x00\n        /* \"#utility.yul\":45389:45391   */\n      0x20\n        /* \"#utility.yul\":45378:45387   */\n      dup3\n        /* \"#utility.yul\":45374:45392   */\n      add\n        /* \"#utility.yul\":45366:45392   */\n      swap1\n      pop\n        /* \"#utility.yul\":45402:45469   */\n      tag_945\n        /* \"#utility.yul\":45466:45467   */\n      0x00\n        /* \"#utility.yul\":45455:45464   */\n      dup4\n        /* \"#utility.yul\":45451:45468   */\n      add\n        /* \"#utility.yul\":45442:45448   */\n      dup5\n        /* \"#utility.yul\":45402:45469   */\n      tag_478\n      jump\t// in\n    tag_945:\n        /* \"#utility.yul\":45262:45476   */\n      swap3\n      swap2\n      pop\n      pop\n      jump\t// out\n        /* \"#utility.yul\":45482:45814   */\n    tag_260:\n        /* \"#utility.yul\":45603:45607   */\n      0x00\n        /* \"#utility.yul\":45641:45643   */\n      0x40\n        /* \"#utility.yul\":45630:45639   */\n      dup3\n        /* \"#utility.yul\":45626:45644   */\n      add\n        /* \"#utility.yul\":45618:45644   */\n      swap1\n      pop\n        /* \"#utility.yul\":45654:45725   */\n      tag_947\n        /* \"#utility.yul\":45722:45723   */\n      0x00\n        /* \"#utility.yul\":45711:45720   */\n      dup4\n        /* \"#utility.yul\":45707:45724   */\n      add\n        /* \"#utility.yul\":45698:45704   */\n      dup6\n        /* \"#utility.yul\":45654:45725   */\n      tag_371\n      jump\t// in\n    tag_947:\n        /* \"#utility.yul\":45735:45807   */\n      tag_948\n        /* \"#utility.yul\":45803:45805   */\n      0x20\n        /* \"#utility.yul\":45792:45801   */\n      dup4\n        /* \"#utility.yul\":45788:45806   */\n      add\n        /* \"#utility.yul\":45779:45785   */\n      dup5\n        /* \"#utility.yul\":45735:45807   */\n      tag_371\n      jump\t// in\n    tag_948:\n        /* \"#utility.yul\":45482:45814   */\n      swap4\n      swap3\n      pop\n      pop\n      pop\n      jump\t// out\n        /* \"#utility.yul\":45820:46152   */\n    tag_276:\n        /* \"#utility.yul\":45941:45945   */\n      0x00\n        /* \"#utility.yul\":45979:45981   */\n      0x40\n        /* \"#utility.yul\":45968:45977   */\n      dup3\n        /* \"#utility.yul\":45964:45982   */\n      add\n        /* \"#utility.yul\":45956:45982   */\n      swap1\n      pop\n        /* \"#utility.yul\":45992:46063   */\n      tag_950\n        /* \"#utility.yul\":46060:46061   */\n      0x00\n        /* \"#utility.yul\":46049:46058   */\n      dup4\n        /* \"#utility.yul\":46045:46062   */\n      add\n        /* \"#utility.yul\":46036:46042   */\n      dup6\n        /* \"#utility.yul\":45992:46063   */\n      tag_371\n      jump\t// in\n    tag_950:\n        /* \"#utility.yul\":46073:46145   */\n      tag_951\n        /* \"#utility.yul\":46141:46143   */\n      0x20\n        /* \"#utility.yul\":46130:46139   */\n      dup4\n        /* \"#utility.yul\":46126:46144   */\n      add\n        /* \"#utility.yul\":46117:46123   */\n      dup5\n        /* \"#utility.yul\":46073:46145   */\n      tag_408\n      jump\t// in\n    tag_951:\n        /* \"#utility.yul\":45820:46152   */\n      swap4\n      swap3\n      pop\n      pop\n      pop\n      jump\t// out\n        /* \"#utility.yul\":46158:46544   */\n    tag_479:\n        /* \"#utility.yul\":46262:46265   */\n      0x00\n        /* \"#utility.yul\":46290:46328   */\n      tag_953\n        /* \"#utility.yul\":46322:46327   */\n      dup3\n        /* \"#utility.yul\":46290:46328   */\n      tag_455\n      jump\t// in\n    tag_953:\n        /* \"#utility.yul\":46344:46432   */\n      tag_954\n        /* \"#utility.yul\":46425:46431   */\n      dup2\n        /* \"#utility.yul\":46420:46423   */\n      dup6\n        /* \"#utility.yul\":46344:46432   */\n      tag_400\n      jump\t// in\n    tag_954:\n        /* \"#utility.yul\":46337:46432   */\n      swap4\n      pop\n        /* \"#utility.yul\":46441:46506   */\n      tag_955\n        /* \"#utility.yul\":46499:46505   */\n      dup2\n        /* \"#utility.yul\":46494:46497   */\n      dup6\n        /* \"#utility.yul\":46487:46491   */\n      0x20\n        /* \"#utility.yul\":46480:46485   */\n      dup7\n        /* \"#utility.yul\":46476:46492   */\n      add\n        /* \"#utility.yul\":46441:46506   */\n      tag_457\n      jump\t// in\n    tag_955:\n        /* \"#utility.yul\":46531:46537   */\n      dup1\n        /* \"#utility.yul\":46526:46529   */\n      dup5\n        /* \"#utility.yul\":46522:46538   */\n      add\n        /* \"#utility.yul\":46515:46538   */\n      swap2\n      pop\n        /* \"#utility.yul\":46266:46544   */\n      pop\n        /* \"#utility.yul\":46158:46544   */\n      swap3\n      swap2\n      pop\n      pop\n      jump\t// out\n        /* \"#utility.yul\":46550:46821   */\n    tag_278:\n        /* \"#utility.yul\":46680:46683   */\n      0x00\n        /* \"#utility.yul\":46702:46795   */\n      tag_957\n        /* \"#utility.yul\":46791:46794   */\n      dup3\n        /* \"#utility.yul\":46782:46788   */\n      dup5\n        /* \"#utility.yul\":46702:46795   */\n      tag_479\n      jump\t// in\n    tag_957:\n        /* \"#utility.yul\":46695:46795   */\n      swap2\n      pop\n        /* \"#utility.yul\":46812:46815   */\n      dup2\n        /* \"#utility.yul\":46805:46815   */\n      swap1\n      pop\n        /* \"#utility.yul\":46550:46821   */\n      swap3\n      swap2\n      pop\n      pop\n      jump\t// out\n        /* \"#utility.yul\":46827:46964   */\n    tag_480:\n        /* \"#utility.yul\":46881:46886   */\n      0x00\n        /* \"#utility.yul\":46912:46918   */\n      dup2\n        /* \"#utility.yul\":46906:46919   */\n      mload\n        /* \"#utility.yul\":46897:46919   */\n      swap1\n      pop\n        /* \"#utility.yul\":46928:46958   */\n      tag_959\n        /* \"#utility.yul\":46952:46957   */\n      dup2\n        /* \"#utility.yul\":46928:46958   */\n      tag_381\n      jump\t// in\n    tag_959:\n        /* \"#utility.yul\":46827:46964   */\n      swap3\n      swap2\n      pop\n      pop\n      jump\t// out\n        /* \"#utility.yul\":46970:47315   */\n    tag_285:\n        /* \"#utility.yul\":47037:47043   */\n      0x00\n        /* \"#utility.yul\":47086:47088   */\n      0x20\n        /* \"#utility.yul\":47074:47083   */\n      dup3\n        /* \"#utility.yul\":47065:47072   */\n      dup5\n        /* \"#utility.yul\":47061:47084   */\n      sub\n        /* \"#utility.yul\":47057:47089   */\n      slt\n        /* \"#utility.yul\":47054:47173   */\n      iszero\n      tag_961\n      jumpi\n        /* \"#utility.yul\":47092:47171   */\n      tag_962\n      tag_357\n      jump\t// in\n    tag_962:\n        /* \"#utility.yul\":47054:47173   */\n    tag_961:\n        /* \"#utility.yul\":47212:47213   */\n      0x00\n        /* \"#utility.yul\":47237:47298   */\n      tag_963\n        /* \"#utility.yul\":47290:47297   */\n      dup5\n        /* \"#utility.yul\":47281:47287   */\n      dup3\n        /* \"#utility.yul\":47270:47279   */\n      dup6\n        /* \"#utility.yul\":47266:47288   */\n      add\n        /* \"#utility.yul\":47237:47298   */\n      tag_480\n      jump\t// in\n    tag_963:\n        /* \"#utility.yul\":47227:47298   */\n      swap2\n      pop\n        /* \"#utility.yul\":47183:47308   */\n      pop\n        /* \"#utility.yul\":46970:47315   */\n      swap3\n      swap2\n      pop\n      pop\n      jump\t// out\n        /* \"#utility.yul\":47321:47763   */\n    tag_288:\n        /* \"#utility.yul\":47470:47474   */\n      0x00\n        /* \"#utility.yul\":47508:47510   */\n      0x60\n        /* \"#utility.yul\":47497:47506   */\n      dup3\n        /* \"#utility.yul\":47493:47511   */\n      add\n        /* \"#utility.yul\":47485:47511   */\n      swap1\n      pop\n        /* \"#utility.yul\":47521:47592   */\n      tag_965\n        /* \"#utility.yul\":47589:47590   */\n      0x00\n        /* \"#utility.yul\":47578:47587   */\n      dup4\n        /* \"#utility.yul\":47574:47591   */\n      add\n        /* \"#utility.yul\":47565:47571   */\n      dup7\n        /* \"#utility.yul\":47521:47592   */\n      tag_371\n      jump\t// in\n    tag_965:\n        /* \"#utility.yul\":47602:47674   */\n      tag_966\n        /* \"#utility.yul\":47670:47672   */\n      0x20\n        /* \"#utility.yul\":47659:47668   */\n      dup4\n        /* \"#utility.yul\":47655:47673   */\n      add\n        /* \"#utility.yul\":47646:47652   */\n      dup6\n        /* \"#utility.yul\":47602:47674   */\n      tag_371\n      jump\t// in\n    tag_966:\n        /* \"#utility.yul\":47684:47756   */\n      tag_967\n        /* \"#utility.yul\":47752:47754   */\n      0x40\n        /* \"#utility.yul\":47741:47750   */\n      dup4\n        /* \"#utility.yul\":47737:47755   */\n      add\n        /* \"#utility.yul\":47728:47734   */\n      dup5\n        /* \"#utility.yul\":47684:47756   */\n      tag_408\n      jump\t// in\n    tag_967:\n        /* \"#utility.yul\":47321:47763   */\n      swap5\n      swap4\n      pop\n      pop\n      pop\n      pop\n      jump\t// out\n        /* \"#utility.yul\":47769:48298   */\n    tag_301:\n        /* \"#utility.yul\":47936:47940   */\n      0x00\n        /* \"#utility.yul\":47974:47976   */\n      0x60\n        /* \"#utility.yul\":47963:47972   */\n      dup3\n        /* \"#utility.yul\":47959:47977   */\n      add\n        /* \"#utility.yul\":47951:47977   */\n      swap1\n      pop\n        /* \"#utility.yul\":47987:48058   */\n      tag_969\n        /* \"#utility.yul\":48055:48056   */\n      0x00\n        /* \"#utility.yul\":48044:48053   */\n      dup4\n        /* \"#utility.yul\":48040:48057   */\n      add\n        /* \"#utility.yul\":48031:48037   */\n      dup7\n        /* \"#utility.yul\":47987:48058   */\n      tag_408\n      jump\t// in\n    tag_969:\n        /* \"#utility.yul\":48068:48140   */\n      tag_970\n        /* \"#utility.yul\":48136:48138   */\n      0x20\n        /* \"#utility.yul\":48125:48134   */\n      dup4\n        /* \"#utility.yul\":48121:48139   */\n      add\n        /* \"#utility.yul\":48112:48118   */\n      dup6\n        /* \"#utility.yul\":48068:48140   */\n      tag_371\n      jump\t// in\n    tag_970:\n        /* \"#utility.yul\":48187:48196   */\n      dup2\n        /* \"#utility.yul\":48181:48185   */\n      dup2\n        /* \"#utility.yul\":48177:48197   */\n      sub\n        /* \"#utility.yul\":48172:48174   */\n      0x40\n        /* \"#utility.yul\":48161:48170   */\n      dup4\n        /* \"#utility.yul\":48157:48175   */\n      add\n        /* \"#utility.yul\":48150:48198   */\n      mstore\n        /* \"#utility.yul\":48215:48291   */\n      tag_971\n        /* \"#utility.yul\":48286:48290   */\n      dup2\n        /* \"#utility.yul\":48277:48283   */\n      dup5\n        /* \"#utility.yul\":48215:48291   */\n      tag_458\n      jump\t// in\n    tag_971:\n        /* \"#utility.yul\":48207:48291   */\n      swap1\n      pop\n        /* \"#utility.yul\":47769:48298   */\n      swap5\n      swap4\n      pop\n      pop\n      pop\n      pop\n      jump\t// out\n        /* \"#utility.yul\":48304:48636   */\n    tag_310:\n        /* \"#utility.yul\":48425:48429   */\n      0x00\n        /* \"#utility.yul\":48463:48465   */\n      0x40\n        /* \"#utility.yul\":48452:48461   */\n      dup3\n        /* \"#utility.yul\":48448:48466   */\n      add\n        /* \"#utility.yul\":48440:48466   */\n      swap1\n      pop\n        /* \"#utility.yul\":48476:48547   */\n      tag_973\n        /* \"#utility.yul\":48544:48545   */\n      0x00\n        /* \"#utility.yul\":48533:48542   */\n      dup4\n        /* \"#utility.yul\":48529:48546   */\n      add\n        /* \"#utility.yul\":48520:48526   */\n      dup6\n        /* \"#utility.yul\":48476:48547   */\n      tag_408\n      jump\t// in\n    tag_973:\n        /* \"#utility.yul\":48557:48629   */\n      tag_974\n        /* \"#utility.yul\":48625:48627   */\n      0x20\n        /* \"#utility.yul\":48614:48623   */\n      dup4\n        /* \"#utility.yul\":48610:48628   */\n      add\n        /* \"#utility.yul\":48601:48607   */\n      dup5\n        /* \"#utility.yul\":48557:48629   */\n      tag_408\n      jump\t// in\n    tag_974:\n        /* \"#utility.yul\":48304:48636   */\n      swap4\n      swap3\n      pop\n      pop\n      pop\n      jump\t// out\n        /* \"#utility.yul\":48642:48757   */\n    tag_481:\n        /* \"#utility.yul\":48727:48750   */\n      tag_976\n        /* \"#utility.yul\":48744:48749   */\n      dup2\n        /* \"#utility.yul\":48727:48750   */\n      tag_474\n      jump\t// in\n    tag_976:\n        /* \"#utility.yul\":48722:48725   */\n      dup3\n        /* \"#utility.yul\":48715:48751   */\n      mstore\n        /* \"#utility.yul\":48642:48757   */\n      pop\n      pop\n      jump\t// out\n        /* \"#utility.yul\":48763:49201   */\n    tag_314:\n        /* \"#utility.yul\":48910:48914   */\n      0x00\n        /* \"#utility.yul\":48948:48950   */\n      0x60\n        /* \"#utility.yul\":48937:48946   */\n      dup3\n        /* \"#utility.yul\":48933:48951   */\n      add\n        /* \"#utility.yul\":48925:48951   */\n      swap1\n      pop\n        /* \"#utility.yul\":48961:49032   */\n      tag_978\n        /* \"#utility.yul\":49029:49030   */\n      0x00\n        /* \"#utility.yul\":49018:49027   */\n      dup4\n        /* \"#utility.yul\":49014:49031   */\n      add\n        /* \"#utility.yul\":49005:49011   */\n      dup7\n        /* \"#utility.yul\":48961:49032   */\n      tag_371\n      jump\t// in\n    tag_978:\n        /* \"#utility.yul\":49042:49114   */\n      tag_979\n        /* \"#utility.yul\":49110:49112   */\n      0x20\n        /* \"#utility.yul\":49099:49108   */\n      dup4\n        /* \"#utility.yul\":49095:49113   */\n      add\n        /* \"#utility.yul\":49086:49092   */\n      dup6\n        /* \"#utility.yul\":49042:49114   */\n      tag_371\n      jump\t// in\n    tag_979:\n        /* \"#utility.yul\":49124:49194   */\n      tag_980\n        /* \"#utility.yul\":49190:49192   */\n      0x40\n        /* \"#utility.yul\":49179:49188   */\n      dup4\n        /* \"#utility.yul\":49175:49193   */\n      add\n        /* \"#utility.yul\":49166:49172   */\n      dup5\n        /* \"#utility.yul\":49124:49194   */\n      tag_481\n      jump\t// in\n    tag_980:\n        /* \"#utility.yul\":48763:49201   */\n      swap5\n      swap4\n      pop\n      pop\n      pop\n      pop\n      jump\t// out\n        /* \"#utility.yul\":49207:49558   */\n    tag_318:\n        /* \"#utility.yul\":49277:49283   */\n      0x00\n        /* \"#utility.yul\":49326:49328   */\n      0x20\n        /* \"#utility.yul\":49314:49323   */\n      dup3\n        /* \"#utility.yul\":49305:49312   */\n      dup5\n        /* \"#utility.yul\":49301:49324   */\n      sub\n        /* \"#utility.yul\":49297:49329   */\n      slt\n        /* \"#utility.yul\":49294:49413   */\n      iszero\n      tag_982\n      jumpi\n        /* \"#utility.yul\":49332:49411   */\n      tag_983\n      tag_357\n      jump\t// in\n    tag_983:\n        /* \"#utility.yul\":49294:49413   */\n    tag_982:\n        /* \"#utility.yul\":49452:49453   */\n      0x00\n        /* \"#utility.yul\":49477:49541   */\n      tag_984\n        /* \"#utility.yul\":49533:49540   */\n      dup5\n        /* \"#utility.yul\":49524:49530   */\n      dup3\n        /* \"#utility.yul\":49513:49522   */\n      dup6\n        /* \"#utility.yul\":49509:49531   */\n      add\n        /* \"#utility.yul\":49477:49541   */\n      tag_462\n      jump\t// in\n    tag_984:\n        /* \"#utility.yul\":49467:49541   */\n      swap2\n      pop\n        /* \"#utility.yul\":49423:49551   */\n      pop\n        /* \"#utility.yul\":49207:49558   */\n      swap3\n      swap2\n      pop\n      pop\n      jump\t// out\n\n    auxdata: 0xa26469706673582212204e57919614bf541ac81f96b00fcba6aad7a1f6db83d58c24c14147f33236461f64736f6c63430008220033\n}\n",
				"bytecode": {
					"linkReferences": {},
					"object": "6101206040526001600755348015610015575f5ffd5b5060405161418d38038061418d833981810160405281019061003791906103b2565b5f73ffffffffffffffffffffffffffffffffffffffff168673ffffffffffffffffffffffffffffffffffffffff16148061009c57505f73ffffffffffffffffffffffffffffffffffffffff168573ffffffffffffffffffffffffffffffffffffffff16145b806100d257505f73ffffffffffffffffffffffffffffffffffffffff168473ffffffffffffffffffffffffffffffffffffffff16145b8061010857505f73ffffffffffffffffffffffffffffffffffffffff168373ffffffffffffffffffffffffffffffffffffffff16145b8061013e57505f73ffffffffffffffffffffffffffffffffffffffff168273ffffffffffffffffffffffffffffffffffffffff16145b8061017457505f73ffffffffffffffffffffffffffffffffffffffff168173ffffffffffffffffffffffffffffffffffffffff16145b156101ab576040517fd92e233d00000000000000000000000000000000000000000000000000000000815260040160405180910390fd5b855f5f6101000a81548173ffffffffffffffffffffffffffffffffffffffff021916908373ffffffffffffffffffffffffffffffffffffffff1602179055508473ffffffffffffffffffffffffffffffffffffffff1660808173ffffffffffffffffffffffffffffffffffffffff16815250508373ffffffffffffffffffffffffffffffffffffffff1660a08173ffffffffffffffffffffffffffffffffffffffff16815250508273ffffffffffffffffffffffffffffffffffffffff1660c08173ffffffffffffffffffffffffffffffffffffffff16815250508173ffffffffffffffffffffffffffffffffffffffff1660e08173ffffffffffffffffffffffffffffffffffffffff16815250508073ffffffffffffffffffffffffffffffffffffffff166101008173ffffffffffffffffffffffffffffffffffffffff16815250508573ffffffffffffffffffffffffffffffffffffffff165f73ffffffffffffffffffffffffffffffffffffffff167f8be0079c531659141344cd1fd0a4f28419497f9722a3daafe3b4186f6b6457e060405160405180910390a350505050505061043b565b5f5ffd5b5f73ffffffffffffffffffffffffffffffffffffffff82169050919050565b5f61038182610358565b9050919050565b61039181610377565b811461039b575f5ffd5b50565b5f815190506103ac81610388565b92915050565b5f5f5f5f5f5f60c087890312156103cc576103cb610354565b5b5f6103d989828a0161039e565b96505060206103ea89828a0161039e565b95505060406103fb89828a0161039e565b945050606061040c89828a0161039e565b935050608061041d89828a0161039e565b92505060a061042e89828a0161039e565b9150509295509295509295565b60805160a05160c05160e05161010051613cdd6104b05f395f8181610f82015261220e01525f8181610deb015261215401525f8181610f5e015261209401525f8181610f3a0152611fd401525f818161065d01528181610bf001528181610da00152818161136801526115eb0152613cdd5ff3fe60806040526004361061010c575f3560e01c806378ed1c8c11610094578063f04f270711610063578063f04f27071461033f578063f2fde38b14610367578063fa461e331461038f578063fa483e72146103b7578063fad6b994146103df57610113565b806378ed1c8c1461029b5780638da5cb5b146102c5578063b4656158146102ef578063e5711e8b1461031757610113565b8063491e69d3116100db578063491e69d3146101cd5780634dad71d5146101f5578063558a72971461021f5780635b54918214610247578063669d6be21461027157610113565b80631291f79d1461011757806313e7c9d81461013f578063158274a51461017b5780632c8958f6146101a557610113565b3661011357005b5f5ffd5b348015610122575f5ffd5b5061013d60048036038101906101389190612647565b610407565b005b34801561014a575f5ffd5b50610165600480360381019061016091906126c0565b61063e565b6040516101729190612705565b60405180910390f35b348015610186575f5ffd5b5061018f61065b565b60405161019c919061272d565b60405180910390f35b3480156101b0575f5ffd5b506101cb60048036038101906101c691906127da565b61067f565b005b3480156101d8575f5ffd5b506101f360048036038101906101ee919061286d565b610693565b005b348015610200575f5ffd5b50610209610de9565b604051610216919061272d565b60405180910390f35b34801561022a575f5ffd5b5061024560048036038101906102409190612903565b610e0d565b005b348015610252575f5ffd5b5061025b610f38565b604051610268919061272d565b60405180910390f35b34801561027c575f5ffd5b50610285610f5c565b604051610292919061272d565b60405180910390f35b3480156102a6575f5ffd5b506102af610f80565b6040516102bc919061272d565b60405180910390f35b3480156102d0575f5ffd5b506102d9610fa4565b6040516102e6919061272d565b60405180910390f35b3480156102fa575f5ffd5b5061031560048036038101906103109190612941565b610fc8565b005b348015610322575f5ffd5b5061033d6004803603810190610338919061297f565b611177565b005b34801561034a575f5ffd5b5061036560048036038101906103609190612cc2565b611322565b005b348015610372575f5ffd5b5061038d600480360381019061038891906126c0565b61168d565b005b34801561039a575f5ffd5b506103b560048036038101906103b091906127da565b611838565b005b3480156103c2575f5ffd5b506103dd60048036038101906103d891906127da565b61184c565b005b3480156103ea575f5ffd5b506104056004803603810190610400919061297f565b611860565b005b5f5f9054906101000a900473ffffffffffffffffffffffffffffffffffffffff1673ffffffffffffffffffffffffffffffffffffffff163373ffffffffffffffffffffffffffffffffffffffff161461048c576040517f82b4290000000000000000000000000000000000000000000000000000000000815260040160405180910390fd5b6001600754146104c8576040517f82b4290000000000000000000000000000000000000000000000000000000000815260040160405180910390fd5b60026007819055505f73ffffffffffffffffffffffffffffffffffffffff168273ffffffffffffffffffffffffffffffffffffffff1603610535576040517fd92e233d00000000000000000000000000000000000000000000000000000000815260040160405180910390fd5b5f8273ffffffffffffffffffffffffffffffffffffffff168260405161055a90612dc3565b5f6040518083038185875af1925050503d805f8114610594576040519150601f19603f3d011682016040523d82523d5f602084013e610599565b606091505b50509050806105e3575f83836040517fbf182be80000000000000000000000000000000000000000000000000000000081526004016105da93929190612e41565b60405180910390fd5b8273ffffffffffffffffffffffffffffffffffffffff167fe3eb98b7fe2a0c1d490b92af73eeae611e9b00ab3c3f70b20bd7bb43f67a0f43836040516106299190612e76565b60405180910390a25060016007819055505050565b6001602052805f5260405f205f915054906101000a900460ff1681565b7f000000000000000000000000000000000000000000000000000000000000000081565b61068d6003858585856119ce565b50505050565b5f5f9054906101000a900473ffffffffffffffffffffffffffffffffffffffff1673ffffffffffffffffffffffffffffffffffffffff163373ffffffffffffffffffffffffffffffffffffffff1614158015610736575060015f3373ffffffffffffffffffffffffffffffffffffffff1673ffffffffffffffffffffffffffffffffffffffff1681526020019081526020015f205f9054906101000a900460ff16155b1561076d576040517f82b4290000000000000000000000000000000000000000000000000000000000815260040160405180910390fd5b6001600754146107a9576040517f82b4290000000000000000000000000000000000000000000000000000000000815260040160405180910390fd5b600260078190555080604001354211156107ef576040517f1ab7da6b00000000000000000000000000000000000000000000000000000000815260040160405180910390fd5b5f8180608001906108009190612e9b565b905090505f810361083d576040517fea60ab1d00000000000000000000000000000000000000000000000000000000815260040160405180910390fd5b600c811115610878576040517ff5dedbff00000000000000000000000000000000000000000000000000000000815260040160405180910390fd5b5f83036108b1576040517f946302fe00000000000000000000000000000000000000000000000000000000815260040160405180910390fd5b5f73ffffffffffffffffffffffffffffffffffffffff168473ffffffffffffffffffffffffffffffffffffffff16148061092757505f73ffffffffffffffffffffffffffffffffffffffff16825f01602081019061090f91906126c0565b73ffffffffffffffffffffffffffffffffffffffff16145b1561095e576040517fd92e233d00000000000000000000000000000000000000000000000000000000815260040160405180910390fd5b5f82806080019061096f9190612e9b565b604051602001610980929190613129565b604051602081830303815290604052805190602001209050826060013581146109d5576040517fc858adff00000000000000000000000000000000000000000000000000000000815260040160405180910390fd5b5f835f0160208101906109e891906126c0565b73ffffffffffffffffffffffffffffffffffffffff166370a08231306040518263ffffffff1660e01b8152600401610a20919061272d565b602060405180830381865afa158015610a3b573d5f5f3e3d5ffd5b505050506040513d601f19601f82011682018060405250810190610a5f919061315f565b9050600160025f6101000a81548160ff021916908360ff16021790555081600381905550835f016020810190610a9591906126c0565b60045f6101000a81548173ffffffffffffffffffffffffffffffffffffffff021916908373ffffffffffffffffffffffffffffffffffffffff1602179055508360200135600581905550806006819055505f600167ffffffffffffffff811115610b0257610b016129df565b5b604051908082528060200260200182016040528015610b305781602001602082028036833780820191505090505b50905086815f81518110610b4757610b4661318a565b5b602002602001019073ffffffffffffffffffffffffffffffffffffffff16908173ffffffffffffffffffffffffffffffffffffffff16815250505f600167ffffffffffffffff811115610b9d57610b9c6129df565b5b604051908082528060200260200182016040528015610bcb5781602001602082028036833780820191505090505b50905086815f81518110610be257610be161318a565b5b6020026020010181815250507f000000000000000000000000000000000000000000000000000000000000000073ffffffffffffffffffffffffffffffffffffffff16635c38449e3084848a604051602001610c3e9190613390565b6040516020818303038152906040526040518563ffffffff1660e01b8152600401610c6c94939291906135a0565b5f604051808303815f87803b158015610c83575f5ffd5b505af1158015610c95573d5f5f3e3d5ffd5b505050505f865f016020810190610cac91906126c0565b73ffffffffffffffffffffffffffffffffffffffff166370a08231306040518263ffffffff1660e01b8152600401610ce4919061272d565b602060405180830381865afa158015610cff573d5f5f3e3d5ffd5b505050506040513d601f19601f82011682018060405250810190610d23919061315f565b90505f8482610d329190613625565b9050610d3c611b9a565b85885f016020810190610d4f91906126c0565b73ffffffffffffffffffffffffffffffffffffffff163373ffffffffffffffffffffffffffffffffffffffff167f2790eac69d46d24bb29b55a23b12e2e49076dc2a9fdcb340e641de33fca2c5dd847f0000000000000000000000000000000000000000000000000000000000000000604051610dcd929190613658565b60405180910390a4505050505050506001600781905550505050565b7f000000000000000000000000000000000000000000000000000000000000000081565b5f5f9054906101000a900473ffffffffffffffffffffffffffffffffffffffff1673ffffffffffffffffffffffffffffffffffffffff163373ffffffffffffffffffffffffffffffffffffffff1614610e92576040517f82b4290000000000000000000000000000000000000000000000000000000000815260040160405180910390fd5b8060015f8473ffffffffffffffffffffffffffffffffffffffff1673ffffffffffffffffffffffffffffffffffffffff1681526020019081526020015f205f6101000a81548160ff0219169083151502179055508173ffffffffffffffffffffffffffffffffffffffff167f1a594081ae893ab78e67d9b9e843547318164322d32c65369d78a96172d9dc8f82604051610f2c9190612705565b60405180910390a25050565b7f000000000000000000000000000000000000000000000000000000000000000081565b7f000000000000000000000000000000000000000000000000000000000000000081565b7f000000000000000000000000000000000000000000000000000000000000000081565b5f5f9054906101000a900473ffffffffffffffffffffffffffffffffffffffff1681565b5f5f9054906101000a900473ffffffffffffffffffffffffffffffffffffffff1673ffffffffffffffffffffffffffffffffffffffff163373ffffffffffffffffffffffffffffffffffffffff161415801561106b575060015f3373ffffffffffffffffffffffffffffffffffffffff1673ffffffffffffffffffffffffffffffffffffffff1681526020019081526020015f205f9054906101000a900460ff16155b156110a2576040517f82b4290000000000000000000000000000000000000000000000000000000000815260040160405180910390fd5b6001600754146110de576040517f82b4290000000000000000000000000000000000000000000000000000000000815260040160405180910390fd5b600260078190555061111182827fffffffffffffffffffffffffffffffffffffffffffffffffffffffffffffffff611c0d565b8073ffffffffffffffffffffffffffffffffffffffff168273ffffffffffffffffffffffffffffffffffffffff167f8d936a3b74312b60e024ee1b476014e8bd0523e8355d93ff5a0787567fe92f5f60405160405180910390a360016007819055505050565b5f5f9054906101000a900473ffffffffffffffffffffffffffffffffffffffff1673ffffffffffffffffffffffffffffffffffffffff163373ffffffffffffffffffffffffffffffffffffffff16146111fc576040517f82b4290000000000000000000000000000000000000000000000000000000000815260040160405180910390fd5b600160075414611238576040517f82b4290000000000000000000000000000000000000000000000000000000000815260040160405180910390fd5b60026007819055505f73ffffffffffffffffffffffffffffffffffffffff168273ffffffffffffffffffffffffffffffffffffffff16036112a5576040517fd92e233d00000000000000000000000000000000000000000000000000000000815260040160405180910390fd5b6112b0838383611c6d565b8173ffffffffffffffffffffffffffffffffffffffff168373ffffffffffffffffffffffffffffffffffffffff167f4143f7b5cb6ea007914c32b8a3e64cebc051d7f493fa0755454da1e47701e1258360405161130d9190612e76565b60405180910390a36001600781905550505050565b60016007541461135e576040517f82b4290000000000000000000000000000000000000000000000000000000000815260040160405180910390fd5b60026007819055507f000000000000000000000000000000000000000000000000000000000000000073ffffffffffffffffffffffffffffffffffffffff163373ffffffffffffffffffffffffffffffffffffffff16146113eb576040517ffc30532900000000000000000000000000000000000000000000000000000000815260040160405180910390fd5b600160ff1660025f9054906101000a900460ff1660ff1614611439576040517fadd4adc000000000000000000000000000000000000000000000000000000000815260040160405180910390fd5b5f8180602001905181019061144e919061391d565b905060035481606001511461148f576040517fc858adff00000000000000000000000000000000000000000000000000000000815260040160405180910390fd5b60045f9054906101000a900473ffffffffffffffffffffffffffffffffffffffff1673ffffffffffffffffffffffffffffffffffffffff16815f015173ffffffffffffffffffffffffffffffffffffffff1614611518576040517fadd4adc000000000000000000000000000000000000000000000000000000000815260040160405180910390fd5b600554816020015114611557576040517fadd4adc000000000000000000000000000000000000000000000000000000000815260040160405180910390fd5b8060400151421115611595576040517f1ab7da6b00000000000000000000000000000000000000000000000000000000815260040160405180910390fd5b6002805f6101000a81548160ff021916908360ff1602179055506115bc8160800151611dc6565b5f855190505f5b8181101561165a5761164f8782815181106115e1576115e061318a565b5b60200260200101517f000000000000000000000000000000000000000000000000000000000000000087848151811061161d5761161c61318a565b5b60200260200101518985815181106116385761163761318a565b5b602002602001015161164a9190613964565b611c6d565b8060010190506115c3565b505f60025f6101000a81548160ff021916908360ff16021790555061167d611ec6565b5050600160078190555050505050565b5f5f9054906101000a900473ffffffffffffffffffffffffffffffffffffffff1673ffffffffffffffffffffffffffffffffffffffff163373ffffffffffffffffffffffffffffffffffffffff1614611712576040517f82b4290000000000000000000000000000000000000000000000000000000000815260040160405180910390fd5b5f73ffffffffffffffffffffffffffffffffffffffff168173ffffffffffffffffffffffffffffffffffffffff1603611777576040517fd92e233d00000000000000000000000000000000000000000000000000000000815260040160405180910390fd5b5f5f5f9054906101000a900473ffffffffffffffffffffffffffffffffffffffff169050815f5f6101000a81548173ffffffffffffffffffffffffffffffffffffffff021916908373ffffffffffffffffffffffffffffffffffffffff1602179055508173ffffffffffffffffffffffffffffffffffffffff168173ffffffffffffffffffffffffffffffffffffffff167f8be0079c531659141344cd1fd0a4f28419497f9722a3daafe3b4186f6b6457e060405160405180910390a35050565b6118466001858585856119ce565b50505050565b61185a6004858585856119ce565b50505050565b60016007541461189c576040517f82b4290000000000000000000000000000000000000000000000000000000000815260040160405180910390fd5b60026007819055503073ffffffffffffffffffffffffffffffffffffffff163373ffffffffffffffffffffffffffffffffffffffff161415801561192c57505f5f9054906101000a900473ffffffffffffffffffffffffffffffffffffffff1673ffffffffffffffffffffffffffffffffffffffff163373ffffffffffffffffffffffffffffffffffffffff1614155b801561197f575060015f3373ffffffffffffffffffffffffffffffffffffffff1673ffffffffffffffffffffffffffffffffffffffff1681526020019081526020015f205f9054906101000a900460ff16155b156119b6576040517f82b4290000000000000000000000000000000000000000000000000000000000815260040160405180910390fd5b6119c1838383611c0d565b6001600781905550505050565b600260ff1660025f9054906101000a900460ff1660ff1614611a1c576040517fc21d53e800000000000000000000000000000000000000000000000000000000815260040160405180910390fd5b5f8282810190611a2c9190613a7a565b90508560ff16815f015160ff1614611a7e57805f01516040517ff850442b000000000000000000000000000000000000000000000000000000008152600401611a759190613ab4565b60405180910390fd5b5f611a8882611fc0565b90505f73ffffffffffffffffffffffffffffffffffffffff168173ffffffffffffffffffffffffffffffffffffffff1603611aef576040517f936198e900000000000000000000000000000000000000000000000000000000815260040160405180910390fd5b8073ffffffffffffffffffffffffffffffffffffffff163373ffffffffffffffffffffffffffffffffffffffff1614611b615780336040517ff2062559000000000000000000000000000000000000000000000000000000008152600401611b58929190613acd565b60405180910390fd5b5f861315611b7957611b7882602001513388611c6d565b5b5f851315611b9157611b9082604001513387611c6d565b5b50505050505050565b5f60025f6101000a81548160ff021916908360ff1602179055505f5f1b6003819055505f60045f6101000a81548173ffffffffffffffffffffffffffffffffffffffff021916908373ffffffffffffffffffffffffffffffffffffffff1602179055505f6005819055505f600681905550565b5f611c19843085612300565b9050818110611c285750611c68565b5f8114611c3b57611c3a84845f612452565b5b611c6684847fffffffffffffffffffffffffffffffffffffffffffffffffffffffffffffffff612452565b505b505050565b5f5f8473ffffffffffffffffffffffffffffffffffffffff1663a9059cbb60e01b8585604051602401611ca1929190613af4565b604051602081830303815290604052907bffffffffffffffffffffffffffffffffffffffffffffffffffffffff19166020820180517bffffffffffffffffffffffffffffffffffffffffffffffffffffffff8381831617835250505050604051611d0b9190613b4b565b5f604051808303815f865af19150503d805f8114611d44576040519150601f19603f3d011682016040523d82523d5f602084013e611d49565b606091505b5091509150811580611d7957505f815114158015611d78575080806020019051810190611d769190613b75565b155b5b15611dbf578484846040517fbf182be8000000000000000000000000000000000000000000000000000000008152600401611db693929190613ba0565b60405180910390fd5b5050505050565b5f815190505f5b81811015611ec1575f838281518110611de957611de861318a565b5b602002602001015190505f5f825f015173ffffffffffffffffffffffffffffffffffffffff1683602001518460400151604051611e269190613b4b565b5f6040518083038185875af1925050503d805f8114611e60576040519150601f19603f3d011682016040523d82523d5f602084013e611e65565b606091505b509150915081611eb35783835f0151826040517f0f434573000000000000000000000000000000000000000000000000000000008152600401611eaa93929190613bd5565b60405180910390fd5b836001019350505050611dcd565b505050565b5f60045f9054906101000a900473ffffffffffffffffffffffffffffffffffffffff1673ffffffffffffffffffffffffffffffffffffffff166370a08231306040518263ffffffff1660e01b8152600401611f21919061272d565b602060405180830381865afa158015611f3c573d5f5f3e3d5ffd5b505050506040513d601f19601f82011682018060405250810190611f60919061315f565b90505f600554600654611f739190613964565b905080821015611fbc5781816040517f4e88422a000000000000000000000000000000000000000000000000000000008152600401611fb3929190613c11565b60405180910390fd5b5050565b5f600160ff16825f015160ff1603612081577f000000000000000000000000000000000000000000000000000000000000000073ffffffffffffffffffffffffffffffffffffffff16631698ee828360200151846040015185606001516040518463ffffffff1660e01b815260040161203b93929190613c47565b602060405180830381865afa158015612056573d5f5f3e3d5ffd5b505050506040513d601f19601f8201168201806040525081019061207a9190613c7c565b90506122fb565b600260ff16825f015160ff1603612141577f000000000000000000000000000000000000000000000000000000000000000073ffffffffffffffffffffffffffffffffffffffff16631698ee828360200151846040015185606001516040518463ffffffff1660e01b81526004016120fb93929190613c47565b602060405180830381865afa158015612116573d5f5f3e3d5ffd5b505050506040513d601f19601f8201168201806040525081019061213a9190613c7c565b90506122fb565b600360ff16825f015160ff16036121fb577f000000000000000000000000000000000000000000000000000000000000000073ffffffffffffffffffffffffffffffffffffffff1663d9a641e1836020015184604001516040518363ffffffff1660e01b81526004016121b5929190613acd565b602060405180830381865afa1580156121d0573d5f5f3e3d5ffd5b505050506040513d601f19601f820116820180604052508101906121f49190613c7c565b90506122fb565b600460ff16825f015160ff16036122bb577f000000000000000000000000000000000000000000000000000000000000000073ffffffffffffffffffffffffffffffffffffffff16631698ee828360200151846040015185606001516040518463ffffffff1660e01b815260040161227593929190613c47565b602060405180830381865afa158015612290573d5f5f3e3d5ffd5b505050506040513d601f19601f820116820180604052508101906122b49190613c7c565b90506122fb565b815f01516040517ff850442b0000000000000000000000000000000000000000000000000000000081526004016122f29190613ab4565b60405180910390fd5b919050565b5f5f5f8573ffffffffffffffffffffffffffffffffffffffff1663dd62ed3e60e01b8686604051602401612335929190613acd565b604051602081830303815290604052907bffffffffffffffffffffffffffffffffffffffffffffffffffffffff19166020820180517bffffffffffffffffffffffffffffffffffffffffffffffffffffffff838183161783525050505060405161239f9190613b4b565b5f60405180830381855afa9150503d805f81146123d7576040519150601f19603f3d011682016040523d82523d5f602084013e6123dc565b606091505b50915091508115806123ef575060208151105b156124335785846040517f1b6c83ab00000000000000000000000000000000000000000000000000000000815260040161242a929190613acd565b60405180910390fd5b80806020019051810190612447919061315f565b925050509392505050565b5f5f8473ffffffffffffffffffffffffffffffffffffffff1663095ea7b360e01b8585604051602401612486929190613af4565b604051602081830303815290604052907bffffffffffffffffffffffffffffffffffffffffffffffffffffffff19166020820180517bffffffffffffffffffffffffffffffffffffffffffffffffffffffff83818316178352505050506040516124f09190613b4b565b5f604051808303815f865af19150503d805f8114612529576040519150601f19603f3d011682016040523d82523d5f602084013e61252e565b606091505b509150915081158061255e57505f81511415801561255d57508080602001905181019061255b9190613b75565b155b5b156125a25784846040517f1b6c83ab000000000000000000000000000000000000000000000000000000008152600401612599929190613acd565b60405180910390fd5b5050505050565b5f604051905090565b5f5ffd5b5f5ffd5b5f73ffffffffffffffffffffffffffffffffffffffff82169050919050565b5f6125e3826125ba565b9050919050565b6125f3816125d9565b81146125fd575f5ffd5b50565b5f8135905061260e816125ea565b92915050565b5f819050919050565b61262681612614565b8114612630575f5ffd5b50565b5f813590506126418161261d565b92915050565b5f5f6040838503121561265d5761265c6125b2565b5b5f61266a85828601612600565b925050602061267b85828601612633565b9150509250929050565b5f61268f826125ba565b9050919050565b61269f81612685565b81146126a9575f5ffd5b50565b5f813590506126ba81612696565b92915050565b5f602082840312156126d5576126d46125b2565b5b5f6126e2848285016126ac565b91505092915050565b5f8115159050919050565b6126ff816126eb565b82525050565b5f6020820190506127185f8301846126f6565b92915050565b61272781612685565b82525050565b5f6020820190506127405f83018461271e565b92915050565b5f819050919050565b61275881612746565b8114612762575f5ffd5b50565b5f813590506127738161274f565b92915050565b5f5ffd5b5f5ffd5b5f5ffd5b5f5f83601f84011261279a57612799612779565b5b8235905067ffffffffffffffff8111156127b7576127b661277d565b5b6020830191508360018202830111156127d3576127d2612781565b5b9250929050565b5f5f5f5f606085870312156127f2576127f16125b2565b5b5f6127ff87828801612765565b945050602061281087828801612765565b935050604085013567ffffffffffffffff811115612831576128306125b6565b5b61283d87828801612785565b925092505092959194509250565b5f5ffd5b5f60a082840312156128645761286361284b565b5b81905092915050565b5f5f5f60608486031215612884576128836125b2565b5b5f612891868287016126ac565b93505060206128a286828701612633565b925050604084013567ffffffffffffffff8111156128c3576128c26125b6565b5b6128cf8682870161284f565b9150509250925092565b6128e2816126eb565b81146128ec575f5ffd5b50565b5f813590506128fd816128d9565b92915050565b5f5f60408385031215612919576129186125b2565b5b5f612926858286016126ac565b9250506020612937858286016128ef565b9150509250929050565b5f5f60408385031215612957576129566125b2565b5b5f612964858286016126ac565b9250506020612975858286016126ac565b9150509250929050565b5f5f5f60608486031215612996576129956125b2565b5b5f6129a3868287016126ac565b93505060206129b4868287016126ac565b92505060406129c586828701612633565b9150509250925092565b5f601f19601f8301169050919050565b7f4e487b71000000000000000000000000000000000000000000000000000000005f52604160045260245ffd5b612a15826129cf565b810181811067ffffffffffffffff82111715612a3457612a336129df565b5b80604052505050565b5f612a466125a9565b9050612a528282612a0c565b919050565b5f67ffffffffffffffff821115612a7157612a706129df565b5b602082029050602081019050919050565b5f612a8c82612685565b9050919050565b612a9c81612a82565b8114612aa6575f5ffd5b50565b5f81359050612ab781612a93565b92915050565b5f612acf612aca84612a57565b612a3d565b90508083825260208201905060208402830185811115612af257612af1612781565b5b835b81811015612b1b5780612b078882612aa9565b845260208401935050602081019050612af4565b5050509392505050565b5f82601f830112612b3957612b38612779565b5b8135612b49848260208601612abd565b91505092915050565b5f67ffffffffffffffff821115612b6c57612b6b6129df565b5b602082029050602081019050919050565b5f612b8f612b8a84612b52565b612a3d565b90508083825260208201905060208402830185811115612bb257612bb1612781565b5b835b81811015612bdb5780612bc78882612633565b845260208401935050602081019050612bb4565b5050509392505050565b5f82601f830112612bf957612bf8612779565b5b8135612c09848260208601612b7d565b91505092915050565b5f5ffd5b5f67ffffffffffffffff821115612c3057612c2f6129df565b5b612c39826129cf565b9050602081019050919050565b828183375f83830152505050565b5f612c66612c6184612c16565b612a3d565b905082815260208101848484011115612c8257612c81612c12565b5b612c8d848285612c46565b509392505050565b5f82601f830112612ca957612ca8612779565b5b8135612cb9848260208601612c54565b91505092915050565b5f5f5f5f60808587031215612cda57612cd96125b2565b5b5f85013567ffffffffffffffff811115612cf757612cf66125b6565b5b612d0387828801612b25565b945050602085013567ffffffffffffffff811115612d2457612d236125b6565b5b612d3087828801612be5565b935050604085013567ffffffffffffffff811115612d5157612d506125b6565b5b612d5d87828801612be5565b925050606085013567ffffffffffffffff811115612d7e57612d7d6125b6565b5b612d8a87828801612c95565b91505092959194509250565b5f81905092915050565b50565b5f612dae5f83612d96565b9150612db982612da0565b5f82019050919050565b5f612dcd82612da3565b9150819050919050565b5f819050919050565b5f612dfa612df5612df0846125ba565b612dd7565b6125ba565b9050919050565b5f612e0b82612de0565b9050919050565b5f612e1c82612e01565b9050919050565b612e2c81612e12565b82525050565b612e3b81612614565b82525050565b5f606082019050612e545f83018661271e565b612e616020830185612e23565b612e6e6040830184612e32565b949350505050565b5f602082019050612e895f830184612e32565b92915050565b5f5ffd5b5f5ffd5b5f5ffd5b5f5f83356001602003843603038112612eb757612eb6612e8f565b5b80840192508235915067ffffffffffffffff821115612ed957612ed8612e93565b5b602083019250602082023603831315612ef557612ef4612e97565b5b509250929050565b5f82825260208201905092915050565b5f819050919050565b5f612f2460208401846126ac565b905092915050565b612f3581612685565b82525050565b5f612f496020840184612633565b905092915050565b612f5a81612614565b82525050565b5f5ffd5b5f5ffd5b5f5ffd5b5f5f83356001602003843603038112612f8857612f87612f68565b5b83810192508235915060208301925067ffffffffffffffff821115612fb057612faf612f60565b5b600182023603831315612fc657612fc5612f64565b5b509250929050565b5f82825260208201905092915050565b5f612fe98385612fce565b9350612ff6838584612c46565b612fff836129cf565b840190509392505050565b5f6060830161301b5f840184612f16565b6130275f860182612f2c565b506130356020840184612f3b565b6130426020860182612f51565b506130506040840184612f6c565b8583036040870152613063838284612fde565b925050508091505092915050565b5f61307c838361300a565b905092915050565b5f8235600160600383360303811261309f5761309e612f68565b5b82810191505092915050565b5f602082019050919050565b5f6130c28385612efd565b9350836020840285016130d484612f0d565b805f5b878110156131175784840389526130ee8284613084565b6130f88582613071565b9450613103836130ab565b925060208a019950506001810190506130d7565b50829750879450505050509392505050565b5f6020820190508181035f8301526131428184866130b7565b90509392505050565b5f815190506131598161261d565b92915050565b5f60208284031215613174576131736125b2565b5b5f6131818482850161314b565b91505092915050565b7f4e487b71000000000000000000000000000000000000000000000000000000005f52603260045260245ffd5b5f819050919050565b6131c9816131b7565b81146131d3575f5ffd5b50565b5f813590506131e4816131c0565b92915050565b5f6131f860208401846131d6565b905092915050565b613209816131b7565b82525050565b5f5f8335600160200384360303811261322b5761322a612f68565b5b83810192508235915060208301925067ffffffffffffffff82111561325357613252612f60565b5b60208202360383131561326957613268612f64565b5b509250929050565b5f82825260208201905092915050565b5f61328c8385613271565b93508360208402850161329e84612f0d565b805f5b878110156132e15784840389526132b88284613084565b6132c28582613071565b94506132cd836130ab565b925060208a019950506001810190506132a1565b50829750879450505050509392505050565b5f60a083016133045f840184612f16565b6133105f860182612f2c565b5061331e6020840184612f3b565b61332b6020860182612f51565b506133396040840184612f3b565b6133466040860182612f51565b5061335460608401846131ea565b6133616060860182613200565b5061336f608084018461320f565b8583036080870152613382838284613281565b925050508091505092915050565b5f6020820190508181035f8301526133a881846132f3565b905092915050565b5f6133ba82612e01565b9050919050565b6133ca816133b0565b82525050565b5f81519050919050565b5f82825260208201905092915050565b5f819050602082019050919050565b5f61340382612e01565b9050919050565b613413816133f9565b82525050565b5f613424838361340a565b60208301905092915050565b5f602082019050919050565b5f613446826133d0565b61345081856133da565b935061345b836133ea565b805f5b8381101561348b5781516134728882613419565b975061347d83613430565b92505060018101905061345e565b5085935050505092915050565b5f81519050919050565b5f82825260208201905092915050565b5f819050602082019050919050565b5f6134cc8383612f51565b60208301905092915050565b5f602082019050919050565b5f6134ee82613498565b6134f881856134a2565b9350613503836134b2565b805f5b8381101561353357815161351a88826134c1565b9750613525836134d8565b925050600181019050613506565b5085935050505092915050565b5f81519050919050565b5f82825260208201905092915050565b8281835e5f83830152505050565b5f61357282613540565b61357c818561354a565b935061358c81856020860161355a565b613595816129cf565b840191505092915050565b5f6080820190506135b35f8301876133c1565b81810360208301526135c5818661343c565b905081810360408301526135d981856134e4565b905081810360608301526135ed8184613568565b905095945050505050565b7f4e487b71000000000000000000000000000000000000000000000000000000005f52601160045260245ffd5b5f61362f82612614565b915061363a83612614565b9250828203905081811115613652576136516135f8565b5b92915050565b5f60408201905061366b5f830185612e32565b613678602083018461271e565b9392505050565b5f5ffd5b5f5ffd5b5f8151905061369581612696565b92915050565b5f815190506136a9816131c0565b92915050565b5f67ffffffffffffffff8211156136c9576136c86129df565b5b602082029050602081019050919050565b5f6136ec6136e784612c16565b612a3d565b90508281526020810184848401111561370857613707612c12565b5b61371384828561355a565b509392505050565b5f82601f83011261372f5761372e612779565b5b815161373f8482602086016136da565b91505092915050565b5f6060828403121561375d5761375c61367f565b5b6137676060612a3d565b90505f61377684828501613687565b5f8301525060206137898482850161314b565b602083015250604082015167ffffffffffffffff8111156137ad576137ac613683565b5b6137b98482850161371b565b60408301525092915050565b5f6137d76137d2846136af565b612a3d565b905080838252602082019050602084028301858111156137fa576137f9612781565b5b835b8181101561384157805167ffffffffffffffff81111561381f5761381e612779565b5b80860161382c8982613748565b855260208501945050506020810190506137fc565b5050509392505050565b5f82601f83011261385f5761385e612779565b5b815161386f8482602086016137c5565b91505092915050565b5f60a0828403121561388d5761388c61367f565b5b61389760a0612a3d565b90505f6138a684828501613687565b5f8301525060206138b98482850161314b565b60208301525060406138cd8482850161314b565b60408301525060606138e18482850161369b565b606083015250608082015167ffffffffffffffff81111561390557613904613683565b5b6139118482850161384b565b60808301525092915050565b5f60208284031215613932576139316125b2565b5b5f82015167ffffffffffffffff81111561394f5761394e6125b6565b5b61395b84828501613878565b91505092915050565b5f61396e82612614565b915061397983612614565b9250828201905080821115613991576139906135f8565b5b92915050565b5f60ff82169050919050565b6139ac81613997565b81146139b6575f5ffd5b50565b5f813590506139c7816139a3565b92915050565b5f62ffffff82169050919050565b6139e4816139cd565b81146139ee575f5ffd5b50565b5f813590506139ff816139db565b92915050565b5f60808284031215613a1a57613a1961367f565b5b613a246080612a3d565b90505f613a33848285016139b9565b5f830152506020613a46848285016126ac565b6020830152506040613a5a848285016126ac565b6040830152506060613a6e848285016139f1565b60608301525092915050565b5f60808284031215613a8f57613a8e6125b2565b5b5f613a9c84828501613a05565b91505092915050565b613aae81613997565b82525050565b5f602082019050613ac75f830184613aa5565b92915050565b5f604082019050613ae05f83018561271e565b613aed602083018461271e565b9392505050565b5f604082019050613b075f83018561271e565b613b146020830184612e32565b9392505050565b5f613b2582613540565b613b2f8185612d96565b9350613b3f81856020860161355a565b80840191505092915050565b5f613b568284613b1b565b915081905092915050565b5f81519050613b6f816128d9565b92915050565b5f60208284031215613b8a57613b896125b2565b5b5f613b9784828501613b61565b91505092915050565b5f606082019050613bb35f83018661271e565b613bc0602083018561271e565b613bcd6040830184612e32565b949350505050565b5f606082019050613be85f830186612e32565b613bf5602083018561271e565b8181036040830152613c078184613568565b9050949350505050565b5f604082019050613c245f830185612e32565b613c316020830184612e32565b9392505050565b613c41816139cd565b82525050565b5f606082019050613c5a5f83018661271e565b613c67602083018561271e565b613c746040830184613c38565b949350505050565b5f60208284031215613c9157613c906125b2565b5b5f613c9e84828501613687565b9150509291505056fea26469706673582212204e57919614bf541ac81f96b00fcba6aad7a1f6db83d58c24c14147f33236461f64736f6c63430008220033",
					"opcodes": "PUSH2 0x120 PUSH1 0x40 MSTORE PUSH1 0x1 PUSH1 0x7 SSTORE CALLVALUE DUP1 ISZERO PUSH2 0x15 JUMPI PUSH0 PUSH0 REVERT JUMPDEST POP PUSH1 0x40 MLOAD PUSH2 0x418D CODESIZE SUB DUP1 PUSH2 0x418D DUP4 CODECOPY DUP2 DUP2 ADD PUSH1 0x40 MSTORE DUP2 ADD SWAP1 PUSH2 0x37 SWAP2 SWAP1 PUSH2 0x3B2 JUMP JUMPDEST PUSH0 PUSH20 0xFFFFFFFFFFFFFFFFFFFFFFFFFFFFFFFFFFFFFFFF AND DUP7 PUSH20 0xFFFFFFFFFFFFFFFFFFFFFFFFFFFFFFFFFFFFFFFF AND EQ DUP1 PUSH2 0x9C JUMPI POP PUSH0 PUSH20 0xFFFFFFFFFFFFFFFFFFFFFFFFFFFFFFFFFFFFFFFF AND DUP6 PUSH20 0xFFFFFFFFFFFFFFFFFFFFFFFFFFFFFFFFFFFFFFFF AND EQ JUMPDEST DUP1 PUSH2 0xD2 JUMPI POP PUSH0 PUSH20 0xFFFFFFFFFFFFFFFFFFFFFFFFFFFFFFFFFFFFFFFF AND DUP5 PUSH20 0xFFFFFFFFFFFFFFFFFFFFFFFFFFFFFFFFFFFFFFFF AND EQ JUMPDEST DUP1 PUSH2 0x108 JUMPI POP PUSH0 PUSH20 0xFFFFFFFFFFFFFFFFFFFFFFFFFFFFFFFFFFFFFFFF AND DUP4 PUSH20 0xFFFFFFFFFFFFFFFFFFFFFFFFFFFFFFFFFFFFFFFF AND EQ JUMPDEST DUP1 PUSH2 0x13E JUMPI POP PUSH0 PUSH20 0xFFFFFFFFFFFFFFFFFFFFFFFFFFFFFFFFFFFFFFFF AND DUP3 PUSH20 0xFFFFFFFFFFFFFFFFFFFFFFFFFFFFFFFFFFFFFFFF AND EQ JUMPDEST DUP1 PUSH2 0x174 JUMPI POP PUSH0 PUSH20 0xFFFFFFFFFFFFFFFFFFFFFFFFFFFFFFFFFFFFFFFF AND DUP2 PUSH20 0xFFFFFFFFFFFFFFFFFFFFFFFFFFFFFFFFFFFFFFFF AND EQ JUMPDEST ISZERO PUSH2 0x1AB JUMPI PUSH1 0x40 MLOAD PUSH32 0xD92E233D00000000000000000000000000000000000000000000000000000000 DUP2 MSTORE PUSH1 0x4 ADD PUSH1 0x40 MLOAD DUP1 SWAP2 SUB SWAP1 REVERT JUMPDEST DUP6 PUSH0 PUSH0 PUSH2 0x100 EXP DUP2 SLOAD DUP2 PUSH20 0xFFFFFFFFFFFFFFFFFFFFFFFFFFFFFFFFFFFFFFFF MUL NOT AND SWAP1 DUP4 PUSH20 0xFFFFFFFFFFFFFFFFFFFFFFFFFFFFFFFFFFFFFFFF AND MUL OR SWAP1 SSTORE POP DUP5 PUSH20 0xFFFFFFFFFFFFFFFFFFFFFFFFFFFFFFFFFFFFFFFF AND PUSH1 0x80 DUP2 PUSH20 0xFFFFFFFFFFFFFFFFFFFFFFFFFFFFFFFFFFFFFFFF AND DUP2 MSTORE POP POP DUP4 PUSH20 0xFFFFFFFFFFFFFFFFFFFFFFFFFFFFFFFFFFFFFFFF AND PUSH1 0xA0 DUP2 PUSH20 0xFFFFFFFFFFFFFFFFFFFFFFFFFFFFFFFFFFFFFFFF AND DUP2 MSTORE POP POP DUP3 PUSH20 0xFFFFFFFFFFFFFFFFFFFFFFFFFFFFFFFFFFFFFFFF AND PUSH1 0xC0 DUP2 PUSH20 0xFFFFFFFFFFFFFFFFFFFFFFFFFFFFFFFFFFFFFFFF AND DUP2 MSTORE POP POP DUP2 PUSH20 0xFFFFFFFFFFFFFFFFFFFFFFFFFFFFFFFFFFFFFFFF AND PUSH1 0xE0 DUP2 PUSH20 0xFFFFFFFFFFFFFFFFFFFFFFFFFFFFFFFFFFFFFFFF AND DUP2 MSTORE POP POP DUP1 PUSH20 0xFFFFFFFFFFFFFFFFFFFFFFFFFFFFFFFFFFFFFFFF AND PUSH2 0x100 DUP2 PUSH20 0xFFFFFFFFFFFFFFFFFFFFFFFFFFFFFFFFFFFFFFFF AND DUP2 MSTORE POP POP DUP6 PUSH20 0xFFFFFFFFFFFFFFFFFFFFFFFFFFFFFFFFFFFFFFFF AND PUSH0 PUSH20 0xFFFFFFFFFFFFFFFFFFFFFFFFFFFFFFFFFFFFFFFF AND PUSH32 0x8BE0079C531659141344CD1FD0A4F28419497F9722A3DAAFE3B4186F6B6457E0 PUSH1 0x40 MLOAD PUSH1 0x40 MLOAD DUP1 SWAP2 SUB SWAP1 LOG3 POP POP POP POP POP POP PUSH2 0x43B JUMP JUMPDEST PUSH0 PUSH0 REVERT JUMPDEST PUSH0 PUSH20 0xFFFFFFFFFFFFFFFFFFFFFFFFFFFFFFFFFFFFFFFF DUP3 AND SWAP1 POP SWAP2 SWAP1 POP JUMP JUMPDEST PUSH0 PUSH2 0x381 DUP3 PUSH2 0x358 JUMP JUMPDEST SWAP1 POP SWAP2 SWAP1 POP JUMP JUMPDEST PUSH2 0x391 DUP2 PUSH2 0x377 JUMP JUMPDEST DUP2 EQ PUSH2 0x39B JUMPI PUSH0 PUSH0 REVERT JUMPDEST POP JUMP JUMPDEST PUSH0 DUP2 MLOAD SWAP1 POP PUSH2 0x3AC DUP2 PUSH2 0x388 JUMP JUMPDEST SWAP3 SWAP2 POP POP JUMP JUMPDEST PUSH0 PUSH0 PUSH0 PUSH0 PUSH0 PUSH0 PUSH1 0xC0 DUP8 DUP10 SUB SLT ISZERO PUSH2 0x3CC JUMPI PUSH2 0x3CB PUSH2 0x354 JUMP JUMPDEST JUMPDEST PUSH0 PUSH2 0x3D9 DUP10 DUP3 DUP11 ADD PUSH2 0x39E JUMP JUMPDEST SWAP7 POP POP PUSH1 0x20 PUSH2 0x3EA DUP10 DUP3 DUP11 ADD PUSH2 0x39E JUMP JUMPDEST SWAP6 POP POP PUSH1 0x40 PUSH2 0x3FB DUP10 DUP3 DUP11 ADD PUSH2 0x39E JUMP JUMPDEST SWAP5 POP POP PUSH1 0x60 PUSH2 0x40C DUP10 DUP3 DUP11 ADD PUSH2 0x39E JUMP JUMPDEST SWAP4 POP POP PUSH1 0x80 PUSH2 0x41D DUP10 DUP3 DUP11 ADD PUSH2 0x39E JUMP JUMPDEST SWAP3 POP POP PUSH1 0xA0 PUSH2 0x42E DUP10 DUP3 DUP11 ADD PUSH2 0x39E JUMP JUMPDEST SWAP2 POP POP SWAP3 SWAP6 POP SWAP3 SWAP6 POP SWAP3 SWAP6 JUMP JUMPDEST PUSH1 0x80 MLOAD PUSH1 0xA0 MLOAD PUSH1 0xC0 MLOAD PUSH1 0xE0 MLOAD PUSH2 0x100 MLOAD PUSH2 0x3CDD PUSH2 0x4B0 PUSH0 CODECOPY PUSH0 DUP2 DUP2 PUSH2 0xF82 ADD MSTORE PUSH2 0x220E ADD MSTORE PUSH0 DUP2 DUP2 PUSH2 0xDEB ADD MSTORE PUSH2 0x2154 ADD MSTORE PUSH0 DUP2 DUP2 PUSH2 0xF5E ADD MSTORE PUSH2 0x2094 ADD MSTORE PUSH0 DUP2 DUP2 PUSH2 0xF3A ADD MSTORE PUSH2 0x1FD4 ADD MSTORE PUSH0 DUP2 DUP2 PUSH2 0x65D ADD MSTORE DUP2 DUP2 PUSH2 0xBF0 ADD MSTORE DUP2 DUP2 PUSH2 0xDA0 ADD MSTORE DUP2 DUP2 PUSH2 0x1368 ADD MSTORE PUSH2 0x15EB ADD MSTORE PUSH2 0x3CDD PUSH0 RETURN INVALID PUSH1 0x80 PUSH1 0x40 MSTORE PUSH1 0x4 CALLDATASIZE LT PUSH2 0x10C JUMPI PUSH0 CALLDATALOAD PUSH1 0xE0 SHR DUP1 PUSH4 0x78ED1C8C GT PUSH2 0x94 JUMPI DUP1 PUSH4 0xF04F2707 GT PUSH2 0x63 JUMPI DUP1 PUSH4 0xF04F2707 EQ PUSH2 0x33F JUMPI DUP1 PUSH4 0xF2FDE38B EQ PUSH2 0x367 JUMPI DUP1 PUSH4 0xFA461E33 EQ PUSH2 0x38F JUMPI DUP1 PUSH4 0xFA483E72 EQ PUSH2 0x3B7 JUMPI DUP1 PUSH4 0xFAD6B994 EQ PUSH2 0x3DF JUMPI PUSH2 0x113 JUMP JUMPDEST DUP1 PUSH4 0x78ED1C8C EQ PUSH2 0x29B JUMPI DUP1 PUSH4 0x8DA5CB5B EQ PUSH2 0x2C5 JUMPI DUP1 PUSH4 0xB4656158 EQ PUSH2 0x2EF JUMPI DUP1 PUSH4 0xE5711E8B EQ PUSH2 0x317 JUMPI PUSH2 0x113 JUMP JUMPDEST DUP1 PUSH4 0x491E69D3 GT PUSH2 0xDB JUMPI DUP1 PUSH4 0x491E69D3 EQ PUSH2 0x1CD JUMPI DUP1 PUSH4 0x4DAD71D5 EQ PUSH2 0x1F5 JUMPI DUP1 PUSH4 0x558A7297 EQ PUSH2 0x21F JUMPI DUP1 PUSH4 0x5B549182 EQ PUSH2 0x247 JUMPI DUP1 PUSH4 0x669D6BE2 EQ PUSH2 0x271 JUMPI PUSH2 0x113 JUMP JUMPDEST DUP1 PUSH4 0x1291F79D EQ PUSH2 0x117 JUMPI DUP1 PUSH4 0x13E7C9D8 EQ PUSH2 0x13F JUMPI DUP1 PUSH4 0x158274A5 EQ PUSH2 0x17B JUMPI DUP1 PUSH4 0x2C8958F6 EQ PUSH2 0x1A5 JUMPI PUSH2 0x113 JUMP JUMPDEST CALLDATASIZE PUSH2 0x113 JUMPI STOP JUMPDEST PUSH0 PUSH0 REVERT JUMPDEST CALLVALUE DUP1 ISZERO PUSH2 0x122 JUMPI PUSH0 PUSH0 REVERT JUMPDEST POP PUSH2 0x13D PUSH1 0x4 DUP1 CALLDATASIZE SUB DUP2 ADD SWAP1 PUSH2 0x138 SWAP2 SWAP1 PUSH2 0x2647 JUMP JUMPDEST PUSH2 0x407 JUMP JUMPDEST STOP JUMPDEST CALLVALUE DUP1 ISZERO PUSH2 0x14A JUMPI PUSH0 PUSH0 REVERT JUMPDEST POP PUSH2 0x165 PUSH1 0x4 DUP1 CALLDATASIZE SUB DUP2 ADD SWAP1 PUSH2 0x160 SWAP2 SWAP1 PUSH2 0x26C0 JUMP JUMPDEST PUSH2 0x63E JUMP JUMPDEST PUSH1 0x40 MLOAD PUSH2 0x172 SWAP2 SWAP1 PUSH2 0x2705 JUMP JUMPDEST PUSH1 0x40 MLOAD DUP1 SWAP2 SUB SWAP1 RETURN JUMPDEST CALLVALUE DUP1 ISZERO PUSH2 0x186 JUMPI PUSH0 PUSH0 REVERT JUMPDEST POP PUSH2 0x18F PUSH2 0x65B JUMP JUMPDEST PUSH1 0x40 MLOAD PUSH2 0x19C SWAP2 SWAP1 PUSH2 0x272D JUMP JUMPDEST PUSH1 0x40 MLOAD DUP1 SWAP2 SUB SWAP1 RETURN JUMPDEST CALLVALUE DUP1 ISZERO PUSH2 0x1B0 JUMPI PUSH0 PUSH0 REVERT JUMPDEST POP PUSH2 0x1CB PUSH1 0x4 DUP1 CALLDATASIZE SUB DUP2 ADD SWAP1 PUSH2 0x1C6 SWAP2 SWAP1 PUSH2 0x27DA JUMP JUMPDEST PUSH2 0x67F JUMP JUMPDEST STOP JUMPDEST CALLVALUE DUP1 ISZERO PUSH2 0x1D8 JUMPI PUSH0 PUSH0 REVERT JUMPDEST POP PUSH2 0x1F3 PUSH1 0x4 DUP1 CALLDATASIZE SUB DUP2 ADD SWAP1 PUSH2 0x1EE SWAP2 SWAP1 PUSH2 0x286D JUMP JUMPDEST PUSH2 0x693 JUMP JUMPDEST STOP JUMPDEST CALLVALUE DUP1 ISZERO PUSH2 0x200 JUMPI PUSH0 PUSH0 REVERT JUMPDEST POP PUSH2 0x209 PUSH2 0xDE9 JUMP JUMPDEST PUSH1 0x40 MLOAD PUSH2 0x216 SWAP2 SWAP1 PUSH2 0x272D JUMP JUMPDEST PUSH1 0x40 MLOAD DUP1 SWAP2 SUB SWAP1 RETURN JUMPDEST CALLVALUE DUP1 ISZERO PUSH2 0x22A JUMPI PUSH0 PUSH0 REVERT JUMPDEST POP PUSH2 0x245 PUSH1 0x4 DUP1 CALLDATASIZE SUB DUP2 ADD SWAP1 PUSH2 0x240 SWAP2 SWAP1 PUSH2 0x2903 JUMP JUMPDEST PUSH2 0xE0D JUMP JUMPDEST STOP JUMPDEST CALLVALUE DUP1 ISZERO PUSH2 0x252 JUMPI PUSH0 PUSH0 REVERT JUMPDEST POP PUSH2 0x25B PUSH2 0xF38 JUMP JUMPDEST PUSH1 0x40 MLOAD PUSH2 0x268 SWAP2 SWAP1 PUSH2 0x272D JUMP JUMPDEST PUSH1 0x40 MLOAD DUP1 SWAP2 SUB SWAP1 RETURN JUMPDEST CALLVALUE DUP1 ISZERO PUSH2 0x27C JUMPI PUSH0 PUSH0 REVERT JUMPDEST POP PUSH2 0x285 PUSH2 0xF5C JUMP JUMPDEST PUSH1 0x40 MLOAD PUSH2 0x292 SWAP2 SWAP1 PUSH2 0x272D JUMP JUMPDEST PUSH1 0x40 MLOAD DUP1 SWAP2 SUB SWAP1 RETURN JUMPDEST CALLVALUE DUP1 ISZERO PUSH2 0x2A6 JUMPI PUSH0 PUSH0 REVERT JUMPDEST POP PUSH2 0x2AF PUSH2 0xF80 JUMP JUMPDEST PUSH1 0x40 MLOAD PUSH2 0x2BC SWAP2 SWAP1 PUSH2 0x272D JUMP JUMPDEST PUSH1 0x40 MLOAD DUP1 SWAP2 SUB SWAP1 RETURN JUMPDEST CALLVALUE DUP1 ISZERO PUSH2 0x2D0 JUMPI PUSH0 PUSH0 REVERT JUMPDEST POP PUSH2 0x2D9 PUSH2 0xFA4 JUMP JUMPDEST PUSH1 0x40 MLOAD PUSH2 0x2E6 SWAP2 SWAP1 PUSH2 0x272D JUMP JUMPDEST PUSH1 0x40 MLOAD DUP1 SWAP2 SUB SWAP1 RETURN JUMPDEST CALLVALUE DUP1 ISZERO PUSH2 0x2FA JUMPI PUSH0 PUSH0 REVERT JUMPDEST POP PUSH2 0x315 PUSH1 0x4 DUP1 CALLDATASIZE SUB DUP2 ADD SWAP1 PUSH2 0x310 SWAP2 SWAP1 PUSH2 0x2941 JUMP JUMPDEST PUSH2 0xFC8 JUMP JUMPDEST STOP JUMPDEST CALLVALUE DUP1 ISZERO PUSH2 0x322 JUMPI PUSH0 PUSH0 REVERT JUMPDEST POP PUSH2 0x33D PUSH1 0x4 DUP1 CALLDATASIZE SUB DUP2 ADD SWAP1 PUSH2 0x338 SWAP2 SWAP1 PUSH2 0x297F JUMP JUMPDEST PUSH2 0x1177 JUMP JUMPDEST STOP JUMPDEST CALLVALUE DUP1 ISZERO PUSH2 0x34A JUMPI PUSH0 PUSH0 REVERT JUMPDEST POP PUSH2 0x365 PUSH1 0x4 DUP1 CALLDATASIZE SUB DUP2 ADD SWAP1 PUSH2 0x360 SWAP2 SWAP1 PUSH2 0x2CC2 JUMP JUMPDEST PUSH2 0x1322 JUMP JUMPDEST STOP JUMPDEST CALLVALUE DUP1 ISZERO PUSH2 0x372 JUMPI PUSH0 PUSH0 REVERT JUMPDEST POP PUSH2 0x38D PUSH1 0x4 DUP1 CALLDATASIZE SUB DUP2 ADD SWAP1 PUSH2 0x388 SWAP2 SWAP1 PUSH2 0x26C0 JUMP JUMPDEST PUSH2 0x168D JUMP JUMPDEST STOP JUMPDEST CALLVALUE DUP1 ISZERO PUSH2 0x39A JUMPI PUSH0 PUSH0 REVERT JUMPDEST POP PUSH2 0x3B5 PUSH1 0x4 DUP1 CALLDATASIZE SUB DUP2 ADD SWAP1 PUSH2 0x3B0 SWAP2 SWAP1 PUSH2 0x27DA JUMP JUMPDEST PUSH2 0x1838 JUMP JUMPDEST STOP JUMPDEST CALLVALUE DUP1 ISZERO PUSH2 0x3C2 JUMPI PUSH0 PUSH0 REVERT JUMPDEST POP PUSH2 0x3DD PUSH1 0x4 DUP1 CALLDATASIZE SUB DUP2 ADD SWAP1 PUSH2 0x3D8 SWAP2 SWAP1 PUSH2 0x27DA JUMP JUMPDEST PUSH2 0x184C JUMP JUMPDEST STOP JUMPDEST CALLVALUE DUP1 ISZERO PUSH2 0x3EA JUMPI PUSH0 PUSH0 REVERT JUMPDEST POP PUSH2 0x405 PUSH1 0x4 DUP1 CALLDATASIZE SUB DUP2 ADD SWAP1 PUSH2 0x400 SWAP2 SWAP1 PUSH2 0x297F JUMP JUMPDEST PUSH2 0x1860 JUMP JUMPDEST STOP JUMPDEST PUSH0 PUSH0 SWAP1 SLOAD SWAP1 PUSH2 0x100 EXP SWAP1 DIV PUSH20 0xFFFFFFFFFFFFFFFFFFFFFFFFFFFFFFFFFFFFFFFF AND PUSH20 0xFFFFFFFFFFFFFFFFFFFFFFFFFFFFFFFFFFFFFFFF AND CALLER PUSH20 0xFFFFFFFFFFFFFFFFFFFFFFFFFFFFFFFFFFFFFFFF AND EQ PUSH2 0x48C JUMPI PUSH1 0x40 MLOAD PUSH32 0x82B4290000000000000000000000000000000000000000000000000000000000 DUP2 MSTORE PUSH1 0x4 ADD PUSH1 0x40 MLOAD DUP1 SWAP2 SUB SWAP1 REVERT JUMPDEST PUSH1 0x1 PUSH1 0x7 SLOAD EQ PUSH2 0x4C8 JUMPI PUSH1 0x40 MLOAD PUSH32 0x82B4290000000000000000000000000000000000000000000000000000000000 DUP2 MSTORE PUSH1 0x4 ADD PUSH1 0x40 MLOAD DUP1 SWAP2 SUB SWAP1 REVERT JUMPDEST PUSH1 0x2 PUSH1 0x7 DUP2 SWAP1 SSTORE POP PUSH0 PUSH20 0xFFFFFFFFFFFFFFFFFFFFFFFFFFFFFFFFFFFFFFFF AND DUP3 PUSH20 0xFFFFFFFFFFFFFFFFFFFFFFFFFFFFFFFFFFFFFFFF AND SUB PUSH2 0x535 JUMPI PUSH1 0x40 MLOAD PUSH32 0xD92E233D00000000000000000000000000000000000000000000000000000000 DUP2 MSTORE PUSH1 0x4 ADD PUSH1 0x40 MLOAD DUP1 SWAP2 SUB SWAP1 REVERT JUMPDEST PUSH0 DUP3 PUSH20 0xFFFFFFFFFFFFFFFFFFFFFFFFFFFFFFFFFFFFFFFF AND DUP3 PUSH1 0x40 MLOAD PUSH2 0x55A SWAP1 PUSH2 0x2DC3 JUMP JUMPDEST PUSH0 PUSH1 0x40 MLOAD DUP1 DUP4 SUB DUP2 DUP6 DUP8 GAS CALL SWAP3 POP POP POP RETURNDATASIZE DUP1 PUSH0 DUP2 EQ PUSH2 0x594 JUMPI PUSH1 0x40 MLOAD SWAP2 POP PUSH1 0x1F NOT PUSH1 0x3F RETURNDATASIZE ADD AND DUP3 ADD PUSH1 0x40 MSTORE RETURNDATASIZE DUP3 MSTORE RETURNDATASIZE PUSH0 PUSH1 0x20 DUP5 ADD RETURNDATACOPY PUSH2 0x599 JUMP JUMPDEST PUSH1 0x60 SWAP2 POP JUMPDEST POP POP SWAP1 POP DUP1 PUSH2 0x5E3 JUMPI PUSH0 DUP4 DUP4 PUSH1 0x40 MLOAD PUSH32 0xBF182BE800000000000000000000000000000000000000000000000000000000 DUP2 MSTORE PUSH1 0x4 ADD PUSH2 0x5DA SWAP4 SWAP3 SWAP2 SWAP1 PUSH2 0x2E41 JUMP JUMPDEST PUSH1 0x40 MLOAD DUP1 SWAP2 SUB SWAP1 REVERT JUMPDEST DUP3 PUSH20 0xFFFFFFFFFFFFFFFFFFFFFFFFFFFFFFFFFFFFFFFF AND PUSH32 0xE3EB98B7FE2A0C1D490B92AF73EEAE611E9B00AB3C3F70B20BD7BB43F67A0F43 DUP4 PUSH1 0x40 MLOAD PUSH2 0x629 SWAP2 SWAP1 PUSH2 0x2E76 JUMP JUMPDEST PUSH1 0x40 MLOAD DUP1 SWAP2 SUB SWAP1 LOG2 POP PUSH1 0x1 PUSH1 0x7 DUP2 SWAP1 SSTORE POP POP POP JUMP JUMPDEST PUSH1 0x1 PUSH1 0x20 MSTORE DUP1 PUSH0 MSTORE PUSH1 0x40 PUSH0 KECCAK256 PUSH0 SWAP2 POP SLOAD SWAP1 PUSH2 0x100 EXP SWAP1 DIV PUSH1 0xFF AND DUP2 JUMP JUMPDEST PUSH32 0x0 DUP2 JUMP JUMPDEST PUSH2 0x68D PUSH1 0x3 DUP6 DUP6 DUP6 DUP6 PUSH2 0x19CE JUMP JUMPDEST POP POP POP POP JUMP JUMPDEST PUSH0 PUSH0 SWAP1 SLOAD SWAP1 PUSH2 0x100 EXP SWAP1 DIV PUSH20 0xFFFFFFFFFFFFFFFFFFFFFFFFFFFFFFFFFFFFFFFF AND PUSH20 0xFFFFFFFFFFFFFFFFFFFFFFFFFFFFFFFFFFFFFFFF AND CALLER PUSH20 0xFFFFFFFFFFFFFFFFFFFFFFFFFFFFFFFFFFFFFFFF AND EQ ISZERO DUP1 ISZERO PUSH2 0x736 JUMPI POP PUSH1 0x1 PUSH0 CALLER PUSH20 0xFFFFFFFFFFFFFFFFFFFFFFFFFFFFFFFFFFFFFFFF AND PUSH20 0xFFFFFFFFFFFFFFFFFFFFFFFFFFFFFFFFFFFFFFFF AND DUP2 MSTORE PUSH1 0x20 ADD SWAP1 DUP2 MSTORE PUSH1 0x20 ADD PUSH0 KECCAK256 PUSH0 SWAP1 SLOAD SWAP1 PUSH2 0x100 EXP SWAP1 DIV PUSH1 0xFF AND ISZERO JUMPDEST ISZERO PUSH2 0x76D JUMPI PUSH1 0x40 MLOAD PUSH32 0x82B4290000000000000000000000000000000000000000000000000000000000 DUP2 MSTORE PUSH1 0x4 ADD PUSH1 0x40 MLOAD DUP1 SWAP2 SUB SWAP1 REVERT JUMPDEST PUSH1 0x1 PUSH1 0x7 SLOAD EQ PUSH2 0x7A9 JUMPI PUSH1 0x40 MLOAD PUSH32 0x82B4290000000000000000000000000000000000000000000000000000000000 DUP2 MSTORE PUSH1 0x4 ADD PUSH1 0x40 MLOAD DUP1 SWAP2 SUB SWAP1 REVERT JUMPDEST PUSH1 0x2 PUSH1 0x7 DUP2 SWAP1 SSTORE POP DUP1 PUSH1 0x40 ADD CALLDATALOAD TIMESTAMP GT ISZERO PUSH2 0x7EF JUMPI PUSH1 0x40 MLOAD PUSH32 0x1AB7DA6B00000000000000000000000000000000000000000000000000000000 DUP2 MSTORE PUSH1 0x4 ADD PUSH1 0x40 MLOAD DUP1 SWAP2 SUB SWAP1 REVERT JUMPDEST PUSH0 DUP2 DUP1 PUSH1 0x80 ADD SWAP1 PUSH2 0x800 SWAP2 SWAP1 PUSH2 0x2E9B JUMP JUMPDEST SWAP1 POP SWAP1 POP PUSH0 DUP2 SUB PUSH2 0x83D JUMPI PUSH1 0x40 MLOAD PUSH32 0xEA60AB1D00000000000000000000000000000000000000000000000000000000 DUP2 MSTORE PUSH1 0x4 ADD PUSH1 0x40 MLOAD DUP1 SWAP2 SUB SWAP1 REVERT JUMPDEST PUSH1 0xC DUP2 GT ISZERO PUSH2 0x878 JUMPI PUSH1 0x40 MLOAD PUSH32 0xF5DEDBFF00000000000000000000000000000000000000000000000000000000 DUP2 MSTORE PUSH1 0x4 ADD PUSH1 0x40 MLOAD DUP1 SWAP2 SUB SWAP1 REVERT JUMPDEST PUSH0 DUP4 SUB PUSH2 0x8B1 JUMPI PUSH1 0x40 MLOAD PUSH32 0x946302FE00000000000000000000000000000000000000000000000000000000 DUP2 MSTORE PUSH1 0x4 ADD PUSH1 0x40 MLOAD DUP1 SWAP2 SUB SWAP1 REVERT JUMPDEST PUSH0 PUSH20 0xFFFFFFFFFFFFFFFFFFFFFFFFFFFFFFFFFFFFFFFF AND DUP5 PUSH20 0xFFFFFFFFFFFFFFFFFFFFFFFFFFFFFFFFFFFFFFFF AND EQ DUP1 PUSH2 0x927 JUMPI POP PUSH0 PUSH20 0xFFFFFFFFFFFFFFFFFFFFFFFFFFFFFFFFFFFFFFFF AND DUP3 PUSH0 ADD PUSH1 0x20 DUP2 ADD SWAP1 PUSH2 0x90F SWAP2 SWAP1 PUSH2 0x26C0 JUMP JUMPDEST PUSH20 0xFFFFFFFFFFFFFFFFFFFFFFFFFFFFFFFFFFFFFFFF AND EQ JUMPDEST ISZERO PUSH2 0x95E JUMPI PUSH1 0x40 MLOAD PUSH32 0xD92E233D00000000000000000000000000000000000000000000000000000000 DUP2 MSTORE PUSH1 0x4 ADD PUSH1 0x40 MLOAD DUP1 SWAP2 SUB SWAP1 REVERT JUMPDEST PUSH0 DUP3 DUP1 PUSH1 0x80 ADD SWAP1 PUSH2 0x96F SWAP2 SWAP1 PUSH2 0x2E9B JUMP JUMPDEST PUSH1 0x40 MLOAD PUSH1 0x20 ADD PUSH2 0x980 SWAP3 SWAP2 SWAP1 PUSH2 0x3129 JUMP JUMPDEST PUSH1 0x40 MLOAD PUSH1 0x20 DUP2 DUP4 SUB SUB DUP2 MSTORE SWAP1 PUSH1 0x40 MSTORE DUP1 MLOAD SWAP1 PUSH1 0x20 ADD KECCAK256 SWAP1 POP DUP3 PUSH1 0x60 ADD CALLDATALOAD DUP2 EQ PUSH2 0x9D5 JUMPI PUSH1 0x40 MLOAD PUSH32 0xC858ADFF00000000000000000000000000000000000000000000000000000000 DUP2 MSTORE PUSH1 0x4 ADD PUSH1 0x40 MLOAD DUP1 SWAP2 SUB SWAP1 REVERT JUMPDEST PUSH0 DUP4 PUSH0 ADD PUSH1 0x20 DUP2 ADD SWAP1 PUSH2 0x9E8 SWAP2 SWAP1 PUSH2 0x26C0 JUMP JUMPDEST PUSH20 0xFFFFFFFFFFFFFFFFFFFFFFFFFFFFFFFFFFFFFFFF AND PUSH4 0x70A08231 ADDRESS PUSH1 0x40 MLOAD DUP3 PUSH4 0xFFFFFFFF AND PUSH1 0xE0 SHL DUP2 MSTORE PUSH1 0x4 ADD PUSH2 0xA20 SWAP2 SWAP1 PUSH2 0x272D JUMP JUMPDEST PUSH1 0x20 PUSH1 0x40 MLOAD DUP1 DUP4 SUB DUP2 DUP7 GAS STATICCALL ISZERO DUP1 ISZERO PUSH2 0xA3B JUMPI RETURNDATASIZE PUSH0 PUSH0 RETURNDATACOPY RETURNDATASIZE PUSH0 REVERT JUMPDEST POP POP POP POP PUSH1 0x40 MLOAD RETURNDATASIZE PUSH1 0x1F NOT PUSH1 0x1F DUP3 ADD AND DUP3 ADD DUP1 PUSH1 0x40 MSTORE POP DUP2 ADD SWAP1 PUSH2 0xA5F SWAP2 SWAP1 PUSH2 0x315F JUMP JUMPDEST SWAP1 POP PUSH1 0x1 PUSH1 0x2 PUSH0 PUSH2 0x100 EXP DUP2 SLOAD DUP2 PUSH1 0xFF MUL NOT AND SWAP1 DUP4 PUSH1 0xFF AND MUL OR SWAP1 SSTORE POP DUP2 PUSH1 0x3 DUP2 SWAP1 SSTORE POP DUP4 PUSH0 ADD PUSH1 0x20 DUP2 ADD SWAP1 PUSH2 0xA95 SWAP2 SWAP1 PUSH2 0x26C0 JUMP JUMPDEST PUSH1 0x4 PUSH0 PUSH2 0x100 EXP DUP2 SLOAD DUP2 PUSH20 0xFFFFFFFFFFFFFFFFFFFFFFFFFFFFFFFFFFFFFFFF MUL NOT AND SWAP1 DUP4 PUSH20 0xFFFFFFFFFFFFFFFFFFFFFFFFFFFFFFFFFFFFFFFF AND MUL OR SWAP1 SSTORE POP DUP4 PUSH1 0x20 ADD CALLDATALOAD PUSH1 0x5 DUP2 SWAP1 SSTORE POP DUP1 PUSH1 0x6 DUP2 SWAP1 SSTORE POP PUSH0 PUSH1 0x1 PUSH8 0xFFFFFFFFFFFFFFFF DUP2 GT ISZERO PUSH2 0xB02 JUMPI PUSH2 0xB01 PUSH2 0x29DF JUMP JUMPDEST JUMPDEST PUSH1 0x40 MLOAD SWAP1 DUP1 DUP3 MSTORE DUP1 PUSH1 0x20 MUL PUSH1 0x20 ADD DUP3 ADD PUSH1 0x40 MSTORE DUP1 ISZERO PUSH2 0xB30 JUMPI DUP2 PUSH1 0x20 ADD PUSH1 0x20 DUP3 MUL DUP1 CALLDATASIZE DUP4 CALLDATACOPY DUP1 DUP3 ADD SWAP2 POP POP SWAP1 POP JUMPDEST POP SWAP1 POP DUP7 DUP2 PUSH0 DUP2 MLOAD DUP2 LT PUSH2 0xB47 JUMPI PUSH2 0xB46 PUSH2 0x318A JUMP JUMPDEST JUMPDEST PUSH1 0x20 MUL PUSH1 0x20 ADD ADD SWAP1 PUSH20 0xFFFFFFFFFFFFFFFFFFFFFFFFFFFFFFFFFFFFFFFF AND SWAP1 DUP2 PUSH20 0xFFFFFFFFFFFFFFFFFFFFFFFFFFFFFFFFFFFFFFFF AND DUP2 MSTORE POP POP PUSH0 PUSH1 0x1 PUSH8 0xFFFFFFFFFFFFFFFF DUP2 GT ISZERO PUSH2 0xB9D JUMPI PUSH2 0xB9C PUSH2 0x29DF JUMP JUMPDEST JUMPDEST PUSH1 0x40 MLOAD SWAP1 DUP1 DUP3 MSTORE DUP1 PUSH1 0x20 MUL PUSH1 0x20 ADD DUP3 ADD PUSH1 0x40 MSTORE DUP1 ISZERO PUSH2 0xBCB JUMPI DUP2 PUSH1 0x20 ADD PUSH1 0x20 DUP3 MUL DUP1 CALLDATASIZE DUP4 CALLDATACOPY DUP1 DUP3 ADD SWAP2 POP POP SWAP1 POP JUMPDEST POP SWAP1 POP DUP7 DUP2 PUSH0 DUP2 MLOAD DUP2 LT PUSH2 0xBE2 JUMPI PUSH2 0xBE1 PUSH2 0x318A JUMP JUMPDEST JUMPDEST PUSH1 0x20 MUL PUSH1 0x20 ADD ADD DUP2 DUP2 MSTORE POP POP PUSH32 0x0 PUSH20 0xFFFFFFFFFFFFFFFFFFFFFFFFFFFFFFFFFFFFFFFF AND PUSH4 0x5C38449E ADDRESS DUP5 DUP5 DUP11 PUSH1 0x40 MLOAD PUSH1 0x20 ADD PUSH2 0xC3E SWAP2 SWAP1 PUSH2 0x3390 JUMP JUMPDEST PUSH1 0x40 MLOAD PUSH1 0x20 DUP2 DUP4 SUB SUB DUP2 MSTORE SWAP1 PUSH1 0x40 MSTORE PUSH1 0x40 MLOAD DUP6 PUSH4 0xFFFFFFFF AND PUSH1 0xE0 SHL DUP2 MSTORE PUSH1 0x4 ADD PUSH2 0xC6C SWAP5 SWAP4 SWAP3 SWAP2 SWAP1 PUSH2 0x35A0 JUMP JUMPDEST PUSH0 PUSH1 0x40 MLOAD DUP1 DUP4 SUB DUP2 PUSH0 DUP8 DUP1 EXTCODESIZE ISZERO DUP1 ISZERO PUSH2 0xC83 JUMPI PUSH0 PUSH0 REVERT JUMPDEST POP GAS CALL ISZERO DUP1 ISZERO PUSH2 0xC95 JUMPI RETURNDATASIZE PUSH0 PUSH0 RETURNDATACOPY RETURNDATASIZE PUSH0 REVERT JUMPDEST POP POP POP POP PUSH0 DUP7 PUSH0 ADD PUSH1 0x20 DUP2 ADD SWAP1 PUSH2 0xCAC SWAP2 SWAP1 PUSH2 0x26C0 JUMP JUMPDEST PUSH20 0xFFFFFFFFFFFFFFFFFFFFFFFFFFFFFFFFFFFFFFFF AND PUSH4 0x70A08231 ADDRESS PUSH1 0x40 MLOAD DUP3 PUSH4 0xFFFFFFFF AND PUSH1 0xE0 SHL DUP2 MSTORE PUSH1 0x4 ADD PUSH2 0xCE4 SWAP2 SWAP1 PUSH2 0x272D JUMP JUMPDEST PUSH1 0x20 PUSH1 0x40 MLOAD DUP1 DUP4 SUB DUP2 DUP7 GAS STATICCALL ISZERO DUP1 ISZERO PUSH2 0xCFF JUMPI RETURNDATASIZE PUSH0 PUSH0 RETURNDATACOPY RETURNDATASIZE PUSH0 REVERT JUMPDEST POP POP POP POP PUSH1 0x40 MLOAD RETURNDATASIZE PUSH1 0x1F NOT PUSH1 0x1F DUP3 ADD AND DUP3 ADD DUP1 PUSH1 0x40 MSTORE POP DUP2 ADD SWAP1 PUSH2 0xD23 SWAP2 SWAP1 PUSH2 0x315F JUMP JUMPDEST SWAP1 POP PUSH0 DUP5 DUP3 PUSH2 0xD32 SWAP2 SWAP1 PUSH2 0x3625 JUMP JUMPDEST SWAP1 POP PUSH2 0xD3C PUSH2 0x1B9A JUMP JUMPDEST DUP6 DUP9 PUSH0 ADD PUSH1 0x20 DUP2 ADD SWAP1 PUSH2 0xD4F SWAP2 SWAP1 PUSH2 0x26C0 JUMP JUMPDEST PUSH20 0xFFFFFFFFFFFFFFFFFFFFFFFFFFFFFFFFFFFFFFFF AND CALLER PUSH20 0xFFFFFFFFFFFFFFFFFFFFFFFFFFFFFFFFFFFFFFFF AND PUSH32 0x2790EAC69D46D24BB29B55A23B12E2E49076DC2A9FDCB340E641DE33FCA2C5DD DUP5 PUSH32 0x0 PUSH1 0x40 MLOAD PUSH2 0xDCD SWAP3 SWAP2 SWAP1 PUSH2 0x3658 JUMP JUMPDEST PUSH1 0x40 MLOAD DUP1 SWAP2 SUB SWAP1 LOG4 POP POP POP POP POP POP POP PUSH1 0x1 PUSH1 0x7 DUP2 SWAP1 SSTORE POP POP POP POP JUMP JUMPDEST PUSH32 0x0 DUP2 JUMP JUMPDEST PUSH0 PUSH0 SWAP1 SLOAD SWAP1 PUSH2 0x100 EXP SWAP1 DIV PUSH20 0xFFFFFFFFFFFFFFFFFFFFFFFFFFFFFFFFFFFFFFFF AND PUSH20 0xFFFFFFFFFFFFFFFFFFFFFFFFFFFFFFFFFFFFFFFF AND CALLER PUSH20 0xFFFFFFFFFFFFFFFFFFFFFFFFFFFFFFFFFFFFFFFF AND EQ PUSH2 0xE92 JUMPI PUSH1 0x40 MLOAD PUSH32 0x82B4290000000000000000000000000000000000000000000000000000000000 DUP2 MSTORE PUSH1 0x4 ADD PUSH1 0x40 MLOAD DUP1 SWAP2 SUB SWAP1 REVERT JUMPDEST DUP1 PUSH1 0x1 PUSH0 DUP5 PUSH20 0xFFFFFFFFFFFFFFFFFFFFFFFFFFFFFFFFFFFFFFFF AND PUSH20 0xFFFFFFFFFFFFFFFFFFFFFFFFFFFFFFFFFFFFFFFF AND DUP2 MSTORE PUSH1 0x20 ADD SWAP1 DUP2 MSTORE PUSH1 0x20 ADD PUSH0 KECCAK256 PUSH0 PUSH2 0x100 EXP DUP2 SLOAD DUP2 PUSH1 0xFF MUL NOT AND SWAP1 DUP4 ISZERO ISZERO MUL OR SWAP1 SSTORE POP DUP2 PUSH20 0xFFFFFFFFFFFFFFFFFFFFFFFFFFFFFFFFFFFFFFFF AND PUSH32 0x1A594081AE893AB78E67D9B9E843547318164322D32C65369D78A96172D9DC8F DUP3 PUSH1 0x40 MLOAD PUSH2 0xF2C SWAP2 SWAP1 PUSH2 0x2705 JUMP JUMPDEST PUSH1 0x40 MLOAD DUP1 SWAP2 SUB SWAP1 LOG2 POP POP JUMP JUMPDEST PUSH32 0x0 DUP2 JUMP JUMPDEST PUSH32 0x0 DUP2 JUMP JUMPDEST PUSH32 0x0 DUP2 JUMP JUMPDEST PUSH0 PUSH0 SWAP1 SLOAD SWAP1 PUSH2 0x100 EXP SWAP1 DIV PUSH20 0xFFFFFFFFFFFFFFFFFFFFFFFFFFFFFFFFFFFFFFFF AND DUP2 JUMP JUMPDEST PUSH0 PUSH0 SWAP1 SLOAD SWAP1 PUSH2 0x100 EXP SWAP1 DIV PUSH20 0xFFFFFFFFFFFFFFFFFFFFFFFFFFFFFFFFFFFFFFFF AND PUSH20 0xFFFFFFFFFFFFFFFFFFFFFFFFFFFFFFFFFFFFFFFF AND CALLER PUSH20 0xFFFFFFFFFFFFFFFFFFFFFFFFFFFFFFFFFFFFFFFF AND EQ ISZERO DUP1 ISZERO PUSH2 0x106B JUMPI POP PUSH1 0x1 PUSH0 CALLER PUSH20 0xFFFFFFFFFFFFFFFFFFFFFFFFFFFFFFFFFFFFFFFF AND PUSH20 0xFFFFFFFFFFFFFFFFFFFFFFFFFFFFFFFFFFFFFFFF AND DUP2 MSTORE PUSH1 0x20 ADD SWAP1 DUP2 MSTORE PUSH1 0x20 ADD PUSH0 KECCAK256 PUSH0 SWAP1 SLOAD SWAP1 PUSH2 0x100 EXP SWAP1 DIV PUSH1 0xFF AND ISZERO JUMPDEST ISZERO PUSH2 0x10A2 JUMPI PUSH1 0x40 MLOAD PUSH32 0x82B4290000000000000000000000000000000000000000000000000000000000 DUP2 MSTORE PUSH1 0x4 ADD PUSH1 0x40 MLOAD DUP1 SWAP2 SUB SWAP1 REVERT JUMPDEST PUSH1 0x1 PUSH1 0x7 SLOAD EQ PUSH2 0x10DE JUMPI PUSH1 0x40 MLOAD PUSH32 0x82B4290000000000000000000000000000000000000000000000000000000000 DUP2 MSTORE PUSH1 0x4 ADD PUSH1 0x40 MLOAD DUP1 SWAP2 SUB SWAP1 REVERT JUMPDEST PUSH1 0x2 PUSH1 0x7 DUP2 SWAP1 SSTORE POP PUSH2 0x1111 DUP3 DUP3 PUSH32 0xFFFFFFFFFFFFFFFFFFFFFFFFFFFFFFFFFFFFFFFFFFFFFFFFFFFFFFFFFFFFFFFF PUSH2 0x1C0D JUMP JUMPDEST DUP1 PUSH20 0xFFFFFFFFFFFFFFFFFFFFFFFFFFFFFFFFFFFFFFFF AND DUP3 PUSH20 0xFFFFFFFFFFFFFFFFFFFFFFFFFFFFFFFFFFFFFFFF AND PUSH32 0x8D936A3B74312B60E024EE1B476014E8BD0523E8355D93FF5A0787567FE92F5F PUSH1 0x40 MLOAD PUSH1 0x40 MLOAD DUP1 SWAP2 SUB SWAP1 LOG3 PUSH1 0x1 PUSH1 0x7 DUP2 SWAP1 SSTORE POP POP POP JUMP JUMPDEST PUSH0 PUSH0 SWAP1 SLOAD SWAP1 PUSH2 0x100 EXP SWAP1 DIV PUSH20 0xFFFFFFFFFFFFFFFFFFFFFFFFFFFFFFFFFFFFFFFF AND PUSH20 0xFFFFFFFFFFFFFFFFFFFFFFFFFFFFFFFFFFFFFFFF AND CALLER PUSH20 0xFFFFFFFFFFFFFFFFFFFFFFFFFFFFFFFFFFFFFFFF AND EQ PUSH2 0x11FC JUMPI PUSH1 0x40 MLOAD PUSH32 0x82B4290000000000000000000000000000000000000000000000000000000000 DUP2 MSTORE PUSH1 0x4 ADD PUSH1 0x40 MLOAD DUP1 SWAP2 SUB SWAP1 REVERT JUMPDEST PUSH1 0x1 PUSH1 0x7 SLOAD EQ PUSH2 0x1238 JUMPI PUSH1 0x40 MLOAD PUSH32 0x82B4290000000000000000000000000000000000000000000000000000000000 DUP2 MSTORE PUSH1 0x4 ADD PUSH1 0x40 MLOAD DUP1 SWAP2 SUB SWAP1 REVERT JUMPDEST PUSH1 0x2 PUSH1 0x7 DUP2 SWAP1 SSTORE POP PUSH0 PUSH20 0xFFFFFFFFFFFFFFFFFFFFFFFFFFFFFFFFFFFFFFFF AND DUP3 PUSH20 0xFFFFFFFFFFFFFFFFFFFFFFFFFFFFFFFFFFFFFFFF AND SUB PUSH2 0x12A5 JUMPI PUSH1 0x40 MLOAD PUSH32 0xD92E233D00000000000000000000000000000000000000000000000000000000 DUP2 MSTORE PUSH1 0x4 ADD PUSH1 0x40 MLOAD DUP1 SWAP2 SUB SWAP1 REVERT JUMPDEST PUSH2 0x12B0 DUP4 DUP4 DUP4 PUSH2 0x1C6D JUMP JUMPDEST DUP2 PUSH20 0xFFFFFFFFFFFFFFFFFFFFFFFFFFFFFFFFFFFFFFFF AND DUP4 PUSH20 0xFFFFFFFFFFFFFFFFFFFFFFFFFFFFFFFFFFFFFFFF AND PUSH32 0x4143F7B5CB6EA007914C32B8A3E64CEBC051D7F493FA0755454DA1E47701E125 DUP4 PUSH1 0x40 MLOAD PUSH2 0x130D SWAP2 SWAP1 PUSH2 0x2E76 JUMP JUMPDEST PUSH1 0x40 MLOAD DUP1 SWAP2 SUB SWAP1 LOG3 PUSH1 0x1 PUSH1 0x7 DUP2 SWAP1 SSTORE POP POP POP POP JUMP JUMPDEST PUSH1 0x1 PUSH1 0x7 SLOAD EQ PUSH2 0x135E JUMPI PUSH1 0x40 MLOAD PUSH32 0x82B4290000000000000000000000000000000000000000000000000000000000 DUP2 MSTORE PUSH1 0x4 ADD PUSH1 0x40 MLOAD DUP1 SWAP2 SUB SWAP1 REVERT JUMPDEST PUSH1 0x2 PUSH1 0x7 DUP2 SWAP1 SSTORE POP PUSH32 0x0 PUSH20 0xFFFFFFFFFFFFFFFFFFFFFFFFFFFFFFFFFFFFFFFF AND CALLER PUSH20 0xFFFFFFFFFFFFFFFFFFFFFFFFFFFFFFFFFFFFFFFF AND EQ PUSH2 0x13EB JUMPI PUSH1 0x40 MLOAD PUSH32 0xFC30532900000000000000000000000000000000000000000000000000000000 DUP2 MSTORE PUSH1 0x4 ADD PUSH1 0x40 MLOAD DUP1 SWAP2 SUB SWAP1 REVERT JUMPDEST PUSH1 0x1 PUSH1 0xFF AND PUSH1 0x2 PUSH0 SWAP1 SLOAD SWAP1 PUSH2 0x100 EXP SWAP1 DIV PUSH1 0xFF AND PUSH1 0xFF AND EQ PUSH2 0x1439 JUMPI PUSH1 0x40 MLOAD PUSH32 0xADD4ADC000000000000000000000000000000000000000000000000000000000 DUP2 MSTORE PUSH1 0x4 ADD PUSH1 0x40 MLOAD DUP1 SWAP2 SUB SWAP1 REVERT JUMPDEST PUSH0 DUP2 DUP1 PUSH1 0x20 ADD SWAP1 MLOAD DUP2 ADD SWAP1 PUSH2 0x144E SWAP2 SWAP1 PUSH2 0x391D JUMP JUMPDEST SWAP1 POP PUSH1 0x3 SLOAD DUP2 PUSH1 0x60 ADD MLOAD EQ PUSH2 0x148F JUMPI PUSH1 0x40 MLOAD PUSH32 0xC858ADFF00000000000000000000000000000000000000000000000000000000 DUP2 MSTORE PUSH1 0x4 ADD PUSH1 0x40 MLOAD DUP1 SWAP2 SUB SWAP1 REVERT JUMPDEST PUSH1 0x4 PUSH0 SWAP1 SLOAD SWAP1 PUSH2 0x100 EXP SWAP1 DIV PUSH20 0xFFFFFFFFFFFFFFFFFFFFFFFFFFFFFFFFFFFFFFFF AND PUSH20 0xFFFFFFFFFFFFFFFFFFFFFFFFFFFFFFFFFFFFFFFF AND DUP2 PUSH0 ADD MLOAD PUSH20 0xFFFFFFFFFFFFFFFFFFFFFFFFFFFFFFFFFFFFFFFF AND EQ PUSH2 0x1518 JUMPI PUSH1 0x40 MLOAD PUSH32 0xADD4ADC000000000000000000000000000000000000000000000000000000000 DUP2 MSTORE PUSH1 0x4 ADD PUSH1 0x40 MLOAD DUP1 SWAP2 SUB SWAP1 REVERT JUMPDEST PUSH1 0x5 SLOAD DUP2 PUSH1 0x20 ADD MLOAD EQ PUSH2 0x1557 JUMPI PUSH1 0x40 MLOAD PUSH32 0xADD4ADC000000000000000000000000000000000000000000000000000000000 DUP2 MSTORE PUSH1 0x4 ADD PUSH1 0x40 MLOAD DUP1 SWAP2 SUB SWAP1 REVERT JUMPDEST DUP1 PUSH1 0x40 ADD MLOAD TIMESTAMP GT ISZERO PUSH2 0x1595 JUMPI PUSH1 0x40 MLOAD PUSH32 0x1AB7DA6B00000000000000000000000000000000000000000000000000000000 DUP2 MSTORE PUSH1 0x4 ADD PUSH1 0x40 MLOAD DUP1 SWAP2 SUB SWAP1 REVERT JUMPDEST PUSH1 0x2 DUP1 PUSH0 PUSH2 0x100 EXP DUP2 SLOAD DUP2 PUSH1 0xFF MUL NOT AND SWAP1 DUP4 PUSH1 0xFF AND MUL OR SWAP1 SSTORE POP PUSH2 0x15BC DUP2 PUSH1 0x80 ADD MLOAD PUSH2 0x1DC6 JUMP JUMPDEST PUSH0 DUP6 MLOAD SWAP1 POP PUSH0 JUMPDEST DUP2 DUP2 LT ISZERO PUSH2 0x165A JUMPI PUSH2 0x164F DUP8 DUP3 DUP2 MLOAD DUP2 LT PUSH2 0x15E1 JUMPI PUSH2 0x15E0 PUSH2 0x318A JUMP JUMPDEST JUMPDEST PUSH1 0x20 MUL PUSH1 0x20 ADD ADD MLOAD PUSH32 0x0 DUP8 DUP5 DUP2 MLOAD DUP2 LT PUSH2 0x161D JUMPI PUSH2 0x161C PUSH2 0x318A JUMP JUMPDEST JUMPDEST PUSH1 0x20 MUL PUSH1 0x20 ADD ADD MLOAD DUP10 DUP6 DUP2 MLOAD DUP2 LT PUSH2 0x1638 JUMPI PUSH2 0x1637 PUSH2 0x318A JUMP JUMPDEST JUMPDEST PUSH1 0x20 MUL PUSH1 0x20 ADD ADD MLOAD PUSH2 0x164A SWAP2 SWAP1 PUSH2 0x3964 JUMP JUMPDEST PUSH2 0x1C6D JUMP JUMPDEST DUP1 PUSH1 0x1 ADD SWAP1 POP PUSH2 0x15C3 JUMP JUMPDEST POP PUSH0 PUSH1 0x2 PUSH0 PUSH2 0x100 EXP DUP2 SLOAD DUP2 PUSH1 0xFF MUL NOT AND SWAP1 DUP4 PUSH1 0xFF AND MUL OR SWAP1 SSTORE POP PUSH2 0x167D PUSH2 0x1EC6 JUMP JUMPDEST POP POP PUSH1 0x1 PUSH1 0x7 DUP2 SWAP1 SSTORE POP POP POP POP POP JUMP JUMPDEST PUSH0 PUSH0 SWAP1 SLOAD SWAP1 PUSH2 0x100 EXP SWAP1 DIV PUSH20 0xFFFFFFFFFFFFFFFFFFFFFFFFFFFFFFFFFFFFFFFF AND PUSH20 0xFFFFFFFFFFFFFFFFFFFFFFFFFFFFFFFFFFFFFFFF AND CALLER PUSH20 0xFFFFFFFFFFFFFFFFFFFFFFFFFFFFFFFFFFFFFFFF AND EQ PUSH2 0x1712 JUMPI PUSH1 0x40 MLOAD PUSH32 0x82B4290000000000000000000000000000000000000000000000000000000000 DUP2 MSTORE PUSH1 0x4 ADD PUSH1 0x40 MLOAD DUP1 SWAP2 SUB SWAP1 REVERT JUMPDEST PUSH0 PUSH20 0xFFFFFFFFFFFFFFFFFFFFFFFFFFFFFFFFFFFFFFFF AND DUP2 PUSH20 0xFFFFFFFFFFFFFFFFFFFFFFFFFFFFFFFFFFFFFFFF AND SUB PUSH2 0x1777 JUMPI PUSH1 0x40 MLOAD PUSH32 0xD92E233D00000000000000000000000000000000000000000000000000000000 DUP2 MSTORE PUSH1 0x4 ADD PUSH1 0x40 MLOAD DUP1 SWAP2 SUB SWAP1 REVERT JUMPDEST PUSH0 PUSH0 PUSH0 SWAP1 SLOAD SWAP1 PUSH2 0x100 EXP SWAP1 DIV PUSH20 0xFFFFFFFFFFFFFFFFFFFFFFFFFFFFFFFFFFFFFFFF AND SWAP1 POP DUP2 PUSH0 PUSH0 PUSH2 0x100 EXP DUP2 SLOAD DUP2 PUSH20 0xFFFFFFFFFFFFFFFFFFFFFFFFFFFFFFFFFFFFFFFF MUL NOT AND SWAP1 DUP4 PUSH20 0xFFFFFFFFFFFFFFFFFFFFFFFFFFFFFFFFFFFFFFFF AND MUL OR SWAP1 SSTORE POP DUP2 PUSH20 0xFFFFFFFFFFFFFFFFFFFFFFFFFFFFFFFFFFFFFFFF AND DUP2 PUSH20 0xFFFFFFFFFFFFFFFFFFFFFFFFFFFFFFFFFFFFFFFF AND PUSH32 0x8BE0079C531659141344CD1FD0A4F28419497F9722A3DAAFE3B4186F6B6457E0 PUSH1 0x40 MLOAD PUSH1 0x40 MLOAD DUP1 SWAP2 SUB SWAP1 LOG3 POP POP JUMP JUMPDEST PUSH2 0x1846 PUSH1 0x1 DUP6 DUP6 DUP6 DUP6 PUSH2 0x19CE JUMP JUMPDEST POP POP POP POP JUMP JUMPDEST PUSH2 0x185A PUSH1 0x4 DUP6 DUP6 DUP6 DUP6 PUSH2 0x19CE JUMP JUMPDEST POP POP POP POP JUMP JUMPDEST PUSH1 0x1 PUSH1 0x7 SLOAD EQ PUSH2 0x189C JUMPI PUSH1 0x40 MLOAD PUSH32 0x82B4290000000000000000000000000000000000000000000000000000000000 DUP2 MSTORE PUSH1 0x4 ADD PUSH1 0x40 MLOAD DUP1 SWAP2 SUB SWAP1 REVERT JUMPDEST PUSH1 0x2 PUSH1 0x7 DUP2 SWAP1 SSTORE POP ADDRESS PUSH20 0xFFFFFFFFFFFFFFFFFFFFFFFFFFFFFFFFFFFFFFFF AND CALLER PUSH20 0xFFFFFFFFFFFFFFFFFFFFFFFFFFFFFFFFFFFFFFFF AND EQ ISZERO DUP1 ISZERO PUSH2 0x192C JUMPI POP PUSH0 PUSH0 SWAP1 SLOAD SWAP1 PUSH2 0x100 EXP SWAP1 DIV PUSH20 0xFFFFFFFFFFFFFFFFFFFFFFFFFFFFFFFFFFFFFFFF AND PUSH20 0xFFFFFFFFFFFFFFFFFFFFFFFFFFFFFFFFFFFFFFFF AND CALLER PUSH20 0xFFFFFFFFFFFFFFFFFFFFFFFFFFFFFFFFFFFFFFFF AND EQ ISZERO JUMPDEST DUP1 ISZERO PUSH2 0x197F JUMPI POP PUSH1 0x1 PUSH0 CALLER PUSH20 0xFFFFFFFFFFFFFFFFFFFFFFFFFFFFFFFFFFFFFFFF AND PUSH20 0xFFFFFFFFFFFFFFFFFFFFFFFFFFFFFFFFFFFFFFFF AND DUP2 MSTORE PUSH1 0x20 ADD SWAP1 DUP2 MSTORE PUSH1 0x20 ADD PUSH0 KECCAK256 PUSH0 SWAP1 SLOAD SWAP1 PUSH2 0x100 EXP SWAP1 DIV PUSH1 0xFF AND ISZERO JUMPDEST ISZERO PUSH2 0x19B6 JUMPI PUSH1 0x40 MLOAD PUSH32 0x82B4290000000000000000000000000000000000000000000000000000000000 DUP2 MSTORE PUSH1 0x4 ADD PUSH1 0x40 MLOAD DUP1 SWAP2 SUB SWAP1 REVERT JUMPDEST PUSH2 0x19C1 DUP4 DUP4 DUP4 PUSH2 0x1C0D JUMP JUMPDEST PUSH1 0x1 PUSH1 0x7 DUP2 SWAP1 SSTORE POP POP POP POP JUMP JUMPDEST PUSH1 0x2 PUSH1 0xFF AND PUSH1 0x2 PUSH0 SWAP1 SLOAD SWAP1 PUSH2 0x100 EXP SWAP1 DIV PUSH1 0xFF AND PUSH1 0xFF AND EQ PUSH2 0x1A1C JUMPI PUSH1 0x40 MLOAD PUSH32 0xC21D53E800000000000000000000000000000000000000000000000000000000 DUP2 MSTORE PUSH1 0x4 ADD PUSH1 0x40 MLOAD DUP1 SWAP2 SUB SWAP1 REVERT JUMPDEST PUSH0 DUP3 DUP3 DUP2 ADD SWAP1 PUSH2 0x1A2C SWAP2 SWAP1 PUSH2 0x3A7A JUMP JUMPDEST SWAP1 POP DUP6 PUSH1 0xFF AND DUP2 PUSH0 ADD MLOAD PUSH1 0xFF AND EQ PUSH2 0x1A7E JUMPI DUP1 PUSH0 ADD MLOAD PUSH1 0x40 MLOAD PUSH32 0xF850442B00000000000000000000000000000000000000000000000000000000 DUP2 MSTORE PUSH1 0x4 ADD PUSH2 0x1A75 SWAP2 SWAP1 PUSH2 0x3AB4 JUMP JUMPDEST PUSH1 0x40 MLOAD DUP1 SWAP2 SUB SWAP1 REVERT JUMPDEST PUSH0 PUSH2 0x1A88 DUP3 PUSH2 0x1FC0 JUMP JUMPDEST SWAP1 POP PUSH0 PUSH20 0xFFFFFFFFFFFFFFFFFFFFFFFFFFFFFFFFFFFFFFFF AND DUP2 PUSH20 0xFFFFFFFFFFFFFFFFFFFFFFFFFFFFFFFFFFFFFFFF AND SUB PUSH2 0x1AEF JUMPI PUSH1 0x40 MLOAD PUSH32 0x936198E900000000000000000000000000000000000000000000000000000000 DUP2 MSTORE PUSH1 0x4 ADD PUSH1 0x40 MLOAD DUP1 SWAP2 SUB SWAP1 REVERT JUMPDEST DUP1 PUSH20 0xFFFFFFFFFFFFFFFFFFFFFFFFFFFFFFFFFFFFFFFF AND CALLER PUSH20 0xFFFFFFFFFFFFFFFFFFFFFFFFFFFFFFFFFFFFFFFF AND EQ PUSH2 0x1B61 JUMPI DUP1 CALLER PUSH1 0x40 MLOAD PUSH32 0xF206255900000000000000000000000000000000000000000000000000000000 DUP2 MSTORE PUSH1 0x4 ADD PUSH2 0x1B58 SWAP3 SWAP2 SWAP1 PUSH2 0x3ACD JUMP JUMPDEST PUSH1 0x40 MLOAD DUP1 SWAP2 SUB SWAP1 REVERT JUMPDEST PUSH0 DUP7 SGT ISZERO PUSH2 0x1B79 JUMPI PUSH2 0x1B78 DUP3 PUSH1 0x20 ADD MLOAD CALLER DUP9 PUSH2 0x1C6D JUMP JUMPDEST JUMPDEST PUSH0 DUP6 SGT ISZERO PUSH2 0x1B91 JUMPI PUSH2 0x1B90 DUP3 PUSH1 0x40 ADD MLOAD CALLER DUP8 PUSH2 0x1C6D JUMP JUMPDEST JUMPDEST POP POP POP POP POP POP POP JUMP JUMPDEST PUSH0 PUSH1 0x2 PUSH0 PUSH2 0x100 EXP DUP2 SLOAD DUP2 PUSH1 0xFF MUL NOT AND SWAP1 DUP4 PUSH1 0xFF AND MUL OR SWAP1 SSTORE POP PUSH0 PUSH0 SHL PUSH1 0x3 DUP2 SWAP1 SSTORE POP PUSH0 PUSH1 0x4 PUSH0 PUSH2 0x100 EXP DUP2 SLOAD DUP2 PUSH20 0xFFFFFFFFFFFFFFFFFFFFFFFFFFFFFFFFFFFFFFFF MUL NOT AND SWAP1 DUP4 PUSH20 0xFFFFFFFFFFFFFFFFFFFFFFFFFFFFFFFFFFFFFFFF AND MUL OR SWAP1 SSTORE POP PUSH0 PUSH1 0x5 DUP2 SWAP1 SSTORE POP PUSH0 PUSH1 0x6 DUP2 SWAP1 SSTORE POP JUMP JUMPDEST PUSH0 PUSH2 0x1C19 DUP5 ADDRESS DUP6 PUSH2 0x2300 JUMP JUMPDEST SWAP1 POP DUP2 DUP2 LT PUSH2 0x1C28 JUMPI POP PUSH2 0x1C68 JUMP JUMPDEST PUSH0 DUP2 EQ PUSH2 0x1C3B JUMPI PUSH2 0x1C3A DUP5 DUP5 PUSH0 PUSH2 0x2452 JUMP JUMPDEST JUMPDEST PUSH2 0x1C66 DUP5 DUP5 PUSH32 0xFFFFFFFFFFFFFFFFFFFFFFFFFFFFFFFFFFFFFFFFFFFFFFFFFFFFFFFFFFFFFFFF PUSH2 0x2452 JUMP JUMPDEST POP JUMPDEST POP POP POP JUMP JUMPDEST PUSH0 PUSH0 DUP5 PUSH20 0xFFFFFFFFFFFFFFFFFFFFFFFFFFFFFFFFFFFFFFFF AND PUSH4 0xA9059CBB PUSH1 0xE0 SHL DUP6 DUP6 PUSH1 0x40 MLOAD PUSH1 0x24 ADD PUSH2 0x1CA1 SWAP3 SWAP2 SWAP1 PUSH2 0x3AF4 JUMP JUMPDEST PUSH1 0x40 MLOAD PUSH1 0x20 DUP2 DUP4 SUB SUB DUP2 MSTORE SWAP1 PUSH1 0x40 MSTORE SWAP1 PUSH28 0xFFFFFFFFFFFFFFFFFFFFFFFFFFFFFFFFFFFFFFFFFFFFFFFFFFFFFFFF NOT AND PUSH1 0x20 DUP3 ADD DUP1 MLOAD PUSH28 0xFFFFFFFFFFFFFFFFFFFFFFFFFFFFFFFFFFFFFFFFFFFFFFFFFFFFFFFF DUP4 DUP2 DUP4 AND OR DUP4 MSTORE POP POP POP POP PUSH1 0x40 MLOAD PUSH2 0x1D0B SWAP2 SWAP1 PUSH2 0x3B4B JUMP JUMPDEST PUSH0 PUSH1 0x40 MLOAD DUP1 DUP4 SUB DUP2 PUSH0 DUP7 GAS CALL SWAP2 POP POP RETURNDATASIZE DUP1 PUSH0 DUP2 EQ PUSH2 0x1D44 JUMPI PUSH1 0x40 MLOAD SWAP2 POP PUSH1 0x1F NOT PUSH1 0x3F RETURNDATASIZE ADD AND DUP3 ADD PUSH1 0x40 MSTORE RETURNDATASIZE DUP3 MSTORE RETURNDATASIZE PUSH0 PUSH1 0x20 DUP5 ADD RETURNDATACOPY PUSH2 0x1D49 JUMP JUMPDEST PUSH1 0x60 SWAP2 POP JUMPDEST POP SWAP2 POP SWAP2 POP DUP2 ISZERO DUP1 PUSH2 0x1D79 JUMPI POP PUSH0 DUP2 MLOAD EQ ISZERO DUP1 ISZERO PUSH2 0x1D78 JUMPI POP DUP1 DUP1 PUSH1 0x20 ADD SWAP1 MLOAD DUP2 ADD SWAP1 PUSH2 0x1D76 SWAP2 SWAP1 PUSH2 0x3B75 JUMP JUMPDEST ISZERO JUMPDEST JUMPDEST ISZERO PUSH2 0x1DBF JUMPI DUP5 DUP5 DUP5 PUSH1 0x40 MLOAD PUSH32 0xBF182BE800000000000000000000000000000000000000000000000000000000 DUP2 MSTORE PUSH1 0x4 ADD PUSH2 0x1DB6 SWAP4 SWAP3 SWAP2 SWAP1 PUSH2 0x3BA0 JUMP JUMPDEST PUSH1 0x40 MLOAD DUP1 SWAP2 SUB SWAP1 REVERT JUMPDEST POP POP POP POP POP JUMP JUMPDEST PUSH0 DUP2 MLOAD SWAP1 POP PUSH0 JUMPDEST DUP2 DUP2 LT ISZERO PUSH2 0x1EC1 JUMPI PUSH0 DUP4 DUP3 DUP2 MLOAD DUP2 LT PUSH2 0x1DE9 JUMPI PUSH2 0x1DE8 PUSH2 0x318A JUMP JUMPDEST JUMPDEST PUSH1 0x20 MUL PUSH1 0x20 ADD ADD MLOAD SWAP1 POP PUSH0 PUSH0 DUP3 PUSH0 ADD MLOAD PUSH20 0xFFFFFFFFFFFFFFFFFFFFFFFFFFFFFFFFFFFFFFFF AND DUP4 PUSH1 0x20 ADD MLOAD DUP5 PUSH1 0x40 ADD MLOAD PUSH1 0x40 MLOAD PUSH2 0x1E26 SWAP2 SWAP1 PUSH2 0x3B4B JUMP JUMPDEST PUSH0 PUSH1 0x40 MLOAD DUP1 DUP4 SUB DUP2 DUP6 DUP8 GAS CALL SWAP3 POP POP POP RETURNDATASIZE DUP1 PUSH0 DUP2 EQ PUSH2 0x1E60 JUMPI PUSH1 0x40 MLOAD SWAP2 POP PUSH1 0x1F NOT PUSH1 0x3F RETURNDATASIZE ADD AND DUP3 ADD PUSH1 0x40 MSTORE RETURNDATASIZE DUP3 MSTORE RETURNDATASIZE PUSH0 PUSH1 0x20 DUP5 ADD RETURNDATACOPY PUSH2 0x1E65 JUMP JUMPDEST PUSH1 0x60 SWAP2 POP JUMPDEST POP SWAP2 POP SWAP2 POP DUP2 PUSH2 0x1EB3 JUMPI DUP4 DUP4 PUSH0 ADD MLOAD DUP3 PUSH1 0x40 MLOAD PUSH32 0xF43457300000000000000000000000000000000000000000000000000000000 DUP2 MSTORE PUSH1 0x4 ADD PUSH2 0x1EAA SWAP4 SWAP3 SWAP2 SWAP1 PUSH2 0x3BD5 JUMP JUMPDEST PUSH1 0x40 MLOAD DUP1 SWAP2 SUB SWAP1 REVERT JUMPDEST DUP4 PUSH1 0x1 ADD SWAP4 POP POP POP POP PUSH2 0x1DCD JUMP JUMPDEST POP POP POP JUMP JUMPDEST PUSH0 PUSH1 0x4 PUSH0 SWAP1 SLOAD SWAP1 PUSH2 0x100 EXP SWAP1 DIV PUSH20 0xFFFFFFFFFFFFFFFFFFFFFFFFFFFFFFFFFFFFFFFF AND PUSH20 0xFFFFFFFFFFFFFFFFFFFFFFFFFFFFFFFFFFFFFFFF AND PUSH4 0x70A08231 ADDRESS PUSH1 0x40 MLOAD DUP3 PUSH4 0xFFFFFFFF AND PUSH1 0xE0 SHL DUP2 MSTORE PUSH1 0x4 ADD PUSH2 0x1F21 SWAP2 SWAP1 PUSH2 0x272D JUMP JUMPDEST PUSH1 0x20 PUSH1 0x40 MLOAD DUP1 DUP4 SUB DUP2 DUP7 GAS STATICCALL ISZERO DUP1 ISZERO PUSH2 0x1F3C JUMPI RETURNDATASIZE PUSH0 PUSH0 RETURNDATACOPY RETURNDATASIZE PUSH0 REVERT JUMPDEST POP POP POP POP PUSH1 0x40 MLOAD RETURNDATASIZE PUSH1 0x1F NOT PUSH1 0x1F DUP3 ADD AND DUP3 ADD DUP1 PUSH1 0x40 MSTORE POP DUP2 ADD SWAP1 PUSH2 0x1F60 SWAP2 SWAP1 PUSH2 0x315F JUMP JUMPDEST SWAP1 POP PUSH0 PUSH1 0x5 SLOAD PUSH1 0x6 SLOAD PUSH2 0x1F73 SWAP2 SWAP1 PUSH2 0x3964 JUMP JUMPDEST SWAP1 POP DUP1 DUP3 LT ISZERO PUSH2 0x1FBC JUMPI DUP2 DUP2 PUSH1 0x40 MLOAD PUSH32 0x4E88422A00000000000000000000000000000000000000000000000000000000 DUP2 MSTORE PUSH1 0x4 ADD PUSH2 0x1FB3 SWAP3 SWAP2 SWAP1 PUSH2 0x3C11 JUMP JUMPDEST PUSH1 0x40 MLOAD DUP1 SWAP2 SUB SWAP1 REVERT JUMPDEST POP POP JUMP JUMPDEST PUSH0 PUSH1 0x1 PUSH1 0xFF AND DUP3 PUSH0 ADD MLOAD PUSH1 0xFF AND SUB PUSH2 0x2081 JUMPI PUSH32 0x0 PUSH20 0xFFFFFFFFFFFFFFFFFFFFFFFFFFFFFFFFFFFFFFFF AND PUSH4 0x1698EE82 DUP4 PUSH1 0x20 ADD MLOAD DUP5 PUSH1 0x40 ADD MLOAD DUP6 PUSH1 0x60 ADD MLOAD PUSH1 0x40 MLOAD DUP5 PUSH4 0xFFFFFFFF AND PUSH1 0xE0 SHL DUP2 MSTORE PUSH1 0x4 ADD PUSH2 0x203B SWAP4 SWAP3 SWAP2 SWAP1 PUSH2 0x3C47 JUMP JUMPDEST PUSH1 0x20 PUSH1 0x40 MLOAD DUP1 DUP4 SUB DUP2 DUP7 GAS STATICCALL ISZERO DUP1 ISZERO PUSH2 0x2056 JUMPI RETURNDATASIZE PUSH0 PUSH0 RETURNDATACOPY RETURNDATASIZE PUSH0 REVERT JUMPDEST POP POP POP POP PUSH1 0x40 MLOAD RETURNDATASIZE PUSH1 0x1F NOT PUSH1 0x1F DUP3 ADD AND DUP3 ADD DUP1 PUSH1 0x40 MSTORE POP DUP2 ADD SWAP1 PUSH2 0x207A SWAP2 SWAP1 PUSH2 0x3C7C JUMP JUMPDEST SWAP1 POP PUSH2 0x22FB JUMP JUMPDEST PUSH1 0x2 PUSH1 0xFF AND DUP3 PUSH0 ADD MLOAD PUSH1 0xFF AND SUB PUSH2 0x2141 JUMPI PUSH32 0x0 PUSH20 0xFFFFFFFFFFFFFFFFFFFFFFFFFFFFFFFFFFFFFFFF AND PUSH4 0x1698EE82 DUP4 PUSH1 0x20 ADD MLOAD DUP5 PUSH1 0x40 ADD MLOAD DUP6 PUSH1 0x60 ADD MLOAD PUSH1 0x40 MLOAD DUP5 PUSH4 0xFFFFFFFF AND PUSH1 0xE0 SHL DUP2 MSTORE PUSH1 0x4 ADD PUSH2 0x20FB SWAP4 SWAP3 SWAP2 SWAP1 PUSH2 0x3C47 JUMP JUMPDEST PUSH1 0x20 PUSH1 0x40 MLOAD DUP1 DUP4 SUB DUP2 DUP7 GAS STATICCALL ISZERO DUP1 ISZERO PUSH2 0x2116 JUMPI RETURNDATASIZE PUSH0 PUSH0 RETURNDATACOPY RETURNDATASIZE PUSH0 REVERT JUMPDEST POP POP POP POP PUSH1 0x40 MLOAD RETURNDATASIZE PUSH1 0x1F NOT PUSH1 0x1F DUP3 ADD AND DUP3 ADD DUP1 PUSH1 0x40 MSTORE POP DUP2 ADD SWAP1 PUSH2 0x213A SWAP2 SWAP1 PUSH2 0x3C7C JUMP JUMPDEST SWAP1 POP PUSH2 0x22FB JUMP JUMPDEST PUSH1 0x3 PUSH1 0xFF AND DUP3 PUSH0 ADD MLOAD PUSH1 0xFF AND SUB PUSH2 0x21FB JUMPI PUSH32 0x0 PUSH20 0xFFFFFFFFFFFFFFFFFFFFFFFFFFFFFFFFFFFFFFFF AND PUSH4 0xD9A641E1 DUP4 PUSH1 0x20 ADD MLOAD DUP5 PUSH1 0x40 ADD MLOAD PUSH1 0x40 MLOAD DUP4 PUSH4 0xFFFFFFFF AND PUSH1 0xE0 SHL DUP2 MSTORE PUSH1 0x4 ADD PUSH2 0x21B5 SWAP3 SWAP2 SWAP1 PUSH2 0x3ACD JUMP JUMPDEST PUSH1 0x20 PUSH1 0x40 MLOAD DUP1 DUP4 SUB DUP2 DUP7 GAS STATICCALL ISZERO DUP1 ISZERO PUSH2 0x21D0 JUMPI RETURNDATASIZE PUSH0 PUSH0 RETURNDATACOPY RETURNDATASIZE PUSH0 REVERT JUMPDEST POP POP POP POP PUSH1 0x40 MLOAD RETURNDATASIZE PUSH1 0x1F NOT PUSH1 0x1F DUP3 ADD AND DUP3 ADD DUP1 PUSH1 0x40 MSTORE POP DUP2 ADD SWAP1 PUSH2 0x21F4 SWAP2 SWAP1 PUSH2 0x3C7C JUMP JUMPDEST SWAP1 POP PUSH2 0x22FB JUMP JUMPDEST PUSH1 0x4 PUSH1 0xFF AND DUP3 PUSH0 ADD MLOAD PUSH1 0xFF AND SUB PUSH2 0x22BB JUMPI PUSH32 0x0 PUSH20 0xFFFFFFFFFFFFFFFFFFFFFFFFFFFFFFFFFFFFFFFF AND PUSH4 0x1698EE82 DUP4 PUSH1 0x20 ADD MLOAD DUP5 PUSH1 0x40 ADD MLOAD DUP6 PUSH1 0x60 ADD MLOAD PUSH1 0x40 MLOAD DUP5 PUSH4 0xFFFFFFFF AND PUSH1 0xE0 SHL DUP2 MSTORE PUSH1 0x4 ADD PUSH2 0x2275 SWAP4 SWAP3 SWAP2 SWAP1 PUSH2 0x3C47 JUMP JUMPDEST PUSH1 0x20 PUSH1 0x40 MLOAD DUP1 DUP4 SUB DUP2 DUP7 GAS STATICCALL ISZERO DUP1 ISZERO PUSH2 0x2290 JUMPI RETURNDATASIZE PUSH0 PUSH0 RETURNDATACOPY RETURNDATASIZE PUSH0 REVERT JUMPDEST POP POP POP POP PUSH1 0x40 MLOAD RETURNDATASIZE PUSH1 0x1F NOT PUSH1 0x1F DUP3 ADD AND DUP3 ADD DUP1 PUSH1 0x40 MSTORE POP DUP2 ADD SWAP1 PUSH2 0x22B4 SWAP2 SWAP1 PUSH2 0x3C7C JUMP JUMPDEST SWAP1 POP PUSH2 0x22FB JUMP JUMPDEST DUP2 PUSH0 ADD MLOAD PUSH1 0x40 MLOAD PUSH32 0xF850442B00000000000000000000000000000000000000000000000000000000 DUP2 MSTORE PUSH1 0x4 ADD PUSH2 0x22F2 SWAP2 SWAP1 PUSH2 0x3AB4 JUMP JUMPDEST PUSH1 0x40 MLOAD DUP1 SWAP2 SUB SWAP1 REVERT JUMPDEST SWAP2 SWAP1 POP JUMP JUMPDEST PUSH0 PUSH0 PUSH0 DUP6 PUSH20 0xFFFFFFFFFFFFFFFFFFFFFFFFFFFFFFFFFFFFFFFF AND PUSH4 0xDD62ED3E PUSH1 0xE0 SHL DUP7 DUP7 PUSH1 0x40 MLOAD PUSH1 0x24 ADD PUSH2 0x2335 SWAP3 SWAP2 SWAP1 PUSH2 0x3ACD JUMP JUMPDEST PUSH1 0x40 MLOAD PUSH1 0x20 DUP2 DUP4 SUB SUB DUP2 MSTORE SWAP1 PUSH1 0x40 MSTORE SWAP1 PUSH28 0xFFFFFFFFFFFFFFFFFFFFFFFFFFFFFFFFFFFFFFFFFFFFFFFFFFFFFFFF NOT AND PUSH1 0x20 DUP3 ADD DUP1 MLOAD PUSH28 0xFFFFFFFFFFFFFFFFFFFFFFFFFFFFFFFFFFFFFFFFFFFFFFFFFFFFFFFF DUP4 DUP2 DUP4 AND OR DUP4 MSTORE POP POP POP POP PUSH1 0x40 MLOAD PUSH2 0x239F SWAP2 SWAP1 PUSH2 0x3B4B JUMP JUMPDEST PUSH0 PUSH1 0x40 MLOAD DUP1 DUP4 SUB DUP2 DUP6 GAS STATICCALL SWAP2 POP POP RETURNDATASIZE DUP1 PUSH0 DUP2 EQ PUSH2 0x23D7 JUMPI PUSH1 0x40 MLOAD SWAP2 POP PUSH1 0x1F NOT PUSH1 0x3F RETURNDATASIZE ADD AND DUP3 ADD PUSH1 0x40 MSTORE RETURNDATASIZE DUP3 MSTORE RETURNDATASIZE PUSH0 PUSH1 0x20 DUP5 ADD RETURNDATACOPY PUSH2 0x23DC JUMP JUMPDEST PUSH1 0x60 SWAP2 POP JUMPDEST POP SWAP2 POP SWAP2 POP DUP2 ISZERO DUP1 PUSH2 0x23EF JUMPI POP PUSH1 0x20 DUP2 MLOAD LT JUMPDEST ISZERO PUSH2 0x2433 JUMPI DUP6 DUP5 PUSH1 0x40 MLOAD PUSH32 0x1B6C83AB00000000000000000000000000000000000000000000000000000000 DUP2 MSTORE PUSH1 0x4 ADD PUSH2 0x242A SWAP3 SWAP2 SWAP1 PUSH2 0x3ACD JUMP JUMPDEST PUSH1 0x40 MLOAD DUP1 SWAP2 SUB SWAP1 REVERT JUMPDEST DUP1 DUP1 PUSH1 0x20 ADD SWAP1 MLOAD DUP2 ADD SWAP1 PUSH2 0x2447 SWAP2 SWAP1 PUSH2 0x315F JUMP JUMPDEST SWAP3 POP POP POP SWAP4 SWAP3 POP POP POP JUMP JUMPDEST PUSH0 PUSH0 DUP5 PUSH20 0xFFFFFFFFFFFFFFFFFFFFFFFFFFFFFFFFFFFFFFFF AND PUSH4 0x95EA7B3 PUSH1 0xE0 SHL DUP6 DUP6 PUSH1 0x40 MLOAD PUSH1 0x24 ADD PUSH2 0x2486 SWAP3 SWAP2 SWAP1 PUSH2 0x3AF4 JUMP JUMPDEST PUSH1 0x40 MLOAD PUSH1 0x20 DUP2 DUP4 SUB SUB DUP2 MSTORE SWAP1 PUSH1 0x40 MSTORE SWAP1 PUSH28 0xFFFFFFFFFFFFFFFFFFFFFFFFFFFFFFFFFFFFFFFFFFFFFFFFFFFFFFFF NOT AND PUSH1 0x20 DUP3 ADD DUP1 MLOAD PUSH28 0xFFFFFFFFFFFFFFFFFFFFFFFFFFFFFFFFFFFFFFFFFFFFFFFFFFFFFFFF DUP4 DUP2 DUP4 AND OR DUP4 MSTORE POP POP POP POP PUSH1 0x40 MLOAD PUSH2 0x24F0 SWAP2 SWAP1 PUSH2 0x3B4B JUMP JUMPDEST PUSH0 PUSH1 0x40 MLOAD DUP1 DUP4 SUB DUP2 PUSH0 DUP7 GAS CALL SWAP2 POP POP RETURNDATASIZE DUP1 PUSH0 DUP2 EQ PUSH2 0x2529 JUMPI PUSH1 0x40 MLOAD SWAP2 POP PUSH1 0x1F NOT PUSH1 0x3F RETURNDATASIZE ADD AND DUP3 ADD PUSH1 0x40 MSTORE RETURNDATASIZE DUP3 MSTORE RETURNDATASIZE PUSH0 PUSH1 0x20 DUP5 ADD RETURNDATACOPY PUSH2 0x252E JUMP JUMPDEST PUSH1 0x60 SWAP2 POP JUMPDEST POP SWAP2 POP SWAP2 POP DUP2 ISZERO DUP1 PUSH2 0x255E JUMPI POP PUSH0 DUP2 MLOAD EQ ISZERO DUP1 ISZERO PUSH2 0x255D JUMPI POP DUP1 DUP1 PUSH1 0x20 ADD SWAP1 MLOAD DUP2 ADD SWAP1 PUSH2 0x255B SWAP2 SWAP1 PUSH2 0x3B75 JUMP JUMPDEST ISZERO JUMPDEST JUMPDEST ISZERO PUSH2 0x25A2 JUMPI DUP5 DUP5 PUSH1 0x40 MLOAD PUSH32 0x1B6C83AB00000000000000000000000000000000000000000000000000000000 DUP2 MSTORE PUSH1 0x4 ADD PUSH2 0x2599 SWAP3 SWAP2 SWAP1 PUSH2 0x3ACD JUMP JUMPDEST PUSH1 0x40 MLOAD DUP1 SWAP2 SUB SWAP1 REVERT JUMPDEST POP POP POP POP POP JUMP JUMPDEST PUSH0 PUSH1 0x40 MLOAD SWAP1 POP SWAP1 JUMP JUMPDEST PUSH0 PUSH0 REVERT JUMPDEST PUSH0 PUSH0 REVERT JUMPDEST PUSH0 PUSH20 0xFFFFFFFFFFFFFFFFFFFFFFFFFFFFFFFFFFFFFFFF DUP3 AND SWAP1 POP SWAP2 SWAP1 POP JUMP JUMPDEST PUSH0 PUSH2 0x25E3 DUP3 PUSH2 0x25BA JUMP JUMPDEST SWAP1 POP SWAP2 SWAP1 POP JUMP JUMPDEST PUSH2 0x25F3 DUP2 PUSH2 0x25D9 JUMP JUMPDEST DUP2 EQ PUSH2 0x25FD JUMPI PUSH0 PUSH0 REVERT JUMPDEST POP JUMP JUMPDEST PUSH0 DUP2 CALLDATALOAD SWAP1 POP PUSH2 0x260E DUP2 PUSH2 0x25EA JUMP JUMPDEST SWAP3 SWAP2 POP POP JUMP JUMPDEST PUSH0 DUP2 SWAP1 POP SWAP2 SWAP1 POP JUMP JUMPDEST PUSH2 0x2626 DUP2 PUSH2 0x2614 JUMP JUMPDEST DUP2 EQ PUSH2 0x2630 JUMPI PUSH0 PUSH0 REVERT JUMPDEST POP JUMP JUMPDEST PUSH0 DUP2 CALLDATALOAD SWAP1 POP PUSH2 0x2641 DUP2 PUSH2 0x261D JUMP JUMPDEST SWAP3 SWAP2 POP POP JUMP JUMPDEST PUSH0 PUSH0 PUSH1 0x40 DUP4 DUP6 SUB SLT ISZERO PUSH2 0x265D JUMPI PUSH2 0x265C PUSH2 0x25B2 JUMP JUMPDEST JUMPDEST PUSH0 PUSH2 0x266A DUP6 DUP3 DUP7 ADD PUSH2 0x2600 JUMP JUMPDEST SWAP3 POP POP PUSH1 0x20 PUSH2 0x267B DUP6 DUP3 DUP7 ADD PUSH2 0x2633 JUMP JUMPDEST SWAP2 POP POP SWAP3 POP SWAP3 SWAP1 POP JUMP JUMPDEST PUSH0 PUSH2 0x268F DUP3 PUSH2 0x25BA JUMP JUMPDEST SWAP1 POP SWAP2 SWAP1 POP JUMP JUMPDEST PUSH2 0x269F DUP2 PUSH2 0x2685 JUMP JUMPDEST DUP2 EQ PUSH2 0x26A9 JUMPI PUSH0 PUSH0 REVERT JUMPDEST POP JUMP JUMPDEST PUSH0 DUP2 CALLDATALOAD SWAP1 POP PUSH2 0x26BA DUP2 PUSH2 0x2696 JUMP JUMPDEST SWAP3 SWAP2 POP POP JUMP JUMPDEST PUSH0 PUSH1 0x20 DUP3 DUP5 SUB SLT ISZERO PUSH2 0x26D5 JUMPI PUSH2 0x26D4 PUSH2 0x25B2 JUMP JUMPDEST JUMPDEST PUSH0 PUSH2 0x26E2 DUP5 DUP3 DUP6 ADD PUSH2 0x26AC JUMP JUMPDEST SWAP2 POP POP SWAP3 SWAP2 POP POP JUMP JUMPDEST PUSH0 DUP2 ISZERO ISZERO SWAP1 POP SWAP2 SWAP1 POP JUMP JUMPDEST PUSH2 0x26FF DUP2 PUSH2 0x26EB JUMP JUMPDEST DUP3 MSTORE POP POP JUMP JUMPDEST PUSH0 PUSH1 0x20 DUP3 ADD SWAP1 POP PUSH2 0x2718 PUSH0 DUP4 ADD DUP5 PUSH2 0x26F6 JUMP JUMPDEST SWAP3 SWAP2 POP POP JUMP JUMPDEST PUSH2 0x2727 DUP2 PUSH2 0x2685 JUMP JUMPDEST DUP3 MSTORE POP POP JUMP JUMPDEST PUSH0 PUSH1 0x20 DUP3 ADD SWAP1 POP PUSH2 0x2740 PUSH0 DUP4 ADD DUP5 PUSH2 0x271E JUMP JUMPDEST SWAP3 SWAP2 POP POP JUMP JUMPDEST PUSH0 DUP2 SWAP1 POP SWAP2 SWAP1 POP JUMP JUMPDEST PUSH2 0x2758 DUP2 PUSH2 0x2746 JUMP JUMPDEST DUP2 EQ PUSH2 0x2762 JUMPI PUSH0 PUSH0 REVERT JUMPDEST POP JUMP JUMPDEST PUSH0 DUP2 CALLDATALOAD SWAP1 POP PUSH2 0x2773 DUP2 PUSH2 0x274F JUMP JUMPDEST SWAP3 SWAP2 POP POP JUMP JUMPDEST PUSH0 PUSH0 REVERT JUMPDEST PUSH0 PUSH0 REVERT JUMPDEST PUSH0 PUSH0 REVERT JUMPDEST PUSH0 PUSH0 DUP4 PUSH1 0x1F DUP5 ADD SLT PUSH2 0x279A JUMPI PUSH2 0x2799 PUSH2 0x2779 JUMP JUMPDEST JUMPDEST DUP3 CALLDATALOAD SWAP1 POP PUSH8 0xFFFFFFFFFFFFFFFF DUP2 GT ISZERO PUSH2 0x27B7 JUMPI PUSH2 0x27B6 PUSH2 0x277D JUMP JUMPDEST JUMPDEST PUSH1 0x20 DUP4 ADD SWAP2 POP DUP4 PUSH1 0x1 DUP3 MUL DUP4 ADD GT ISZERO PUSH2 0x27D3 JUMPI PUSH2 0x27D2 PUSH2 0x2781 JUMP JUMPDEST JUMPDEST SWAP3 POP SWAP3 SWAP1 POP JUMP JUMPDEST PUSH0 PUSH0 PUSH0 PUSH0 PUSH1 0x60 DUP6 DUP8 SUB SLT ISZERO PUSH2 0x27F2 JUMPI PUSH2 0x27F1 PUSH2 0x25B2 JUMP JUMPDEST JUMPDEST PUSH0 PUSH2 0x27FF DUP8 DUP3 DUP9 ADD PUSH2 0x2765 JUMP JUMPDEST SWAP5 POP POP PUSH1 0x20 PUSH2 0x2810 DUP8 DUP3 DUP9 ADD PUSH2 0x2765 JUMP JUMPDEST SWAP4 POP POP PUSH1 0x40 DUP6 ADD CALLDATALOAD PUSH8 0xFFFFFFFFFFFFFFFF DUP2 GT ISZERO PUSH2 0x2831 JUMPI PUSH2 0x2830 PUSH2 0x25B6 JUMP JUMPDEST JUMPDEST PUSH2 0x283D DUP8 DUP3 DUP9 ADD PUSH2 0x2785 JUMP JUMPDEST SWAP3 POP SWAP3 POP POP SWAP3 SWAP6 SWAP2 SWAP5 POP SWAP3 POP JUMP JUMPDEST PUSH0 PUSH0 REVERT JUMPDEST PUSH0 PUSH1 0xA0 DUP3 DUP5 SUB SLT ISZERO PUSH2 0x2864 JUMPI PUSH2 0x2863 PUSH2 0x284B JUMP JUMPDEST JUMPDEST DUP2 SWAP1 POP SWAP3 SWAP2 POP POP JUMP JUMPDEST PUSH0 PUSH0 PUSH0 PUSH1 0x60 DUP5 DUP7 SUB SLT ISZERO PUSH2 0x2884 JUMPI PUSH2 0x2883 PUSH2 0x25B2 JUMP JUMPDEST JUMPDEST PUSH0 PUSH2 0x2891 DUP7 DUP3 DUP8 ADD PUSH2 0x26AC JUMP JUMPDEST SWAP4 POP POP PUSH1 0x20 PUSH2 0x28A2 DUP7 DUP3 DUP8 ADD PUSH2 0x2633 JUMP JUMPDEST SWAP3 POP POP PUSH1 0x40 DUP5 ADD CALLDATALOAD PUSH8 0xFFFFFFFFFFFFFFFF DUP2 GT ISZERO PUSH2 0x28C3 JUMPI PUSH2 0x28C2 PUSH2 0x25B6 JUMP JUMPDEST JUMPDEST PUSH2 0x28CF DUP7 DUP3 DUP8 ADD PUSH2 0x284F JUMP JUMPDEST SWAP2 POP POP SWAP3 POP SWAP3 POP SWAP3 JUMP JUMPDEST PUSH2 0x28E2 DUP2 PUSH2 0x26EB JUMP JUMPDEST DUP2 EQ PUSH2 0x28EC JUMPI PUSH0 PUSH0 REVERT JUMPDEST POP JUMP JUMPDEST PUSH0 DUP2 CALLDATALOAD SWAP1 POP PUSH2 0x28FD DUP2 PUSH2 0x28D9 JUMP JUMPDEST SWAP3 SWAP2 POP POP JUMP JUMPDEST PUSH0 PUSH0 PUSH1 0x40 DUP4 DUP6 SUB SLT ISZERO PUSH2 0x2919 JUMPI PUSH2 0x2918 PUSH2 0x25B2 JUMP JUMPDEST JUMPDEST PUSH0 PUSH2 0x2926 DUP6 DUP3 DUP7 ADD PUSH2 0x26AC JUMP JUMPDEST SWAP3 POP POP PUSH1 0x20 PUSH2 0x2937 DUP6 DUP3 DUP7 ADD PUSH2 0x28EF JUMP JUMPDEST SWAP2 POP POP SWAP3 POP SWAP3 SWAP1 POP JUMP JUMPDEST PUSH0 PUSH0 PUSH1 0x40 DUP4 DUP6 SUB SLT ISZERO PUSH2 0x2957 JUMPI PUSH2 0x2956 PUSH2 0x25B2 JUMP JUMPDEST JUMPDEST PUSH0 PUSH2 0x2964 DUP6 DUP3 DUP7 ADD PUSH2 0x26AC JUMP JUMPDEST SWAP3 POP POP PUSH1 0x20 PUSH2 0x2975 DUP6 DUP3 DUP7 ADD PUSH2 0x26AC JUMP JUMPDEST SWAP2 POP POP SWAP3 POP SWAP3 SWAP1 POP JUMP JUMPDEST PUSH0 PUSH0 PUSH0 PUSH1 0x60 DUP5 DUP7 SUB SLT ISZERO PUSH2 0x2996 JUMPI PUSH2 0x2995 PUSH2 0x25B2 JUMP JUMPDEST JUMPDEST PUSH0 PUSH2 0x29A3 DUP7 DUP3 DUP8 ADD PUSH2 0x26AC JUMP JUMPDEST SWAP4 POP POP PUSH1 0x20 PUSH2 0x29B4 DUP7 DUP3 DUP8 ADD PUSH2 0x26AC JUMP JUMPDEST SWAP3 POP POP PUSH1 0x40 PUSH2 0x29C5 DUP7 DUP3 DUP8 ADD PUSH2 0x2633 JUMP JUMPDEST SWAP2 POP POP SWAP3 POP SWAP3 POP SWAP3 JUMP JUMPDEST PUSH0 PUSH1 0x1F NOT PUSH1 0x1F DUP4 ADD AND SWAP1 POP SWAP2 SWAP1 POP JUMP JUMPDEST PUSH32 0x4E487B7100000000000000000000000000000000000000000000000000000000 PUSH0 MSTORE PUSH1 0x41 PUSH1 0x4 MSTORE PUSH1 0x24 PUSH0 REVERT JUMPDEST PUSH2 0x2A15 DUP3 PUSH2 0x29CF JUMP JUMPDEST DUP2 ADD DUP2 DUP2 LT PUSH8 0xFFFFFFFFFFFFFFFF DUP3 GT OR ISZERO PUSH2 0x2A34 JUMPI PUSH2 0x2A33 PUSH2 0x29DF JUMP JUMPDEST JUMPDEST DUP1 PUSH1 0x40 MSTORE POP POP POP JUMP JUMPDEST PUSH0 PUSH2 0x2A46 PUSH2 0x25A9 JUMP JUMPDEST SWAP1 POP PUSH2 0x2A52 DUP3 DUP3 PUSH2 0x2A0C JUMP JUMPDEST SWAP2 SWAP1 POP JUMP JUMPDEST PUSH0 PUSH8 0xFFFFFFFFFFFFFFFF DUP3 GT ISZERO PUSH2 0x2A71 JUMPI PUSH2 0x2A70 PUSH2 0x29DF JUMP JUMPDEST JUMPDEST PUSH1 0x20 DUP3 MUL SWAP1 POP PUSH1 0x20 DUP2 ADD SWAP1 POP SWAP2 SWAP1 POP JUMP JUMPDEST PUSH0 PUSH2 0x2A8C DUP3 PUSH2 0x2685 JUMP JUMPDEST SWAP1 POP SWAP2 SWAP1 POP JUMP JUMPDEST PUSH2 0x2A9C DUP2 PUSH2 0x2A82 JUMP JUMPDEST DUP2 EQ PUSH2 0x2AA6 JUMPI PUSH0 PUSH0 REVERT JUMPDEST POP JUMP JUMPDEST PUSH0 DUP2 CALLDATALOAD SWAP1 POP PUSH2 0x2AB7 DUP2 PUSH2 0x2A93 JUMP JUMPDEST SWAP3 SWAP2 POP POP JUMP JUMPDEST PUSH0 PUSH2 0x2ACF PUSH2 0x2ACA DUP5 PUSH2 0x2A57 JUMP JUMPDEST PUSH2 0x2A3D JUMP JUMPDEST SWAP1 POP DUP1 DUP4 DUP3 MSTORE PUSH1 0x20 DUP3 ADD SWAP1 POP PUSH1 0x20 DUP5 MUL DUP4 ADD DUP6 DUP2 GT ISZERO PUSH2 0x2AF2 JUMPI PUSH2 0x2AF1 PUSH2 0x2781 JUMP JUMPDEST JUMPDEST DUP4 JUMPDEST DUP2 DUP2 LT ISZERO PUSH2 0x2B1B JUMPI DUP1 PUSH2 0x2B07 DUP9 DUP3 PUSH2 0x2AA9 JUMP JUMPDEST DUP5 MSTORE PUSH1 0x20 DUP5 ADD SWAP4 POP POP PUSH1 0x20 DUP2 ADD SWAP1 POP PUSH2 0x2AF4 JUMP JUMPDEST POP POP POP SWAP4 SWAP3 POP POP POP JUMP JUMPDEST PUSH0 DUP3 PUSH1 0x1F DUP4 ADD SLT PUSH2 0x2B39 JUMPI PUSH2 0x2B38 PUSH2 0x2779 JUMP JUMPDEST JUMPDEST DUP2 CALLDATALOAD PUSH2 0x2B49 DUP5 DUP3 PUSH1 0x20 DUP7 ADD PUSH2 0x2ABD JUMP JUMPDEST SWAP2 POP POP SWAP3 SWAP2 POP POP JUMP JUMPDEST PUSH0 PUSH8 0xFFFFFFFFFFFFFFFF DUP3 GT ISZERO PUSH2 0x2B6C JUMPI PUSH2 0x2B6B PUSH2 0x29DF JUMP JUMPDEST JUMPDEST PUSH1 0x20 DUP3 MUL SWAP1 POP PUSH1 0x20 DUP2 ADD SWAP1 POP SWAP2 SWAP1 POP JUMP JUMPDEST PUSH0 PUSH2 0x2B8F PUSH2 0x2B8A DUP5 PUSH2 0x2B52 JUMP JUMPDEST PUSH2 0x2A3D JUMP JUMPDEST SWAP1 POP DUP1 DUP4 DUP3 MSTORE PUSH1 0x20 DUP3 ADD SWAP1 POP PUSH1 0x20 DUP5 MUL DUP4 ADD DUP6 DUP2 GT ISZERO PUSH2 0x2BB2 JUMPI PUSH2 0x2BB1 PUSH2 0x2781 JUMP JUMPDEST JUMPDEST DUP4 JUMPDEST DUP2 DUP2 LT ISZERO PUSH2 0x2BDB JUMPI DUP1 PUSH2 0x2BC7 DUP9 DUP3 PUSH2 0x2633 JUMP JUMPDEST DUP5 MSTORE PUSH1 0x20 DUP5 ADD SWAP4 POP POP PUSH1 0x20 DUP2 ADD SWAP1 POP PUSH2 0x2BB4 JUMP JUMPDEST POP POP POP SWAP4 SWAP3 POP POP POP JUMP JUMPDEST PUSH0 DUP3 PUSH1 0x1F DUP4 ADD SLT PUSH2 0x2BF9 JUMPI PUSH2 0x2BF8 PUSH2 0x2779 JUMP JUMPDEST JUMPDEST DUP2 CALLDATALOAD PUSH2 0x2C09 DUP5 DUP3 PUSH1 0x20 DUP7 ADD PUSH2 0x2B7D JUMP JUMPDEST SWAP2 POP POP SWAP3 SWAP2 POP POP JUMP JUMPDEST PUSH0 PUSH0 REVERT JUMPDEST PUSH0 PUSH8 0xFFFFFFFFFFFFFFFF DUP3 GT ISZERO PUSH2 0x2C30 JUMPI PUSH2 0x2C2F PUSH2 0x29DF JUMP JUMPDEST JUMPDEST PUSH2 0x2C39 DUP3 PUSH2 0x29CF JUMP JUMPDEST SWAP1 POP PUSH1 0x20 DUP2 ADD SWAP1 POP SWAP2 SWAP1 POP JUMP JUMPDEST DUP3 DUP2 DUP4 CALLDATACOPY PUSH0 DUP4 DUP4 ADD MSTORE POP POP POP JUMP JUMPDEST PUSH0 PUSH2 0x2C66 PUSH2 0x2C61 DUP5 PUSH2 0x2C16 JUMP JUMPDEST PUSH2 0x2A3D JUMP JUMPDEST SWAP1 POP DUP3 DUP2 MSTORE PUSH1 0x20 DUP2 ADD DUP5 DUP5 DUP5 ADD GT ISZERO PUSH2 0x2C82 JUMPI PUSH2 0x2C81 PUSH2 0x2C12 JUMP JUMPDEST JUMPDEST PUSH2 0x2C8D DUP5 DUP3 DUP6 PUSH2 0x2C46 JUMP JUMPDEST POP SWAP4 SWAP3 POP POP POP JUMP JUMPDEST PUSH0 DUP3 PUSH1 0x1F DUP4 ADD SLT PUSH2 0x2CA9 JUMPI PUSH2 0x2CA8 PUSH2 0x2779 JUMP JUMPDEST JUMPDEST DUP2 CALLDATALOAD PUSH2 0x2CB9 DUP5 DUP3 PUSH1 0x20 DUP7 ADD PUSH2 0x2C54 JUMP JUMPDEST SWAP2 POP POP SWAP3 SWAP2 POP POP JUMP JUMPDEST PUSH0 PUSH0 PUSH0 PUSH0 PUSH1 0x80 DUP6 DUP8 SUB SLT ISZERO PUSH2 0x2CDA JUMPI PUSH2 0x2CD9 PUSH2 0x25B2 JUMP JUMPDEST JUMPDEST PUSH0 DUP6 ADD CALLDATALOAD PUSH8 0xFFFFFFFFFFFFFFFF DUP2 GT ISZERO PUSH2 0x2CF7 JUMPI PUSH2 0x2CF6 PUSH2 0x25B6 JUMP JUMPDEST JUMPDEST PUSH2 0x2D03 DUP8 DUP3 DUP9 ADD PUSH2 0x2B25 JUMP JUMPDEST SWAP5 POP POP PUSH1 0x20 DUP6 ADD CALLDATALOAD PUSH8 0xFFFFFFFFFFFFFFFF DUP2 GT ISZERO PUSH2 0x2D24 JUMPI PUSH2 0x2D23 PUSH2 0x25B6 JUMP JUMPDEST JUMPDEST PUSH2 0x2D30 DUP8 DUP3 DUP9 ADD PUSH2 0x2BE5 JUMP JUMPDEST SWAP4 POP POP PUSH1 0x40 DUP6 ADD CALLDATALOAD PUSH8 0xFFFFFFFFFFFFFFFF DUP2 GT ISZERO PUSH2 0x2D51 JUMPI PUSH2 0x2D50 PUSH2 0x25B6 JUMP JUMPDEST JUMPDEST PUSH2 0x2D5D DUP8 DUP3 DUP9 ADD PUSH2 0x2BE5 JUMP JUMPDEST SWAP3 POP POP PUSH1 0x60 DUP6 ADD CALLDATALOAD PUSH8 0xFFFFFFFFFFFFFFFF DUP2 GT ISZERO PUSH2 0x2D7E JUMPI PUSH2 0x2D7D PUSH2 0x25B6 JUMP JUMPDEST JUMPDEST PUSH2 0x2D8A DUP8 DUP3 DUP9 ADD PUSH2 0x2C95 JUMP JUMPDEST SWAP2 POP POP SWAP3 SWAP6 SWAP2 SWAP5 POP SWAP3 POP JUMP JUMPDEST PUSH0 DUP2 SWAP1 POP SWAP3 SWAP2 POP POP JUMP JUMPDEST POP JUMP JUMPDEST PUSH0 PUSH2 0x2DAE PUSH0 DUP4 PUSH2 0x2D96 JUMP JUMPDEST SWAP2 POP PUSH2 0x2DB9 DUP3 PUSH2 0x2DA0 JUMP JUMPDEST PUSH0 DUP3 ADD SWAP1 POP SWAP2 SWAP1 POP JUMP JUMPDEST PUSH0 PUSH2 0x2DCD DUP3 PUSH2 0x2DA3 JUMP JUMPDEST SWAP2 POP DUP2 SWAP1 POP SWAP2 SWAP1 POP JUMP JUMPDEST PUSH0 DUP2 SWAP1 POP SWAP2 SWAP1 POP JUMP JUMPDEST PUSH0 PUSH2 0x2DFA PUSH2 0x2DF5 PUSH2 0x2DF0 DUP5 PUSH2 0x25BA JUMP JUMPDEST PUSH2 0x2DD7 JUMP JUMPDEST PUSH2 0x25BA JUMP JUMPDEST SWAP1 POP SWAP2 SWAP1 POP JUMP JUMPDEST PUSH0 PUSH2 0x2E0B DUP3 PUSH2 0x2DE0 JUMP JUMPDEST SWAP1 POP SWAP2 SWAP1 POP JUMP JUMPDEST PUSH0 PUSH2 0x2E1C DUP3 PUSH2 0x2E01 JUMP JUMPDEST SWAP1 POP SWAP2 SWAP1 POP JUMP JUMPDEST PUSH2 0x2E2C DUP2 PUSH2 0x2E12 JUMP JUMPDEST DUP3 MSTORE POP POP JUMP JUMPDEST PUSH2 0x2E3B DUP2 PUSH2 0x2614 JUMP JUMPDEST DUP3 MSTORE POP POP JUMP JUMPDEST PUSH0 PUSH1 0x60 DUP3 ADD SWAP1 POP PUSH2 0x2E54 PUSH0 DUP4 ADD DUP7 PUSH2 0x271E JUMP JUMPDEST PUSH2 0x2E61 PUSH1 0x20 DUP4 ADD DUP6 PUSH2 0x2E23 JUMP JUMPDEST PUSH2 0x2E6E PUSH1 0x40 DUP4 ADD DUP5 PUSH2 0x2E32 JUMP JUMPDEST SWAP5 SWAP4 POP POP POP POP JUMP JUMPDEST PUSH0 PUSH1 0x20 DUP3 ADD SWAP1 POP PUSH2 0x2E89 PUSH0 DUP4 ADD DUP5 PUSH2 0x2E32 JUMP JUMPDEST SWAP3 SWAP2 POP POP JUMP JUMPDEST PUSH0 PUSH0 REVERT JUMPDEST PUSH0 PUSH0 REVERT JUMPDEST PUSH0 PUSH0 REVERT JUMPDEST PUSH0 PUSH0 DUP4 CALLDATALOAD PUSH1 0x1 PUSH1 0x20 SUB DUP5 CALLDATASIZE SUB SUB DUP2 SLT PUSH2 0x2EB7 JUMPI PUSH2 0x2EB6 PUSH2 0x2E8F JUMP JUMPDEST JUMPDEST DUP1 DUP5 ADD SWAP3 POP DUP3 CALLDATALOAD SWAP2 POP PUSH8 0xFFFFFFFFFFFFFFFF DUP3 GT ISZERO PUSH2 0x2ED9 JUMPI PUSH2 0x2ED8 PUSH2 0x2E93 JUMP JUMPDEST JUMPDEST PUSH1 0x20 DUP4 ADD SWAP3 POP PUSH1 0x20 DUP3 MUL CALLDATASIZE SUB DUP4 SGT ISZERO PUSH2 0x2EF5 JUMPI PUSH2 0x2EF4 PUSH2 0x2E97 JUMP JUMPDEST JUMPDEST POP SWAP3 POP SWAP3 SWAP1 POP JUMP JUMPDEST PUSH0 DUP3 DUP3 MSTORE PUSH1 0x20 DUP3 ADD SWAP1 POP SWAP3 SWAP2 POP POP JUMP JUMPDEST PUSH0 DUP2 SWAP1 POP SWAP2 SWAP1 POP JUMP JUMPDEST PUSH0 PUSH2 0x2F24 PUSH1 0x20 DUP5 ADD DUP5 PUSH2 0x26AC JUMP JUMPDEST SWAP1 POP SWAP3 SWAP2 POP POP JUMP JUMPDEST PUSH2 0x2F35 DUP2 PUSH2 0x2685 JUMP JUMPDEST DUP3 MSTORE POP POP JUMP JUMPDEST PUSH0 PUSH2 0x2F49 PUSH1 0x20 DUP5 ADD DUP5 PUSH2 0x2633 JUMP JUMPDEST SWAP1 POP SWAP3 SWAP2 POP POP JUMP JUMPDEST PUSH2 0x2F5A DUP2 PUSH2 0x2614 JUMP JUMPDEST DUP3 MSTORE POP POP JUMP JUMPDEST PUSH0 PUSH0 REVERT JUMPDEST PUSH0 PUSH0 REVERT JUMPDEST PUSH0 PUSH0 REVERT JUMPDEST PUSH0 PUSH0 DUP4 CALLDATALOAD PUSH1 0x1 PUSH1 0x20 SUB DUP5 CALLDATASIZE SUB SUB DUP2 SLT PUSH2 0x2F88 JUMPI PUSH2 0x2F87 PUSH2 0x2F68 JUMP JUMPDEST JUMPDEST DUP4 DUP2 ADD SWAP3 POP DUP3 CALLDATALOAD SWAP2 POP PUSH1 0x20 DUP4 ADD SWAP3 POP PUSH8 0xFFFFFFFFFFFFFFFF DUP3 GT ISZERO PUSH2 0x2FB0 JUMPI PUSH2 0x2FAF PUSH2 0x2F60 JUMP JUMPDEST JUMPDEST PUSH1 0x1 DUP3 MUL CALLDATASIZE SUB DUP4 SGT ISZERO PUSH2 0x2FC6 JUMPI PUSH2 0x2FC5 PUSH2 0x2F64 JUMP JUMPDEST JUMPDEST POP SWAP3 POP SWAP3 SWAP1 POP JUMP JUMPDEST PUSH0 DUP3 DUP3 MSTORE PUSH1 0x20 DUP3 ADD SWAP1 POP SWAP3 SWAP2 POP POP JUMP JUMPDEST PUSH0 PUSH2 0x2FE9 DUP4 DUP6 PUSH2 0x2FCE JUMP JUMPDEST SWAP4 POP PUSH2 0x2FF6 DUP4 DUP6 DUP5 PUSH2 0x2C46 JUMP JUMPDEST PUSH2 0x2FFF DUP4 PUSH2 0x29CF JUMP JUMPDEST DUP5 ADD SWAP1 POP SWAP4 SWAP3 POP POP POP JUMP JUMPDEST PUSH0 PUSH1 0x60 DUP4 ADD PUSH2 0x301B PUSH0 DUP5 ADD DUP5 PUSH2 0x2F16 JUMP JUMPDEST PUSH2 0x3027 PUSH0 DUP7 ADD DUP3 PUSH2 0x2F2C JUMP JUMPDEST POP PUSH2 0x3035 PUSH1 0x20 DUP5 ADD DUP5 PUSH2 0x2F3B JUMP JUMPDEST PUSH2 0x3042 PUSH1 0x20 DUP7 ADD DUP3 PUSH2 0x2F51 JUMP JUMPDEST POP PUSH2 0x3050 PUSH1 0x40 DUP5 ADD DUP5 PUSH2 0x2F6C JUMP JUMPDEST DUP6 DUP4 SUB PUSH1 0x40 DUP8 ADD MSTORE PUSH2 0x3063 DUP4 DUP3 DUP5 PUSH2 0x2FDE JUMP JUMPDEST SWAP3 POP POP POP DUP1 SWAP2 POP POP SWAP3 SWAP2 POP POP JUMP JUMPDEST PUSH0 PUSH2 0x307C DUP4 DUP4 PUSH2 0x300A JUMP JUMPDEST SWAP1 POP SWAP3 SWAP2 POP POP JUMP JUMPDEST PUSH0 DUP3 CALLDATALOAD PUSH1 0x1 PUSH1 0x60 SUB DUP4 CALLDATASIZE SUB SUB DUP2 SLT PUSH2 0x309F JUMPI PUSH2 0x309E PUSH2 0x2F68 JUMP JUMPDEST JUMPDEST DUP3 DUP2 ADD SWAP2 POP POP SWAP3 SWAP2 POP POP JUMP JUMPDEST PUSH0 PUSH1 0x20 DUP3 ADD SWAP1 POP SWAP2 SWAP1 POP JUMP JUMPDEST PUSH0 PUSH2 0x30C2 DUP4 DUP6 PUSH2 0x2EFD JUMP JUMPDEST SWAP4 POP DUP4 PUSH1 0x20 DUP5 MUL DUP6 ADD PUSH2 0x30D4 DUP5 PUSH2 0x2F0D JUMP JUMPDEST DUP1 PUSH0 JUMPDEST DUP8 DUP2 LT ISZERO PUSH2 0x3117 JUMPI DUP5 DUP5 SUB DUP10 MSTORE PUSH2 0x30EE DUP3 DUP5 PUSH2 0x3084 JUMP JUMPDEST PUSH2 0x30F8 DUP6 DUP3 PUSH2 0x3071 JUMP JUMPDEST SWAP5 POP PUSH2 0x3103 DUP4 PUSH2 0x30AB JUMP JUMPDEST SWAP3 POP PUSH1 0x20 DUP11 ADD SWAP10 POP POP PUSH1 0x1 DUP2 ADD SWAP1 POP PUSH2 0x30D7 JUMP JUMPDEST POP DUP3 SWAP8 POP DUP8 SWAP5 POP POP POP POP POP SWAP4 SWAP3 POP POP POP JUMP JUMPDEST PUSH0 PUSH1 0x20 DUP3 ADD SWAP1 POP DUP2 DUP2 SUB PUSH0 DUP4 ADD MSTORE PUSH2 0x3142 DUP2 DUP5 DUP7 PUSH2 0x30B7 JUMP JUMPDEST SWAP1 POP SWAP4 SWAP3 POP POP POP JUMP JUMPDEST PUSH0 DUP2 MLOAD SWAP1 POP PUSH2 0x3159 DUP2 PUSH2 0x261D JUMP JUMPDEST SWAP3 SWAP2 POP POP JUMP JUMPDEST PUSH0 PUSH1 0x20 DUP3 DUP5 SUB SLT ISZERO PUSH2 0x3174 JUMPI PUSH2 0x3173 PUSH2 0x25B2 JUMP JUMPDEST JUMPDEST PUSH0 PUSH2 0x3181 DUP5 DUP3 DUP6 ADD PUSH2 0x314B JUMP JUMPDEST SWAP2 POP POP SWAP3 SWAP2 POP POP JUMP JUMPDEST PUSH32 0x4E487B7100000000000000000000000000000000000000000000000000000000 PUSH0 MSTORE PUSH1 0x32 PUSH1 0x4 MSTORE PUSH1 0x24 PUSH0 REVERT JUMPDEST PUSH0 DUP2 SWAP1 POP SWAP2 SWAP1 POP JUMP JUMPDEST PUSH2 0x31C9 DUP2 PUSH2 0x31B7 JUMP JUMPDEST DUP2 EQ PUSH2 0x31D3 JUMPI PUSH0 PUSH0 REVERT JUMPDEST POP JUMP JUMPDEST PUSH0 DUP2 CALLDATALOAD SWAP1 POP PUSH2 0x31E4 DUP2 PUSH2 0x31C0 JUMP JUMPDEST SWAP3 SWAP2 POP POP JUMP JUMPDEST PUSH0 PUSH2 0x31F8 PUSH1 0x20 DUP5 ADD DUP5 PUSH2 0x31D6 JUMP JUMPDEST SWAP1 POP SWAP3 SWAP2 POP POP JUMP JUMPDEST PUSH2 0x3209 DUP2 PUSH2 0x31B7 JUMP JUMPDEST DUP3 MSTORE POP POP JUMP JUMPDEST PUSH0 PUSH0 DUP4 CALLDATALOAD PUSH1 0x1 PUSH1 0x20 SUB DUP5 CALLDATASIZE SUB SUB DUP2 SLT PUSH2 0x322B JUMPI PUSH2 0x322A PUSH2 0x2F68 JUMP JUMPDEST JUMPDEST DUP4 DUP2 ADD SWAP3 POP DUP3 CALLDATALOAD SWAP2 POP PUSH1 0x20 DUP4 ADD SWAP3 POP PUSH8 0xFFFFFFFFFFFFFFFF DUP3 GT ISZERO PUSH2 0x3253 JUMPI PUSH2 0x3252 PUSH2 0x2F60 JUMP JUMPDEST JUMPDEST PUSH1 0x20 DUP3 MUL CALLDATASIZE SUB DUP4 SGT ISZERO PUSH2 0x3269 JUMPI PUSH2 0x3268 PUSH2 0x2F64 JUMP JUMPDEST JUMPDEST POP SWAP3 POP SWAP3 SWAP1 POP JUMP JUMPDEST PUSH0 DUP3 DUP3 MSTORE PUSH1 0x20 DUP3 ADD SWAP1 POP SWAP3 SWAP2 POP POP JUMP JUMPDEST PUSH0 PUSH2 0x328C DUP4 DUP6 PUSH2 0x3271 JUMP JUMPDEST SWAP4 POP DUP4 PUSH1 0x20 DUP5 MUL DUP6 ADD PUSH2 0x329E DUP5 PUSH2 0x2F0D JUMP JUMPDEST DUP1 PUSH0 JUMPDEST DUP8 DUP2 LT ISZERO PUSH2 0x32E1 JUMPI DUP5 DUP5 SUB DUP10 MSTORE PUSH2 0x32B8 DUP3 DUP5 PUSH2 0x3084 JUMP JUMPDEST PUSH2 0x32C2 DUP6 DUP3 PUSH2 0x3071 JUMP JUMPDEST SWAP5 POP PUSH2 0x32CD DUP4 PUSH2 0x30AB JUMP JUMPDEST SWAP3 POP PUSH1 0x20 DUP11 ADD SWAP10 POP POP PUSH1 0x1 DUP2 ADD SWAP1 POP PUSH2 0x32A1 JUMP JUMPDEST POP DUP3 SWAP8 POP DUP8 SWAP5 POP POP POP POP POP SWAP4 SWAP3 POP POP POP JUMP JUMPDEST PUSH0 PUSH1 0xA0 DUP4 ADD PUSH2 0x3304 PUSH0 DUP5 ADD DUP5 PUSH2 0x2F16 JUMP JUMPDEST PUSH2 0x3310 PUSH0 DUP7 ADD DUP3 PUSH2 0x2F2C JUMP JUMPDEST POP PUSH2 0x331E PUSH1 0x20 DUP5 ADD DUP5 PUSH2 0x2F3B JUMP JUMPDEST PUSH2 0x332B PUSH1 0x20 DUP7 ADD DUP3 PUSH2 0x2F51 JUMP JUMPDEST POP PUSH2 0x3339 PUSH1 0x40 DUP5 ADD DUP5 PUSH2 0x2F3B JUMP JUMPDEST PUSH2 0x3346 PUSH1 0x40 DUP7 ADD DUP3 PUSH2 0x2F51 JUMP JUMPDEST POP PUSH2 0x3354 PUSH1 0x60 DUP5 ADD DUP5 PUSH2 0x31EA JUMP JUMPDEST PUSH2 0x3361 PUSH1 0x60 DUP7 ADD DUP3 PUSH2 0x3200 JUMP JUMPDEST POP PUSH2 0x336F PUSH1 0x80 DUP5 ADD DUP5 PUSH2 0x320F JUMP JUMPDEST DUP6 DUP4 SUB PUSH1 0x80 DUP8 ADD MSTORE PUSH2 0x3382 DUP4 DUP3 DUP5 PUSH2 0x3281 JUMP JUMPDEST SWAP3 POP POP POP DUP1 SWAP2 POP POP SWAP3 SWAP2 POP POP JUMP JUMPDEST PUSH0 PUSH1 0x20 DUP3 ADD SWAP1 POP DUP2 DUP2 SUB PUSH0 DUP4 ADD MSTORE PUSH2 0x33A8 DUP2 DUP5 PUSH2 0x32F3 JUMP JUMPDEST SWAP1 POP SWAP3 SWAP2 POP POP JUMP JUMPDEST PUSH0 PUSH2 0x33BA DUP3 PUSH2 0x2E01 JUMP JUMPDEST SWAP1 POP SWAP2 SWAP1 POP JUMP JUMPDEST PUSH2 0x33CA DUP2 PUSH2 0x33B0 JUMP JUMPDEST DUP3 MSTORE POP POP JUMP JUMPDEST PUSH0 DUP2 MLOAD SWAP1 POP SWAP2 SWAP1 POP JUMP JUMPDEST PUSH0 DUP3 DUP3 MSTORE PUSH1 0x20 DUP3 ADD SWAP1 POP SWAP3 SWAP2 POP POP JUMP JUMPDEST PUSH0 DUP2 SWAP1 POP PUSH1 0x20 DUP3 ADD SWAP1 POP SWAP2 SWAP1 POP JUMP JUMPDEST PUSH0 PUSH2 0x3403 DUP3 PUSH2 0x2E01 JUMP JUMPDEST SWAP1 POP SWAP2 SWAP1 POP JUMP JUMPDEST PUSH2 0x3413 DUP2 PUSH2 0x33F9 JUMP JUMPDEST DUP3 MSTORE POP POP JUMP JUMPDEST PUSH0 PUSH2 0x3424 DUP4 DUP4 PUSH2 0x340A JUMP JUMPDEST PUSH1 0x20 DUP4 ADD SWAP1 POP SWAP3 SWAP2 POP POP JUMP JUMPDEST PUSH0 PUSH1 0x20 DUP3 ADD SWAP1 POP SWAP2 SWAP1 POP JUMP JUMPDEST PUSH0 PUSH2 0x3446 DUP3 PUSH2 0x33D0 JUMP JUMPDEST PUSH2 0x3450 DUP2 DUP6 PUSH2 0x33DA JUMP JUMPDEST SWAP4 POP PUSH2 0x345B DUP4 PUSH2 0x33EA JUMP JUMPDEST DUP1 PUSH0 JUMPDEST DUP4 DUP2 LT ISZERO PUSH2 0x348B JUMPI DUP2 MLOAD PUSH2 0x3472 DUP9 DUP3 PUSH2 0x3419 JUMP JUMPDEST SWAP8 POP PUSH2 0x347D DUP4 PUSH2 0x3430 JUMP JUMPDEST SWAP3 POP POP PUSH1 0x1 DUP2 ADD SWAP1 POP PUSH2 0x345E JUMP JUMPDEST POP DUP6 SWAP4 POP POP POP POP SWAP3 SWAP2 POP POP JUMP JUMPDEST PUSH0 DUP2 MLOAD SWAP1 POP SWAP2 SWAP1 POP JUMP JUMPDEST PUSH0 DUP3 DUP3 MSTORE PUSH1 0x20 DUP3 ADD SWAP1 POP SWAP3 SWAP2 POP POP JUMP JUMPDEST PUSH0 DUP2 SWAP1 POP PUSH1 0x20 DUP3 ADD SWAP1 POP SWAP2 SWAP1 POP JUMP JUMPDEST PUSH0 PUSH2 0x34CC DUP4 DUP4 PUSH2 0x2F51 JUMP JUMPDEST PUSH1 0x20 DUP4 ADD SWAP1 POP SWAP3 SWAP2 POP POP JUMP JUMPDEST PUSH0 PUSH1 0x20 DUP3 ADD SWAP1 POP SWAP2 SWAP1 POP JUMP JUMPDEST PUSH0 PUSH2 0x34EE DUP3 PUSH2 0x3498 JUMP JUMPDEST PUSH2 0x34F8 DUP2 DUP6 PUSH2 0x34A2 JUMP JUMPDEST SWAP4 POP PUSH2 0x3503 DUP4 PUSH2 0x34B2 JUMP JUMPDEST DUP1 PUSH0 JUMPDEST DUP4 DUP2 LT ISZERO PUSH2 0x3533 JUMPI DUP2 MLOAD PUSH2 0x351A DUP9 DUP3 PUSH2 0x34C1 JUMP JUMPDEST SWAP8 POP PUSH2 0x3525 DUP4 PUSH2 0x34D8 JUMP JUMPDEST SWAP3 POP POP PUSH1 0x1 DUP2 ADD SWAP1 POP PUSH2 0x3506 JUMP JUMPDEST POP DUP6 SWAP4 POP POP POP POP SWAP3 SWAP2 POP POP JUMP JUMPDEST PUSH0 DUP2 MLOAD SWAP1 POP SWAP2 SWAP1 POP JUMP JUMPDEST PUSH0 DUP3 DUP3 MSTORE PUSH1 0x20 DUP3 ADD SWAP1 POP SWAP3 SWAP2 POP POP JUMP JUMPDEST DUP3 DUP2 DUP4 MCOPY PUSH0 DUP4 DUP4 ADD MSTORE POP POP POP JUMP JUMPDEST PUSH0 PUSH2 0x3572 DUP3 PUSH2 0x3540 JUMP JUMPDEST PUSH2 0x357C DUP2 DUP6 PUSH2 0x354A JUMP JUMPDEST SWAP4 POP PUSH2 0x358C DUP2 DUP6 PUSH1 0x20 DUP7 ADD PUSH2 0x355A JUMP JUMPDEST PUSH2 0x3595 DUP2 PUSH2 0x29CF JUMP JUMPDEST DUP5 ADD SWAP2 POP POP SWAP3 SWAP2 POP POP JUMP JUMPDEST PUSH0 PUSH1 0x80 DUP3 ADD SWAP1 POP PUSH2 0x35B3 PUSH0 DUP4 ADD DUP8 PUSH2 0x33C1 JUMP JUMPDEST DUP2 DUP2 SUB PUSH1 0x20 DUP4 ADD MSTORE PUSH2 0x35C5 DUP2 DUP7 PUSH2 0x343C JUMP JUMPDEST SWAP1 POP DUP2 DUP2 SUB PUSH1 0x40 DUP4 ADD MSTORE PUSH2 0x35D9 DUP2 DUP6 PUSH2 0x34E4 JUMP JUMPDEST SWAP1 POP DUP2 DUP2 SUB PUSH1 0x60 DUP4 ADD MSTORE PUSH2 0x35ED DUP2 DUP5 PUSH2 0x3568 JUMP JUMPDEST SWAP1 POP SWAP6 SWAP5 POP POP POP POP POP JUMP JUMPDEST PUSH32 0x4E487B7100000000000000000000000000000000000000000000000000000000 PUSH0 MSTORE PUSH1 0x11 PUSH1 0x4 MSTORE PUSH1 0x24 PUSH0 REVERT JUMPDEST PUSH0 PUSH2 0x362F DUP3 PUSH2 0x2614 JUMP JUMPDEST SWAP2 POP PUSH2 0x363A DUP4 PUSH2 0x2614 JUMP JUMPDEST SWAP3 POP DUP3 DUP3 SUB SWAP1 POP DUP2 DUP2 GT ISZERO PUSH2 0x3652 JUMPI PUSH2 0x3651 PUSH2 0x35F8 JUMP JUMPDEST JUMPDEST SWAP3 SWAP2 POP POP JUMP JUMPDEST PUSH0 PUSH1 0x40 DUP3 ADD SWAP1 POP PUSH2 0x366B PUSH0 DUP4 ADD DUP6 PUSH2 0x2E32 JUMP JUMPDEST PUSH2 0x3678 PUSH1 0x20 DUP4 ADD DUP5 PUSH2 0x271E JUMP JUMPDEST SWAP4 SWAP3 POP POP POP JUMP JUMPDEST PUSH0 PUSH0 REVERT JUMPDEST PUSH0 PUSH0 REVERT JUMPDEST PUSH0 DUP2 MLOAD SWAP1 POP PUSH2 0x3695 DUP2 PUSH2 0x2696 JUMP JUMPDEST SWAP3 SWAP2 POP POP JUMP JUMPDEST PUSH0 DUP2 MLOAD SWAP1 POP PUSH2 0x36A9 DUP2 PUSH2 0x31C0 JUMP JUMPDEST SWAP3 SWAP2 POP POP JUMP JUMPDEST PUSH0 PUSH8 0xFFFFFFFFFFFFFFFF DUP3 GT ISZERO PUSH2 0x36C9 JUMPI PUSH2 0x36C8 PUSH2 0x29DF JUMP JUMPDEST JUMPDEST PUSH1 0x20 DUP3 MUL SWAP1 POP PUSH1 0x20 DUP2 ADD SWAP1 POP SWAP2 SWAP1 POP JUMP JUMPDEST PUSH0 PUSH2 0x36EC PUSH2 0x36E7 DUP5 PUSH2 0x2C16 JUMP JUMPDEST PUSH2 0x2A3D JUMP JUMPDEST SWAP1 POP DUP3 DUP2 MSTORE PUSH1 0x20 DUP2 ADD DUP5 DUP5 DUP5 ADD GT ISZERO PUSH2 0x3708 JUMPI PUSH2 0x3707 PUSH2 0x2C12 JUMP JUMPDEST JUMPDEST PUSH2 0x3713 DUP5 DUP3 DUP6 PUSH2 0x355A JUMP JUMPDEST POP SWAP4 SWAP3 POP POP POP JUMP JUMPDEST PUSH0 DUP3 PUSH1 0x1F DUP4 ADD SLT PUSH2 0x372F JUMPI PUSH2 0x372E PUSH2 0x2779 JUMP JUMPDEST JUMPDEST DUP2 MLOAD PUSH2 0x373F DUP5 DUP3 PUSH1 0x20 DUP7 ADD PUSH2 0x36DA JUMP JUMPDEST SWAP2 POP POP SWAP3 SWAP2 POP POP JUMP JUMPDEST PUSH0 PUSH1 0x60 DUP3 DUP5 SUB SLT ISZERO PUSH2 0x375D JUMPI PUSH2 0x375C PUSH2 0x367F JUMP JUMPDEST JUMPDEST PUSH2 0x3767 PUSH1 0x60 PUSH2 0x2A3D JUMP JUMPDEST SWAP1 POP PUSH0 PUSH2 0x3776 DUP5 DUP3 DUP6 ADD PUSH2 0x3687 JUMP JUMPDEST PUSH0 DUP4 ADD MSTORE POP PUSH1 0x20 PUSH2 0x3789 DUP5 DUP3 DUP6 ADD PUSH2 0x314B JUMP JUMPDEST PUSH1 0x20 DUP4 ADD MSTORE POP PUSH1 0x40 DUP3 ADD MLOAD PUSH8 0xFFFFFFFFFFFFFFFF DUP2 GT ISZERO PUSH2 0x37AD JUMPI PUSH2 0x37AC PUSH2 0x3683 JUMP JUMPDEST JUMPDEST PUSH2 0x37B9 DUP5 DUP3 DUP6 ADD PUSH2 0x371B JUMP JUMPDEST PUSH1 0x40 DUP4 ADD MSTORE POP SWAP3 SWAP2 POP POP JUMP JUMPDEST PUSH0 PUSH2 0x37D7 PUSH2 0x37D2 DUP5 PUSH2 0x36AF JUMP JUMPDEST PUSH2 0x2A3D JUMP JUMPDEST SWAP1 POP DUP1 DUP4 DUP3 MSTORE PUSH1 0x20 DUP3 ADD SWAP1 POP PUSH1 0x20 DUP5 MUL DUP4 ADD DUP6 DUP2 GT ISZERO PUSH2 0x37FA JUMPI PUSH2 0x37F9 PUSH2 0x2781 JUMP JUMPDEST JUMPDEST DUP4 JUMPDEST DUP2 DUP2 LT ISZERO PUSH2 0x3841 JUMPI DUP1 MLOAD PUSH8 0xFFFFFFFFFFFFFFFF DUP2 GT ISZERO PUSH2 0x381F JUMPI PUSH2 0x381E PUSH2 0x2779 JUMP JUMPDEST JUMPDEST DUP1 DUP7 ADD PUSH2 0x382C DUP10 DUP3 PUSH2 0x3748 JUMP JUMPDEST DUP6 MSTORE PUSH1 0x20 DUP6 ADD SWAP5 POP POP POP PUSH1 0x20 DUP2 ADD SWAP1 POP PUSH2 0x37FC JUMP JUMPDEST POP POP POP SWAP4 SWAP3 POP POP POP JUMP JUMPDEST PUSH0 DUP3 PUSH1 0x1F DUP4 ADD SLT PUSH2 0x385F JUMPI PUSH2 0x385E PUSH2 0x2779 JUMP JUMPDEST JUMPDEST DUP2 MLOAD PUSH2 0x386F DUP5 DUP3 PUSH1 0x20 DUP7 ADD PUSH2 0x37C5 JUMP JUMPDEST SWAP2 POP POP SWAP3 SWAP2 POP POP JUMP JUMPDEST PUSH0 PUSH1 0xA0 DUP3 DUP5 SUB SLT ISZERO PUSH2 0x388D JUMPI PUSH2 0x388C PUSH2 0x367F JUMP JUMPDEST JUMPDEST PUSH2 0x3897 PUSH1 0xA0 PUSH2 0x2A3D JUMP JUMPDEST SWAP1 POP PUSH0 PUSH2 0x38A6 DUP5 DUP3 DUP6 ADD PUSH2 0x3687 JUMP JUMPDEST PUSH0 DUP4 ADD MSTORE POP PUSH1 0x20 PUSH2 0x38B9 DUP5 DUP3 DUP6 ADD PUSH2 0x314B JUMP JUMPDEST PUSH1 0x20 DUP4 ADD MSTORE POP PUSH1 0x40 PUSH2 0x38CD DUP5 DUP3 DUP6 ADD PUSH2 0x314B JUMP JUMPDEST PUSH1 0x40 DUP4 ADD MSTORE POP PUSH1 0x60 PUSH2 0x38E1 DUP5 DUP3 DUP6 ADD PUSH2 0x369B JUMP JUMPDEST PUSH1 0x60 DUP4 ADD MSTORE POP PUSH1 0x80 DUP3 ADD MLOAD PUSH8 0xFFFFFFFFFFFFFFFF DUP2 GT ISZERO PUSH2 0x3905 JUMPI PUSH2 0x3904 PUSH2 0x3683 JUMP JUMPDEST JUMPDEST PUSH2 0x3911 DUP5 DUP3 DUP6 ADD PUSH2 0x384B JUMP JUMPDEST PUSH1 0x80 DUP4 ADD MSTORE POP SWAP3 SWAP2 POP POP JUMP JUMPDEST PUSH0 PUSH1 0x20 DUP3 DUP5 SUB SLT ISZERO PUSH2 0x3932 JUMPI PUSH2 0x3931 PUSH2 0x25B2 JUMP JUMPDEST JUMPDEST PUSH0 DUP3 ADD MLOAD PUSH8 0xFFFFFFFFFFFFFFFF DUP2 GT ISZERO PUSH2 0x394F JUMPI PUSH2 0x394E PUSH2 0x25B6 JUMP JUMPDEST JUMPDEST PUSH2 0x395B DUP5 DUP3 DUP6 ADD PUSH2 0x3878 JUMP JUMPDEST SWAP2 POP POP SWAP3 SWAP2 POP POP JUMP JUMPDEST PUSH0 PUSH2 0x396E DUP3 PUSH2 0x2614 JUMP JUMPDEST SWAP2 POP PUSH2 0x3979 DUP4 PUSH2 0x2614 JUMP JUMPDEST SWAP3 POP DUP3 DUP3 ADD SWAP1 POP DUP1 DUP3 GT ISZERO PUSH2 0x3991 JUMPI PUSH2 0x3990 PUSH2 0x35F8 JUMP JUMPDEST JUMPDEST SWAP3 SWAP2 POP POP JUMP JUMPDEST PUSH0 PUSH1 0xFF DUP3 AND SWAP1 POP SWAP2 SWAP1 POP JUMP JUMPDEST PUSH2 0x39AC DUP2 PUSH2 0x3997 JUMP JUMPDEST DUP2 EQ PUSH2 0x39B6 JUMPI PUSH0 PUSH0 REVERT JUMPDEST POP JUMP JUMPDEST PUSH0 DUP2 CALLDATALOAD SWAP1 POP PUSH2 0x39C7 DUP2 PUSH2 0x39A3 JUMP JUMPDEST SWAP3 SWAP2 POP POP JUMP JUMPDEST PUSH0 PUSH3 0xFFFFFF DUP3 AND SWAP1 POP SWAP2 SWAP1 POP JUMP JUMPDEST PUSH2 0x39E4 DUP2 PUSH2 0x39CD JUMP JUMPDEST DUP2 EQ PUSH2 0x39EE JUMPI PUSH0 PUSH0 REVERT JUMPDEST POP JUMP JUMPDEST PUSH0 DUP2 CALLDATALOAD SWAP1 POP PUSH2 0x39FF DUP2 PUSH2 0x39DB JUMP JUMPDEST SWAP3 SWAP2 POP POP JUMP JUMPDEST PUSH0 PUSH1 0x80 DUP3 DUP5 SUB SLT ISZERO PUSH2 0x3A1A JUMPI PUSH2 0x3A19 PUSH2 0x367F JUMP JUMPDEST JUMPDEST PUSH2 0x3A24 PUSH1 0x80 PUSH2 0x2A3D JUMP JUMPDEST SWAP1 POP PUSH0 PUSH2 0x3A33 DUP5 DUP3 DUP6 ADD PUSH2 0x39B9 JUMP JUMPDEST PUSH0 DUP4 ADD MSTORE POP PUSH1 0x20 PUSH2 0x3A46 DUP5 DUP3 DUP6 ADD PUSH2 0x26AC JUMP JUMPDEST PUSH1 0x20 DUP4 ADD MSTORE POP PUSH1 0x40 PUSH2 0x3A5A DUP5 DUP3 DUP6 ADD PUSH2 0x26AC JUMP JUMPDEST PUSH1 0x40 DUP4 ADD MSTORE POP PUSH1 0x60 PUSH2 0x3A6E DUP5 DUP3 DUP6 ADD PUSH2 0x39F1 JUMP JUMPDEST PUSH1 0x60 DUP4 ADD MSTORE POP SWAP3 SWAP2 POP POP JUMP JUMPDEST PUSH0 PUSH1 0x80 DUP3 DUP5 SUB SLT ISZERO PUSH2 0x3A8F JUMPI PUSH2 0x3A8E PUSH2 0x25B2 JUMP JUMPDEST JUMPDEST PUSH0 PUSH2 0x3A9C DUP5 DUP3 DUP6 ADD PUSH2 0x3A05 JUMP JUMPDEST SWAP2 POP POP SWAP3 SWAP2 POP POP JUMP JUMPDEST PUSH2 0x3AAE DUP2 PUSH2 0x3997 JUMP JUMPDEST DUP3 MSTORE POP POP JUMP JUMPDEST PUSH0 PUSH1 0x20 DUP3 ADD SWAP1 POP PUSH2 0x3AC7 PUSH0 DUP4 ADD DUP5 PUSH2 0x3AA5 JUMP JUMPDEST SWAP3 SWAP2 POP POP JUMP JUMPDEST PUSH0 PUSH1 0x40 DUP3 ADD SWAP1 POP PUSH2 0x3AE0 PUSH0 DUP4 ADD DUP6 PUSH2 0x271E JUMP JUMPDEST PUSH2 0x3AED PUSH1 0x20 DUP4 ADD DUP5 PUSH2 0x271E JUMP JUMPDEST SWAP4 SWAP3 POP POP POP JUMP JUMPDEST PUSH0 PUSH1 0x40 DUP3 ADD SWAP1 POP PUSH2 0x3B07 PUSH0 DUP4 ADD DUP6 PUSH2 0x271E JUMP JUMPDEST PUSH2 0x3B14 PUSH1 0x20 DUP4 ADD DUP5 PUSH2 0x2E32 JUMP JUMPDEST SWAP4 SWAP3 POP POP POP JUMP JUMPDEST PUSH0 PUSH2 0x3B25 DUP3 PUSH2 0x3540 JUMP JUMPDEST PUSH2 0x3B2F DUP2 DUP6 PUSH2 0x2D96 JUMP JUMPDEST SWAP4 POP PUSH2 0x3B3F DUP2 DUP6 PUSH1 0x20 DUP7 ADD PUSH2 0x355A JUMP JUMPDEST DUP1 DUP5 ADD SWAP2 POP POP SWAP3 SWAP2 POP POP JUMP JUMPDEST PUSH0 PUSH2 0x3B56 DUP3 DUP5 PUSH2 0x3B1B JUMP JUMPDEST SWAP2 POP DUP2 SWAP1 POP SWAP3 SWAP2 POP POP JUMP JUMPDEST PUSH0 DUP2 MLOAD SWAP1 POP PUSH2 0x3B6F DUP2 PUSH2 0x28D9 JUMP JUMPDEST SWAP3 SWAP2 POP POP JUMP JUMPDEST PUSH0 PUSH1 0x20 DUP3 DUP5 SUB SLT ISZERO PUSH2 0x3B8A JUMPI PUSH2 0x3B89 PUSH2 0x25B2 JUMP JUMPDEST JUMPDEST PUSH0 PUSH2 0x3B97 DUP5 DUP3 DUP6 ADD PUSH2 0x3B61 JUMP JUMPDEST SWAP2 POP POP SWAP3 SWAP2 POP POP JUMP JUMPDEST PUSH0 PUSH1 0x60 DUP3 ADD SWAP1 POP PUSH2 0x3BB3 PUSH0 DUP4 ADD DUP7 PUSH2 0x271E JUMP JUMPDEST PUSH2 0x3BC0 PUSH1 0x20 DUP4 ADD DUP6 PUSH2 0x271E JUMP JUMPDEST PUSH2 0x3BCD PUSH1 0x40 DUP4 ADD DUP5 PUSH2 0x2E32 JUMP JUMPDEST SWAP5 SWAP4 POP POP POP POP JUMP JUMPDEST PUSH0 PUSH1 0x60 DUP3 ADD SWAP1 POP PUSH2 0x3BE8 PUSH0 DUP4 ADD DUP7 PUSH2 0x2E32 JUMP JUMPDEST PUSH2 0x3BF5 PUSH1 0x20 DUP4 ADD DUP6 PUSH2 0x271E JUMP JUMPDEST DUP2 DUP2 SUB PUSH1 0x40 DUP4 ADD MSTORE PUSH2 0x3C07 DUP2 DUP5 PUSH2 0x3568 JUMP JUMPDEST SWAP1 POP SWAP5 SWAP4 POP POP POP POP JUMP JUMPDEST PUSH0 PUSH1 0x40 DUP3 ADD SWAP1 POP PUSH2 0x3C24 PUSH0 DUP4 ADD DUP6 PUSH2 0x2E32 JUMP JUMPDEST PUSH2 0x3C31 PUSH1 0x20 DUP4 ADD DUP5 PUSH2 0x2E32 JUMP JUMPDEST SWAP4 SWAP3 POP POP POP JUMP JUMPDEST PUSH2 0x3C41 DUP2 PUSH2 0x39CD JUMP JUMPDEST DUP3 MSTORE POP POP JUMP JUMPDEST PUSH0 PUSH1 0x60 DUP3 ADD SWAP1 POP PUSH2 0x3C5A PUSH0 DUP4 ADD DUP7 PUSH2 0x271E JUMP JUMPDEST PUSH2 0x3C67 PUSH1 0x20 DUP4 ADD DUP6 PUSH2 0x271E JUMP JUMPDEST PUSH2 0x3C74 PUSH1 0x40 DUP4 ADD DUP5 PUSH2 0x3C38 JUMP JUMPDEST SWAP5 SWAP4 POP POP POP POP JUMP JUMPDEST PUSH0 PUSH1 0x20 DUP3 DUP5 SUB SLT ISZERO PUSH2 0x3C91 JUMPI PUSH2 0x3C90 PUSH2 0x25B2 JUMP JUMPDEST JUMPDEST PUSH0 PUSH2 0x3C9E DUP5 DUP3 DUP6 ADD PUSH2 0x3687 JUMP JUMPDEST SWAP2 POP POP SWAP3 SWAP2 POP POP JUMP INVALID LOG2 PUSH5 0x6970667358 0x22 SLT KECCAK256 0x4E JUMPI SWAP2 SWAP7 EQ 0xBF SLOAD BYTE 0xC8 0x1F SWAP7 0xB0 0xF 0xCB 0xA6 0xAA 0xD7 LOG1 0xF6 0xDB DUP4 0xD5 DUP13 0x24 0xC1 COINBASE SELFBALANCE RETURN ORIGIN CALLDATASIZE CHAINID 0x1F PUSH5 0x736F6C6343 STOP ADDMOD 0x22 STOP CALLER "
				},
				"gasEstimates": {
					"creation": {
						"codeDepositCost": "3116200",
						"executionCost": "infinite",
						"totalCost": "infinite"
					},
					"external": {
						"algebraSwapCallback(int256,int256,bytes)": "infinite",
						"approveIfNeeded(address,address,uint256)": "infinite",
						"balancerVault()": "infinite",
						"executeArb(address,uint256,(address,uint256,uint256,bytes32,(address,uint256,bytes)[]))": "infinite",
						"kyberElasticFactory()": "infinite",
						"operators(address)": "2879",
						"owner()": "2552",
						"preApprove(address,address)": "infinite",
						"quickswapV3Factory()": "infinite",
						"receiveFlashLoan(address[],uint256[],uint256[],bytes)": "infinite",
						"rescueNative(address,uint256)": "infinite",
						"rescueToken(address,address,uint256)": "infinite",
						"setOperator(address,bool)": "infinite",
						"sushiV3Factory()": "infinite",
						"swapCallback(int256,int256,bytes)": "infinite",
						"transferOwnership(address)": "30651",
						"uniswapV3Factory()": "infinite",
						"uniswapV3SwapCallback(int256,int256,bytes)": "infinite"
					},
					"internal": {
						"_assertProfit()": "infinite",
						"_clearExecutionContext()": "63583",
						"_executeCalls(struct ArbExecutor.Call memory[] memory)": "infinite",
						"_handlePoolSwapCallback(uint8,int256,int256,bytes calldata)": "infinite",
						"_resolveExpectedPool(struct ArbExecutor.CallbackData memory)": "infinite",
						"_safeAllowance(address,address,address)": "infinite",
						"_safeApprove(address,address,uint256)": "infinite",
						"_safeApproveMaxIfNeeded(address,address,uint256)": "infinite",
						"_safeTransfer(address,address,uint256)": "infinite"
					}
				},
				"methodIdentifiers": {
					"algebraSwapCallback(int256,int256,bytes)": "2c8958f6",
					"approveIfNeeded(address,address,uint256)": "fad6b994",
					"balancerVault()": "158274a5",
					"executeArb(address,uint256,(address,uint256,uint256,bytes32,(address,uint256,bytes)[]))": "491e69d3",
					"kyberElasticFactory()": "78ed1c8c",
					"operators(address)": "13e7c9d8",
					"owner()": "8da5cb5b",
					"preApprove(address,address)": "b4656158",
					"quickswapV3Factory()": "4dad71d5",
					"receiveFlashLoan(address[],uint256[],uint256[],bytes)": "f04f2707",
					"rescueNative(address,uint256)": "1291f79d",
					"rescueToken(address,address,uint256)": "e5711e8b",
					"setOperator(address,bool)": "558a7297",
					"sushiV3Factory()": "669d6be2",
					"swapCallback(int256,int256,bytes)": "fa483e72",
					"transferOwnership(address)": "f2fde38b",
					"uniswapV3Factory()": "5b549182",
					"uniswapV3SwapCallback(int256,int256,bytes)": "fa461e33"
				}
			},
			"storageLayout": {
				"storage": [
					{
						"astId": 266,
						"contract": "src/ArbExecutor.sol:ArbExecutor",
						"label": "owner",
						"offset": 0,
						"slot": "0",
						"type": "t_address"
					},
					{
						"astId": 270,
						"contract": "src/ArbExecutor.sol:ArbExecutor",
						"label": "operators",
						"offset": 0,
						"slot": "1",
						"type": "t_mapping(t_address,t_bool)"
					},
					{
						"astId": 282,
						"contract": "src/ArbExecutor.sol:ArbExecutor",
						"label": "_phase",
						"offset": 0,
						"slot": "2",
						"type": "t_uint8"
					},
					{
						"astId": 284,
						"contract": "src/ArbExecutor.sol:ArbExecutor",
						"label": "_activeRouteHash",
						"offset": 0,
						"slot": "3",
						"type": "t_bytes32"
					},
					{
						"astId": 286,
						"contract": "src/ArbExecutor.sol:ArbExecutor",
						"label": "_activeProfitToken",
						"offset": 0,
						"slot": "4",
						"type": "t_address"
					},
					{
						"astId": 288,
						"contract": "src/ArbExecutor.sol:ArbExecutor",
						"label": "_activeMinProfit",
						"offset": 0,
						"slot": "5",
						"type": "t_uint256"
					},
					{
						"astId": 290,
						"contract": "src/ArbExecutor.sol:ArbExecutor",
						"label": "_activeInitialProfitBalance",
						"offset": 0,
						"slot": "6",
						"type": "t_uint256"
					},
					{
						"astId": 293,
						"contract": "src/ArbExecutor.sol:ArbExecutor",
						"label": "_locked",
						"offset": 0,
						"slot": "7",
						"type": "t_uint256"
					}
				],
				"types": {
					"t_address": {
						"encoding": "inplace",
						"label": "address",
						"numberOfBytes": "20"
					},
					"t_bool": {
						"encoding": "inplace",
						"label": "bool",
						"numberOfBytes": "1"
					},
					"t_bytes32": {
						"encoding": "inplace",
						"label": "bytes32",
						"numberOfBytes": "32"
					},
					"t_mapping(t_address,t_bool)": {
						"encoding": "mapping",
						"key": "t_address",
						"label": "mapping(address => bool)",
						"numberOfBytes": "32",
						"value": "t_bool"
					},
					"t_uint256": {
						"encoding": "inplace",
						"label": "uint256",
						"numberOfBytes": "32"
					},
					"t_uint8": {
						"encoding": "inplace",
						"label": "uint8",
						"numberOfBytes": "1"
					}
				}
			},
			"userdoc": {
				"kind": "user",
				"methods": {},
				"version": 1
			}
		}
	}
}