{
	"data": {
		"bytecode": {
			"linkReferences": {},
			"object": "6101206040526001600755348015610015575f5ffd5b5060405161418d38038061418d833981810160405281019061003791906103b2565b5f73ffffffffffffffffffffffffffffffffffffffff168673ffffffffffffffffffffffffffffffffffffffff16148061009c57505f73ffffffffffffffffffffffffffffffffffffffff168573ffffffffffffffffffffffffffffffffffffffff16145b806100d257505f73ffffffffffffffffffffffffffffffffffffffff168473ffffffffffffffffffffffffffffffffffffffff16145b8061010857505f73ffffffffffffffffffffffffffffffffffffffff168373ffffffffffffffffffffffffffffffffffffffff16145b8061013e57505f73ffffffffffffffffffffffffffffffffffffffff168273ffffffffffffffffffffffffffffffffffffffff16145b8061017457505f73ffffffffffffffffffffffffffffffffffffffff168173ffffffffffffffffffffffffffffffffffffffff16145b156101ab576040517fd92e233d00000000000000000000000000000000000000000000000000000000815260040160405180910390fd5b855f5f6101000a81548173ffffffffffffffffffffffffffffffffffffffff021916908373ffffffffffffffffffffffffffffffffffffffff1602179055508473ffffffffffffffffffffffffffffffffffffffff1660808173ffffffffffffffffffffffffffffffffffffffff16815250508373ffffffffffffffffffffffffffffffffffffffff1660a08173ffffffffffffffffffffffffffffffffffffffff16815250508273ffffffffffffffffffffffffffffffffffffffff1660c08173ffffffffffffffffffffffffffffffffffffffff16815250508173ffffffffffffffffffffffffffffffffffffffff1660e08173ffffffffffffffffffffffffffffffffffffffff16815250508073ffffffffffffffffffffffffffffffffffffffff166101008173ffffffffffffffffffffffffffffffffffffffff16815250508573ffffffffffffffffffffffffffffffffffffffff165f73ffffffffffffffffffffffffffffffffffffffff167f8be0079c531659141344cd1fd0a4f28419497f9722a3daafe3b4186f6b6457e060405160405180910390a350505050505061043b565b5f5ffd5b5f73ffffffffffffffffffffffffffffffffffffffff82169050919050565b5f61038182610358565b9050919050565b61039181610377565b811461039b575f5ffd5b50565b5f815190506103ac81610388565b92915050565b5f5f5f5f5f5f60c087890312156103cc576103cb610354565b5b5f6103d989828a0161039e565b96505060206103ea89828a0161039e565b95505060406103fb89828a0161039e565b945050606061040c89828a0161039e565b935050608061041d89828a0161039e565b92505060a061042e89828a0161039e565b9150509295509295509295565b60805160a05160c05160e05161010051613cdd6104b05f395f8181610f82015261220e01525f8181610deb015261215401525f8181610f5e015261209401525f8181610f3a0152611fd401525f818161065d01528181610bf001528181610da00152818161136801526115eb0152613cdd5ff3fe60806040526004361061010c575f3560e01c806378ed1c8c11610094578063f04f270711610063578063f04f27071461033f578063f2fde38b14610367578063fa461e331461038f578063fa483e72146103b7578063fad6b994146103df57610113565b806378ed1c8c1461029b5780638da5cb5b146102c5578063b4656158146102ef578063e5711e8b1461031757610113565b8063491e69d3116100db578063491e69d3146101cd5780634dad71d5146101f5578063558a72971461021f5780635b54918214610247578063669d6be21461027157610113565b80631291f79d1461011757806313e7c9d81461013f578063158274a51461017b5780632c8958f6146101a557610113565b3661011357005b5f5ffd5b348015610122575f5ffd5b5061013d60048036038101906101389190612647565b610407565b005b34801561014a575f5ffd5b50610165600480360381019061016091906126c0565b61063e565b6040516101729190612705565b60405180910390f35b348015610186575f5ffd5b5061018f61065b565b60405161019c919061272d565b60405180910390f35b3480156101b0575f5ffd5b506101cb60048036038101906101c691906127da565b61067f565b005b3480156101d8575f5ffd5b506101f360048036038101906101ee919061286d565b610693565b005b348015610200575f5ffd5b50610209610de9565b604051610216919061272d565b60405180910390f35b34801561022a575f5ffd5b5061024560048036038101906102409190612903565b610e0d565b005b348015610252575f5ffd5b5061025b610f38565b604051610268919061272d565b60405180910390f35b34801561027c575f5ffd5b50610285610f5c565b604051610292919061272d565b60405180910390f35b3480156102a6575f5ffd5b506102af610f80565b6040516102bc919061272d565b60405180910390f35b3480156102d0575f5ffd5b506102d9610fa4565b6040516102e6919061272d565b60405180910390f35b3480156102fa575f5ffd5b5061031560048036038101906103109190612941565b610fc8565b005b348015610322575f5ffd5b5061033d6004803603810190610338919061297f565b611177565b005b34801561034a575f5ffd5b5061036560048036038101906103609190612cc2565b611322565b005b348015610372575f5ffd5b5061038d600480360381019061038891906126c0565b61168d565b005b34801561039a575f5ffd5b506103b560048036038101906103b091906127da565b611838565b005b3480156103c2575f5ffd5b506103dd60048036038101906103d891906127da565b61184c565b005b3480156103ea575f5ffd5b506104056004803603810190610400919061297f565b611860565b005b5f5f9054906101000a900473ffffffffffffffffffffffffffffffffffffffff1673ffffffffffffffffffffffffffffffffffffffff163373ffffffffffffffffffffffffffffffffffffffff161461048c576040517f82b4290000000000000000000000000000000000000000000000000000000000815260040160405180910390fd5b6001600754146104c8576040517f82b4290000000000000000000000000000000000000000000000000000000000815260040160405180910390fd5b60026007819055505f73ffffffffffffffffffffffffffffffffffffffff168273ffffffffffffffffffffffffffffffffffffffff1603610535576040517fd92e233d00000000000000000000000000000000000000000000000000000000815260040160405180910390fd5b5f8273ffffffffffffffffffffffffffffffffffffffff168260405161055a90612dc3565b5f6040518083038185875af1925050503d805f8114610594576040519150601f19603f3d011682016040523d82523d5f602084013e610599565b606091505b50509050806105e3575f83836040517fbf182be80000000000000000000000000000000000000000000000000000000081526004016105da93929190612e41565b60405180910390fd5b8273ffffffffffffffffffffffffffffffffffffffff167fe3eb98b7fe2a0c1d490b92af73eeae611e9b00ab3c3f70b20bd7bb43f67a0f43836040516106299190612e76565b60405180910390a25060016007819055505050565b6001602052805f5260405f205f915054906101000a900460ff1681565b7f000000000000000000000000000000000000000000000000000000000000000081565b61068d6003858585856119ce565b50505050565b5f5f9054906101000a900473ffffffffffffffffffffffffffffffffffffffff1673ffffffffffffffffffffffffffffffffffffffff163373ffffffffffffffffffffffffffffffffffffffff1614158015610736575060015f3373ffffffffffffffffffffffffffffffffffffffff1673ffffffffffffffffffffffffffffffffffffffff1681526020019081526020015f205f9054906101000a900460ff16155b1561076d576040517f82b4290000000000000000000000000000000000000000000000000000000000815260040160405180910390fd5b6001600754146107a9576040517f82b4290000000000000000000000000000000000000000000000000000000000815260040160405180910390fd5b600260078190555080604001354211156107ef576040517f1ab7da6b00000000000000000000000000000000000000000000000000000000815260040160405180910390fd5b5f8180608001906108009190612e9b565b905090505f810361083d576040517fea60ab1d00000000000000000000000000000000000000000000000000000000815260040160405180910390fd5b600c811115610878576040517ff5dedbff00000000000000000000000000000000000000000000000000000000815260040160405180910390fd5b5f83036108b1576040517f946302fe00000000000000000000000000000000000000000000000000000000815260040160405180910390fd5b5f73ffffffffffffffffffffffffffffffffffffffff168473ffffffffffffffffffffffffffffffffffffffff16148061092757505f73ffffffffffffffffffffffffffffffffffffffff16825f01602081019061090f91906126c0565b73ffffffffffffffffffffffffffffffffffffffff16145b1561095e576040517fd92e233d00000000000000000000000000000000000000000000000000000000815260040160405180910390fd5b5f82806080019061096f9190612e9b565b604051602001610980929190613129565b604051602081830303815290604052805190602001209050826060013581146109d5576040517fc858adff00000000000000000000000000000000000000000000000000000000815260040160405180910390fd5b5f835f0160208101906109e891906126c0565b73ffffffffffffffffffffffffffffffffffffffff166370a08231306040518263ffffffff1660e01b8152600401610a20919061272d565b602060405180830381865afa158015610a3b573d5f5f3e3d5ffd5b505050506040513d601f19601f82011682018060405250810190610a5f919061315f565b9050600160025f6101000a81548160ff021916908360ff16021790555081600381905550835f016020810190610a9591906126c0565b60045f6101000a81548173ffffffffffffffffffffffffffffffffffffffff021916908373ffffffffffffffffffffffffffffffffffffffff1602179055508360200135600581905550806006819055505f600167ffffffffffffffff811115610b0257610b016129df565b5b604051908082528060200260200182016040528015610b305781602001602082028036833780820191505090505b50905086815f81518110610b4757610b4661318a565b5b602002602001019073ffffffffffffffffffffffffffffffffffffffff16908173ffffffffffffffffffffffffffffffffffffffff16815250505f600167ffffffffffffffff811115610b9d57610b9c6129df565b5b604051908082528060200260200182016040528015610bcb5781602001602082028036833780820191505090505b50905086815f81518110610be257610be161318a565b5b6020026020010181815250507f000000000000000000000000000000000000000000000000000000000000000073ffffffffffffffffffffffffffffffffffffffff16635c38449e3084848a604051602001610c3e9190613390565b6040516020818303038152906040526040518563ffffffff1660e01b8152600401610c6c94939291906135a0565b5f604051808303815f87803b158015610c83575f5ffd5b505af1158015610c95573d5f5f3e3d5ffd5b505050505f865f016020810190610cac91906126c0565b73ffffffffffffffffffffffffffffffffffffffff166370a08231306040518263ffffffff1660e01b8152600401610ce4919061272d565b602060405180830381865afa158015610cff573d5f5f3e3d5ffd5b505050506040513d601f19601f82011682018060405250810190610d23919061315f565b90505f8482610d329190613625565b9050610d3c611b9a565b85885f016020810190610d4f91906126c0565b73ffffffffffffffffffffffffffffffffffffffff163373ffffffffffffffffffffffffffffffffffffffff167f2790eac69d46d24bb29b55a23b12e2e49076dc2a9fdcb340e641de33fca2c5dd847f0000000000000000000000000000000000000000000000000000000000000000604051610dcd929190613658565b60405180910390a4505050505050506001600781905550505050565b7f000000000000000000000000000000000000000000000000000000000000000081565b5f5f9054906101000a900473ffffffffffffffffffffffffffffffffffffffff1673ffffffffffffffffffffffffffffffffffffffff163373ffffffffffffffffffffffffffffffffffffffff1614610e92576040517f82b4290000000000000000000000000000000000000000000000000000000000815260040160405180910390fd5b8060015f8473ffffffffffffffffffffffffffffffffffffffff1673ffffffffffffffffffffffffffffffffffffffff1681526020019081526020015f205f6101000a81548160ff0219169083151502179055508173ffffffffffffffffffffffffffffffffffffffff167f1a594081ae893ab78e67d9b9e843547318164322d32c65369d78a96172d9dc8f82604051610f2c9190612705565b60405180910390a25050565b7f000000000000000000000000000000000000000000000000000000000000000081565b7f000000000000000000000000000000000000000000000000000000000000000081565b7f000000000000000000000000000000000000000000000000000000000000000081565b5f5f9054906101000a900473ffffffffffffffffffffffffffffffffffffffff1681565b5f5f9054906101000a900473ffffffffffffffffffffffffffffffffffffffff1673ffffffffffffffffffffffffffffffffffffffff163373ffffffffffffffffffffffffffffffffffffffff161415801561106b575060015f3373ffffffffffffffffffffffffffffffffffffffff1673ffffffffffffffffffffffffffffffffffffffff1681526020019081526020015f205f9054906101000a900460ff16155b156110a2576040517f82b4290000000000000000000000000000000000000000000000000000000000815260040160405180910390fd5b6001600754146110de576040517f82b4290000000000000000000000000000000000000000000000000000000000815260040160405180910390fd5b600260078190555061111182827fffffffffffffffffffffffffffffffffffffffffffffffffffffffffffffffff611c0d565b8073ffffffffffffffffffffffffffffffffffffffff168273ffffffffffffffffffffffffffffffffffffffff167f8d936a3b74312b60e024ee1b476014e8bd0523e8355d93ff5a0787567fe92f5f60405160405180910390a360016007819055505050565b5f5f9054906101000a900473ffffffffffffffffffffffffffffffffffffffff1673ffffffffffffffffffffffffffffffffffffffff163373ffffffffffffffffffffffffffffffffffffffff16146111fc576040517f82b4290000000000000000000000000000000000000000000000000000000000815260040160405180910390fd5b600160075414611238576040517f82b4290000000000000000000000000000000000000000000000000000000000815260040160405180910390fd5b60026007819055505f73ffffffffffffffffffffffffffffffffffffffff168273ffffffffffffffffffffffffffffffffffffffff16036112a5576040517fd92e233d00000000000000000000000000000000000000000000000000000000815260040160405180910390fd5b6112b0838383611c6d565b8173ffffffffffffffffffffffffffffffffffffffff168373ffffffffffffffffffffffffffffffffffffffff167f4143f7b5cb6ea007914c32b8a3e64cebc051d7f493fa0755454da1e47701e1258360405161130d9190612e76565b60405180910390a36001600781905550505050565b60016007541461135e576040517f82b4290000000000000000000000000000000000000000000000000000000000815260040160405180910390fd5b60026007819055507f000000000000000000000000000000000000000000000000000000000000000073ffffffffffffffffffffffffffffffffffffffff163373ffffffffffffffffffffffffffffffffffffffff16146113eb576040517ffc30532900000000000000000000000000000000000000000000000000000000815260040160405180910390fd5b600160ff1660025f9054906101000a900460ff1660ff1614611439576040517fadd4adc000000000000000000000000000000000000000000000000000000000815260040160405180910390fd5b5f8180602001905181019061144e919061391d565b905060035481606001511461148f576040517fc858adff00000000000000000000000000000000000000000000000000000000815260040160405180910390fd5b60045f9054906101000a900473ffffffffffffffffffffffffffffffffffffffff1673ffffffffffffffffffffffffffffffffffffffff16815f015173ffffffffffffffffffffffffffffffffffffffff1614611518576040517fadd4adc000000000000000000000000000000000000000000000000000000000815260040160405180910390fd5b600554816020015114611557576040517fadd4adc000000000000000000000000000000000000000000000000000000000815260040160405180910390fd5b8060400151421115611595576040517f1ab7da6b00000000000000000000000000000000000000000000000000000000815260040160405180910390fd5b6002805f6101000a81548160ff021916908360ff1602179055506115bc8160800151611dc6565b5f855190505f5b8181101561165a5761164f8782815181106115e1576115e061318a565b5b60200260200101517f000000000000000000000000000000000000000000000000000000000000000087848151811061161d5761161c61318a565b5b60200260200101518985815181106116385761163761318a565b5b602002602001015161164a9190613964565b611c6d565b8060010190506115c3565b505f60025f6101000a81548160ff021916908360ff16021790555061167d611ec6565b5050600160078190555050505050565b5f5f9054906101000a900473ffffffffffffffffffffffffffffffffffffffff1673ffffffffffffffffffffffffffffffffffffffff163373ffffffffffffffffffffffffffffffffffffffff1614611712576040517f82b4290000000000000000000000000000000000000000000000000000000000815260040160405180910390fd5b5f73ffffffffffffffffffffffffffffffffffffffff168173ffffffffffffffffffffffffffffffffffffffff1603611777576040517fd92e233d00000000000000000000000000000000000000000000000000000000815260040160405180910390fd5b5f5f5f9054906101000a900473ffffffffffffffffffffffffffffffffffffffff169050815f5f6101000a81548173ffffffffffffffffffffffffffffffffffffffff021916908373ffffffffffffffffffffffffffffffffffffffff1602179055508173ffffffffffffffffffffffffffffffffffffffff168173ffffffffffffffffffffffffffffffffffffffff167f8be0079c531659141344cd1fd0a4f28419497f9722a3daafe3b4186f6b6457e060405160405180910390a35050565b6118466001858585856119ce565b50505050565b61185a6004858585856119ce565b50505050565b60016007541461189c576040517f82b4290000000000000000000000000000000000000000000000000000000000815260040160405180910390fd5b60026007819055503073ffffffffffffffffffffffffffffffffffffffff163373ffffffffffffffffffffffffffffffffffffffff161415801561192c57505f5f9054906101000a900473ffffffffffffffffffffffffffffffffffffffff1673ffffffffffffffffffffffffffffffffffffffff163373ffffffffffffffffffffffffffffffffffffffff1614155b801561197f575060015f3373ffffffffffffffffffffffffffffffffffffffff1673ffffffffffffffffffffffffffffffffffffffff1681526020019081526020015f205f9054906101000a900460ff16155b156119b6576040517f82b4290000000000000000000000000000000000000000000000000000000000815260040160405180910390fd5b6119c1838383611c0d565b6001600781905550505050565b600260ff1660025f9054906101000a900460ff1660ff1614611a1c576040517fc21d53e800000000000000000000000000000000000000000000000000000000815260040160405180910390fd5b5f8282810190611a2c9190613a7a565b90508560ff16815f015160ff1614611a7e57805f01516040517ff850442b000000000000000000000000000000000000000000000000000000008152600401611a759190613ab4565b60405180910390fd5b5f611a8882611fc0565b90505f73ffffffffffffffffffffffffffffffffffffffff168173ffffffffffffffffffffffffffffffffffffffff1603611aef576040517f936198e900000000000000000000000000000000000000000000000000000000815260040160405180910390fd5b8073ffffffffffffffffffffffffffffffffffffffff163373ffffffffffffffffffffffffffffffffffffffff1614611b615780336040517ff2062559000000000000000000000000000000000000000000000000000000008152600401611b58929190613acd565b60405180910390fd5b5f861315611b7957611b7882602001513388611c6d565b5b5f851315611b9157611b9082604001513387611c6d565b5b50505050505050565b5f60025f6101000a81548160ff021916908360ff1602179055505f5f1b6003819055505f60045f6101000a81548173ffffffffffffffffffffffffffffffffffffffff021916908373ffffffffffffffffffffffffffffffffffffffff1602179055505f6005819055505f600681905550565b5f611c19843085612300565b9050818110611c285750611c68565b5f8114611c3b57611c3a84845f612452565b5b611c6684847fffffffffffffffffffffffffffffffffffffffffffffffffffffffffffffffff612452565b505b505050565b5f5f8473ffffffffffffffffffffffffffffffffffffffff1663a9059cbb60e01b8585604051602401611ca1929190613af4565b604051602081830303815290604052907bffffffffffffffffffffffffffffffffffffffffffffffffffffffff19166020820180517bffffffffffffffffffffffffffffffffffffffffffffffffffffffff8381831617835250505050604051611d0b9190613b4b565b5f604051808303815f865af19150503d805f8114611d44576040519150601f19603f3d011682016040523d82523d5f602084013e611d49565b606091505b5091509150811580611d7957505f815114158015611d78575080806020019051810190611d769190613b75565b155b5b15611dbf578484846040517fbf182be8000000000000000000000000000000000000000000000000000000008152600401611db693929190613ba0565b60405180910390fd5b5050505050565b5f815190505f5b81811015611ec1575f838281518110611de957611de861318a565b5b602002602001015190505f5f825f015173ffffffffffffffffffffffffffffffffffffffff1683602001518460400151604051611e269190613b4b565b5f6040518083038185875af1925050503d805f8114611e60576040519150601f19603f3d011682016040523d82523d5f602084013e611e65565b606091505b509150915081611eb35783835f0151826040517f0f434573000000000000000000000000000000000000000000000000000000008152600401611eaa93929190613bd5565b60405180910390fd5b836001019350505050611dcd565b505050565b5f60045f9054906101000a900473ffffffffffffffffffffffffffffffffffffffff1673ffffffffffffffffffffffffffffffffffffffff166370a08231306040518263ffffffff1660e01b8152600401611f21919061272d565b602060405180830381865afa158015611f3c573d5f5f3e3d5ffd5b505050506040513d601f19601f82011682018060405250810190611f60919061315f565b90505f600554600654611f739190613964565b905080821015611fbc5781816040517f4e88422a000000000000000000000000000000000000000000000000000000008152600401611fb3929190613c11565b60405180910390fd5b5050565b5f600160ff16825f015160ff1603612081577f000000000000000000000000000000000000000000000000000000000000000073ffffffffffffffffffffffffffffffffffffffff16631698ee828360200151846040015185606001516040518463ffffffff1660e01b815260040161203b93929190613c47565b602060405180830381865afa158015612056573d5f5f3e3d5ffd5b505050506040513d601f19601f8201168201806040525081019061207a9190613c7c565b90506122fb565b600260ff16825f015160ff1603612141577f000000000000000000000000000000000000000000000000000000000000000073ffffffffffffffffffffffffffffffffffffffff16631698ee828360200151846040015185606001516040518463ffffffff1660e01b81526004016120fb93929190613c47565b602060405180830381865afa158015612116573d5f5f3e3d5ffd5b505050506040513d601f19601f8201168201806040525081019061213a9190613c7c565b90506122fb565b600360ff16825f015160ff16036121fb577f000000000000000000000000000000000000000000000000000000000000000073ffffffffffffffffffffffffffffffffffffffff1663d9a641e1836020015184604001516040518363ffffffff1660e01b81526004016121b5929190613acd565b602060405180830381865afa1580156121d0573d5f5f3e3d5ffd5b505050506040513d601f19601f820116820180604052508101906121f49190613c7c565b90506122fb565b600460ff16825f015160ff16036122bb577f000000000000000000000000000000000000000000000000000000000000000073ffffffffffffffffffffffffffffffffffffffff16631698ee828360200151846040015185606001516040518463ffffffff1660e01b815260040161227593929190613c47565b602060405180830381865afa158015612290573d5f5f3e3d5ffd5b505050506040513d601f19601f820116820180604052508101906122b49190613c7c565b90506122fb565b815f01516040517ff850442b0000000000000000000000000000000000000000000000000000000081526004016122f29190613ab4565b60405180910390fd5b919050565b5f5f5f8573ffffffffffffffffffffffffffffffffffffffff1663dd62ed3e60e01b8686604051602401612335929190613acd565b604051602081830303815290604052907bffffffffffffffffffffffffffffffffffffffffffffffffffffffff19166020820180517bffffffffffffffffffffffffffffffffffffffffffffffffffffffff838183161783525050505060405161239f9190613b4b565b5f60405180830381855afa9150503d805f81146123d7576040519150601f19603f3d011682016040523d82523d5f602084013e6123dc565b606091505b50915091508115806123ef575060208151105b156124335785846040517f1b6c83ab00000000000000000000000000000000000000000000000000000000815260040161242a929190613acd565b60405180910390fd5b80806020019051810190612447919061315f565b925050509392505050565b5f5f8473ffffffffffffffffffffffffffffffffffffffff1663095ea7b360e01b8585604051602401612486929190613af4565b604051602081830303815290604052907bffffffffffffffffffffffffffffffffffffffffffffffffffffffff19166020820180517bffffffffffffffffffffffffffffffffffffffffffffffffffffffff83818316178352505050506040516124f09190613b4b565b5f604051808303815f865af19150503d805f8114612529576040519150601f19603f3d011682016040523d82523d5f602084013e61252e565b606091505b509150915081158061255e57505f81511415801561255d57508080602001905181019061255b9190613b75565b155b5b156125a25784846040517f1b6c83ab000000000000000000000000000000000000000000000000000000008152600401612599929190613acd565b60405180910390fd5b5050505050565b5f604051905090565b5f5ffd5b5f5ffd5b5f73ffffffffffffffffffffffffffffffffffffffff82169050919050565b5f6125e3826125ba565b9050919050565b6125f3816125d9565b81146125fd575f5ffd5b50565b5f8135905061260e816125ea565b92915050565b5f819050919050565b61262681612614565b8114612630575f5ffd5b50565b5f813590506126418161261d565b92915050565b5f5f6040838503121561265d5761265c6125b2565b5b5f61266a85828601612600565b925050602061267b85828601612633565b9150509250929050565b5f61268f826125ba565b9050919050565b61269f81612685565b81146126a9575f5ffd5b50565b5f813590506126ba81612696565b92915050565b5f602082840312156126d5576126d46125b2565b5b5f6126e2848285016126ac565b91505092915050565b5f8115159050919050565b6126ff816126eb565b82525050565b5f6020820190506127185f8301846126f6565b92915050565b61272781612685565b82525050565b5f6020820190506127405f83018461271e565b92915050565b5f819050919050565b61275881612746565b8114612762575f5ffd5b50565b5f813590506127738161274f565b92915050565b5f5ffd5b5f5ffd5b5f5ffd5b5f5f83601f84011261279a57612799612779565b5b8235905067ffffffffffffffff8111156127b7576127b661277d565b5b6020830191508360018202830111156127d3576127d2612781565b5b9250929050565b5f5f5f5f606085870312156127f2576127f16125b2565b5b5f6127ff87828801612765565b945050602061281087828801612765565b935050604085013567ffffffffffffffff811115612831576128306125b6565b5b61283d87828801612785565b925092505092959194509250565b5f5ffd5b5f60a082840312156128645761286361284b565b5b81905092915050565b5f5f5f60608486031215612884576128836125b2565b5b5f612891868287016126ac565b93505060206128a286828701612633565b925050604084013567ffffffffffffffff8111156128c3576128c26125b6565b5b6128cf8682870161284f565b9150509250925092565b6128e2816126eb565b81146128ec575f5ffd5b50565b5f813590506128fd816128d9565b92915050565b5f5f60408385031215612919576129186125b2565b5b5f612926858286016126ac565b9250506020612937858286016128ef565b9150509250929050565b5f5f60408385031215612957576129566125b2565b5b5f612964858286016126ac565b9250506020612975858286016126ac565b9150509250929050565b5f5f5f60608486031215612996576129956125b2565b5b5f6129a3868287016126ac565b93505060206129b4868287016126ac565b92505060406129c586828701612633565b9150509250925092565b5f601f19601f8301169050919050565b7f4e487b71000000000000000000000000000000000000000000000000000000005f52604160045260245ffd5b612a15826129cf565b810181811067ffffffffffffffff82111715612a3457612a336129df565b5b80604052505050565b5f612a466125a9565b9050612a528282612a0c565b919050565b5f67ffffffffffffffff821115612a7157612a706129df565b5b602082029050602081019050919050565b5f612a8c82612685565b9050919050565b612a9c81612a82565b8114612aa6575f5ffd5b50565b5f81359050612ab781612a93565b92915050565b5f612acf612aca84612a57565b612a3d565b90508083825260208201905060208402830185811115612af257612af1612781565b5b835b81811015612b1b5780612b078882612aa9565b845260208401935050602081019050612af4565b5050509392505050565b5f82601f830112612b3957612b38612779565b5b8135612b49848260208601612abd565b91505092915050565b5f67ffffffffffffffff821115612b6c57612b6b6129df565b5b602082029050602081019050919050565b5f612b8f612b8a84612b52565b612a3d565b90508083825260208201905060208402830185811115612bb257612bb1612781565b5b835b81811015612bdb5780612bc78882612633565b845260208401935050602081019050612bb4565b5050509392505050565b5f82601f830112612bf957612bf8612779565b5b8135612c09848260208601612b7d565b91505092915050565b5f5ffd5b5f67ffffffffffffffff821115612c3057612c2f6129df565b5b612c39826129cf565b9050602081019050919050565b828183375f83830152505050565b5f612c66612c6184612c16565b612a3d565b905082815260208101848484011115612c8257612c81612c12565b5b612c8d848285612c46565b509392505050565b5f82601f830112612ca957612ca8612779565b5b8135612cb9848260208601612c54565b91505092915050565b5f5f5f5f60808587031215612cda57612cd96125b2565b5b5f85013567ffffffffffffffff811115612cf757612cf66125b6565b5b612d0387828801612b25565b945050602085013567ffffffffffffffff811115612d2457612d236125b6565b5b612d3087828801612be5565b935050604085013567ffffffffffffffff811115612d5157612d506125b6565b5b612d5d87828801612be5565b925050606085013567ffffffffffffffff811115612d7e57612d7d6125b6565b5b612d8a87828801612c95565b91505092959194509250565b5f81905092915050565b50565b5f612dae5f83612d96565b9150612db982612da0565b5f82019050919050565b5f612dcd82612da3565b9150819050919050565b5f819050919050565b5f612dfa612df5612df0846125ba565b612dd7565b6125ba565b9050919050565b5f612e0b82612de0565b9050919050565b5f612e1c82612e01565b9050919050565b612e2c81612e12565b82525050565b612e3b81612614565b82525050565b5f606082019050612e545f83018661271e565b612e616020830185612e23565b612e6e6040830184612e32565b949350505050565b5f602082019050612e895f830184612e32565b92915050565b5f5ffd5b5f5ffd5b5f5ffd5b5f5f83356001602003843603038112612eb757612eb6612e8f565b5b80840192508235915067ffffffffffffffff821115612ed957612ed8612e93565b5b602083019250602082023603831315612ef557612ef4612e97565b5b509250929050565b5f82825260208201905092915050565b5f819050919050565b5f612f2460208401846126ac565b905092915050565b612f3581612685565b82525050565b5f612f496020840184612633565b905092915050565b612f5a81612614565b82525050565b5f5ffd5b5f5ffd5b5f5ffd5b5f5f83356001602003843603038112612f8857612f87612f68565b5b83810192508235915060208301925067ffffffffffffffff821115612fb057612faf612f60565b5b600182023603831315612fc657612fc5612f64565b5b509250929050565b5f82825260208201905092915050565b5f612fe98385612fce565b9350612ff6838584612c46565b612fff836129cf565b840190509392505050565b5f6060830161301b5f840184612f16565b6130275f860182612f2c565b506130356020840184612f3b565b6130426020860182612f51565b506130506040840184612f6c565b8583036040870152613063838284612fde565b925050508091505092915050565b5f61307c838361300a565b905092915050565b5f8235600160600383360303811261309f5761309e612f68565b5b82810191505092915050565b5f602082019050919050565b5f6130c28385612efd565b9350836020840285016130d484612f0d565b805f5b878110156131175784840389526130ee8284613084565b6130f88582613071565b9450613103836130ab565b925060208a019950506001810190506130d7565b50829750879450505050509392505050565b5f6020820190508181035f8301526131428184866130b7565b90509392505050565b5f815190506131598161261d565b92915050565b5f60208284031215613174576131736125b2565b5b5f6131818482850161314b565b91505092915050565b7f4e487b71000000000000000000000000000000000000000000000000000000005f52603260045260245ffd5b5f819050919050565b6131c9816131b7565b81146131d3575f5ffd5b50565b5f813590506131e4816131c0565b92915050565b5f6131f860208401846131d6565b905092915050565b613209816131b7565b82525050565b5f5f8335600160200384360303811261322b5761322a612f68565b5b83810192508235915060208301925067ffffffffffffffff82111561325357613252612f60565b5b60208202360383131561326957613268612f64565b5b509250929050565b5f82825260208201905092915050565b5f61328c8385613271565b93508360208402850161329e84612f0d565b805f5b878110156132e15784840389526132b88284613084565b6132c28582613071565b94506132cd836130ab565b925060208a019950506001810190506132a1565b50829750879450505050509392505050565b5f60a083016133045f840184612f16565b6133105f860182612f2c565b5061331e6020840184612f3b565b61332b6020860182612f51565b506133396040840184612f3b565b6133466040860182612f51565b5061335460608401846131ea565b6133616060860182613200565b5061336f608084018461320f565b8583036080870152613382838284613281565b925050508091505092915050565b5f6020820190508181035f8301526133a881846132f3565b905092915050565b5f6133ba82612e01565b9050919050565b6133ca816133b0565b82525050565b5f81519050919050565b5f82825260208201905092915050565b5f819050602082019050919050565b5f61340382612e01565b9050919050565b613413816133f9565b82525050565b5f613424838361340a565b60208301905092915050565b5f602082019050919050565b5f613446826133d0565b61345081856133da565b935061345b836133ea565b805f5b8381101561348b5781516134728882613419565b975061347d83613430565b92505060018101905061345e565b5085935050505092915050565b5f81519050919050565b5f82825260208201905092915050565b5f819050602082019050919050565b5f6134cc8383612f51565b60208301905092915050565b5f602082019050919050565b5f6134ee82613498565b6134f881856134a2565b9350613503836134b2565b805f5b8381101561353357815161351a88826134c1565b9750613525836134d8565b925050600181019050613506565b5085935050505092915050565b5f81519050919050565b5f82825260208201905092915050565b8281835e5f83830152505050565b5f61357282613540565b61357c818561354a565b935061358c81856020860161355a565b613595816129cf565b840191505092915050565b5f6080820190506135b35f8301876133c1565b81810360208301526135c5818661343c565b905081810360408301526135d981856134e4565b905081810360608301526135ed8184613568565b905095945050505050565b7f4e487b71000000000000000000000000000000000000000000000000000000005f52601160045260245ffd5b5f61362f82612614565b915061363a83612614565b9250828203905081811115613652576136516135f8565b5b92915050565b5f60408201905061366b5f830185612e32565b613678602083018461271e565b9392505050565b5f5ffd5b5f5ffd5b5f8151905061369581612696565b92915050565b5f815190506136a9816131c0565b92915050565b5f67ffffffffffffffff8211156136c9576136c86129df565b5b602082029050602081019050919050565b5f6136ec6136e784612c16565b612a3d565b90508281526020810184848401111561370857613707612c12565b5b61371384828561355a565b509392505050565b5f82601f83011261372f5761372e612779565b5b815161373f8482602086016136da565b91505092915050565b5f6060828403121561375d5761375c61367f565b5b6137676060612a3d565b90505f61377684828501613687565b5f8301525060206137898482850161314b565b602083015250604082015167ffffffffffffffff8111156137ad576137ac613683565b5b6137b98482850161371b565b60408301525092915050565b5f6137d76137d2846136af565b612a3d565b905080838252602082019050602084028301858111156137fa576137f9612781565b5b835b8181101561384157805167ffffffffffffffff81111561381f5761381e612779565b5b80860161382c8982613748565b855260208501945050506020810190506137fc565b5050509392505050565b5f82601f83011261385f5761385e612779565b5b815161386f8482602086016137c5565b91505092915050565b5f60a0828403121561388d5761388c61367f565b5b61389760a0612a3d565b90505f6138a684828501613687565b5f8301525060206138b98482850161314b565b60208301525060406138cd8482850161314b565b60408301525060606138e18482850161369b565b606083015250608082015167ffffffffffffffff81111561390557613904613683565b5b6139118482850161384b565b60808301525092915050565b5f60208284031215613932576139316125b2565b5b5f82015167ffffffffffffffff81111561394f5761394e6125b6565b5b61395b84828501613878565b91505092915050565b5f61396e82612614565b915061397983612614565b9250828201905080821115613991576139906135f8565b5b92915050565b5f60ff82169050919050565b6139ac81613997565b81146139b6575f5ffd5b50565b5f813590506139c7816139a3565b92915050565b5f62ffffff82169050919050565b6139e4816139cd565b81146139ee575f5ffd5b50565b5f813590506139ff816139db565b92915050565b5f60808284031215613a1a57613a1961367f565b5b613a246080612a3d565b90505f613a33848285016139b9565b5f830152506020613a46848285016126ac565b6020830152506040613a5a848285016126ac565b6040830152506060613a6e848285016139f1565b60608301525092915050565b5f60808284031215613a8f57613a8e6125b2565b5b5f613a9c84828501613a05565b91505092915050565b613aae81613997565b82525050565b5f602082019050613ac75f830184613aa5565b92915050565b5f604082019050613ae05f83018561271e565b613aed602083018461271e565b9392505050565b5f604082019050613b075f83018561271e565b613b146020830184612e32565b9392505050565b5f613b2582613540565b613b2f8185612d96565b9350613b3f81856020860161355a565b80840191505092915050565b5f613b568284613b1b565b915081905092915050565b5f81519050613b6f816128d9565b92915050565b5f60208284031215613b8a57613b896125b2565b5b5f613b9784828501613b61565b91505092915050565b5f606082019050613bb35f83018661271e565b613bc0602083018561271e565b613bcd6040830184612e32565b949350505050565b5f606082019050613be85f830186612e32565b613bf5602083018561271e565b8181036040830152613c078184613568565b9050949350505050565b5f604082019050613c245f830185612e32565b613c316020830184612e32565b9392505050565b613c41816139cd565b82525050565b5f606082019050613c5a5f83018661271e565b613c67602083018561271e565b613c746040830184613c38565b949350505050565b5f60208284031215613c9157613c906125b2565b5b5f613c9e84828501613687565b9150509291505056fea26469706673582212204e57919614bf541ac81f96b00fcba6aad7a1f6db83d58c24c14147f33236461f64736f6c63430008220033",
			"opcodes": "PUSH2 0x120 PUSH1 0x40 MSTORE PUSH1 0x1 PUSH1 0x7 SSTORE CALLVALUE DUP1 ISZERO PUSH2 0x15 JUMPI PUSH0 PUSH0 REVERT JUMPDEST POP PUSH1 0x40 MLOAD PUSH2 0x418D CODESIZE SUB DUP1 PUSH2 0x418D DUP4 CODECOPY DUP2 DUP2 ADD PUSH1 0x40 MSTORE DUP2 ADD SWAP1 PUSH2 0x37 SWAP2 SWAP1 PUSH2 0x3B2 JUMP JUMPDEST PUSH0 PUSH20 0xFFFFFFFFFFFFFFFFFFFFFFFFFFFFFFFFFFFFFFFF AND DUP7 PUSH20 0xFFFFFFFFFFFFFFFFFFFFFFFFFFFFFFFFFFFFFFFF AND EQ DUP1 PUSH2 0x9C JUMPI POP PUSH0 PUSH20 0xFFFFFFFFFFFFFFFFFFFFFFFFFFFFFFFFFFFFFFFF AND DUP6 PUSH20 0xFFFFFFFFFFFFFFFFFFFFFFFFFFFFFFFFFFFFFFFF AND EQ JUMPDEST DUP1 PUSH2 0xD2 JUMPI POP PUSH0 PUSH20 0xFFFFFFFFFFFFFFFFFFFFFFFFFFFFFFFFFFFFFFFF AND DUP5 PUSH20 0xFFFFFFFFFFFFFFFFFFFFFFFFFFFFFFFFFFFFFFFF AND EQ JUMPDEST DUP1 PUSH2 0x108 JUMPI POP PUSH0 PUSH20 0xFFFFFFFFFFFFFFFFFFFFFFFFFFFFFFFFFFFFFFFF AND DUP4 PUSH20 0xFFFFFFFFFFFFFFFFFFFFFFFFFFFFFFFFFFFFFFFF AND EQ JUMPDEST DUP1 PUSH2 0x13E JUMPI POP PUSH0 PUSH20 0xFFFFFFFFFFFFFFFFFFFFFFFFFFFFFFFFFFFFFFFF AND DUP3 PUSH20 0xFFFFFFFFFFFFFFFFFFFFFFFFFFFFFFFFFFFFFFFF AND EQ JUMPDEST DUP1 PUSH2 0x174 JUMPI POP PUSH0 PUSH20 0xFFFFFFFFFFFFFFFFFFFFFFFFFFFFFFFFFFFFFFFF AND DUP2 PUSH20 0xFFFFFFFFFFFFFFFFFFFFFFFFFFFFFFFFFFFFFFFF AND EQ JUMPDEST ISZERO PUSH2 0x1AB JUMPI PUSH1 0x40 MLOAD PUSH32 0xD92E233D00000000000000000000000000000000000000000000000000000000 DUP2 MSTORE PUSH1 0x4 ADD PUSH1 0x40 MLOAD DUP1 SWAP2 SUB SWAP1 REVERT JUMPDEST DUP6 PUSH0 PUSH0 PUSH2 0x100 EXP DUP2 SLOAD DUP2 PUSH20 0xFFFFFFFFFFFFFFFFFFFFFFFFFFFFFFFFFFFFFFFF MUL NOT AND SWAP1 DUP4 PUSH20 0xFFFFFFFFFFFFFFFFFFFFFFFFFFFFFFFFFFFFFFFF AND MUL OR SWAP1 SSTORE POP DUP5 PUSH20 0xFFFFFFFFFFFFFFFFFFFFFFFFFFFFFFFFFFFFFFFF AND PUSH1 0x80 DUP2 PUSH20 0xFFFFFFFFFFFFFFFFFFFFFFFFFFFFFFFFFFFFFFFF AND DUP2 MSTORE POP POP DUP4 PUSH20 0xFFFFFFFFFFFFFFFFFFFFFFFFFFFFFFFFFFFFFFFF AND PUSH1 0xA0 DUP2 PUSH20 0xFFFFFFFFFFFFFFFFFFFFFFFFFFFFFFFFFFFFFFFF AND DUP2 MSTORE POP POP DUP3 PUSH20 0xFFFFFFFFFFFFFFFFFFFFFFFFFFFFFFFFFFFFFFFF AND PUSH1 0xC0 DUP2 PUSH20 0xFFFFFFFFFFFFFFFFFFFFFFFFFFFFFFFFFFFFFFFF AND DUP2 MSTORE POP POP DUP2 PUSH20 0xFFFFFFFFFFFFFFFFFFFFFFFFFFFFFFFFFFFFFFFF AND PUSH1 0xE0 DUP2 PUSH20 0xFFFFFFFFFFFFFFFFFFFFFFFFFFFFFFFFFFFFFFFF AND DUP2 MSTORE POP POP DUP1 PUSH20 0xFFFFFFFFFFFFFFFFFFFFFFFFFFFFFFFFFFFFFFFF AND PUSH2 0x100 DUP2 PUSH20 0xFFFFFFFFFFFFFFFFFFFFFFFFFFFFFFFFFFFFFFFF AND DUP2 MSTORE POP POP DUP6 PUSH20 0xFFFFFFFFFFFFFFFFFFFFFFFFFFFFFFFFFFFFFFFF AND PUSH0 PUSH20 0xFFFFFFFFFFFFFFFFFFFFFFFFFFFFFFFFFFFFFFFF AND PUSH32 0x8BE0079C531659141344CD1FD0A4F28419497F9722A3DAAFE3B4186F6B6457E0 PUSH1 0x40 MLOAD PUSH1 0x40 MLOAD DUP1 SWAP2 SUB SWAP1 LOG3 POP POP POP POP POP POP PUSH2 0x43B JUMP JUMPDEST PUSH0 PUSH0 REVERT JUMPDEST PUSH0 PUSH20 0xFFFFFFFFFFFFFFFFFFFFFFFFFFFFFFFFFFFFFFFF DUP3 AND SWAP1 POP SWAP2 SWAP1 POP JUMP JUMPDEST PUSH0 PUSH2 0x381 DUP3 PUSH2 0x358 JUMP JUMPDEST SWAP1 POP SWAP2 SWAP1 POP JUMP JUMPDEST PUSH2 0x391 DUP2 PUSH2 0x377 JUMP JUMPDEST DUP2 EQ PUSH2 0x39B JUMPI PUSH0 PUSH0 REVERT JUMPDEST POP JUMP JUMPDEST PUSH0 DUP2 MLOAD SWAP1 POP PUSH2 0x3AC DUP2 PUSH2 0x388 JUMP JUMPDEST SWAP3 SWAP2 POP POP JUMP JUMPDEST PUSH0 PUSH0 PUSH0 PUSH0 PUSH0 PUSH0 PUSH1 0xC0 DUP8 DUP10 SUB SLT ISZERO PUSH2 0x3CC JUMPI PUSH2 0x3CB PUSH2 0x354 JUMP JUMPDEST JUMPDEST PUSH0 PUSH2 0x3D9 DUP10 DUP3 DUP11 ADD PUSH2 0x39E JUMP JUMPDEST SWAP7 POP POP PUSH1 0x20 PUSH2 0x3EA DUP10 DUP3 DUP11 ADD PUSH2 0x39E JUMP JUMPDEST SWAP6 POP POP PUSH1 0x40 PUSH2 0x3FB DUP10 DUP3 DUP11 ADD PUSH2 0x39E JUMP JUMPDEST SWAP5 POP POP PUSH1 0x60 PUSH2 0x40C DUP10 DUP3 DUP11 ADD PUSH2 0x39E JUMP JUMPDEST SWAP4 POP POP PUSH1 0x80 PUSH2 0x41D DUP10 DUP3 DUP11 ADD PUSH2 0x39E JUMP JUMPDEST SWAP3 POP POP PUSH1 0xA0 PUSH2 0x42E DUP10 DUP3 DUP11 ADD PUSH2 0x39E JUMP JUMPDEST SWAP2 POP POP SWAP3 SWAP6 POP SWAP3 SWAP6 POP SWAP3 SWAP6 JUMP JUMPDEST PUSH1 0x80 MLOAD PUSH1 0xA0 MLOAD PUSH1 0xC0 MLOAD PUSH1 0xE0 MLOAD PUSH2 0x100 MLOAD PUSH2 0x3CDD PUSH2 0x4B0 PUSH0 CODECOPY PUSH0 DUP2 DUP2 PUSH2 0xF82 ADD MSTORE PUSH2 0x220E ADD MSTORE PUSH0 DUP2 DUP2 PUSH2 0xDEB ADD MSTORE PUSH2 0x2154 ADD MSTORE PUSH0 DUP2 DUP2 PUSH2 0xF5E ADD MSTORE PUSH2 0x2094 ADD MSTORE PUSH0 DUP2 DUP2 PUSH2 0xF3A ADD MSTORE PUSH2 0x1FD4 ADD MSTORE PUSH0 DUP2 DUP2 PUSH2 0x65D ADD MSTORE DUP2 DUP2 PUSH2 0xBF0 ADD MSTORE DUP2 DUP2 PUSH2 0xDA0 ADD MSTORE DUP2 DUP2 PUSH2 0x1368 ADD MSTORE PUSH2 0x15EB ADD MSTORE PUSH2 0x3CDD PUSH0 RETURN INVALID PUSH1 0x80 PUSH1 0x40 MSTORE PUSH1 0x4 CALLDATASIZE LT PUSH2 0x10C JUMPI PUSH0 CALLDATALOAD PUSH1 0xE0 SHR DUP1 PUSH4 0x78ED1C8C GT PUSH2 0x94 JUMPI DUP1 PUSH4 0xF04F2707 GT PUSH2 0x63 JUMPI DUP1 PUSH4 0xF04F2707 EQ PUSH2 0x33F JUMPI DUP1 PUSH4 0xF2FDE38B EQ PUSH2 0x367 JUMPI DUP1 PUSH4 0xFA461E33 EQ PUSH2 0x38F JUMPI DUP1 PUSH4 0xFA483E72 EQ PUSH2 0x3B7 JUMPI DUP1 PUSH4 0xFAD6B994 EQ PUSH2 0x3DF JUMPI PUSH2 0x113 JUMP JUMPDEST DUP1 PUSH4 0x78ED1C8C EQ PUSH2 0x29B JUMPI DUP1 PUSH4 0x8DA5CB5B EQ PUSH2 0x2C5 JUMPI DUP1 PUSH4 0xB4656158 EQ PUSH2 0x2EF JUMPI DUP1 PUSH4 0xE5711E8B EQ PUSH2 0x317 JUMPI PUSH2 0x113 JUMP JUMPDEST DUP1 PUSH4 0x491E69D3 GT PUSH2 0xDB JUMPI DUP1 PUSH4 0x491E69D3 EQ PUSH2 0x1CD JUMPI DUP1 PUSH4 0x4DAD71D5 EQ PUSH2 0x1F5 JUMPI DUP1 PUSH4 0x558A7297 EQ PUSH2 0x21F JUMPI DUP1 PUSH4 0x5B549182 EQ PUSH2 0x247 JUMPI DUP1 PUSH4 0x669D6BE2 EQ PUSH2 0x271 JUMPI PUSH2 0x113 JUMP JUMPDEST DUP1 PUSH4 0x1291F79D EQ PUSH2 0x117 JUMPI DUP1 PUSH4 0x13E7C9D8 EQ PUSH2 0x13F JUMPI DUP1 PUSH4 0x158274A5 EQ PUSH2 0x17B JUMPI DUP1 PUSH4 0x2C8958F6 EQ PUSH2 0x1A5 JUMPI PUSH2 0x113 JUMP JUMPDEST CALLDATASIZE PUSH2 0x113 JUMPI STOP JUMPDEST PUSH0 PUSH0 REVERT JUMPDEST CALLVALUE DUP1 ISZERO PUSH2 0x122 JUMPI PUSH0 PUSH0 REVERT JUMPDEST POP PUSH2 0x13D PUSH1 0x4 DUP1 CALLDATASIZE SUB DUP2 ADD SWAP1 PUSH2 0x138 SWAP2 SWAP1 PUSH2 0x2647 JUMP JUMPDEST PUSH2 0x407 JUMP JUMPDEST STOP JUMPDEST CALLVALUE DUP1 ISZERO PUSH2 0x14A JUMPI PUSH0 PUSH0 REVERT JUMPDEST POP PUSH2 0x165 PUSH1 0x4 DUP1 CALLDATASIZE SUB DUP2 ADD SWAP1 PUSH2 0x160 SWAP2 SWAP1 PUSH2 0x26C0 JUMP JUMPDEST PUSH2 0x63E JUMP JUMPDEST PUSH1 0x40 MLOAD PUSH2 0x172 SWAP2 SWAP1 PUSH2 0x2705 JUMP JUMPDEST PUSH1 0x40 MLOAD DUP1 SWAP2 SUB SWAP1 RETURN JUMPDEST CALLVALUE DUP1 ISZERO PUSH2 0x186 JUMPI PUSH0 PUSH0 REVERT JUMPDEST POP PUSH2 0x18F PUSH2 0x65B JUMP JUMPDEST PUSH1 0x40 MLOAD PUSH2 0x19C SWAP2 SWAP1 PUSH2 0x272D JUMP JUMPDEST PUSH1 0x40 MLOAD DUP1 SWAP2 SUB SWAP1 RETURN JUMPDEST CALLVALUE DUP1 ISZERO PUSH2 0x1B0 JUMPI PUSH0 PUSH0 REVERT JUMPDEST POP PUSH2 0x1CB PUSH1 0x4 DUP1 CALLDATASIZE SUB DUP2 ADD SWAP1 PUSH2 0x1C6 SWAP2 SWAP1 PUSH2 0x27DA JUMP JUMPDEST PUSH2 0x67F JUMP JUMPDEST STOP JUMPDEST CALLVALUE DUP1 ISZERO PUSH2 0x1D8 JUMPI PUSH0 PUSH0 REVERT JUMPDEST POP PUSH2 0x1F3 PUSH1 0x4 DUP1 CALLDATASIZE SUB DUP2 ADD SWAP1 PUSH2 0x1EE SWAP2 SWAP1 PUSH2 0x286D JUMP JUMPDEST PUSH2 0x693 JUMP JUMPDEST STOP JUMPDEST CALLVALUE DUP1 ISZERO PUSH2 0x200 JUMPI PUSH0 PUSH0 REVERT JUMPDEST POP PUSH2 0x209 PUSH2 0xDE9 JUMP JUMPDEST PUSH1 0x40 MLOAD PUSH2 0x216 SWAP2 SWAP1 PUSH2 0x272D JUMP JUMPDEST PUSH1 0x40 MLOAD DUP1 SWAP2 SUB SWAP1 RETURN JUMPDEST CALLVALUE DUP1 ISZERO PUSH2 0x22A JUMPI PUSH0 PUSH0 REVERT JUMPDEST POP PUSH2 0x245 PUSH1 0x4 DUP1 CALLDATASIZE SUB DUP2 ADD SWAP1 PUSH2 0x240 SWAP2 SWAP1 PUSH2 0x2903 JUMP JUMPDEST PUSH2 0xE0D JUMP JUMPDEST STOP JUMPDEST CALLVALUE DUP1 ISZERO PUSH2 0x252 JUMPI PUSH0 PUSH0 REVERT JUMPDEST POP PUSH2 0x25B PUSH2 0xF38 JUMP JUMPDEST PUSH1 0x40 MLOAD PUSH2 0x268 SWAP2 SWAP1 PUSH2 0x272D JUMP JUMPDEST PUSH1 0x40 MLOAD DUP1 SWAP2 SUB SWAP1 RETURN JUMPDEST CALLVALUE DUP1 ISZERO PUSH2 0x27C JUMPI PUSH0 PUSH0 REVERT JUMPDEST POP PUSH2 0x285 PUSH2 0xF5C JUMP JUMPDEST PUSH1 0x40 MLOAD PUSH2 0x292 SWAP2 SWAP1 PUSH2 0x272D JUMP JUMPDEST PUSH1 0x40 MLOAD DUP1 SWAP2 SUB SWAP1 RETURN JUMPDEST CALLVALUE DUP1 ISZERO PUSH2 0x2A6 JUMPI PUSH0 PUSH0 REVERT JUMPDEST POP PUSH2 0x2AF PUSH2 0xF80 JUMP JUMPDEST PUSH1 0x40 MLOAD PUSH2 0x2BC SWAP2 SWAP1 PUSH2 0x272D JUMP JUMPDEST PUSH1 0x40 MLOAD DUP1 SWAP2 SUB SWAP1 RETURN JUMPDEST CALLVALUE DUP1 ISZERO PUSH2 0x2D0 JUMPI PUSH0 PUSH0 REVERT JUMPDEST POP PUSH2 0x2D9 PUSH2 0xFA4 JUMP JUMPDEST PUSH1 0x40 MLOAD PUSH2 0x2E6 SWAP2 SWAP1 PUSH2 0x272D JUMP JUMPDEST PUSH1 0x40 MLOAD DUP1 SWAP2 SUB SWAP1 RETURN JUMPDEST CALLVALUE DUP1 ISZERO PUSH2 0x2FA JUMPI PUSH0 PUSH0 REVERT JUMPDEST POP PUSH2 0x315 PUSH1 0x4 DUP1 CALLDATASIZE SUB DUP2 ADD SWAP1 PUSH2 0x310 SWAP2 SWAP1 PUSH2 0x2941 JUMP JUMPDEST PUSH2 0xFC8 JUMP JUMPDEST STOP JUMPDEST CALLVALUE DUP1 ISZERO PUSH2 0x322 JUMPI PUSH0 PUSH0 REVERT JUMPDEST POP PUSH2 0x33D PUSH1 0x4 DUP1 CALLDATASIZE SUB DUP2 ADD SWAP1 PUSH2 0x338 SWAP2 SWAP1 PUSH2 0x297F JUMP JUMPDEST PUSH2 0x1177 JUMP JUMPDEST STOP JUMPDEST CALLVALUE DUP1 ISZERO PUSH2 0x34A JUMPI PUSH0 PUSH0 REVERT JUMPDEST POP PUSH2 0x365 PUSH1 0x4 DUP1 CALLDATASIZE SUB DUP2 ADD SWAP1 PUSH2 0x360 SWAP2 SWAP1 PUSH2 0x2CC2 JUMP JUMPDEST PUSH2 0x1322 JUMP JUMPDEST STOP JUMPDEST CALLVALUE DUP1 ISZERO PUSH2 0x372 JUMPI PUSH0 PUSH0 REVERT JUMPDEST POP PUSH2 0x38D PUSH1 0x4 DUP1 CALLDATASIZE SUB DUP2 ADD SWAP1 PUSH2 0x388 SWAP2 SWAP1 PUSH2 0x26C0 JUMP JUMPDEST PUSH2 0x168D JUMP JUMPDEST STOP JUMPDEST CALLVALUE DUP1 ISZERO PUSH2 0x39A JUMPI PUSH0 PUSH0 REVERT JUMPDEST POP PUSH2 0x3B5 PUSH1 0x4 DUP1 CALLDATASIZE SUB DUP2 ADD SWAP1 PUSH2 0x3B0 SWAP2 SWAP1 PUSH2 0x27DA JUMP JUMPDEST PUSH2 0x1838 JUMP JUMPDEST STOP JUMPDEST CALLVALUE DUP1 ISZERO PUSH2 0x3C2 JUMPI PUSH0 PUSH0 REVERT JUMPDEST POP PUSH2 0x3DD PUSH1 0x4 DUP1 CALLDATASIZE SUB DUP2 ADD SWAP1 PUSH2 0x3D8 SWAP2 SWAP1 PUSH2 0x27DA JUMP JUMPDEST PUSH2 0x184C JUMP JUMPDEST STOP JUMPDEST CALLVALUE DUP1 ISZERO PUSH2 0x3EA JUMPI PUSH0 PUSH0 REVERT JUMPDEST POP PUSH2 0x405 PUSH1 0x4 DUP1 CALLDATASIZE SUB DUP2 ADD SWAP1 PUSH2 0x400 SWAP2 SWAP1 PUSH2 0x297F JUMP JUMPDEST PUSH2 0x1860 JUMP JUMPDEST STOP JUMPDEST PUSH0 PUSH0 SWAP1 SLOAD SWAP1 PUSH2 0x100 EXP SWAP1 DIV PUSH20 0xFFFFFFFFFFFFFFFFFFFFFFFFFFFFFFFFFFFFFFFF AND PUSH20 0xFFFFFFFFFFFFFFFFFFFFFFFFFFFFFFFFFFFFFFFF AND CALLER PUSH20 0xFFFFFFFFFFFFFFFFFFFFFFFFFFFFFFFFFFFFFFFF AND EQ PUSH2 0x48C JUMPI PUSH1 0x40 MLOAD PUSH32 0x82B4290000000000000000000000000000000000000000000000000000000000 DUP2 MSTORE PUSH1 0x4 ADD PUSH1 0x40 MLOAD DUP1 SWAP2 SUB SWAP1 REVERT JUMPDEST PUSH1 0x1 PUSH1 0x7 SLOAD EQ PUSH2 0x4C8 JUMPI PUSH1 0x40 MLOAD PUSH32 0x82B4290000000000000000000000000000000000000000000000000000000000 DUP2 MSTORE PUSH1 0x4 ADD PUSH1 0x40 MLOAD DUP1 SWAP2 SUB SWAP1 REVERT JUMPDEST PUSH1 0x2 PUSH1 0x7 DUP2 SWAP1 SSTORE POP PUSH0 PUSH20 0xFFFFFFFFFFFFFFFFFFFFFFFFFFFFFFFFFFFFFFFF AND DUP3 PUSH20 0xFFFFFFFFFFFFFFFFFFFFFFFFFFFFFFFFFFFFFFFF AND SUB PUSH2 0x535 JUMPI PUSH1 0x40 MLOAD PUSH32 0xD92E233D00000000000000000000000000000000000000000000000000000000 DUP2 MSTORE PUSH1 0x4 ADD PUSH1 0x40 MLOAD DUP1 SWAP2 SUB SWAP1 REVERT JUMPDEST PUSH0 DUP3 PUSH20 0xFFFFFFFFFFFFFFFFFFFFFFFFFFFFFFFFFFFFFFFF AND DUP3 PUSH1 0x40 MLOAD PUSH2 0x55A SWAP1 PUSH2 0x2DC3 JUMP JUMPDEST PUSH0 PUSH1 0x40 MLOAD DUP1 DUP4 SUB DUP2 DUP6 DUP8 GAS CALL SWAP3 POP POP POP RETURNDATASIZE DUP1 PUSH0 DUP2 EQ PUSH2 0x594 JUMPI PUSH1 0x40 MLOAD SWAP2 POP PUSH1 0x1F NOT PUSH1 0x3F RETURNDATASIZE ADD AND DUP3 ADD PUSH1 0x40 MSTORE RETURNDATASIZE DUP3 MSTORE RETURNDATASIZE PUSH0 PUSH1 0x20 DUP5 ADD RETURNDATACOPY PUSH2 0x599 JUMP JUMPDEST PUSH1 0x60 SWAP2 POP JUMPDEST POP POP SWAP1 POP DUP1 PUSH2 0x5E3 JUMPI PUSH0 DUP4 DUP4 PUSH1 0x40 MLOAD PUSH32 0xBF182BE800000000000000000000000000000000000000000000000000000000 DUP2 MSTORE PUSH1 0x4 ADD PUSH2 0x5DA SWAP4 SWAP3 SWAP2 SWAP1 PUSH2 0x2E41 JUMP JUMPDEST PUSH1 0x40 MLOAD DUP1 SWAP2 SUB SWAP1 REVERT JUMPDEST DUP3 PUSH20 0xFFFFFFFFFFFFFFFFFFFFFFFFFFFFFFFFFFFFFFFF AND PUSH32 0xE3EB98B7FE2A0C1D490B92AF73EEAE611E9B00AB3C3F70B20BD7BB43F67A0F43 DUP4 PUSH1 0x40 MLOAD PUSH2 0x629 SWAP2 SWAP1 PUSH2 0x2E76 JUMP JUMPDEST PUSH1 0x40 MLOAD DUP1 SWAP2 SUB SWAP1 LOG2 POP PUSH1 0x1 PUSH1 0x7 DUP2 SWAP1 SSTORE POP POP POP JUMP JUMPDEST PUSH1 0x1 PUSH1 0x20 MSTORE DUP1 PUSH0 MSTORE PUSH1 0x40 PUSH0 KECCAK256 PUSH0 SWAP2 POP SLOAD SWAP1 PUSH2 0x100 EXP SWAP1 DIV PUSH1 0xFF AND DUP2 JUMP JUMPDEST PUSH32 0x0 DUP2 JUMP JUMPDEST PUSH2 0x68D PUSH1 0x3 DUP6 DUP6 DUP6 DUP6 PUSH2 0x19CE JUMP JUMPDEST POP POP POP POP JUMP JUMPDEST PUSH0 PUSH0 SWAP1 SLOAD SWAP1 PUSH2 0x100 EXP SWAP1 DIV PUSH20 0xFFFFFFFFFFFFFFFFFFFFFFFFFFFFFFFFFFFFFFFF AND PUSH20 0xFFFFFFFFFFFFFFFFFFFFFFFFFFFFFFFFFFFFFFFF AND CALLER PUSH20 0xFFFFFFFFFFFFFFFFFFFFFFFFFFFFFFFFFFFFFFFF AND EQ ISZERO DUP1 ISZERO PUSH2 0x736 JUMPI POP PUSH1 0x1 PUSH0 CALLER PUSH20 0xFFFFFFFFFFFFFFFFFFFFFFFFFFFFFFFFFFFFFFFF AND PUSH20 0xFFFFFFFFFFFFFFFFFFFFFFFFFFFFFFFFFFFFFFFF AND DUP2 MSTORE PUSH1 0x20 ADD SWAP1 DUP2 MSTORE PUSH1 0x20 ADD PUSH0 KECCAK256 PUSH0 SWAP1 SLOAD SWAP1 PUSH2 0x100 EXP SWAP1 DIV PUSH1 0xFF AND ISZERO JUMPDEST ISZERO PUSH2 0x76D JUMPI PUSH1 0x40 MLOAD PUSH32 0x82B4290000000000000000000000000000000000000000000000000000000000 DUP2 MSTORE PUSH1 0x4 ADD PUSH1 0x40 MLOAD DUP1 SWAP2 SUB SWAP1 REVERT JUMPDEST PUSH1 0x1 PUSH1 0x7 SLOAD EQ PUSH2 0x7A9 JUMPI PUSH1 0x40 MLOAD PUSH32 0x82B4290000000000000000000000000000000000000000000000000000000000 DUP2 MSTORE PUSH1 0x4 ADD PUSH1 0x40 MLOAD DUP1 SWAP2 SUB SWAP1 REVERT JUMPDEST PUSH1 0x2 PUSH1 0x7 DUP2 SWAP1 SSTORE POP DUP1 PUSH1 0x40 ADD CALLDATALOAD TIMESTAMP GT ISZERO PUSH2 0x7EF JUMPI PUSH1 0x40 MLOAD PUSH32 0x1AB7DA6B00000000000000000000000000000000000000000000000000000000 DUP2 MSTORE PUSH1 0x4 ADD PUSH1 0x40 MLOAD DUP1 SWAP2 SUB SWAP1 REVERT JUMPDEST PUSH0 DUP2 DUP1 PUSH1 0x80 ADD SWAP1 PUSH2 0x800 SWAP2 SWAP1 PUSH2 0x2E9B JUMP JUMPDEST SWAP1 POP SWAP1 POP PUSH0 DUP2 SUB PUSH2 0x83D JUMPI PUSH1 0x40 MLOAD PUSH32 0xEA60AB1D00000000000000000000000000000000000000000000000000000000 DUP2 MSTORE PUSH1 0x4 ADD PUSH1 0x40 MLOAD DUP1 SWAP2 SUB SWAP1 REVERT JUMPDEST PUSH1 0xC DUP2 GT ISZERO PUSH2 0x878 JUMPI PUSH1 0x40 MLOAD PUSH32 0xF5DEDBFF00000000000000000000000000000000000000000000000000000000 DUP2 MSTORE PUSH1 0x4 ADD PUSH1 0x40 MLOAD DUP1 SWAP2 SUB SWAP1 REVERT JUMPDEST PUSH0 DUP4 SUB PUSH2 0x8B1 JUMPI PUSH1 0x40 MLOAD PUSH32 0x946302FE00000000000000000000000000000000000000000000000000000000 DUP2 MSTORE PUSH1 0x4 ADD PUSH1 0x40 MLOAD DUP1 SWAP2 SUB SWAP1 REVERT JUMPDEST PUSH0 PUSH20 0xFFFFFFFFFFFFFFFFFFFFFFFFFFFFFFFFFFFFFFFF AND DUP5 PUSH20 0xFFFFFFFFFFFFFFFFFFFFFFFFFFFFFFFFFFFFFFFF AND EQ DUP1 PUSH2 0x927 JUMPI POP PUSH0 PUSH20 0xFFFFFFFFFFFFFFFFFFFFFFFFFFFFFFFFFFFFFFFF AND DUP3 PUSH0 ADD PUSH1 0x20 DUP2 ADD SWAP1 PUSH2 0x90F SWAP2 SWAP1 PUSH2 0x26C0 JUMP JUMPDEST PUSH20 0xFFFFFFFFFFFFFFFFFFFFFFFFFFFFFFFFFFFFFFFF AND EQ JUMPDEST ISZERO PUSH2 0x95E JUMPI PUSH1 0x40 MLOAD PUSH32 0xD92E233D00000000000000000000000000000000000000000000000000000000 DUP2 MSTORE PUSH1 0x4 ADD PUSH1 0x40 MLOAD DUP1 SWAP2 SUB SWAP1 REVERT JUMPDEST PUSH0 DUP3 DUP1 PUSH1 0x80 ADD SWAP1 PUSH2 0x96F SWAP2 SWAP1 PUSH2 0x2E9B JUMP JUMPDEST PUSH1 0x40 MLOAD PUSH1 0x20 ADD PUSH2 0x980 SWAP3 SWAP2 SWAP1 PUSH2 0x3129 JUMP JUMPDEST PUSH1 0x40 MLOAD PUSH1 0x20 DUP2 DUP4 SUB SUB DUP2 MSTORE SWAP1 PUSH1 0x40 MSTORE DUP1 MLOAD SWAP1 PUSH1 0x20 ADD KECCAK256 SWAP1 POP DUP3 PUSH1 0x60 ADD CALLDATALOAD DUP2 EQ PUSH2 0x9D5 JUMPI PUSH1 0x40 MLOAD PUSH32 0xC858ADFF00000000000000000000000000000000000000000000000000000000 DUP2 MSTORE PUSH1 0x4 ADD PUSH1 0x40 MLOAD DUP1 SWAP2 SUB SWAP1 REVERT JUMPDEST PUSH0 DUP4 PUSH0 ADD PUSH1 0x20 DUP2 ADD SWAP1 PUSH2 0x9E8 SWAP2 SWAP1 PUSH2 0x26C0 JUMP JUMPDEST PUSH20 0xFFFFFFFFFFFFFFFFFFFFFFFFFFFFFFFFFFFFFFFF AND PUSH4 0x70A08231 ADDRESS PUSH1 0x40 MLOAD DUP3 PUSH4 0xFFFFFFFF AND PUSH1 0xE0 SHL DUP2 MSTORE PUSH1 0x4 ADD PUSH2 0xA20 SWAP2 SWAP1 PUSH2 0x272D JUMP JUMPDEST PUSH1 0x20 PUSH1 0x40 MLOAD DUP1 DUP4 SUB DUP2 DUP7 GAS STATICCALL ISZERO DUP1 ISZERO PUSH2 0xA3B JUMPI RETURNDATASIZE PUSH0 PUSH0 RETURNDATACOPY RETURNDATASIZE PUSH0 REVERT JUMPDEST POP POP POP POP PUSH1 0x40 MLOAD RETURNDATASIZE PUSH1 0x1F NOT PUSH1 0x1F DUP3 ADD AND DUP3 ADD DUP1 PUSH1 0x40 MSTORE POP DUP2 ADD SWAP1 PUSH2 0xA5F SWAP2 SWAP1 PUSH2 0x315F JUMP JUMPDEST SWAP1 POP PUSH1 0x1 PUSH1 0x2 PUSH0 PUSH2 0x100 EXP DUP2 SLOAD DUP2 PUSH1 0xFF MUL NOT AND SWAP1 DUP4 PUSH1 0xFF AND MUL OR SWAP1 SSTORE POP DUP2 PUSH1 0x3 DUP2 SWAP1 SSTORE POP DUP4 PUSH0 ADD PUSH1 0x20 DUP2 ADD SWAP1 PUSH2 0xA95 SWAP2 SWAP1 PUSH2 0x26C0 JUMP JUMPDEST PUSH1 0x4 PUSH0 PUSH2 0x100 EXP DUP2 SLOAD DUP2 PUSH20 0xFFFFFFFFFFFFFFFFFFFFFFFFFFFFFFFFFFFFFFFF MUL NOT AND SWAP1 DUP4 PUSH20 0xFFFFFFFFFFFFFFFFFFFFFFFFFFFFFFFFFFFFFFFF AND MUL OR SWAP1 SSTORE POP DUP4 PUSH1 0x20 ADD CALLDATALOAD PUSH1 0x5 DUP2 SWAP1 SSTORE POP DUP1 PUSH1 0x6 DUP2 SWAP1 SSTORE POP PUSH0 PUSH1 0x1 PUSH8 0xFFFFFFFFFFFFFFFF DUP2 GT ISZERO PUSH2 0xB02 JUMPI PUSH2 0xB01 PUSH2 0x29DF JUMP JUMPDEST JUMPDEST PUSH1 0x40 MLOAD SWAP1 DUP1 DUP3 MSTORE DUP1 PUSH1 0x20 MUL PUSH1 0x20 ADD DUP3 ADD PUSH1 0x40 MSTORE DUP1 ISZERO PUSH2 0xB30 JUMPI DUP2 PUSH1 0x20 ADD PUSH1 0x20 DUP3 MUL DUP1 CALLDATASIZE DUP4 CALLDATACOPY DUP1 DUP3 ADD SWAP2 POP POP SWAP1 POP JUMPDEST POP SWAP1 POP DUP7 DUP2 PUSH0 DUP2 MLOAD DUP2 LT PUSH2 0xB47 JUMPI PUSH2 0xB46 PUSH2 0x318A JUMP JUMPDEST JUMPDEST PUSH1 0x20 MUL PUSH1 0x20 ADD ADD SWAP1 PUSH20 0xFFFFFFFFFFFFFFFFFFFFFFFFFFFFFFFFFFFFFFFF AND SWAP1 DUP2 PUSH20 0xFFFFFFFFFFFFFFFFFFFFFFFFFFFFFFFFFFFFFFFF AND DUP2 MSTORE POP POP PUSH0 PUSH1 0x1 PUSH8 0xFFFFFFFFFFFFFFFF DUP2 GT ISZERO PUSH2 0xB9D JUMPI PUSH2 0xB9C PUSH2 0x29DF JUMP JUMPDEST JUMPDEST PUSH1 0x40 MLOAD SWAP1 DUP1 DUP3 MSTORE DUP1 PUSH1 0x20 MUL PUSH1 0x20 ADD DUP3 ADD PUSH1 0x40 MSTORE DUP1 ISZERO PUSH2 0xBCB JUMPI DUP2 PUSH1 0x20 ADD PUSH1 0x20 DUP3 MUL DUP1 CALLDATASIZE DUP4 CALLDATACOPY DUP1 DUP3 ADD SWAP2 POP POP SWAP1 POP JUMPDEST POP SWAP1 POP DUP7 DUP2 PUSH0 DUP2 MLOAD DUP2 LT PUSH2 0xBE2 JUMPI PUSH2 0xBE1 PUSH2 0x318A JUMP JUMPDEST JUMPDEST PUSH1 0x20 MUL PUSH1 0x20 ADD ADD DUP2 DUP2 MSTORE POP POP PUSH32 0x0 PUSH20 0xFFFFFFFFFFFFFFFFFFFFFFFFFFFFFFFFFFFFFFFF AND PUSH4 0x5C38449E ADDRESS DUP5 DUP5 DUP11 PUSH1 0x40 MLOAD PUSH1 0x20 ADD PUSH2 0xC3E SWAP2 SWAP1 PUSH2 0x3390 JUMP JUMPDEST PUSH1 0x40 MLOAD PUSH1 0x20 DUP2 DUP4 SUB SUB DUP2 MSTORE SWAP1 PUSH1 0x40 MSTORE PUSH1 0x40 MLOAD DUP6 PUSH4 0xFFFFFFFF AND PUSH1 0xE0 SHL DUP2 MSTORE PUSH1 0x4 ADD PUSH2 0xC6C SWAP5 SWAP4 SWAP3 SWAP2 SWAP1 PUSH2 0x35A0 JUMP JUMPDEST PUSH0 PUSH1 0x40 MLOAD DUP1 DUP4 SUB DUP2 PUSH0 DUP8 DUP1 EXTCODESIZE ISZERO DUP1 ISZERO PUSH2 0xC83 JUMPI PUSH0 PUSH0 REVERT JUMPDEST POP GAS CALL ISZERO DUP1 ISZERO PUSH2 0xC95 JUMPI RETURNDATASIZE PUSH0 PUSH0 RETURNDATACOPY RETURNDATASIZE PUSH0 REVERT JUMPDEST POP POP POP POP PUSH0 DUP7 PUSH0 ADD PUSH1 0x20 DUP2 ADD SWAP1 PUSH2 0xCAC SWAP2 SWAP1 PUSH2 0x26C0 JUMP JUMPDEST PUSH20 0xFFFFFFFFFFFFFFFFFFFFFFFFFFFFFFFFFFFFFFFF AND PUSH4 0x70A08231 ADDRESS PUSH1 0x40 MLOAD DUP3 PUSH4 0xFFFFFFFF AND PUSH1 0xE0 SHL DUP2 MSTORE PUSH1 0x4 ADD PUSH2 0xCE4 SWAP2 SWAP1 PUSH2 0x272D JUMP JUMPDEST PUSH1 0x20 PUSH1 0x40 MLOAD DUP1 DUP4 SUB DUP2 DUP7 GAS STATICCALL ISZERO DUP1 ISZERO PUSH2 0xCFF JUMPI RETURNDATASIZE PUSH0 PUSH0 RETURNDATACOPY RETURNDATASIZE PUSH0 REVERT JUMPDEST POP POP POP POP PUSH1 0x40 MLOAD RETURNDATASIZE PUSH1 0x1F NOT PUSH1 0x1F DUP3 ADD AND DUP3 ADD DUP1 PUSH1 0x40 MSTORE POP DUP2 ADD SWAP1 PUSH2 0xD23 SWAP2 SWAP1 PUSH2 0x315F JUMP JUMPDEST SWAP1 POP PUSH0 DUP5 DUP3 PUSH2 0xD32 SWAP2 SWAP1 PUSH2 0x3625 JUMP JUMPDEST SWAP1 POP PUSH2 0xD3C PUSH2 0x1B9A JUMP JUMPDEST DUP6 DUP9 PUSH0 ADD PUSH1 0x20 DUP2 ADD SWAP1 PUSH2 0xD4F SWAP2 SWAP1 PUSH2 0x26C0 JUMP JUMPDEST PUSH20 0xFFFFFFFFFFFFFFFFFFFFFFFFFFFFFFFFFFFFFFFF AND CALLER PUSH20 0xFFFFFFFFFFFFFFFFFFFFFFFFFFFFFFFFFFFFFFFF AND PUSH32 0x2790EAC69D46D24BB29B55A23B12E2E49076DC2A9FDCB340E641DE33FCA2C5DD DUP5 PUSH32 0x0 PUSH1 0x40 MLOAD PUSH2 0xDCD SWAP3 SWAP2 SWAP1 PUSH2 0x3658 JUMP JUMPDEST PUSH1 0x40 MLOAD DUP1 SWAP2 SUB SWAP1 LOG4 POP POP POP POP POP POP POP PUSH1 0x1 PUSH1 0x7 DUP2 SWAP1 SSTORE POP POP POP POP JUMP JUMPDEST PUSH32 0x0 DUP2 JUMP JUMPDEST PUSH0 PUSH0 SWAP1 SLOAD SWAP1 PUSH2 0x100 EXP SWAP1 DIV PUSH20 0xFFFFFFFFFFFFFFFFFFFFFFFFFFFFFFFFFFFFFFFF AND PUSH20 0xFFFFFFFFFFFFFFFFFFFFFFFFFFFFFFFFFFFFFFFF AND CALLER PUSH20 0xFFFFFFFFFFFFFFFFFFFFFFFFFFFFFFFFFFFFFFFF AND EQ PUSH2 0xE92 JUMPI PUSH1 0x40 MLOAD PUSH32 0x82B4290000000000000000000000000000000000000000000000000000000000 DUP2 MSTORE PUSH1 0x4 ADD PUSH1 0x40 MLOAD DUP1 SWAP2 SUB SWAP1 REVERT JUMPDEST DUP1 PUSH1 0x1 PUSH0 DUP5 PUSH20 0xFFFFFFFFFFFFFFFFFFFFFFFFFFFFFFFFFFFFFFFF AND PUSH20 0xFFFFFFFFFFFFFFFFFFFFFFFFFFFFFFFFFFFFFFFF AND DUP2 MSTORE PUSH1 0x20 ADD SWAP1 DUP2 MSTORE PUSH1 0x20 ADD PUSH0 KECCAK256 PUSH0 PUSH2 0x100 EXP DUP2 SLOAD DUP2 PUSH1 0xFF MUL NOT AND SWAP1 DUP4 ISZERO ISZERO MUL OR SWAP1 SSTORE POP DUP2 PUSH20 0xFFFFFFFFFFFFFFFFFFFFFFFFFFFFFFFFFFFFFFFF AND PUSH32 0x1A594081AE893AB78E67D9B9E843547318164322D32C65369D78A96172D9DC8F DUP3 PUSH1 0x40 MLOAD PUSH2 0xF2C SWAP2 SWAP1 PUSH2 0x2705 JUMP JUMPDEST PUSH1 0x40 MLOAD DUP1 SWAP2 SUB SWAP1 LOG2 POP POP JUMP JUMPDEST PUSH32 0x0 DUP2 JUMP JUMPDEST PUSH32 0x0 DUP2 JUMP JUMPDEST PUSH32 0x0 DUP2 JUMP JUMPDEST PUSH0 PUSH0 SWAP1 SLOAD SWAP1 PUSH2 0x100 EXP SWAP1 DIV PUSH20 0xFFFFFFFFFFFFFFFFFFFFFFFFFFFFFFFFFFFFFFFF AND DUP2 JUMP JUMPDEST PUSH0 PUSH0 SWAP1 SLOAD SWAP1 PUSH2 0x100 EXP SWAP1 DIV PUSH20 0xFFFFFFFFFFFFFFFFFFFFFFFFFFFFFFFFFFFFFFFF AND PUSH20 0xFFFFFFFFFFFFFFFFFFFFFFFFFFFFFFFFFFFFFFFF AND CALLER PUSH20 0xFFFFFFFFFFFFFFFFFFFFFFFFFFFFFFFFFFFFFFFF AND EQ ISZERO DUP1 ISZERO PUSH2 0x106B JUMPI POP PUSH1 0x1 PUSH0 CALLER PUSH20 0xFFFFFFFFFFFFFFFFFFFFFFFFFFFFFFFFFFFFFFFF AND PUSH20 0xFFFFFFFFFFFFFFFFFFFFFFFFFFFFFFFFFFFFFFFF AND DUP2 MSTORE PUSH1 0x20 ADD SWAP1 DUP2 MSTORE PUSH1 0x20 ADD PUSH0 KECCAK256 PUSH0 SWAP1 SLOAD SWAP1 PUSH2 0x100 EXP SWAP1 DIV PUSH1 0xFF AND ISZERO JUMPDEST ISZERO PUSH2 0x10A2 JUMPI PUSH1 0x40 MLOAD PUSH32 0x82B4290000000000000000000000000000000000000000000000000000000000 DUP2 MSTORE PUSH1 0x4 ADD PUSH1 0x40 MLOAD DUP1 SWAP2 SUB SWAP1 REVERT JUMPDEST PUSH1 0x1 PUSH1 0x7 SLOAD EQ PUSH2 0x10DE JUMPI PUSH1 0x40 MLOAD PUSH32 0x82B4290000000000000000000000000000000000000000000000000000000000 DUP2 MSTORE PUSH1 0x4 ADD PUSH1 0x40 MLOAD DUP1 SWAP2 SUB SWAP1 REVERT JUMPDEST PUSH1 0x2 PUSH1 0x7 DUP2 SWAP1 SSTORE POP PUSH2 0x1111 DUP3 DUP3 PUSH32 0xFFFFFFFFFFFFFFFFFFFFFFFFFFFFFFFFFFFFFFFFFFFFFFFFFFFFFFFFFFFFFFFF PUSH2 0x1C0D JUMP JUMPDEST DUP1 PUSH20 0xFFFFFFFFFFFFFFFFFFFFFFFFFFFFFFFFFFFFFFFF AND DUP3 PUSH20 0xFFFFFFFFFFFFFFFFFFFFFFFFFFFFFFFFFFFFFFFF AND PUSH32 0x8D936A3B74312B60E024EE1B476014E8BD0523E8355D93FF5A0787567FE92F5F PUSH1 0x40 MLOAD PUSH1 0x40 MLOAD DUP1 SWAP2 SUB SWAP1 LOG3 PUSH1 0x1 PUSH1 0x7 DUP2 SWAP1 SSTORE POP POP POP JUMP JUMPDEST PUSH0 PUSH0 SWAP1 SLOAD SWAP1 PUSH2 0x100 EXP SWAP1 DIV PUSH20 0xFFFFFFFFFFFFFFFFFFFFFFFFFFFFFFFFFFFFFFFF AND PUSH20 0xFFFFFFFFFFFFFFFFFFFFFFFFFFFFFFFFFFFFFFFF AND CALLER PUSH20 0xFFFFFFFFFFFFFFFFFFFFFFFFFFFFFFFFFFFFFFFF AND EQ PUSH2 0x11FC JUMPI PUSH1 0x40 MLOAD PUSH32 0x82B4290000000000000000000000000000000000000000000000000000000000 DUP2 MSTORE PUSH1 0x4 ADD PUSH1 0x40 MLOAD DUP1 SWAP2 SUB SWAP1 REVERT JUMPDEST PUSH1 0x1 PUSH1 0x7 SLOAD EQ PUSH2 0x1238 JUMPI PUSH1 0x40 MLOAD PUSH32 0x82B4290000000000000000000000000000000000000000000000000000000000 DUP2 MSTORE PUSH1 0x4 ADD PUSH1 0x40 MLOAD DUP1 SWAP2 SUB SWAP1 REVERT JUMPDEST PUSH1 0x2 PUSH1 0x7 DUP2 SWAP1 SSTORE POP PUSH0 PUSH20 0xFFFFFFFFFFFFFFFFFFFFFFFFFFFFFFFFFFFFFFFF AND DUP3 PUSH20 0xFFFFFFFFFFFFFFFFFFFFFFFFFFFFFFFFFFFFFFFF AND SUB PUSH2 0x12A5 JUMPI PUSH1 0x40 MLOAD PUSH32 0xD92E233D00000000000000000000000000000000000000000000000000000000 DUP2 MSTORE PUSH1 0x4 ADD PUSH1 0x40 MLOAD DUP1 SWAP2 SUB SWAP1 REVERT JUMPDEST PUSH2 0x12B0 DUP4 DUP4 DUP4 PUSH2 0x1C6D JUMP JUMPDEST DUP2 PUSH20 0xFFFFFFFFFFFFFFFFFFFFFFFFFFFFFFFFFFFFFFFF AND DUP4 PUSH20 0xFFFFFFFFFFFFFFFFFFFFFFFFFFFFFFFFFFFFFFFF AND PUSH32 0x4143F7B5CB6EA007914C32B8A3E64CEBC051D7F493FA0755454DA1E47701E125 DUP4 PUSH1 0x40 MLOAD PUSH2 0x130D SWAP2 SWAP1 PUSH2 0x2E76 JUMP JUMPDEST PUSH1 0x40 MLOAD DUP1 SWAP2 SUB SWAP1 LOG3 PUSH1 0x1 PUSH1 0x7 DUP2 SWAP1 SSTORE POP POP POP POP JUMP JUMPDEST PUSH1 0x1 PUSH1 0x7 SLOAD EQ PUSH2 0x135E JUMPI PUSH1 0x40 MLOAD PUSH32 0x82B4290000000000000000000000000000000000000000000000000000000000 DUP2 MSTORE PUSH1 0x4 ADD PUSH1 0x40 MLOAD DUP1 SWAP2 SUB SWAP1 REVERT JUMPDEST PUSH1 0x2 PUSH1 0x7 DUP2 SWAP1 SSTORE POP PUSH32 0x0 PUSH20 0xFFFFFFFFFFFFFFFFFFFFFFFFFFFFFFFFFFFFFFFF AND CALLER PUSH20 0xFFFFFFFFFFFFFFFFFFFFFFFFFFFFFFFFFFFFFFFF AND EQ PUSH2 0x13EB JUMPI PUSH1 0x40 MLOAD PUSH32 0xFC30532900000000000000000000000000000000000000000000000000000000 DUP2 MSTORE PUSH1 0x4 ADD PUSH1 0x40 MLOAD DUP1 SWAP2 SUB SWAP1 REVERT JUMPDEST PUSH1 0x1 PUSH1 0xFF AND PUSH1 0x2 PUSH0 SWAP1 SLOAD SWAP1 PUSH2 0x100 EXP SWAP1 DIV PUSH1 0xFF AND PUSH1 0xFF AND EQ PUSH2 0x1439 JUMPI PUSH1 0x40 MLOAD PUSH32 0xADD4ADC000000000000000000000000000000000000000000000000000000000 DUP2 MSTORE PUSH1 0x4 ADD PUSH1 0x40 MLOAD DUP1 SWAP2 SUB SWAP1 REVERT JUMPDEST PUSH0 DUP2 DUP1 PUSH1 0x20 ADD SWAP1 MLOAD DUP2 ADD SWAP1 PUSH2 0x144E SWAP2 SWAP1 PUSH2 0x391D JUMP JUMPDEST SWAP1 POP PUSH1 0x3 SLOAD DUP2 PUSH1 0x60 ADD MLOAD EQ PUSH2 0x148F JUMPI PUSH1 0x40 MLOAD PUSH32 0xC858ADFF00000000000000000000000000000000000000000000000000000000 DUP2 MSTORE PUSH1 0x4 ADD PUSH1 0x40 MLOAD DUP1 SWAP2 SUB SWAP1 REVERT JUMPDEST PUSH1 0x4 PUSH0 SWAP1 SLOAD SWAP1 PUSH2 0x100 EXP SWAP1 DIV PUSH20 0xFFFFFFFFFFFFFFFFFFFFFFFFFFFFFFFFFFFFFFFF AND PUSH20 0xFFFFFFFFFFFFFFFFFFFFFFFFFFFFFFFFFFFFFFFF AND DUP2 PUSH0 ADD MLOAD PUSH20 0xFFFFFFFFFFFFFFFFFFFFFFFFFFFFFFFFFFFFFFFF AND EQ PUSH2 0x1518 JUMPI PUSH1 0x40 MLOAD PUSH32 0xADD4ADC000000000000000000000000000000000000000000000000000000000 DUP2 MSTORE PUSH1 0x4 ADD PUSH1 0x40 MLOAD DUP1 SWAP2 SUB SWAP1 REVERT JUMPDEST PUSH1 0x5 SLOAD DUP2 PUSH1 0x20 ADD MLOAD EQ PUSH2 0x1557 JUMPI PUSH1 0x40 MLOAD PUSH32 0xADD4ADC000000000000000000000000000000000000000000000000000000000 DUP2 MSTORE PUSH1 0x4 ADD PUSH1 0x40 MLOAD DUP1 SWAP2 SUB SWAP1 REVERT JUMPDEST DUP1 PUSH1 0x40 ADD MLOAD TIMESTAMP GT ISZERO PUSH2 0x1595 JUMPI PUSH1 0x40 MLOAD PUSH32 0x1AB7DA6B00000000000000000000000000000000000000000000000000000000 DUP2 MSTORE PUSH1 0x4 ADD PUSH1 0x40 MLOAD DUP1 SWAP2 SUB SWAP1 REVERT JUMPDEST PUSH1 0x2 DUP1 PUSH0 PUSH2 0x100 EXP DUP2 SLOAD DUP2 PUSH1 0xFF MUL NOT AND SWAP1 DUP4 PUSH1 0xFF AND MUL OR SWAP1 SSTORE POP PUSH2 0x15BC DUP2 PUSH1 0x80 ADD MLOAD PUSH2 0x1DC6 JUMP JUMPDEST PUSH0 DUP6 MLOAD SWAP1 POP PUSH0 JUMPDEST DUP2 DUP2 LT ISZERO PUSH2 0x165A JUMPI PUSH2 0x164F DUP8 DUP3 DUP2 MLOAD DUP2 LT PUSH2 0x15E1 JUMPI PUSH2 0x15E0 PUSH2 0x318A JUMP JUMPDEST JUMPDEST PUSH1 0x20 MUL PUSH1 0x20 ADD ADD MLOAD PUSH32 0x0 DUP8 DUP5 DUP2 MLOAD DUP2 LT PUSH2 0x161D JUMPI PUSH2 0x161C PUSH2 0x318A JUMP JUMPDEST JUMPDEST PUSH1 0x20 MUL PUSH1 0x20 ADD ADD MLOAD DUP10 DUP6 DUP2 MLOAD DUP2 LT PUSH2 0x1638 JUMPI PUSH2 0x1637 PUSH2 0x318A JUMP JUMPDEST JUMPDEST PUSH1 0x20 MUL PUSH1 0x20 ADD ADD MLOAD PUSH2 0x164A SWAP2 SWAP1 PUSH2 0x3964 JUMP JUMPDEST PUSH2 0x1C6D JUMP JUMPDEST DUP1 PUSH1 0x1 ADD SWAP1 POP PUSH2 0x15C3 JUMP JUMPDEST POP PUSH0 PUSH1 0x2 PUSH0 PUSH2 0x100 EXP DUP2 SLOAD DUP2 PUSH1 0xFF MUL NOT AND SWAP1 DUP4 PUSH1 0xFF AND MUL OR SWAP1 SSTORE POP PUSH2 0x167D PUSH2 0x1EC6 JUMP JUMPDEST POP POP PUSH1 0x1 PUSH1 0x7 DUP2 SWAP1 SSTORE POP POP POP POP POP JUMP JUMPDEST PUSH0 PUSH0 SWAP1 SLOAD SWAP1 PUSH2 0x100 EXP SWAP1 DIV PUSH20 0xFFFFFFFFFFFFFFFFFFFFFFFFFFFFFFFFFFFFFFFF AND PUSH20 0xFFFFFFFFFFFFFFFFFFFFFFFFFFFFFFFFFFFFFFFF AND CALLER PUSH20 0xFFFFFFFFFFFFFFFFFFFFFFFFFFFFFFFFFFFFFFFF AND EQ PUSH2 0x1712 JUMPI PUSH1 0x40 MLOAD PUSH32 0x82B4290000000000000000000000000000000000000000000000000000000000 DUP2 MSTORE PUSH1 0x4 ADD PUSH1 0x40 MLOAD DUP1 SWAP2 SUB SWAP1 REVERT JUMPDEST PUSH0 PUSH20 0xFFFFFFFFFFFFFFFFFFFFFFFFFFFFFFFFFFFFFFFF AND DUP2 PUSH20 0xFFFFFFFFFFFFFFFFFFFFFFFFFFFFFFFFFFFFFFFF AND SUB PUSH2 0x1777 JUMPI PUSH1 0x40 MLOAD PUSH32 0xD92E233D00000000000000000000000000000000000000000000000000000000 DUP2 MSTORE PUSH1 0x4 ADD PUSH1 0x40 MLOAD DUP1 SWAP2 SUB SWAP1 REVERT JUMPDEST PUSH0 PUSH0 PUSH0 SWAP1 SLOAD SWAP1 PUSH2 0x100 EXP SWAP1 DIV PUSH20 0xFFFFFFFFFFFFFFFFFFFFFFFFFFFFFFFFFFFFFFFF AND SWAP1 POP DUP2 PUSH0 PUSH0 PUSH2 0x100 EXP DUP2 SLOAD DUP2 PUSH20 0xFFFFFFFFFFFFFFFFFFFFFFFFFFFFFFFFFFFFFFFF MUL NOT AND SWAP1 DUP4 PUSH20 0xFFFFFFFFFFFFFFFFFFFFFFFFFFFFFFFFFFFFFFFF AND MUL OR SWAP1 SSTORE POP DUP2 PUSH20 0xFFFFFFFFFFFFFFFFFFFFFFFFFFFFFFFFFFFFFFFF AND DUP2 PUSH20 0xFFFFFFFFFFFFFFFFFFFFFFFFFFFFFFFFFFFFFFFF AND PUSH32 0x8BE0079C531659141344CD1FD0A4F28419497F9722A3DAAFE3B4186F6B6457E0 PUSH1 0x40 MLOAD PUSH1 0x40 MLOAD DUP1 SWAP2 SUB SWAP1 LOG3 POP POP JUMP JUMPDEST PUSH2 0x1846 PUSH1 0x1 DUP6 DUP6 DUP6 DUP6 PUSH2 0x19CE JUMP JUMPDEST POP POP POP POP JUMP JUMPDEST PUSH2 0x185A PUSH1 0x4 DUP6 DUP6 DUP6 DUP6 PUSH2 0x19CE JUMP JUMPDEST POP POP POP POP JUMP JUMPDEST PUSH1 0x1 PUSH1 0x7 SLOAD EQ PUSH2 0x189C JUMPI PUSH1 0x40 MLOAD PUSH32 0x82B4290000000000000000000000000000000000000000000000000000000000 DUP2 MSTORE PUSH1 0x4 ADD PUSH1 0x40 MLOAD DUP1 SWAP2 SUB SWAP1 REVERT JUMPDEST PUSH1 0x2 PUSH1 0x7 DUP2 SWAP1 SSTORE POP ADDRESS PUSH20 0xFFFFFFFFFFFFFFFFFFFFFFFFFFFFFFFFFFFFFFFF AND CALLER PUSH20 0xFFFFFFFFFFFFFFFFFFFFFFFFFFFFFFFFFFFFFFFF AND EQ ISZERO DUP1 ISZERO PUSH2 0x192C JUMPI POP PUSH0 PUSH0 SWAP1 SLOAD SWAP1 PUSH2 0x100 EXP SWAP1 DIV PUSH20 0xFFFFFFFFFFFFFFFFFFFFFFFFFFFFFFFFFFFFFFFF AND PUSH20 0xFFFFFFFFFFFFFFFFFFFFFFFFFFFFFFFFFFFFFFFF AND CALLER PUSH20 0xFFFFFFFFFFFFFFFFFFFFFFFFFFFFFFFFFFFFFFFF AND EQ ISZERO JUMPDEST DUP1 ISZERO PUSH2 0x197F JUMPI POP PUSH1 0x1 PUSH0 CALLER PUSH20 0xFFFFFFFFFFFFFFFFFFFFFFFFFFFFFFFFFFFFFFFF AND PUSH20 0xFFFFFFFFFFFFFFFFFFFFFFFFFFFFFFFFFFFFFFFF AND DUP2 MSTORE PUSH1 0x20 ADD SWAP1 DUP2 MSTORE PUSH1 0x20 ADD PUSH0 KECCAK256 PUSH0 SWAP1 SLOAD SWAP1 PUSH2 0x100 EXP SWAP1 DIV PUSH1 0xFF AND ISZERO JUMPDEST ISZERO PUSH2 0x19B6 JUMPI PUSH1 0x40 MLOAD PUSH32 0x82B4290000000000000000000000000000000000000000000000000000000000 DUP2 MSTORE PUSH1 0x4 ADD PUSH1 0x40 MLOAD DUP1 SWAP2 SUB SWAP1 REVERT JUMPDEST PUSH2 0x19C1 DUP4 DUP4 DUP4 PUSH2 0x1C0D JUMP JUMPDEST PUSH1 0x1 PUSH1 0x7 DUP2 SWAP1 SSTORE POP POP POP POP JUMP JUMPDEST PUSH1 0x2 PUSH1 0xFF AND PUSH1 0x2 PUSH0 SWAP1 SLOAD SWAP1 PUSH2 0x100 EXP SWAP1 DIV PUSH1 0xFF AND PUSH1 0xFF AND EQ PUSH2 0x1A1C JUMPI PUSH1 0x40 MLOAD PUSH32 0xC21D53E800000000000000000000000000000000000000000000000000000000 DUP2 MSTORE PUSH1 0x4 ADD PUSH1 0x40 MLOAD DUP1 SWAP2 SUB SWAP1 REVERT JUMPDEST PUSH0 DUP3 DUP3 DUP2 ADD SWAP1 PUSH2 0x1A2C SWAP2 SWAP1 PUSH2 0x3A7A JUMP JUMPDEST SWAP1 POP DUP6 PUSH1 0xFF AND DUP2 PUSH0 ADD MLOAD PUSH1 0xFF AND EQ PUSH2 0x1A7E JUMPI DUP1 PUSH0 ADD MLOAD PUSH1 0x40 MLOAD PUSH32 0xF850442B00000000000000000000000000000000000000000000000000000000 DUP2 MSTORE PUSH1 0x4 ADD PUSH2 0x1A75 SWAP2 SWAP1 PUSH2 0x3AB4 JUMP JUMPDEST PUSH1 0x40 MLOAD DUP1 SWAP2 SUB SWAP1 REVERT JUMPDEST PUSH0 PUSH2 0x1A88 DUP3 PUSH2 0x1FC0 JUMP JUMPDEST SWAP1 POP PUSH0 PUSH20 0xFFFFFFFFFFFFFFFFFFFFFFFFFFFFFFFFFFFFFFFF AND DUP2 PUSH20 0xFFFFFFFFFFFFFFFFFFFFFFFFFFFFFFFFFFFFFFFF AND SUB PUSH2 0x1AEF JUMPI PUSH1 0x40 MLOAD PUSH32 0x936198E900000000000000000000000000000000000000000000000000000000 DUP2 MSTORE PUSH1 0x4 ADD PUSH1 0x40 MLOAD DUP1 SWAP2 SUB SWAP1 REVERT JUMPDEST DUP1 PUSH20 0xFFFFFFFFFFFFFFFFFFFFFFFFFFFFFFFFFFFFFFFF AND CALLER PUSH20 0xFFFFFFFFFFFFFFFFFFFFFFFFFFFFFFFFFFFFFFFF AND EQ PUSH2 0x1B61 JUMPI DUP1 CALLER PUSH1 0x40 MLOAD PUSH32 0xF206255900000000000000000000000000000000000000000000000000000000 DUP2 MSTORE PUSH1 0x4 ADD PUSH2 0x1B58 SWAP3 SWAP2 SWAP1 PUSH2 0x3ACD JUMP JUMPDEST PUSH1 0x40 MLOAD DUP1 SWAP2 SUB SWAP1 REVERT JUMPDEST PUSH0 DUP7 SGT ISZERO PUSH2 0x1B79 JUMPI PUSH2 0x1B78 DUP3 PUSH1 0x20 ADD MLOAD CALLER DUP9 PUSH2 0x1C6D JUMP JUMPDEST JUMPDEST PUSH0 DUP6 SGT ISZERO PUSH2 0x1B91 JUMPI PUSH2 0x1B90 DUP3 PUSH1 0x40 ADD MLOAD CALLER DUP8 PUSH2 0x1C6D JUMP JUMPDEST JUMPDEST POP POP POP POP POP POP POP JUMP JUMPDEST PUSH0 PUSH1 0x2 PUSH0 PUSH2 0x100 EXP DUP2 SLOAD DUP2 PUSH1 0xFF MUL NOT AND SWAP1 DUP4 PUSH1 0xFF AND MUL OR SWAP1 SSTORE POP PUSH0 PUSH0 SHL PUSH1 0x3 DUP2 SWAP1 SSTORE POP PUSH0 PUSH1 0x4 PUSH0 PUSH2 0x100 EXP DUP2 SLOAD DUP2 PUSH20 0xFFFFFFFFFFFFFFFFFFFFFFFFFFFFFFFFFFFFFFFF MUL NOT AND SWAP1 DUP4 PUSH20 0xFFFFFFFFFFFFFFFFFFFFFFFFFFFFFFFFFFFFFFFF AND MUL OR SWAP1 SSTORE POP PUSH0 PUSH1 0x5 DUP2 SWAP1 SSTORE POP PUSH0 PUSH1 0x6 DUP2 SWAP1 SSTORE POP JUMP JUMPDEST PUSH0 PUSH2 0x1C19 DUP5 ADDRESS DUP6 PUSH2 0x2300 JUMP JUMPDEST SWAP1 POP DUP2 DUP2 LT PUSH2 0x1C28 JUMPI POP PUSH2 0x1C68 JUMP JUMPDEST PUSH0 DUP2 EQ PUSH2 0x1C3B JUMPI PUSH2 0x1C3A DUP5 DUP5 PUSH0 PUSH2 0x2452 JUMP JUMPDEST JUMPDEST PUSH2 0x1C66 DUP5 DUP5 PUSH32 0xFFFFFFFFFFFFFFFFFFFFFFFFFFFFFFFFFFFFFFFFFFFFFFFFFFFFFFFFFFFFFFFF PUSH2 0x2452 JUMP JUMPDEST POP JUMPDEST POP POP POP JUMP JUMPDEST PUSH0 PUSH0 DUP5 PUSH20 0xFFFFFFFFFFFFFFFFFFFFFFFFFFFFFFFFFFFFFFFF AND PUSH4 0xA9059CBB PUSH1 0xE0 SHL DUP6 DUP6 PUSH1 0x40 MLOAD PUSH1 0x24 ADD PUSH2 0x1CA1 SWAP3 SWAP2 SWAP1 PUSH2 0x3AF4 JUMP JUMPDEST PUSH1 0x40 MLOAD PUSH1 0x20 DUP2 DUP4 SUB SUB DUP2 MSTORE SWAP1 PUSH1 0x40 MSTORE SWAP1 PUSH28 0xFFFFFFFFFFFFFFFFFFFFFFFFFFFFFFFFFFFFFFFFFFFFFFFFFFFFFFFF NOT AND PUSH1 0x20 DUP3 ADD DUP1 MLOAD PUSH28 0xFFFFFFFFFFFFFFFFFFFFFFFFFFFFFFFFFFFFFFFFFFFFFFFFFFFFFFFF DUP4 DUP2 DUP4 AND OR DUP4 MSTORE POP POP POP POP PUSH1 0x40 MLOAD PUSH2 0x1D0B SWAP2 SWAP1 PUSH2 0x3B4B JUMP JUMPDEST PUSH0 PUSH1 0x40 MLOAD DUP1 DUP4 SUB DUP2 PUSH0 DUP7 GAS CALL SWAP2 POP POP RETURNDATASIZE DUP1 PUSH0 DUP2 EQ PUSH2 0x1D44 JUMPI PUSH1 0x40 MLOAD SWAP2 POP PUSH1 0x1F NOT PUSH1 0x3F RETURNDATASIZE ADD AND DUP3 ADD PUSH1 0x40 MSTORE RETURNDATASIZE DUP3 MSTORE RETURNDATASIZE PUSH0 PUSH1 0x20 DUP5 ADD RETURNDATACOPY PUSH2 0x1D49 JUMP JUMPDEST PUSH1 0x60 SWAP2 POP JUMPDEST POP SWAP2 POP SWAP2 POP DUP2 ISZERO DUP1 PUSH2 0x1D79 JUMPI POP PUSH0 DUP2 MLOAD EQ ISZERO DUP1 ISZERO PUSH2 0x1D78 JUMPI POP DUP1 DUP1 PUSH1 0x20 ADD SWAP1 MLOAD DUP2 ADD SWAP1 PUSH2 0x1D76 SWAP2 SWAP1 PUSH2 0x3B75 JUMP JUMPDEST ISZERO JUMPDEST JUMPDEST ISZERO PUSH2 0x1DBF JUMPI DUP5 DUP5 DUP5 PUSH1 0x40 MLOAD PUSH32 0xBF182BE800000000000000000000000000000000000000000000000000000000 DUP2 MSTORE PUSH1 0x4 ADD PUSH2 0x1DB6 SWAP4 SWAP3 SWAP2 SWAP1 PUSH2 0x3BA0 JUMP JUMPDEST PUSH1 0x40 MLOAD DUP1 SWAP2 SUB SWAP1 REVERT JUMPDEST POP POP POP POP POP JUMP JUMPDEST PUSH0 DUP2 MLOAD SWAP1 POP PUSH0 JUMPDEST DUP2 DUP2 LT ISZERO PUSH2 0x1EC1 JUMPI PUSH0 DUP4 DUP3 DUP2 MLOAD DUP2 LT PUSH2 0x1DE9 JUMPI PUSH2 0x1DE8 PUSH2 0x318A JUMP JUMPDEST JUMPDEST PUSH1 0x20 MUL PUSH1 0x20 ADD ADD MLOAD SWAP1 POP PUSH0 PUSH0 DUP3 PUSH0 ADD MLOAD PUSH20 0xFFFFFFFFFFFFFFFFFFFFFFFFFFFFFFFFFFFFFFFF AND DUP4 PUSH1 0x20 ADD MLOAD DUP5 PUSH1 0x40 ADD MLOAD PUSH1 0x40 MLOAD PUSH2 0x1E26 SWAP2 SWAP1 PUSH2 0x3B4B JUMP JUMPDEST PUSH0 PUSH1 0x40 MLOAD DUP1 DUP4 SUB DUP2 DUP6 DUP8 GAS CALL SWAP3 POP POP POP RETURNDATASIZE DUP1 PUSH0 DUP2 EQ PUSH2 0x1E60 JUMPI PUSH1 0x40 MLOAD SWAP2 POP PUSH1 0x1F NOT PUSH1 0x3F RETURNDATASIZE ADD AND DUP3 ADD PUSH1 0x40 MSTORE RETURNDATASIZE DUP3 MSTORE RETURNDATASIZE PUSH0 PUSH1 0x20 DUP5 ADD RETURNDATACOPY PUSH2 0x1E65 JUMP JUMPDEST PUSH1 0x60 SWAP2 POP JUMPDEST POP SWAP2 POP SWAP2 POP DUP2 PUSH2 0x1EB3 JUMPI DUP4 DUP4 PUSH0 ADD MLOAD DUP3 PUSH1 0x40 MLOAD PUSH32 0xF43457300000000000000000000000000000000000000000000000000000000 DUP2 MSTORE PUSH1 0x4 ADD PUSH2 0x1EAA SWAP4 SWAP3 SWAP2 SWAP1 PUSH2 0x3BD5 JUMP JUMPDEST PUSH1 0x40 MLOAD DUP1 SWAP2 SUB SWAP1 REVERT JUMPDEST DUP4 PUSH1 0x1 ADD SWAP4 POP POP POP POP PUSH2 0x1DCD JUMP JUMPDEST POP POP POP JUMP JUMPDEST PUSH0 PUSH1 0x4 PUSH0 SWAP1 SLOAD SWAP1 PUSH2 0x100 EXP SWAP1 DIV PUSH20 0xFFFFFFFFFFFFFFFFFFFFFFFFFFFFFFFFFFFFFFFF AND PUSH20 0xFFFFFFFFFFFFFFFFFFFFFFFFFFFFFFFFFFFFFFFF AND PUSH4 0x70A08231 ADDRESS PUSH1 0x40 MLOAD DUP3 PUSH4 0xFFFFFFFF AND PUSH1 0xE0 SHL DUP2 MSTORE PUSH1 0x4 ADD PUSH2 0x1F21 SWAP2 SWAP1 PUSH2 0x272D JUMP JUMPDEST PUSH1 0x20 PUSH1 0x40 MLOAD DUP1 DUP4 SUB DUP2 DUP7 GAS STATICCALL ISZERO DUP1 ISZERO PUSH2 0x1F3C JUMPI RETURNDATASIZE PUSH0 PUSH0 RETURNDATACOPY RETURNDATASIZE PUSH0 REVERT JUMPDEST POP POP POP POP PUSH1 0x40 MLOAD RETURNDATASIZE PUSH1 0x1F NOT PUSH1 0x1F DUP3 ADD AND DUP3 ADD DUP1 PUSH1 0x40 MSTORE POP DUP2 ADD SWAP1 PUSH2 0x1F60 SWAP2 SWAP1 PUSH2 0x315F JUMP JUMPDEST SWAP1 POP PUSH0 PUSH1 0x5 SLOAD PUSH1 0x6 SLOAD PUSH2 0x1F73 SWAP2 SWAP1 PUSH2 0x3964 JUMP JUMPDEST SWAP1 POP DUP1 DUP3 LT ISZERO PUSH2 0x1FBC JUMPI DUP2 DUP2 PUSH1 0x40 MLOAD PUSH32 0x4E88422A00000000000000000000000000000000000000000000000000000000 DUP2 MSTORE PUSH1 0x4 ADD PUSH2 0x1FB3 SWAP3 SWAP2 SWAP1 PUSH2 0x3C11 JUMP JUMPDEST PUSH1 0x40 MLOAD DUP1 SWAP2 SUB SWAP1 REVERT JUMPDEST POP POP JUMP JUMPDEST PUSH0 PUSH1 0x1 PUSH1 0xFF AND DUP3 PUSH0 ADD MLOAD PUSH1 0xFF AND SUB PUSH2 0x2081 JUMPI PUSH32 0x0 PUSH20 0xFFFFFFFFFFFFFFFFFFFFFFFFFFFFFFFFFFFFFFFF AND PUSH4 0x1698EE82 DUP4 PUSH1 0x20 ADD MLOAD DUP5 PUSH1 0x40 ADD MLOAD DUP6 PUSH1 0x60 ADD MLOAD PUSH1 0x40 MLOAD DUP5 PUSH4 0xFFFFFFFF AND PUSH1 0xE0 SHL DUP2 MSTORE PUSH1 0x4 ADD PUSH2 0x203B SWAP4 SWAP3 SWAP2 SWAP1 PUSH2 0x3C47 JUMP JUMPDEST PUSH1 0x20 PUSH1 0x40 MLOAD DUP1 DUP4 SUB DUP2 DUP7 GAS STATICCALL ISZERO DUP1 ISZERO PUSH2 0x2056 JUMPI RETURNDATASIZE PUSH0 PUSH0 RETURNDATACOPY RETURNDATASIZE PUSH0 REVERT JUMPDEST POP POP POP POP PUSH1 0x40 MLOAD RETURNDATASIZE PUSH1 0x1F NOT PUSH1 0x1F DUP3 ADD AND DUP3 ADD DUP1 PUSH1 0x40 MSTORE POP DUP2 ADD SWAP1 PUSH2 0x207A SWAP2 SWAP1 PUSH2 0x3C7C JUMP JUMPDEST SWAP1 POP PUSH2 0x22FB JUMP JUMPDEST PUSH1 0x2 PUSH1 0xFF AND DUP3 PUSH0 ADD MLOAD PUSH1 0xFF AND SUB PUSH2 0x2141 JUMPI PUSH32 0x0 PUSH20 0xFFFFFFFFFFFFFFFFFFFFFFFFFFFFFFFFFFFFFFFF AND PUSH4 0x1698EE82 DUP4 PUSH1 0x20 ADD MLOAD DUP5 PUSH1 0x40 ADD MLOAD DUP6 PUSH1 0x60 ADD MLOAD PUSH1 0x40 MLOAD DUP5 PUSH4 0xFFFFFFFF AND PUSH1 0xE0 SHL DUP2 MSTORE PUSH1 0x4 ADD PUSH2 0x20FB SWAP4 SWAP3 SWAP2 SWAP1 PUSH2 0x3C47 JUMP JUMPDEST PUSH1 0x20 PUSH1 0x40 MLOAD DUP1 DUP4 SUB DUP2 DUP7 GAS STATICCALL ISZERO DUP1 ISZERO PUSH2 0x2116 JUMPI RETURNDATASIZE PUSH0 PUSH0 RETURNDATACOPY RETURNDATASIZE PUSH0 REVERT JUMPDEST POP POP POP POP PUSH1 0x40 MLOAD RETURNDATASIZE PUSH1 0x1F NOT PUSH1 0x1F DUP3 ADD AND DUP3 ADD DUP1 PUSH1 0x40 MSTORE POP DUP2 ADD SWAP1 PUSH2 0x213A SWAP2 SWAP1 PUSH2 0x3C7C JUMP JUMPDEST SWAP1 POP PUSH2 0x22FB JUMP JUMPDEST PUSH1 0x3 PUSH1 0xFF AND DUP3 PUSH0 ADD MLOAD PUSH1 0xFF AND SUB PUSH2 0x21FB JUMPI PUSH32 0x0 PUSH20 0xFFFFFFFFFFFFFFFFFFFFFFFFFFFFFFFFFFFFFFFF AND PUSH4 0xD9A641E1 DUP4 PUSH1 0x20 ADD MLOAD DUP5 PUSH1 0x40 ADD MLOAD PUSH1 0x40 MLOAD DUP4 PUSH4 0xFFFFFFFF AND PUSH1 0xE0 SHL DUP2 MSTORE PUSH1 0x4 ADD PUSH2 0x21B5 SWAP3 SWAP2 SWAP1 PUSH2 0x3ACD JUMP JUMPDEST PUSH1 0x20 PUSH1 0x40 MLOAD DUP1 DUP4 SUB DUP2 DUP7 GAS STATICCALL ISZERO DUP1 ISZERO PUSH2 0x21D0 JUMPI RETURNDATASIZE PUSH0 PUSH0 RETURNDATACOPY RETURNDATASIZE PUSH0 REVERT JUMPDEST POP POP POP POP PUSH1 0x40 MLOAD RETURNDATASIZE PUSH1 0x1F NOT PUSH1 0x1F DUP3 ADD AND DUP3 ADD DUP1 PUSH1 0x40 MSTORE POP DUP2 ADD SWAP1 PUSH2 0x21F4 SWAP2 SWAP1 PUSH2 0x3C7C JUMP JUMPDEST SWAP1 POP PUSH2 0x22FB JUMP JUMPDEST PUSH1 0x4 PUSH1 0xFF AND DUP3 PUSH0 ADD MLOAD PUSH1 0xFF AND SUB PUSH2 0x22BB JUMPI PUSH32 0x0 PUSH20 0xFFFFFFFFFFFFFFFFFFFFFFFFFFFFFFFFFFFFFFFF AND PUSH4 0x1698EE82 DUP4 PUSH1 0x20 ADD MLOAD DUP5 PUSH1 0x40 ADD MLOAD DUP6 PUSH1 0x60 ADD MLOAD PUSH1 0x40 MLOAD DUP5 PUSH4 0xFFFFFFFF AND PUSH1 0xE0 SHL DUP2 MSTORE PUSH1 0x4 ADD PUSH2 0x2275 SWAP4 SWAP3 SWAP2 SWAP1 PUSH2 0x3C47 JUMP JUMPDEST PUSH1 0x20 PUSH1 0x40 MLOAD DUP1 DUP4 SUB DUP2 DUP7 GAS STATICCALL ISZERO DUP1 ISZERO PUSH2 0x2290 JUMPI RETURNDATASIZE PUSH0 PUSH0 RETURNDATACOPY RETURNDATASIZE PUSH0 REVERT JUMPDEST POP POP POP POP PUSH1 0x40 MLOAD RETURNDATASIZE PUSH1 0x1F NOT PUSH1 0x1F DUP3 ADD AND DUP3 ADD DUP1 PUSH1 0x40 MSTORE POP DUP2 ADD SWAP1 PUSH2 0x22B4 SWAP2 SWAP1 PUSH2 0x3C7C JUMP JUMPDEST SWAP1 POP PUSH2 0x22FB JUMP JUMPDEST DUP2 PUSH0 ADD MLOAD PUSH1 0x40 MLOAD PUSH32 0xF850442B00000000000000000000000000000000000000000000000000000000 DUP2 MSTORE PUSH1 0x4 ADD PUSH2 0x22F2 SWAP2 SWAP1 PUSH2 0x3AB4 JUMP JUMPDEST PUSH1 0x40 MLOAD DUP1 SWAP2 SUB SWAP1 REVERT JUMPDEST SWAP2 SWAP1 POP JUMP JUMPDEST PUSH0 PUSH0 PUSH0 DUP6 PUSH20 0xFFFFFFFFFFFFFFFFFFFFFFFFFFFFFFFFFFFFFFFF AND PUSH4 0xDD62ED3E PUSH1 0xE0 SHL DUP7 DUP7 PUSH1 0x40 MLOAD PUSH1 0x24 ADD PUSH2 0x2335 SWAP3 SWAP2 SWAP1 PUSH2 0x3ACD JUMP JUMPDEST PUSH1 0x40 MLOAD PUSH1 0x20 DUP2 DUP4 SUB SUB DUP2 MSTORE SWAP1 PUSH1 0x40 MSTORE SWAP1 PUSH28 0xFFFFFFFFFFFFFFFFFFFFFFFFFFFFFFFFFFFFFFFFFFFFFFFFFFFFFFFF NOT AND PUSH1 0x20 DUP3 ADD DUP1 MLOAD PUSH28 0xFFFFFFFFFFFFFFFFFFFFFFFFFFFFFFFFFFFFFFFFFFFFFFFFFFFFFFFF DUP4 DUP2 DUP4 AND OR DUP4 MSTORE POP POP POP POP PUSH1 0x40 MLOAD PUSH2 0x239F SWAP2 SWAP1 PUSH2 0x3B4B JUMP JUMPDEST PUSH0 PUSH1 0x40 MLOAD DUP1 DUP4 SUB DUP2 DUP6 GAS STATICCALL SWAP2 POP POP RETURNDATASIZE DUP1 PUSH0 DUP2 EQ PUSH2 0x23D7 JUMPI PUSH1 0x40 MLOAD SWAP2 POP PUSH1 0x1F NOT PUSH1 0x3F RETURNDATASIZE ADD AND DUP3 ADD PUSH1 0x40 MSTORE RETURNDATASIZE DUP3 MSTORE RETURNDATASIZE PUSH0 PUSH1 0x20 DUP5 ADD RETURNDATACOPY PUSH2 0x23DC JUMP JUMPDEST PUSH1 0x60 SWAP2 POP JUMPDEST POP SWAP2 POP SWAP2 POP DUP2 ISZERO DUP1 PUSH2 0x23EF JUMPI POP PUSH1 0x20 DUP2 MLOAD LT JUMPDEST ISZERO PUSH2 0x2433 JUMPI DUP6 DUP5 PUSH1 0x40 MLOAD PUSH32 0x1B6C83AB00000000000000000000000000000000000000000000000000000000 DUP2 MSTORE PUSH1 0x4 ADD PUSH2 0x242A SWAP3 SWAP2 SWAP1 PUSH2 0x3ACD JUMP JUMPDEST PUSH1 0x40 MLOAD DUP1 SWAP2 SUB SWAP1 REVERT JUMPDEST DUP1 DUP1 PUSH1 0x20 ADD SWAP1 MLOAD DUP2 ADD SWAP1 PUSH2 0x2447 SWAP2 SWAP1 PUSH2 0x315F JUMP JUMPDEST SWAP3 POP POP POP SWAP4 SWAP3 POP POP POP JUMP JUMPDEST PUSH0 PUSH0 DUP5 PUSH20 0xFFFFFFFFFFFFFFFFFFFFFFFFFFFFFFFFFFFFFFFF AND PUSH4 0x95EA7B3 PUSH1 0xE0 SHL DUP6 DUP6 PUSH1 0x40 MLOAD PUSH1 0x24 ADD PUSH2 0x2486 SWAP3 SWAP2 SWAP1 PUSH2 0x3AF4 JUMP JUMPDEST PUSH1 0x40 MLOAD PUSH1 0x20 DUP2 DUP4 SUB SUB DUP2 MSTORE SWAP1 PUSH1 0x40 MSTORE SWAP1 PUSH28 0xFFFFFFFFFFFFFFFFFFFFFFFFFFFFFFFFFFFFFFFFFFFFFFFFFFFFFFFF NOT AND PUSH1 0x20 DUP3 ADD DUP1 MLOAD PUSH28 0xFFFFFFFFFFFFFFFFFFFFFFFFFFFFFFFFFFFFFFFFFFFFFFFFFFFFFFFF DUP4 DUP2 DUP4 AND OR DUP4 MSTORE POP POP POP POP PUSH1 0x40 MLOAD PUSH2 0x24F0 SWAP2 SWAP1 PUSH2 0x3B4B JUMP JUMPDEST PUSH0 PUSH1 0x40 MLOAD DUP1 DUP4 SUB DUP2 PUSH0 DUP7 GAS CALL SWAP2 POP POP RETURNDATASIZE DUP1 PUSH0 DUP2 EQ PUSH2 0x2529 JUMPI PUSH1 0x40 MLOAD SWAP2 POP PUSH1 0x1F NOT PUSH1 0x3F RETURNDATASIZE ADD AND DUP3 ADD PUSH1 0x40 MSTORE RETURNDATASIZE DUP3 MSTORE RETURNDATASIZE PUSH0 PUSH1 0x20 DUP5 ADD RETURNDATACOPY PUSH2 0x252E JUMP JUMPDEST PUSH1 0x60 SWAP2 POP JUMPDEST POP SWAP2 POP SWAP2 POP DUP2 ISZERO DUP1 PUSH2 0x255E JUMPI POP PUSH0 DUP2 MLOAD EQ ISZERO DUP1 ISZERO PUSH2 0x255D JUMPI POP DUP1 DUP1 PUSH1 0x20 ADD SWAP1 MLOAD DUP2 ADD SWAP1 PUSH2 0x255B SWAP2 SWAP1 PUSH2 0x3B75 JUMP JUMPDEST ISZERO JUMPDEST JUMPDEST ISZERO PUSH2 0x25A2 JUMPI DUP5 DUP5 PUSH1 0x40 MLOAD PUSH32 0x1B6C83AB00000000000000000000000000000000000000000000000000000000 DUP2 MSTORE PUSH1 0x4 ADD PUSH2 0x2599 SWAP3 SWAP2 SWAP1 PUSH2 0x3ACD JUMP JUMPDEST PUSH1 0x40 MLOAD DUP1 SWAP2 SUB SWAP1 REVERT JUMPDEST POP POP POP POP POP JUMP JUMPDEST PUSH0 PUSH1 0x40 MLOAD SWAP1 POP SWAP1 JUMP JUMPDEST PUSH0 PUSH0 REVERT JUMPDEST PUSH0 PUSH0 REVERT JUMPDEST PUSH0 PUSH20 0xFFFFFFFFFFFFFFFFFFFFFFFFFFFFFFFFFFFFFFFF DUP3 AND SWAP1 POP SWAP2 SWAP1 POP JUMP JUMPDEST PUSH0 PUSH2 0x25E3 DUP3 PUSH2 0x25BA JUMP JUMPDEST SWAP1 POP SWAP2 SWAP1 POP JUMP JUMPDEST PUSH2 0x25F3 DUP2 PUSH2 0x25D9 JUMP JUMPDEST DUP2 EQ PUSH2 0x25FD JUMPI PUSH0 PUSH0 REVERT JUMPDEST POP JUMP JUMPDEST PUSH0 DUP2 CALLDATALOAD SWAP1 POP PUSH2 0x260E DUP2 PUSH2 0x25EA JUMP JUMPDEST SWAP3 SWAP2 POP POP JUMP JUMPDEST PUSH0 DUP2 SWAP1 POP SWAP2 SWAP1 POP JUMP JUMPDEST PUSH2 0x2626 DUP2 PUSH2 0x2614 JUMP JUMPDEST DUP2 EQ PUSH2 0x2630 JUMPI PUSH0 PUSH0 REVERT JUMPDEST POP JUMP JUMPDEST PUSH0 DUP2 CALLDATALOAD SWAP1 POP PUSH2 0x2641 DUP2 PUSH2 0x261D JUMP JUMPDEST SWAP3 SWAP2 POP POP JUMP JUMPDEST PUSH0 PUSH0 PUSH1 0x40 DUP4 DUP6 SUB SLT ISZERO PUSH2 0x265D JUMPI PUSH2 0x265C PUSH2 0x25B2 JUMP JUMPDEST JUMPDEST PUSH0 PUSH2 0x266A DUP6 DUP3 DUP7 ADD PUSH2 0x2600 JUMP JUMPDEST SWAP3 POP POP PUSH1 0x20 PUSH2 0x267B DUP6 DUP3 DUP7 ADD PUSH2 0x2633 JUMP JUMPDEST SWAP2 POP POP SWAP3 POP SWAP3 SWAP1 POP JUMP JUMPDEST PUSH0 PUSH2 0x268F DUP3 PUSH2 0x25BA JUMP JUMPDEST SWAP1 POP SWAP2 SWAP1 POP JUMP JUMPDEST PUSH2 0x269F DUP2 PUSH2 0x2685 JUMP JUMPDEST DUP2 EQ PUSH2 0x26A9 JUMPI PUSH0 PUSH0 REVERT JUMPDEST POP JUMP JUMPDEST PUSH0 DUP2 CALLDATALOAD SWAP1 POP PUSH2 0x26BA DUP2 PUSH2 0x2696 JUMP JUMPDEST SWAP3 SWAP2 POP POP JUMP JUMPDEST PUSH0 PUSH1 0x20 DUP3 DUP5 SUB SLT ISZERO PUSH2 0x26D5 JUMPI PUSH2 0x26D4 PUSH2 0x25B2 JUMP JUMPDEST JUMPDEST PUSH0 PUSH2 0x26E2 DUP5 DUP3 DUP6 ADD PUSH2 0x26AC JUMP JUMPDEST SWAP2 POP POP SWAP3 SWAP2 POP POP JUMP JUMPDEST PUSH0 DUP2 ISZERO ISZERO SWAP1 POP SWAP2 SWAP1 POP JUMP JUMPDEST PUSH2 0x26FF DUP2 PUSH2 0x26EB JUMP JUMPDEST DUP3 MSTORE POP POP JUMP JUMPDEST PUSH0 PUSH1 0x20 DUP3 ADD SWAP1 POP PUSH2 0x2718 PUSH0 DUP4 ADD DUP5 PUSH2 0x26F6 JUMP JUMPDEST SWAP3 SWAP2 POP POP JUMP JUMPDEST PUSH2 0x2727 DUP2 PUSH2 0x2685 JUMP JUMPDEST DUP3 MSTORE POP POP JUMP JUMPDEST PUSH0 PUSH1 0x20 DUP3 ADD SWAP1 POP PUSH2 0x2740 PUSH0 DUP4 ADD DUP5 PUSH2 0x271E JUMP JUMPDEST SWAP3 SWAP2 POP POP JUMP JUMPDEST PUSH0 DUP2 SWAP1 POP SWAP2 SWAP1 POP JUMP JUMPDEST PUSH2 0x2758 DUP2 PUSH2 0x2746 JUMP JUMPDEST DUP2 EQ PUSH2 0x2762 JUMPI PUSH0 PUSH0 REVERT JUMPDEST POP JUMP JUMPDEST PUSH0 DUP2 CALLDATALOAD SWAP1 POP PUSH2 0x2773 DUP2 PUSH2 0x274F JUMP JUMPDEST SWAP3 SWAP2 POP POP JUMP JUMPDEST PUSH0 PUSH0 REVERT JUMPDEST PUSH0 PUSH0 REVERT JUMPDEST PUSH0 PUSH0 REVERT JUMPDEST PUSH0 PUSH0 DUP4 PUSH1 0x1F DUP5 ADD SLT PUSH2 0x279A JUMPI PUSH2 0x2799 PUSH2 0x2779 JUMP JUMPDEST JUMPDEST DUP3 CALLDATALOAD SWAP1 POP PUSH8 0xFFFFFFFFFFFFFFFF DUP2 GT ISZERO PUSH2 0x27B7 JUMPI PUSH2 0x27B6 PUSH2 0x277D JUMP JUMPDEST JUMPDEST PUSH1 0x20 DUP4 ADD SWAP2 POP DUP4 PUSH1 0x1 DUP3 MUL DUP4 ADD GT ISZERO PUSH2 0x27D3 JUMPI PUSH2 0x27D2 PUSH2 0x2781 JUMP JUMPDEST JUMPDEST SWAP3 POP SWAP3 SWAP1 POP JUMP JUMPDEST PUSH0 PUSH0 PUSH0 PUSH0 PUSH1 0x60 DUP6 DUP8 SUB SLT ISZERO PUSH2 0x27F2 JUMPI PUSH2 0x27F1 PUSH2 0x25B2 JUMP JUMPDEST JUMPDEST PUSH0 PUSH2 0x27FF DUP8 DUP3 DUP9 ADD PUSH2 0x2765 JUMP JUMPDEST SWAP5 POP POP PUSH1 0x20 PUSH2 0x2810 DUP8 DUP3 DUP9 ADD PUSH2 0x2765 JUMP JUMPDEST SWAP4 POP POP PUSH1 0x40 DUP6 ADD CALLDATALOAD PUSH8 0xFFFFFFFFFFFFFFFF DUP2 GT ISZERO PUSH2 0x2831 JUMPI PUSH2 0x2830 PUSH2 0x25B6 JUMP JUMPDEST JUMPDEST PUSH2 0x283D DUP8 DUP3 DUP9 ADD PUSH2 0x2785 JUMP JUMPDEST SWAP3 POP SWAP3 POP POP SWAP3 SWAP6 SWAP2 SWAP5 POP SWAP3 POP JUMP JUMPDEST PUSH0 PUSH0 REVERT JUMPDEST PUSH0 PUSH1 0xA0 DUP3 DUP5 SUB SLT ISZERO PUSH2 0x2864 JUMPI PUSH2 0x2863 PUSH2 0x284B JUMP JUMPDEST JUMPDEST DUP2 SWAP1 POP SWAP3 SWAP2 POP POP JUMP JUMPDEST PUSH0 PUSH0 PUSH0 PUSH1 0x60 DUP5 DUP7 SUB SLT ISZERO PUSH2 0x2884 JUMPI PUSH2 0x2883 PUSH2 0x25B2 JUMP JUMPDEST JUMPDEST PUSH0 PUSH2 0x2891 DUP7 DUP3 DUP8 ADD PUSH2 0x26AC JUMP JUMPDEST SWAP4 POP POP PUSH1 0x20 PUSH2 0x28A2 DUP7 DUP3 DUP8 ADD PUSH2 0x2633 JUMP JUMPDEST SWAP3 POP POP PUSH1 0x40 DUP5 ADD CALLDATALOAD PUSH8 0xFFFFFFFFFFFFFFFF DUP2 GT ISZERO PUSH2 0x28C3 JUMPI PUSH2 0x28C2 PUSH2 0x25B6 JUMP JUMPDEST JUMPDEST PUSH2 0x28CF DUP7 DUP3 DUP8 ADD PUSH2 0x284F JUMP JUMPDEST SWAP2 POP POP SWAP3 POP SWAP3 POP SWAP3 JUMP JUMPDEST PUSH2 0x28E2 DUP2 PUSH2 0x26EB JUMP JUMPDEST DUP2 EQ PUSH2 0x28EC JUMPI PUSH0 PUSH0 REVERT JUMPDEST POP JUMP JUMPDEST PUSH0 DUP2 CALLDATALOAD SWAP1 POP PUSH2 0x28FD DUP2 PUSH2 0x28D9 JUMP JUMPDEST SWAP3 SWAP2 POP POP JUMP JUMPDEST PUSH0 PUSH0 PUSH1 0x40 DUP4 DUP6 SUB SLT ISZERO PUSH2 0x2919 JUMPI PUSH2 0x2918 PUSH2 0x25B2 JUMP JUMPDEST JUMPDEST PUSH0 PUSH2 0x2926 DUP6 DUP3 DUP7 ADD PUSH2 0x26AC JUMP JUMPDEST SWAP3 POP POP PUSH1 0x20 PUSH2 0x2937 DUP6 DUP3 DUP7 ADD PUSH2 0x28EF JUMP JUMPDEST SWAP2 POP POP SWAP3 POP SWAP3 SWAP1 POP JUMP JUMPDEST PUSH0 PUSH0 PUSH1 0x40 DUP4 DUP6 SUB SLT ISZERO PUSH2 0x2957 JUMPI PUSH2 0x2956 PUSH2 0x25B2 JUMP JUMPDEST JUMPDEST PUSH0 PUSH2 0x2964 DUP6 DUP3 DUP7 ADD PUSH2 0x26AC JUMP JUMPDEST SWAP3 POP POP PUSH1 0x20 PUSH2 0x2975 DUP6 DUP3 DUP7 ADD PUSH2 0x26AC JUMP JUMPDEST SWAP2 POP POP SWAP3 POP SWAP3 SWAP1 POP JUMP JUMPDEST PUSH0 PUSH0 PUSH0 PUSH1 0x60 DUP5 DUP7 SUB SLT ISZERO PUSH2 0x2996 JUMPI PUSH2 0x2995 PUSH2 0x25B2 JUMP JUMPDEST JUMPDEST PUSH0 PUSH2 0x29A3 DUP7 DUP3 DUP8 ADD PUSH2 0x26AC JUMP JUMPDEST SWAP4 POP POP PUSH1 0x20 PUSH2 0x29B4 DUP7 DUP3 DUP8 ADD PUSH2 0x26AC JUMP JUMPDEST SWAP3 POP POP PUSH1 0x40 PUSH2 0x29C5 DUP7 DUP3 DUP8 ADD PUSH2 0x2633 JUMP JUMPDEST SWAP2 POP POP SWAP3 POP SWAP3 POP SWAP3 JUMP JUMPDEST PUSH0 PUSH1 0x1F NOT PUSH1 0x1F DUP4 ADD AND SWAP1 POP SWAP2 SWAP1 POP JUMP JUMPDEST PUSH32 0x4E487B7100000000000000000000000000000000000000000000000000000000 PUSH0 MSTORE PUSH1 0x41 PUSH1 0x4 MSTORE PUSH1 0x24 PUSH0 REVERT JUMPDEST PUSH2 0x2A15 DUP3 PUSH2 0x29CF JUMP JUMPDEST DUP2 ADD DUP2 DUP2 LT PUSH8 0xFFFFFFFFFFFFFFFF DUP3 GT OR ISZERO PUSH2 0x2A34 JUMPI PUSH2 0x2A33 PUSH2 0x29DF JUMP JUMPDEST JUMPDEST DUP1 PUSH1 0x40 MSTORE POP POP POP JUMP JUMPDEST PUSH0 PUSH2 0x2A46 PUSH2 0x25A9 JUMP JUMPDEST SWAP1 POP PUSH2 0x2A52 DUP3 DUP3 PUSH2 0x2A0C JUMP JUMPDEST SWAP2 SWAP1 POP JUMP JUMPDEST PUSH0 PUSH8 0xFFFFFFFFFFFFFFFF DUP3 GT ISZERO PUSH2 0x2A71 JUMPI PUSH2 0x2A70 PUSH2 0x29DF JUMP JUMPDEST JUMPDEST PUSH1 0x20 DUP3 MUL SWAP1 POP PUSH1 0x20 DUP2 ADD SWAP1 POP SWAP2 SWAP1 POP JUMP JUMPDEST PUSH0 PUSH2 0x2A8C DUP3 PUSH2 0x2685 JUMP JUMPDEST SWAP1 POP SWAP2 SWAP1 POP JUMP JUMPDEST PUSH2 0x2A9C DUP2 PUSH2 0x2A82 JUMP JUMPDEST DUP2 EQ PUSH2 0x2AA6 JUMPI PUSH0 PUSH0 REVERT JUMPDEST POP JUMP JUMPDEST PUSH0 DUP2 CALLDATALOAD SWAP1 POP PUSH2 0x2AB7 DUP2 PUSH2 0x2A93 JUMP JUMPDEST SWAP3 SWAP2 POP POP JUMP JUMPDEST PUSH0 PUSH2 0x2ACF PUSH2 0x2ACA DUP5 PUSH2 0x2A57 JUMP JUMPDEST PUSH2 0x2A3D JUMP JUMPDEST SWAP1 POP DUP1 DUP4 DUP3 MSTORE PUSH1 0x20 DUP3 ADD SWAP1 POP PUSH1 0x20 DUP5 MUL DUP4 ADD DUP6 DUP2 GT ISZERO PUSH2 0x2AF2 JUMPI PUSH2 0x2AF1 PUSH2 0x2781 JUMP JUMPDEST JUMPDEST DUP4 JUMPDEST DUP2 DUP2 LT ISZERO PUSH2 0x2B1B JUMPI DUP1 PUSH2 0x2B07 DUP9 DUP3 PUSH2 0x2AA9 JUMP JUMPDEST DUP5 MSTORE PUSH1 0x20 DUP5 ADD SWAP4 POP POP PUSH1 0x20 DUP2 ADD SWAP1 POP PUSH2 0x2AF4 JUMP JUMPDEST POP POP POP SWAP4 SWAP3 POP POP POP JUMP JUMPDEST PUSH0 DUP3 PUSH1 0x1F DUP4 ADD SLT PUSH2 0x2B39 JUMPI PUSH2 0x2B38 PUSH2 0x2779 JUMP JUMPDEST JUMPDEST DUP2 CALLDATALOAD PUSH2 0x2B49 DUP5 DUP3 PUSH1 0x20 DUP7 ADD PUSH2 0x2ABD JUMP JUMPDEST SWAP2 POP POP SWAP3 SWAP2 POP POP JUMP JUMPDEST PUSH0 PUSH8 0xFFFFFFFFFFFFFFFF DUP3 GT ISZERO PUSH2 0x2B6C JUMPI PUSH2 0x2B6B PUSH2 0x29DF JUMP JUMPDEST JUMPDEST PUSH1 0x20 DUP3 MUL SWAP1 POP PUSH1 0x20 DUP2 ADD SWAP1 POP SWAP2 SWAP1 POP JUMP JUMPDEST PUSH0 PUSH2 0x2B8F PUSH2 0x2B8A DUP5 PUSH2 0x2B52 JUMP JUMPDEST PUSH2 0x2A3D JUMP JUMPDEST SWAP1 POP DUP1 DUP4 DUP3 MSTORE PUSH1 0x20 DUP3 ADD SWAP1 POP PUSH1 0x20 DUP5 MUL DUP4 ADD DUP6 DUP2 GT ISZERO PUSH2 0x2BB2 JUMPI PUSH2 0x2BB1 PUSH2 0x2781 JUMP JUMPDEST JUMPDEST DUP4 JUMPDEST DUP2 DUP2 LT ISZERO PUSH2 0x2BDB JUMPI DUP1 PUSH2 0x2BC7 DUP9 DUP3 PUSH2 0x2633 JUMP JUMPDEST DUP5 MSTORE PUSH1 0x20 DUP5 ADD SWAP4 POP POP PUSH1 0x20 DUP2 ADD SWAP1 POP PUSH2 0x2BB4 JUMP JUMPDEST POP POP POP SWAP4 SWAP3 POP POP POP JUMP JUMPDEST PUSH0 DUP3 PUSH1 0x1F DUP4 ADD SLT PUSH2 0x2BF9 JUMPI PUSH2 0x2BF8 PUSH2 0x2779 JUMP JUMPDEST JUMPDEST DUP2 CALLDATALOAD PUSH2 0x2C09 DUP5 DUP3 PUSH1 0x20 DUP7 ADD PUSH2 0x2B7D JUMP JUMPDEST SWAP2 POP POP SWAP3 SWAP2 POP POP JUMP JUMPDEST PUSH0 PUSH0 REVERT JUMPDEST PUSH0 PUSH8 0xFFFFFFFFFFFFFFFF DUP3 GT ISZERO PUSH2 0x2C30 JUMPI PUSH2 0x2C2F PUSH2 0x29DF JUMP JUMPDEST JUMPDEST PUSH2 0x2C39 DUP3 PUSH2 0x29CF JUMP JUMPDEST SWAP1 POP PUSH1 0x20 DUP2 ADD SWAP1 POP SWAP2 SWAP1 POP JUMP JUMPDEST DUP3 DUP2 DUP4 CALLDATACOPY PUSH0 DUP4 DUP4 ADD MSTORE POP POP POP JUMP JUMPDEST PUSH0 PUSH2 0x2C66 PUSH2 0x2C61 DUP5 PUSH2 0x2C16 JUMP JUMPDEST PUSH2 0x2A3D JUMP JUMPDEST SWAP1 POP DUP3 DUP2 MSTORE PUSH1 0x20 DUP2 ADD DUP5 DUP5 DUP5 ADD GT ISZERO PUSH2 0x2C82 JUMPI PUSH2 0x2C81 PUSH2 0x2C12 JUMP JUMPDEST JUMPDEST PUSH2 0x2C8D DUP5 DUP3 DUP6 PUSH2 0x2C46 JUMP JUMPDEST POP SWAP4 SWAP3 POP POP POP JUMP JUMPDEST PUSH0 DUP3 PUSH1 0x1F DUP4 ADD SLT PUSH2 0x2CA9 JUMPI PUSH2 0x2CA8 PUSH2 0x2779 JUMP JUMPDEST JUMPDEST DUP2 CALLDATALOAD PUSH2 0x2CB9 DUP5 DUP3 PUSH1 0x20 DUP7 ADD PUSH2 0x2C54 JUMP JUMPDEST SWAP2 POP POP SWAP3 SWAP2 POP POP JUMP JUMPDEST PUSH0 PUSH0 PUSH0 PUSH0 PUSH1 0x80 DUP6 DUP8 SUB SLT ISZERO PUSH2 0x2CDA JUMPI PUSH2 0x2CD9 PUSH2 0x25B2 JUMP JUMPDEST JUMPDEST PUSH0 DUP6 ADD CALLDATALOAD PUSH8 0xFFFFFFFFFFFFFFFF DUP2 GT ISZERO PUSH2 0x2CF7 JUMPI PUSH2 0x2CF6 PUSH2 0x25B6 JUMP JUMPDEST JUMPDEST PUSH2 0x2D03 DUP8 DUP3 DUP9 ADD PUSH2 0x2B25 JUMP JUMPDEST SWAP5 POP POP PUSH1 0x20 DUP6 ADD CALLDATALOAD PUSH8 0xFFFFFFFFFFFFFFFF DUP2 GT ISZERO PUSH2 0x2D24 JUMPI PUSH2 0x2D23 PUSH2 0x25B6 JUMP JUMPDEST JUMPDEST PUSH2 0x2D30 DUP8 DUP3 DUP9 ADD PUSH2 0x2BE5 JUMP JUMPDEST SWAP4 POP POP PUSH1 0x40 DUP6 ADD CALLDATALOAD PUSH8 0xFFFFFFFFFFFFFFFF DUP2 GT ISZERO PUSH2 0x2D51 JUMPI PUSH2 0x2D50 PUSH2 0x25B6 JUMP JUMPDEST JUMPDEST PUSH2 0x2D5D DUP8 DUP3 DUP9 ADD PUSH2 0x2BE5 JUMP JUMPDEST SWAP3 POP POP PUSH1 0x60 DUP6 ADD CALLDATALOAD PUSH8 0xFFFFFFFFFFFFFFFF DUP2 GT ISZERO PUSH2 0x2D7E JUMPI PUSH2 0x2D7D PUSH2 0x25B6 JUMP JUMPDEST JUMPDEST PUSH2 0x2D8A DUP8 DUP3 DUP9 ADD PUSH2 0x2C95 JUMP JUMPDEST SWAP2 POP POP SWAP3 SWAP6 SWAP2 SWAP5 POP SWAP3 POP JUMP JUMPDEST PUSH0 DUP2 SWAP1 POP SWAP3 SWAP2 POP POP JUMP JUMPDEST POP JUMP JUMPDEST PUSH0 PUSH2 0x2DAE PUSH0 DUP4 PUSH2 0x2D96 JUMP JUMPDEST SWAP2 POP PUSH2 0x2DB9 DUP3 PUSH2 0x2DA0 JUMP JUMPDEST PUSH0 DUP3 ADD SWAP1 POP SWAP2 SWAP1 POP JUMP JUMPDEST PUSH0 PUSH2 0x2DCD DUP3 PUSH2 0x2DA3 JUMP JUMPDEST SWAP2 POP DUP2 SWAP1 POP SWAP2 SWAP1 POP JUMP JUMPDEST PUSH0 DUP2 SWAP1 POP SWAP2 SWAP1 POP JUMP JUMPDEST PUSH0 PUSH2 0x2DFA PUSH2 0x2DF5 PUSH2 0x2DF0 DUP5 PUSH2 0x25BA JUMP JUMPDEST PUSH2 0x2DD7 JUMP JUMPDEST PUSH2 0x25BA JUMP JUMPDEST SWAP1 POP SWAP2 SWAP1 POP JUMP JUMPDEST PUSH0 PUSH2 0x2E0B DUP3 PUSH2 0x2DE0 JUMP JUMPDEST SWAP1 POP SWAP2 SWAP1 POP JUMP JUMPDEST PUSH0 PUSH2 0x2E1C DUP3 PUSH2 0x2E01 JUMP JUMPDEST SWAP1 POP SWAP2 SWAP1 POP JUMP JUMPDEST PUSH2 0x2E2C DUP2 PUSH2 0x2E12 JUMP JUMPDEST DUP3 MSTORE POP POP JUMP JUMPDEST PUSH2 0x2E3B DUP2 PUSH2 0x2614 JUMP JUMPDEST DUP3 MSTORE POP POP JUMP JUMPDEST PUSH0 PUSH1 0x60 DUP3 ADD SWAP1 POP PUSH2 0x2E54 PUSH0 DUP4 ADD DUP7 PUSH2 0x271E JUMP JUMPDEST PUSH2 0x2E61 PUSH1 0x20 DUP4 ADD DUP6 PUSH2 0x2E23 JUMP JUMPDEST PUSH2 0x2E6E PUSH1 0x40 DUP4 ADD DUP5 PUSH2 0x2E32 JUMP JUMPDEST SWAP5 SWAP4 POP POP POP POP JUMP JUMPDEST PUSH0 PUSH1 0x20 DUP3 ADD SWAP1 POP PUSH2 0x2E89 PUSH0 DUP4 ADD DUP5 PUSH2 0x2E32 JUMP JUMPDEST SWAP3 SWAP2 POP POP JUMP JUMPDEST PUSH0 PUSH0 REVERT JUMPDEST PUSH0 PUSH0 REVERT JUMPDEST PUSH0 PUSH0 REVERT JUMPDEST PUSH0 PUSH0 DUP4 CALLDATALOAD PUSH1 0x1 PUSH1 0x20 SUB DUP5 CALLDATASIZE SUB SUB DUP2 SLT PUSH2 0x2EB7 JUMPI PUSH2 0x2EB6 PUSH2 0x2E8F JUMP JUMPDEST JUMPDEST DUP1 DUP5 ADD SWAP3 POP DUP3 CALLDATALOAD SWAP2 POP PUSH8 0xFFFFFFFFFFFFFFFF DUP3 GT ISZERO PUSH2 0x2ED9 JUMPI PUSH2 0x2ED8 PUSH2 0x2E93 JUMP JUMPDEST JUMPDEST PUSH1 0x20 DUP4 ADD SWAP3 POP PUSH1 0x20 DUP3 MUL CALLDATASIZE SUB DUP4 SGT ISZERO PUSH2 0x2EF5 JUMPI PUSH2 0x2EF4 PUSH2 0x2E97 JUMP JUMPDEST JUMPDEST POP SWAP3 POP SWAP3 SWAP1 POP JUMP JUMPDEST PUSH0 DUP3 DUP3 MSTORE PUSH1 0x20 DUP3 ADD SWAP1 POP SWAP3 SWAP2 POP POP JUMP JUMPDEST PUSH0 DUP2 SWAP1 POP SWAP2 SWAP1 POP JUMP JUMPDEST PUSH0 PUSH2 0x2F24 PUSH1 0x20 DUP5 ADD DUP5 PUSH2 0x26AC JUMP JUMPDEST SWAP1 POP SWAP3 SWAP2 POP POP JUMP JUMPDEST PUSH2 0x2F35 DUP2 PUSH2 0x2685 JUMP JUMPDEST DUP3 MSTORE POP POP JUMP JUMPDEST PUSH0 PUSH2 0x2F49 PUSH1 0x20 DUP5 ADD DUP5 PUSH2 0x2633 JUMP JUMPDEST SWAP1 POP SWAP3 SWAP2 POP POP JUMP JUMPDEST PUSH2 0x2F5A DUP2 PUSH2 0x2614 JUMP JUMPDEST DUP3 MSTORE POP POP JUMP JUMPDEST PUSH0 PUSH0 REVERT JUMPDEST PUSH0 PUSH0 REVERT JUMPDEST PUSH0 PUSH0 REVERT JUMPDEST PUSH0 PUSH0 DUP4 CALLDATALOAD PUSH1 0x1 PUSH1 0x20 SUB DUP5 CALLDATASIZE SUB SUB DUP2 SLT PUSH2 0x2F88 JUMPI PUSH2 0x2F87 PUSH2 0x2F68 JUMP JUMPDEST JUMPDEST DUP4 DUP2 ADD SWAP3 POP DUP3 CALLDATALOAD SWAP2 POP PUSH1 0x20 DUP4 ADD SWAP3 POP PUSH8 0xFFFFFFFFFFFFFFFF DUP3 GT ISZERO PUSH2 0x2FB0 JUMPI PUSH2 0x2FAF PUSH2 0x2F60 JUMP JUMPDEST JUMPDEST PUSH1 0x1 DUP3 MUL CALLDATASIZE SUB DUP4 SGT ISZERO PUSH2 0x2FC6 JUMPI PUSH2 0x2FC5 PUSH2 0x2F64 JUMP JUMPDEST JUMPDEST POP SWAP3 POP SWAP3 SWAP1 POP JUMP JUMPDEST PUSH0 DUP3 DUP3 MSTORE PUSH1 0x20 DUP3 ADD SWAP1 POP SWAP3 SWAP2 POP POP JUMP JUMPDEST PUSH0 PUSH2 0x2FE9 DUP4 DUP6 PUSH2 0x2FCE JUMP JUMPDEST SWAP4 POP PUSH2 0x2FF6 DUP4 DUP6 DUP5 PUSH2 0x2C46 JUMP JUMPDEST PUSH2 0x2FFF DUP4 PUSH2 0x29CF JUMP JUMPDEST DUP5 ADD SWAP1 POP SWAP4 SWAP3 POP POP POP JUMP JUMPDEST PUSH0 PUSH1 0x60 DUP4 ADD PUSH2 0x301B PUSH0 DUP5 ADD DUP5 PUSH2 0x2F16 JUMP JUMPDEST PUSH2 0x3027 PUSH0 DUP7 ADD DUP3 PUSH2 0x2F2C JUMP JUMPDEST POP PUSH2 0x3035 PUSH1 0x20 DUP5 ADD DUP5 PUSH2 0x2F3B JUMP JUMPDEST PUSH2 0x3042 PUSH1 0x20 DUP7 ADD DUP3 PUSH2 0x2F51 JUMP JUMPDEST POP PUSH2 0x3050 PUSH1 0x40 DUP5 ADD DUP5 PUSH2 0x2F6C JUMP JUMPDEST DUP6 DUP4 SUB PUSH1 0x40 DUP8 ADD MSTORE PUSH2 0x3063 DUP4 DUP3 DUP5 PUSH2 0x2FDE JUMP JUMPDEST SWAP3 POP POP POP DUP1 SWAP2 POP POP SWAP3 SWAP2 POP POP JUMP JUMPDEST PUSH0 PUSH2 0x307C DUP4 DUP4 PUSH2 0x300A JUMP JUMPDEST SWAP1 POP SWAP3 SWAP2 POP POP JUMP JUMPDEST PUSH0 DUP3 CALLDATALOAD PUSH1 0x1 PUSH1 0x60 SUB DUP4 CALLDATASIZE SUB SUB DUP2 SLT PUSH2 0x309F JUMPI PUSH2 0x309E PUSH2 0x2F68 JUMP JUMPDEST JUMPDEST DUP3 DUP2 ADD SWAP2 POP POP SWAP3 SWAP2 POP POP JUMP JUMPDEST PUSH0 PUSH1 0x20 DUP3 ADD SWAP1 POP SWAP2 SWAP1 POP JUMP JUMPDEST PUSH0 PUSH2 0x30C2 DUP4 DUP6 PUSH2 0x2EFD JUMP JUMPDEST SWAP4 POP DUP4 PUSH1 0x20 DUP5 MUL DUP6 ADD PUSH2 0x30D4 DUP5 PUSH2 0x2F0D JUMP JUMPDEST DUP1 PUSH0 JUMPDEST DUP8 DUP2 LT ISZERO PUSH2 0x3117 JUMPI DUP5 DUP5 SUB DUP10 MSTORE PUSH2 0x30EE DUP3 DUP5 PUSH2 0x3084 JUMP JUMPDEST PUSH2 0x30F8 DUP6 DUP3 PUSH2 0x3071 JUMP JUMPDEST SWAP5 POP PUSH2 0x3103 DUP4 PUSH2 0x30AB JUMP JUMPDEST SWAP3 POP PUSH1 0x20 DUP11 ADD SWAP10 POP POP PUSH1 0x1 DUP2 ADD SWAP1 POP PUSH2 0x30D7 JUMP JUMPDEST POP DUP3 SWAP8 POP DUP8 SWAP5 POP POP POP POP POP SWAP4 SWAP3 POP POP POP JUMP JUMPDEST PUSH0 PUSH1 0x20 DUP3 ADD SWAP1 POP DUP2 DUP2 SUB PUSH0 DUP4 ADD MSTORE PUSH2 0x3142 DUP2 DUP5 DUP7 PUSH2 0x30B7 JUMP JUMPDEST SWAP1 POP SWAP4 SWAP3 POP POP POP JUMP JUMPDEST PUSH0 DUP2 MLOAD SWAP1 POP PUSH2 0x3159 DUP2 PUSH2 0x261D JUMP JUMPDEST SWAP3 SWAP2 POP POP JUMP JUMPDEST PUSH0 PUSH1 0x20 DUP3 DUP5 SUB SLT ISZERO PUSH2 0x3174 JUMPI PUSH2 0x3173 PUSH2 0x25B2 JUMP JUMPDEST JUMPDEST PUSH0 PUSH2 0x3181 DUP5 DUP3 DUP6 ADD PUSH2 0x314B JUMP JUMPDEST SWAP2 POP POP SWAP3 SWAP2 POP POP JUMP JUMPDEST PUSH32 0x4E487B7100000000000000000000000000000000000000000000000000000000 PUSH0 MSTORE PUSH1 0x32 PUSH1 0x4 MSTORE PUSH1 0x24 PUSH0 REVERT JUMPDEST PUSH0 DUP2 SWAP1 POP SWAP2 SWAP1 POP JUMP JUMPDEST PUSH2 0x31C9 DUP2 PUSH2 0x31B7 JUMP JUMPDEST DUP2 EQ PUSH2 0x31D3 JUMPI PUSH0 PUSH0 REVERT JUMPDEST POP JUMP JUMPDEST PUSH0 DUP2 CALLDATALOAD SWAP1 POP PUSH2 0x31E4 DUP2 PUSH2 0x31C0 JUMP JUMPDEST SWAP3 SWAP2 POP POP JUMP JUMPDEST PUSH0 PUSH2 0x31F8 PUSH1 0x20 DUP5 ADD DUP5 PUSH2 0x31D6 JUMP JUMPDEST SWAP1 POP SWAP3 SWAP2 POP POP JUMP JUMPDEST PUSH2 0x3209 DUP2 PUSH2 0x31B7 JUMP JUMPDEST DUP3 MSTORE POP POP JUMP JUMPDEST PUSH0 PUSH0 DUP4 CALLDATALOAD PUSH1 0x1 PUSH1 0x20 SUB DUP5 CALLDATASIZE SUB SUB DUP2 SLT PUSH2 0x322B JUMPI PUSH2 0x322A PUSH2 0x2F68 JUMP JUMPDEST JUMPDEST DUP4 DUP2 ADD SWAP3 POP DUP3 CALLDATALOAD SWAP2 POP PUSH1 0x20 DUP4 ADD SWAP3 POP PUSH8 0xFFFFFFFFFFFFFFFF DUP3 GT ISZERO PUSH2 0x3253 JUMPI PUSH2 0x3252 PUSH2 0x2F60 JUMP JUMPDEST JUMPDEST PUSH1 0x20 DUP3 MUL CALLDATASIZE SUB DUP4 SGT ISZERO PUSH2 0x3269 JUMPI PUSH2 0x3268 PUSH2 0x2F64 JUMP JUMPDEST JUMPDEST POP SWAP3 POP SWAP3 SWAP1 POP JUMP JUMPDEST PUSH0 DUP3 DUP3 MSTORE PUSH1 0x20 DUP3 ADD SWAP1 POP SWAP3 SWAP2 POP POP JUMP JUMPDEST PUSH0 PUSH2 0x328C DUP4 DUP6 PUSH2 0x3271 JUMP JUMPDEST SWAP4 POP DUP4 PUSH1 0x20 DUP5 MUL DUP6 ADD PUSH2 0x329E DUP5 PUSH2 0x2F0D JUMP JUMPDEST DUP1 PUSH0 JUMPDEST DUP8 DUP2 LT ISZERO PUSH2 0x32E1 JUMPI DUP5 DUP5 SUB DUP10 MSTORE PUSH2 0x32B8 DUP3 DUP5 PUSH2 0x3084 JUMP JUMPDEST PUSH2 0x32C2 DUP6 DUP3 PUSH2 0x3071 JUMP JUMPDEST SWAP5 POP PUSH2 0x32CD DUP4 PUSH2 0x30AB JUMP JUMPDEST SWAP3 POP PUSH1 0x20 DUP11 ADD SWAP10 POP POP PUSH1 0x1 DUP2 ADD SWAP1 POP PUSH2 0x32A1 JUMP JUMPDEST POP DUP3 SWAP8 POP DUP8 SWAP5 POP POP POP POP POP SWAP4 SWAP3 POP POP POP JUMP JUMPDEST PUSH0 PUSH1 0xA0 DUP4 ADD PUSH2 0x3304 PUSH0 DUP5 ADD DUP5 PUSH2 0x2F16 JUMP JUMPDEST PUSH2 0x3310 PUSH0 DUP7 ADD DUP3 PUSH2 0x2F2C JUMP JUMPDEST POP PUSH2 0x331E PUSH1 0x20 DUP5 ADD DUP5 PUSH2 0x2F3B JUMP JUMPDEST PUSH2 0x332B PUSH1 0x20 DUP7 ADD DUP3 PUSH2 0x2F51 JUMP JUMPDEST POP PUSH2 0x3339 PUSH1 0x40 DUP5 ADD DUP5 PUSH2 0x2F3B JUMP JUMPDEST PUSH2 0x3346 PUSH1 0x40 DUP7 ADD DUP3 PUSH2 0x2F51 JUMP JUMPDEST POP PUSH2 0x3354 PUSH1 0x60 DUP5 ADD DUP5 PUSH2 0x31EA JUMP JUMPDEST PUSH2 0x3361 PUSH1 0x60 DUP7 ADD DUP3 PUSH2 0x3200 JUMP JUMPDEST POP PUSH2 0x336F PUSH1 0x80 DUP5 ADD DUP5 PUSH2 0x320F JUMP JUMPDEST DUP6 DUP4 SUB PUSH1 0x80 DUP8 ADD MSTORE PUSH2 0x3382 DUP4 DUP3 DUP5 PUSH2 0x3281 JUMP JUMPDEST SWAP3 POP POP POP DUP1 SWAP2 POP POP SWAP3 SWAP2 POP POP JUMP JUMPDEST PUSH0 PUSH1 0x20 DUP3 ADD SWAP1 POP DUP2 DUP2 SUB PUSH0 DUP4 ADD MSTORE PUSH2 0x33A8 DUP2 DUP5 PUSH2 0x32F3 JUMP JUMPDEST SWAP1 POP SWAP3 SWAP2 POP POP JUMP JUMPDEST PUSH0 PUSH2 0x33BA DUP3 PUSH2 0x2E01 JUMP JUMPDEST SWAP1 POP SWAP2 SWAP1 POP JUMP JUMPDEST PUSH2 0x33CA DUP2 PUSH2 0x33B0 JUMP JUMPDEST DUP3 MSTORE POP POP JUMP JUMPDEST PUSH0 DUP2 MLOAD SWAP1 POP SWAP2 SWAP1 POP JUMP JUMPDEST PUSH0 DUP3 DUP3 MSTORE PUSH1 0x20 DUP3 ADD SWAP1 POP SWAP3 SWAP2 POP POP JUMP JUMPDEST PUSH0 DUP2 SWAP1 POP PUSH1 0x20 DUP3 ADD SWAP1 POP SWAP2 SWAP1 POP JUMP JUMPDEST PUSH0 PUSH2 0x3403 DUP3 PUSH2 0x2E01 JUMP JUMPDEST SWAP1 POP SWAP2 SWAP1 POP JUMP JUMPDEST PUSH2 0x3413 DUP2 PUSH2 0x33F9 JUMP JUMPDEST DUP3 MSTORE POP POP JUMP JUMPDEST PUSH0 PUSH2 0x3424 DUP4 DUP4 PUSH2 0x340A JUMP JUMPDEST PUSH1 0x20 DUP4 ADD SWAP1 POP SWAP3 SWAP2 POP POP JUMP JUMPDEST PUSH0 PUSH1 0x20 DUP3 ADD SWAP1 POP SWAP2 SWAP1 POP JUMP JUMPDEST PUSH0 PUSH2 0x3446 DUP3 PUSH2 0x33D0 JUMP JUMPDEST PUSH2 0x3450 DUP2 DUP6 PUSH2 0x33DA JUMP JUMPDEST SWAP4 POP PUSH2 0x345B DUP4 PUSH2 0x33EA JUMP JUMPDEST DUP1 PUSH0 JUMPDEST DUP4 DUP2 LT ISZERO PUSH2 0x348B JUMPI DUP2 MLOAD PUSH2 0x3472 DUP9 DUP3 PUSH2 0x3419 JUMP JUMPDEST SWAP8 POP PUSH2 0x347D DUP4 PUSH2 0x3430 JUMP JUMPDEST SWAP3 POP POP PUSH1 0x1 DUP2 ADD SWAP1 POP PUSH2 0x345E JUMP JUMPDEST POP DUP6 SWAP4 POP POP POP POP SWAP3 SWAP2 POP POP JUMP JUMPDEST PUSH0 DUP2 MLOAD SWAP1 POP SWAP2 SWAP1 POP JUMP JUMPDEST PUSH0 DUP3 DUP3 MSTORE PUSH1 0x20 DUP3 ADD SWAP1 POP SWAP3 SWAP2 POP POP JUMP JUMPDEST PUSH0 DUP2 SWAP1 POP PUSH1 0x20 DUP3 ADD SWAP1 POP SWAP2 SWAP1 POP JUMP JUMPDEST PUSH0 PUSH2 0x34CC DUP4 DUP4 PUSH2 0x2F51 JUMP JUMPDEST PUSH1 0x20 DUP4 ADD SWAP1 POP SWAP3 SWAP2 POP POP JUMP JUMPDEST PUSH0 PUSH1 0x20 DUP3 ADD SWAP1 POP SWAP2 SWAP1 POP JUMP JUMPDEST PUSH0 PUSH2 0x34EE DUP3 PUSH2 0x3498 JUMP JUMPDEST PUSH2 0x34F8 DUP2 DUP6 PUSH2 0x34A2 JUMP JUMPDEST SWAP4 POP PUSH2 0x3503 DUP4 PUSH2 0x34B2 JUMP JUMPDEST DUP1 PUSH0 JUMPDEST DUP4 DUP2 LT ISZERO PUSH2 0x3533 JUMPI DUP2 MLOAD PUSH2 0x351A DUP9 DUP3 PUSH2 0x34C1 JUMP JUMPDEST SWAP8 POP PUSH2 0x3525 DUP4 PUSH2 0x34D8 JUMP JUMPDEST SWAP3 POP POP PUSH1 0x1 DUP2 ADD SWAP1 POP PUSH2 0x3506 JUMP JUMPDEST POP DUP6 SWAP4 POP POP POP POP SWAP3 SWAP2 POP POP JUMP JUMPDEST PUSH0 DUP2 MLOAD SWAP1 POP SWAP2 SWAP1 POP JUMP JUMPDEST PUSH0 DUP3 DUP3 MSTORE PUSH1 0x20 DUP3 ADD SWAP1 POP SWAP3 SWAP2 POP POP JUMP JUMPDEST DUP3 DUP2 DUP4 MCOPY PUSH0 DUP4 DUP4 ADD MSTORE POP POP POP JUMP JUMPDEST PUSH0 PUSH2 0x3572 DUP3 PUSH2 0x3540 JUMP JUMPDEST PUSH2 0x357C DUP2 DUP6 PUSH2 0x354A JUMP JUMPDEST SWAP4 POP PUSH2 0x358C DUP2 DUP6 PUSH1 0x20 DUP7 ADD PUSH2 0x355A JUMP JUMPDEST PUSH2 0x3595 DUP2 PUSH2 0x29CF JUMP JUMPDEST DUP5 ADD SWAP2 POP POP SWAP3 SWAP2 POP POP JUMP JUMPDEST PUSH0 PUSH1 0x80 DUP3 ADD SWAP1 POP PUSH2 0x35B3 PUSH0 DUP4 ADD DUP8 PUSH2 0x33C1 JUMP JUMPDEST DUP2 DUP2 SUB PUSH1 0x20 DUP4 ADD MSTORE PUSH2 0x35C5 DUP2 DUP7 PUSH2 0x343C JUMP JUMPDEST SWAP1 POP DUP2 DUP2 SUB PUSH1 0x40 DUP4 ADD MSTORE PUSH2 0x35D9 DUP2 DUP6 PUSH2 0x34E4 JUMP JUMPDEST SWAP1 POP DUP2 DUP2 SUB PUSH1 0x60 DUP4 ADD MSTORE PUSH2 0x35ED DUP2 DUP5 PUSH2 0x3568 JUMP JUMPDEST SWAP1 POP SWAP6 SWAP5 POP POP POP POP POP JUMP JUMPDEST PUSH32 0x4E487B7100000000000000000000000000000000000000000000000000000000 PUSH0 MSTORE PUSH1 0x11 PUSH1 0x4 MSTORE PUSH1 0x24 PUSH0 REVERT JUMPDEST PUSH0 PUSH2 0x362F DUP3 PUSH2 0x2614 JUMP JUMPDEST SWAP2 POP PUSH2 0x363A DUP4 PUSH2 0x2614 JUMP JUMPDEST SWAP3 POP DUP3 DUP3 SUB SWAP1 POP DUP2 DUP2 GT ISZERO PUSH2 0x3652 JUMPI PUSH2 0x3651 PUSH2 0x35F8 JUMP JUMPDEST JUMPDEST SWAP3 SWAP2 POP POP JUMP JUMPDEST PUSH0 PUSH1 0x40 DUP3 ADD SWAP1 POP PUSH2 0x366B PUSH0 DUP4 ADD DUP6 PUSH2 0x2E32 JUMP JUMPDEST PUSH2 0x3678 PUSH1 0x20 DUP4 ADD DUP5 PUSH2 0x271E JUMP JUMPDEST SWAP4 SWAP3 POP POP POP JUMP JUMPDEST PUSH0 PUSH0 REVERT JUMPDEST PUSH0 PUSH0 REVERT JUMPDEST PUSH0 DUP2 MLOAD SWAP1 POP PUSH2 0x3695 DUP2 PUSH2 0x2696 JUMP JUMPDEST SWAP3 SWAP2 POP POP JUMP JUMPDEST PUSH0 DUP2 MLOAD SWAP1 POP PUSH2 0x36A9 DUP2 PUSH2 0x31C0 JUMP JUMPDEST SWAP3 SWAP2 POP POP JUMP JUMPDEST PUSH0 PUSH8 0xFFFFFFFFFFFFFFFF DUP3 GT ISZERO PUSH2 0x36C9 JUMPI PUSH2 0x36C8 PUSH2 0x29DF JUMP JUMPDEST JUMPDEST PUSH1 0x20 DUP3 MUL SWAP1 POP PUSH1 0x20 DUP2 ADD SWAP1 POP SWAP2 SWAP1 POP JUMP JUMPDEST PUSH0 PUSH2 0x36EC PUSH2 0x36E7 DUP5 PUSH2 0x2C16 JUMP JUMPDEST PUSH2 0x2A3D JUMP JUMPDEST SWAP1 POP DUP3 DUP2 MSTORE PUSH1 0x20 DUP2 ADD DUP5 DUP5 DUP5 ADD GT ISZERO PUSH2 0x3708 JUMPI PUSH2 0x3707 PUSH2 0x2C12 JUMP JUMPDEST JUMPDEST PUSH2 0x3713 DUP5 DUP3 DUP6 PUSH2 0x355A JUMP JUMPDEST POP SWAP4 SWAP3 POP POP POP JUMP JUMPDEST PUSH0 DUP3 PUSH1 0x1F DUP4 ADD SLT PUSH2 0x372F JUMPI PUSH2 0x372E PUSH2 0x2779 JUMP JUMPDEST JUMPDEST DUP2 MLOAD PUSH2 0x373F DUP5 DUP3 PUSH1 0x20 DUP7 ADD PUSH2 0x36DA JUMP JUMPDEST SWAP2 POP POP SWAP3 SWAP2 POP POP JUMP JUMPDEST PUSH0 PUSH1 0x60 DUP3 DUP5 SUB SLT ISZERO PUSH2 0x375D JUMPI PUSH2 0x375C PUSH2 0x367F JUMP JUMPDEST JUMPDEST PUSH2 0x3767 PUSH1 0x60 PUSH2 0x2A3D JUMP JUMPDEST SWAP1 POP PUSH0 PUSH2 0x3776 DUP5 DUP3 DUP6 ADD PUSH2 0x3687 JUMP JUMPDEST PUSH0 DUP4 ADD MSTORE POP PUSH1 0x20 PUSH2 0x3789 DUP5 DUP3 DUP6 ADD PUSH2 0x314B JUMP JUMPDEST PUSH1 0x20 DUP4 ADD MSTORE POP PUSH1 0x40 DUP3 ADD MLOAD PUSH8 0xFFFFFFFFFFFFFFFF DUP2 GT ISZERO PUSH2 0x37AD JUMPI PUSH2 0x37AC PUSH2 0x3683 JUMP JUMPDEST JUMPDEST PUSH2 0x37B9 DUP5 DUP3 DUP6 ADD PUSH2 0x371B JUMP JUMPDEST PUSH1 0x40 DUP4 ADD MSTORE POP SWAP3 SWAP2 POP POP JUMP JUMPDEST PUSH0 PUSH2 0x37D7 PUSH2 0x37D2 DUP5 PUSH2 0x36AF JUMP JUMPDEST PUSH2 0x2A3D JUMP JUMPDEST SWAP1 POP DUP1 DUP4 DUP3 MSTORE PUSH1 0x20 DUP3 ADD SWAP1 POP PUSH1 0x20 DUP5 MUL DUP4 ADD DUP6 DUP2 GT ISZERO PUSH2 0x37FA JUMPI PUSH2 0x37F9 PUSH2 0x2781 JUMP JUMPDEST JUMPDEST DUP4 JUMPDEST DUP2 DUP2 LT ISZERO PUSH2 0x3841 JUMPI DUP1 MLOAD PUSH8 0xFFFFFFFFFFFFFFFF DUP2 GT ISZERO PUSH2 0x381F JUMPI PUSH2 0x381E PUSH2 0x2779 JUMP JUMPDEST JUMPDEST DUP1 DUP7 ADD PUSH2 0x382C DUP10 DUP3 PUSH2 0x3748 JUMP JUMPDEST DUP6 MSTORE PUSH1 0x20 DUP6 ADD SWAP5 POP POP POP PUSH1 0x20 DUP2 ADD SWAP1 POP PUSH2 0x37FC JUMP JUMPDEST POP POP POP SWAP4 SWAP3 POP POP POP JUMP JUMPDEST PUSH0 DUP3 PUSH1 0x1F DUP4 ADD SLT PUSH2 0x385F JUMPI PUSH2 0x385E PUSH2 0x2779 JUMP JUMPDEST JUMPDEST DUP2 MLOAD PUSH2 0x386F DUP5 DUP3 PUSH1 0x20 DUP7 ADD PUSH2 0x37C5 JUMP JUMPDEST SWAP2 POP POP SWAP3 SWAP2 POP POP JUMP JUMPDEST PUSH0 PUSH1 0xA0 DUP3 DUP5 SUB SLT ISZERO PUSH2 0x388D JUMPI PUSH2 0x388C PUSH2 0x367F JUMP JUMPDEST JUMPDEST PUSH2 0x3897 PUSH1 0xA0 PUSH2 0x2A3D JUMP JUMPDEST SWAP1 POP PUSH0 PUSH2 0x38A6 DUP5 DUP3 DUP6 ADD PUSH2 0x3687 JUMP JUMPDEST PUSH0 DUP4 ADD MSTORE POP PUSH1 0x20 PUSH2 0x38B9 DUP5 DUP3 DUP6 ADD PUSH2 0x314B JUMP JUMPDEST PUSH1 0x20 DUP4 ADD MSTORE POP PUSH1 0x40 PUSH2 0x38CD DUP5 DUP3 DUP6 ADD PUSH2 0x314B JUMP JUMPDEST PUSH1 0x40 DUP4 ADD MSTORE POP PUSH1 0x60 PUSH2 0x38E1 DUP5 DUP3 DUP6 ADD PUSH2 0x369B JUMP JUMPDEST PUSH1 0x60 DUP4 ADD MSTORE POP PUSH1 0x80 DUP3 ADD MLOAD PUSH8 0xFFFFFFFFFFFFFFFF DUP2 GT ISZERO PUSH2 0x3905 JUMPI PUSH2 0x3904 PUSH2 0x3683 JUMP JUMPDEST JUMPDEST PUSH2 0x3911 DUP5 DUP3 DUP6 ADD PUSH2 0x384B JUMP JUMPDEST PUSH1 0x80 DUP4 ADD MSTORE POP SWAP3 SWAP2 POP POP JUMP JUMPDEST PUSH0 PUSH1 0x20 DUP3 DUP5 SUB SLT ISZERO PUSH2 0x3932 JUMPI PUSH2 0x3931 PUSH2 0x25B2 JUMP JUMPDEST JUMPDEST PUSH0 DUP3 ADD MLOAD PUSH8 0xFFFFFFFFFFFFFFFF DUP2 GT ISZERO PUSH2 0x394F JUMPI PUSH2 0x394E PUSH2 0x25B6 JUMP JUMPDEST JUMPDEST PUSH2 0x395B DUP5 DUP3 DUP6 ADD PUSH2 0x3878 JUMP JUMPDEST SWAP2 POP POP SWAP3 SWAP2 POP POP JUMP JUMPDEST PUSH0 PUSH2 0x396E DUP3 PUSH2 0x2614 JUMP JUMPDEST SWAP2 POP PUSH2 0x3979 DUP4 PUSH2 0x2614 JUMP JUMPDEST SWAP3 POP DUP3 DUP3 ADD SWAP1 POP DUP1 DUP3 GT ISZERO PUSH2 0x3991 JUMPI PUSH2 0x3990 PUSH2 0x35F8 JUMP JUMPDEST JUMPDEST SWAP3 SWAP2 POP POP JUMP JUMPDEST PUSH0 PUSH1 0xFF DUP3 AND SWAP1 POP SWAP2 SWAP1 POP JUMP JUMPDEST PUSH2 0x39AC DUP2 PUSH2 0x3997 JUMP JUMPDEST DUP2 EQ PUSH2 0x39B6 JUMPI PUSH0 PUSH0 REVERT JUMPDEST POP JUMP JUMPDEST PUSH0 DUP2 CALLDATALOAD SWAP1 POP PUSH2 0x39C7 DUP2 PUSH2 0x39A3 JUMP JUMPDEST SWAP3 SWAP2 POP POP JUMP JUMPDEST PUSH0 PUSH3 0xFFFFFF DUP3 AND SWAP1 POP SWAP2 SWAP1 POP JUMP JUMPDEST PUSH2 0x39E4 DUP2 PUSH2 0x39CD JUMP JUMPDEST DUP2 EQ PUSH2 0x39EE JUMPI PUSH0 PUSH0 REVERT JUMPDEST POP JUMP JUMPDEST PUSH0 DUP2 CALLDATALOAD SWAP1 POP PUSH2 0x39FF DUP2 PUSH2 0x39DB JUMP JUMPDEST SWAP3 SWAP2 POP POP JUMP JUMPDEST PUSH0 PUSH1 0x80 DUP3 DUP5 SUB SLT ISZERO PUSH2 0x3A1A JUMPI PUSH2 0x3A19 PUSH2 0x367F JUMP JUMPDEST JUMPDEST PUSH2 0x3A24 PUSH1 0x80 PUSH2 0x2A3D JUMP JUMPDEST SWAP1 POP PUSH0 PUSH2 0x3A33 DUP5 DUP3 DUP6 ADD PUSH2 0x39B9 JUMP JUMPDEST PUSH0 DUP4 ADD MSTORE POP PUSH1 0x20 PUSH2 0x3A46 DUP5 DUP3 DUP6 ADD PUSH2 0x26AC JUMP JUMPDEST PUSH1 0x20 DUP4 ADD MSTORE POP PUSH1 0x40 PUSH2 0x3A5A DUP5 DUP3 DUP6 ADD PUSH2 0x26AC JUMP JUMPDEST PUSH1 0x40 DUP4 ADD MSTORE POP PUSH1 0x60 PUSH2 0x3A6E DUP5 DUP3 DUP6 ADD PUSH2 0x39F1 JUMP JUMPDEST PUSH1 0x60 DUP4 ADD MSTORE POP SWAP3 SWAP2 POP POP JUMP JUMPDEST PUSH0 PUSH1 0x80 DUP3 DUP5 SUB SLT ISZERO PUSH2 0x3A8F JUMPI PUSH2 0x3A8E PUSH2 0x25B2 JUMP JUMPDEST JUMPDEST PUSH0 PUSH2 0x3A9C DUP5 DUP3 DUP6 ADD PUSH2 0x3A05 JUMP JUMPDEST SWAP2 POP POP SWAP3 SWAP2 POP POP JUMP JUMPDEST PUSH2 0x3AAE DUP2 PUSH2 0x3997 JUMP JUMPDEST DUP3 MSTORE POP POP JUMP JUMPDEST PUSH0 PUSH1 0x20 DUP3 ADD SWAP1 POP PUSH2 0x3AC7 PUSH0 DUP4 ADD DUP5 PUSH2 0x3AA5 JUMP JUMPDEST SWAP3 SWAP2 POP POP JUMP JUMPDEST PUSH0 PUSH1 0x40 DUP3 ADD SWAP1 POP PUSH2 0x3AE0 PUSH0 DUP4 ADD DUP6 PUSH2 0x271E JUMP JUMPDEST PUSH2 0x3AED PUSH1 0x20 DUP4 ADD DUP5 PUSH2 0x271E JUMP JUMPDEST SWAP4 SWAP3 POP POP POP JUMP JUMPDEST PUSH0 PUSH1 0x40 DUP3 ADD SWAP1 POP PUSH2 0x3B07 PUSH0 DUP4 ADD DUP6 PUSH2 0x271E JUMP JUMPDEST PUSH2 0x3B14 PUSH1 0x20 DUP4 ADD DUP5 PUSH2 0x2E32 JUMP JUMPDEST SWAP4 SWAP3 POP POP POP JUMP JUMPDEST PUSH0 PUSH2 0x3B25 DUP3 PUSH2 0x3540 JUMP JUMPDEST PUSH2 0x3B2F DUP2 DUP6 PUSH2 0x2D96 JUMP JUMPDEST SWAP4 POP PUSH2 0x3B3F DUP2 DUP6 PUSH1 0x20 DUP7 ADD PUSH2 0x355A JUMP JUMPDEST DUP1 DUP5 ADD SWAP2 POP POP SWAP3 SWAP2 POP POP JUMP JUMPDEST PUSH0 PUSH2 0x3B56 DUP3 DUP5 PUSH2 0x3B1B JUMP JUMPDEST SWAP2 POP DUP2 SWAP1 POP SWAP3 SWAP2 POP POP JUMP JUMPDEST PUSH0 DUP2 MLOAD SWAP1 POP PUSH2 0x3B6F DUP2 PUSH2 0x28D9 JUMP JUMPDEST SWAP3 SWAP2 POP POP JUMP JUMPDEST PUSH0 PUSH1 0x20 DUP3 DUP5 SUB SLT ISZERO PUSH2 0x3B8A JUMPI PUSH2 0x3B89 PUSH2 0x25B2 JUMP JUMPDEST JUMPDEST PUSH0 PUSH2 0x3B97 DUP5 DUP3 DUP6 ADD PUSH2 0x3B61 JUMP JUMPDEST SWAP2 POP POP SWAP3 SWAP2 POP POP JUMP JUMPDEST PUSH0 PUSH1 0x60 DUP3 ADD SWAP1 POP PUSH2 0x3BB3 PUSH0 DUP4 ADD DUP7 PUSH2 0x271E JUMP JUMPDEST PUSH2 0x3BC0 PUSH1 0x20 DUP4 ADD DUP6 PUSH2 0x271E JUMP JUMPDEST PUSH2 0x3BCD PUSH1 0x40 DUP4 ADD DUP5 PUSH2 0x2E32 JUMP JUMPDEST SWAP5 SWAP4 POP POP POP POP JUMP JUMPDEST PUSH0 PUSH1 0x60 DUP3 ADD SWAP1 POP PUSH2 0x3BE8 PUSH0 DUP4 ADD DUP7 PUSH2 0x2E32 JUMP JUMPDEST PUSH2 0x3BF5 PUSH1 0x20 DUP4 ADD DUP6 PUSH2 0x271E JUMP JUMPDEST DUP2 DUP2 SUB PUSH1 0x40 DUP4 ADD MSTORE PUSH2 0x3C07 DUP2 DUP5 PUSH2 0x3568 JUMP JUMPDEST SWAP1 POP SWAP5 SWAP4 POP POP POP POP JUMP JUMPDEST PUSH0 PUSH1 0x40 DUP3 ADD SWAP1 POP PUSH2 0x3C24 PUSH0 DUP4 ADD DUP6 PUSH2 0x2E32 JUMP JUMPDEST PUSH2 0x3C31 PUSH1 0x20 DUP4 ADD DUP5 PUSH2 0x2E32 JUMP JUMPDEST SWAP4 SWAP3 POP POP POP JUMP JUMPDEST PUSH2 0x3C41 DUP2 PUSH2 0x39CD JUMP JUMPDEST DUP3 MSTORE POP POP JUMP JUMPDEST PUSH0 PUSH1 0x60 DUP3 ADD SWAP1 POP PUSH2 0x3C5A PUSH0 DUP4 ADD DUP7 PUSH2 0x271E JUMP JUMPDEST PUSH2 0x3C67 PUSH1 0x20 DUP4 ADD DUP6 PUSH2 0x271E JUMP JUMPDEST PUSH2 0x3C74 PUSH1 0x40 DUP4 ADD DUP5 PUSH2 0x3C38 JUMP JUMPDEST SWAP5 SWAP4 POP POP POP POP JUMP JUMPDEST PUSH0 PUSH1 0x20 DUP3 DUP5 SUB SLT ISZERO PUSH2 0x3C91 JUMPI PUSH2 0x3C90 PUSH2 0x25B2 JUMP JUMPDEST JUMPDEST PUSH0 PUSH2 0x3C9E DUP5 DUP3 DUP6 ADD PUSH2 0x3687 JUMP JUMPDEST SWAP2 POP POP SWAP3 SWAP2 POP POP JUMP INVALID LOG2 PUSH5 0x6970667358 0x22 SLT KECCAK256 0x4E JUMPI SWAP2 SWAP7 EQ 0xBF SLOAD BYTE 0xC8 0x1F SWAP7 0xB0 0xF 0xCB 0xA6 0xAA 0xD7 LOG1 0xF6 0xDB DUP4 0xD5 DUP13 0x24 0xC1 COINBASE SELFBALANCE RETURN ORIGIN CALLDATASIZE CHAINID 0x1F PUSH5 0x736F6C6343 STOP ADDMOD 0x22 STOP CALLER "
		},
		"gasEstimates": {
			"creation": {
				"codeDepositCost": "3116200",
				"executionCost": "infinite",
				"totalCost": "infinite"
			},
			"external": {
				"algebraSwapCallback(int256,int256,bytes)": "infinite",
				"approveIfNeeded(address,address,uint256)": "infinite",
				"balancerVault()": "infinite",
				"executeArb(address,uint256,(address,uint256,uint256,bytes32,(address,uint256,bytes)[]))": "infinite",
				"kyberElasticFactory()": "infinite",
				"operators(address)": "2879",
				"owner()": "2552",
				"preApprove(address,address)": "infinite",
				"quickswapV3Factory()": "infinite",
				"receiveFlashLoan(address[],uint256[],uint256[],bytes)": "infinite",
				"rescueNative(address,uint256)": "infinite",
				"rescueToken(address,address,uint256)": "infinite",
				"setOperator(address,bool)": "infinite",
				"sushiV3Factory()": "infinite",
				"swapCallback(int256,int256,bytes)": "infinite",
				"transferOwnership(address)": "30651",
				"uniswapV3Factory()": "infinite",
				"uniswapV3SwapCallback(int256,int256,bytes)": "infinite"
			},
			"internal": {
				"_assertProfit()": "infinite",
				"_clearExecutionContext()": "63583",
				"_executeCalls(struct ArbExecutor.Call memory[] memory)": "infinite",
				"_handlePoolSwapCallback(uint8,int256,int256,bytes calldata)": "infinite",
				"_resolveExpectedPool(struct ArbExecutor.CallbackData memory)": "infinite",
				"_safeAllowance(address,address,address)": "infinite",
				"_safeApprove(address,address,uint256)": "infinite",
				"_safeApproveMaxIfNeeded(address,address,uint256)": "infinite",
				"_safeTransfer(address,address,uint256)": "infinite"
			}
		},
		"methodIdentifiers": {
			"algebraSwapCallback(int256,int256,bytes)": "2c8958f6",
			"approveIfNeeded(address,address,uint256)": "fad6b994",
			"balancerVault()": "158274a5",
			"executeArb(address,uint256,(address,uint256,uint256,bytes32,(address,uint256,bytes)[]))": "491e69d3",
			"kyberElasticFactory()": "78ed1c8c",
			"operators(address)": "13e7c9d8",
			"owner()": "8da5cb5b",
			"preApprove(address,address)": "b4656158",
			"quickswapV3Factory()": "4dad71d5",
			"receiveFlashLoan(address[],uint256[],uint256[],bytes)": "f04f2707",
			"rescueNative(address,uint256)": "1291f79d",
			"rescueToken(address,address,uint256)": "e5711e8b",
			"setOperator(address,bool)": "558a7297",
			"sushiV3Factory()": "669d6be2",
			"swapCallback(int256,int256,bytes)": "fa483e72",
			"transferOwnership(address)": "f2fde38b",
			"uniswapV3Factory()": "5b549182",
			"uniswapV3SwapCallback(int256,int256,bytes)": "fa461e33"
		}
	},
	"abi": [
		{
			"inputs": [
				{
					"internalType": "address",
					"name": "owner_",
					"type": "address"
				},
				{
					"internalType": "address",
					"name": "balancerVault_",
					"type": "address"
				},
				{
					"internalType": "address",
					"name": "uniswapV3Factory_",
					"type": "address"
				},
				{
					"internalType": "address",
					"name": "sushiV3Factory_",
					"type": "address"
				},
				{
					"internalType": "address",
					"name": "quickswapV3Factory_",
					"type": "address"
				},
				{
					"internalType": "address",
					"name": "kyberElasticFactory_",
					"type": "address"
				}
			],
			"stateMutability": "nonpayable",
			"type": "constructor"
		},
		{
			"inputs": [
				{
					"internalType": "address",
					"name": "token",
					"type": "address"
				},
				{
					"internalType": "address",
					"name": "spender",
					"type": "address"
				}
			],
			"name": "ApproveFailed",
			"type": "error"
		},
		{
			"inputs": [],
			"name": "CallbackOnly",
			"type": "error"
		},
		{
			"inputs": [],
			"name": "DeadlineExpired",
			"type": "error"
		},
		{
			"inputs": [],
			"name": "EmptyRoute",
			"type": "error"
		},
		{
			"inputs": [
				{
					"internalType": "uint256",
					"name": "index",
					"type": "uint256"
				},
				{
					"internalType": "address",
					"name": "target",
					"type": "address"
				},
				{
					"internalType": "bytes",
					"name": "reason",
					"type": "bytes"
				}
			],
			"name": "ExternalCallFailed",
			"type": "error"
		},
		{
			"inputs": [],
			"name": "FlashLoanOnly",
			"type": "error"
		},
		{
			"inputs": [],
			"name": "FlashLoanRequired",
			"type": "error"
		},
		{
			"inputs": [
				{
					"internalType": "uint256",
					"name": "finalBalance",
					"type": "uint256"
				},
				{
					"internalType": "uint256",
					"name": "requiredBalance",
					"type": "uint256"
				}
			],
			"name": "InsufficientProfit",
			"type": "error"
		},
		{
			"inputs": [],
			"name": "InvalidCallbackSource",
			"type": "error"
		},
		{
			"inputs": [],
			"name": "InvalidFlashLoanContext",
			"type": "error"
		},
		{
			"inputs": [
				{
					"internalType": "address",
					"name": "expected",
					"type": "address"
				},
				{
					"internalType": "address",
					"name": "actual",
					"type": "address"
				}
			],
			"name": "InvalidPoolCaller",
			"type": "error"
		},
		{
			"inputs": [],
			"name": "InvalidRouteHash",
			"type": "error"
		},
		{
			"inputs": [],
			"name": "TooManyCalls",
			"type": "error"
		},
		{
			"inputs": [
				{
					"internalType": "address",
					"name": "token",
					"type": "address"
				},
				{
					"internalType": "address",
					"name": "to",
					"type": "address"
				},
				{
					"internalType": "uint256",
					"name": "amount",
					"type": "uint256"
				}
			],
			"name": "TransferFailed",
			"type": "error"
		},
		{
			"inputs": [],
			"name": "Unauthorized",
			"type": "error"
		},
		{
			"inputs": [
				{
					"internalType": "uint8",
					"name": "protocolId",
					"type": "uint8"
				}
			],
			"name": "UnsupportedProtocol",
			"type": "error"
		},
		{
			"inputs": [],
			"name": "ZeroAddress",
			"type": "error"
		},
		{
			"anonymous": false,
			"inputs": [
				{
					"indexed": true,
					"internalType": "address",
					"name": "executor",
					"type": "address"
				},
				{
					"indexed": true,
					"internalType": "address",
					"name": "profitToken",
					"type": "address"
				},
				{
					"indexed": false,
					"internalType": "uint256",
					"name": "profitAmount",
					"type": "uint256"
				},
				{
					"indexed": true,
					"internalType": "bytes32",
					"name": "routeHash",
					"type": "bytes32"
				},
				{
					"indexed": false,
					"internalType": "address",
					"name": "flashProvider",
					"type": "address"
				}
			],
			"name": "ArbitrageExecuted",
			"type": "event"
		},
		{
			"anonymous": false,
			"inputs": [
				{
					"indexed": true,
					"internalType": "address",
					"name": "to",
					"type": "address"
				},
				{
					"indexed": false,
					"internalType": "uint256",
					"name": "amount",
					"type": "uint256"
				}
			],
			"name": "NativeRescued",
			"type": "event"
		},
		{
			"anonymous": false,
			"inputs": [
				{
					"indexed": true,
					"internalType": "address",
					"name": "operator",
					"type": "address"
				},
				{
					"indexed": false,
					"internalType": "bool",
					"name": "allowed",
					"type": "bool"
				}
			],
			"name": "OperatorSet",
			"type": "event"
		},
		{
			"anonymous": false,
			"inputs": [
				{
					"indexed": true,
					"internalType": "address",
					"name": "previousOwner",
					"type": "address"
				},
				{
					"indexed": true,
					"internalType": "address",
					"name": "newOwner",
					"type": "address"
				}
			],
			"name": "OwnershipTransferred",
			"type": "event"
		},
		{
			"anonymous": false,
			"inputs": [
				{
					"indexed": true,
					"internalType": "address",
					"name": "token",
					"type": "address"
				},
				{
					"indexed": true,
					"internalType": "address",
					"name": "spender",
					"type": "address"
				}
			],
			"name": "PreApproved",
			"type": "event"
		},
		{
			"anonymous": false,
			"inputs": [
				{
					"indexed": true,
					"internalType": "address",
					"name": "token",
					"type": "address"
				},
				{
					"indexed": true,
					"internalType": "address",
					"name": "to",
					"type": "address"
				},
				{
					"indexed": false,
					"internalType": "uint256",
					"name": "amount",
					"type": "uint256"
				}
			],
			"name": "TokenRescued",
			"type": "event"
		},
		{
			"inputs": [
				{
					"internalType": "int256",
					"name": "amount0Delta",
					"type": "int256"
				},
				{
					"internalType": "int256",
					"name": "amount1Delta",
					"type": "int256"
				},
				{
					"internalType": "bytes",
					"name": "data",
					"type": "bytes"
				}
			],
			"name": "algebraSwapCallback",
			"outputs": [],
			"stateMutability": "nonpayable",
			"type": "function"
		},
		{
			"inputs": [
				{
					"internalType": "address",
					"name": "token",
					"type": "address"
				},
				{
					"internalType": "address",
					"name": "spender",
					"type": "address"
				},
				{
					"internalType": "uint256",
					"name": "amount",
					"type": "uint256"
				}
			],
			"name": "approveIfNeeded",
			"outputs": [],
			"stateMutability": "nonpayable",
			"type": "function"
		},
		{
			"inputs": [],
			"name": "balancerVault",
			"outputs": [
				{
					"internalType": "address",
					"name": "",
					"type": "address"
				}
			],
			"stateMutability": "view",
			"type": "function"
		},
		{
			"inputs": [
				{
					"internalType": "address",
					"name": "flashToken",
					"type": "address"
				},
				{
					"internalType": "uint256",
					"name": "flashAmount",
					"type": "uint256"
				},
				{
					"components": [
						{
							"internalType": "address",
							"name": "profitToken",
							"type": "address"
						},
						{
							"internalType": "uint256",
							"name": "minProfit",
							"type": "uint256"
						},
						{
							"internalType": "uint256",
							"name": "deadline",
							"type": "uint256"
						},
						{
							"internalType": "bytes32",
							"name": "routeHash",
							"type": "bytes32"
						},
						{
							"components": [
								{
									"internalType": "address",
									"name": "target",
									"type": "address"
								},
								{
									"internalType": "uint256",
									"name": "value",
									"type": "uint256"
								},
								{
									"internalType": "bytes",
									"name": "data",
									"type": "bytes"
								}
							],
							"internalType": "struct ArbExecutor.Call[]",
							"name": "calls",
							"type": "tuple[]"
						}
					],
					"internalType": "struct ArbExecutor.FlashParams",
					"name": "params",
					"type": "tuple"
				}
			],
			"name": "executeArb",
			"outputs": [],
			"stateMutability": "nonpayable",
			"type": "function"
		},
		{
			"inputs": [],
			"name": "kyberElasticFactory",
			"outputs": [
				{
					"internalType": "address",
					"name": "",
					"type": "address"
				}
			],
			"stateMutability": "view",
			"type": "function"
		},
		{
			"inputs": [
				{
					"internalType": "address",
					"name": "",
					"type": "address"
				}
			],
			"name": "operators",
			"outputs": [
				{
					"internalType": "bool",
					"name": "",
					"type": "bool"
				}
			],
			"stateMutability": "view",
			"type": "function"
		},
		{
			"inputs": [],
			"name": "owner",
			"outputs": [
				{
					"internalType": "address",
					"name": "",
					"type": "address"
				}
			],
			"stateMutability": "view",
			"type": "function"
		},
		{
			"inputs": [
				{
					"internalType": "address",
					"name": "token",
					"type": "address"
				},
				{
					"internalType": "address",
					"name": "spender",
					"type": "address"
				}
			],
			"name": "preApprove",
			"outputs": [],
			"stateMutability": "nonpayable",
			"type": "function"
		},
		{
			"inputs": [],
			"name": "quickswapV3Factory",
			"outputs": [
				{
					"internalType": "address",
					"name": "",
					"type": "address"
				}
			],
			"stateMutability": "view",
			"type": "function"
		},
		{
			"inputs": [
				{
					"internalType": "contract IERC20Minimal[]",
					"name": "tokens",
					"type": "address[]"
				},
				{
					"internalType": "uint256[]",
					"name": "amounts",
					"type": "uint256[]"
				},
				{
					"internalType": "uint256[]",
					"name": "feeAmounts",
					"type": "uint256[]"
				},
				{
					"internalType": "bytes",
					"name": "userData",
					"type": "bytes"
				}
			],
			"name": "receiveFlashLoan",
			"outputs": [],
			"stateMutability": "nonpayable",
			"type": "function"
		},
		{
			"inputs": [
				{
					"internalType": "address payable",
					"name": "to",
					"type": "address"
				},
				{
					"internalType": "uint256",
					"name": "amount",
					"type": "uint256"
				}
			],
			"name": "rescueNative",
			"outputs": [],
			"stateMutability": "nonpayable",
			"type": "function"
		},
		{
			"inputs": [
				{
					"internalType": "address",
					"name": "token",
					"type": "address"
				},
				{
					"internalType": "address",
					"name": "to",
					"type": "address"
				},
				{
					"internalType": "uint256",
					"name": "amount",
					"type": "uint256"
				}
			],
			"name": "rescueToken",
			"outputs": [],
			"stateMutability": "nonpayable",
			"type": "function"
		},
		{
			"inputs": [
				{
					"internalType": "address",
					"name": "operator",
					"type": "address"
				},
				{
					"internalType": "bool",
					"name": "allowed",
					"type": "bool"
				}
			],
			"name": "setOperator",
			"outputs": [],
			"stateMutability": "nonpayable",
			"type": "function"
		},
		{
			"inputs": [],
			"name": "sushiV3Factory",
			"outputs": [
				{
					"internalType": "address",
					"name": "",
					"type": "address"
				}
			],
			"stateMutability": "view",
			"type": "function"
		},
		{
			"inputs": [
				{
					"internalType": "int256",
					"name": "deltaQty0",
					"type": "int256"
				},
				{
					"internalType": "int256",
					"name": "deltaQty1",
					"type": "int256"
				},
				{
					"internalType": "bytes",
					"name": "data",
					"type": "bytes"
				}
			],
			"name": "swapCallback",
			"outputs": [],
			"stateMutability": "nonpayable",
			"type": "function"
		},
		{
			"inputs": [
				{
					"internalType": "address",
					"name": "newOwner",
					"type": "address"
				}
			],
			"name": "transferOwnership",
			"outputs": [],
			"stateMutability": "nonpayable",
			"type": "function"
		},
		{
			"inputs": [],
			"name": "uniswapV3Factory",
			"outputs": [
				{
					"internalType": "address",
					"name": "",
					"type": "address"
				}
			],
			"stateMutability": "view",
			"type": "function"
		},
		{
			"inputs": [
				{
					"internalType": "int256",
					"name": "amount0Delta",
					"type": "int256"
				},
				{
					"internalType": "int256",
					"name": "amount1Delta",
					"type": "int256"
				},
				{
					"internalType": "bytes",
					"name": "data",
					"type": "bytes"
				}
			],
			"name": "uniswapV3SwapCallback",
			"outputs": [],
			"stateMutability": "nonpayable",
			"type": "function"
		},
		{
			"stateMutability": "payable",
			"type": "receive"
		}
	]
}